{
  "_format": "hh-sol-artifact-1",
  "contractName": "PrngSystemContract",
  "sourceName": "contracts/system-contracts/pseudo-random-number-generator/PrngSystemContract.sol",
  "abi": [
    {
      "anonymous": false,
      "inputs": [
        {
          "indexed": false,
          "internalType": "bytes32",
          "name": "seedBytes",
          "type": "bytes32"
        }
      ],
      "name": "PseudoRandomSeed",
      "type": "event"
    },
    {
      "inputs": [],
      "name": "getPseudorandomSeed",
      "outputs": [
        {
          "internalType": "bytes32",
          "name": "seedBytes",
          "type": "bytes32"
        }
      ],
      "stateMutability": "nonpayable",
      "type": "function"
    }
  ],
  "bytecode": "0x608080604052346015576101a6908161001b8239f35b600080fdfe608080604052600436101561001357600080fd5b60003560e01c63d83bf9a11461002857600080fd5b346100e65760003660031901126100e65760008160208293019063d83bf9a160e01b82526004815261005b60248261014e565b5190826101695af13d15610146573d9067ffffffffffffffff82116101305760405191610092601f8201601f19166020018461014e565b82523d6000602084013e5b156100eb576020818051810103126100e6576020809101517f597d607a3790e8d60862649d1fef7e222a0160226d4648901d47e03c6f056f6682604051838152a1604051908152f35b600080fd5b60405162461bcd60e51b815260206004820152601760248201527f50524e472073797374656d2063616c6c206661696c65640000000000000000006044820152606490fd5b634e487b7160e01b600052604160045260246000fd5b60609061009d565b90601f8019910116810190811067ffffffffffffffff8211176101305760405256fea2646970667358221220c84439aac402e33decae500953fa2067769f73f1483c213da02150357e2627a164736f6c634300081d0033",
  "linkReferences": {},
  "deployedLinkReferences": {}
}