{
  "_format": "hh-sol-artifact-1",
  "contractName": "SafeOperations",
  "sourceName": "contracts/system-contracts/hedera-token-service/safe-hts/SafeOperations.sol",
  "abi": [
    {
      "inputs": [],
      "name": "ApproveFailed",
      "type": "error"
    },
    {
      "inputs": [],
      "name": "BurnFailed",
      "type": "error"
    },
    {
      "inputs": [],
      "name": "CreateFungibleTokenFailed",
      "type": "error"
    },
    {
      "inputs": [],
      "name": "CreateFungibleTokenWithCustomFeesFailed",
      "type": "error"
    },
    {
      "inputs": [],
      "name": "CreateNonFungibleTokenFailed",
      "type": "error"
    },
    {
      "inputs": [],
      "name": "CreateNonFungibleTokenWithCustomFeesFailed",
      "type": "error"
    },
    {
      "inputs": [],
      "name": "CryptoTransferFailed",
      "type": "error"
    },
    {
      "inputs": [],
      "name": "FreezeTokenFailed",
      "type": "error"
    },
    {
      "inputs": [],
      "name": "GrantTokenKYCFailed",
      "type": "error"
    },
    {
      "inputs": [],
      "name": "MintFailed",
      "type": "error"
    },
    {
      "inputs": [],
      "name": "MultipleAssociationsFailed",
      "type": "error"
    },
    {
      "inputs": [],
      "name": "MultipleDissociationsFailed",
      "type": "error"
    },
    {
      "inputs": [],
      "name": "NFTApproveFailed",
      "type": "error"
    },
    {
      "inputs": [],
      "name": "NFTTransferFailed",
      "type": "error"
    },
    {
      "inputs": [],
      "name": "NFTsTransferFailed",
      "type": "error"
    },
    {
      "inputs": [],
      "name": "PauseTokenFailed",
      "type": "error"
    },
    {
      "inputs": [],
      "name": "RevokeTokenKYCFailed",
      "type": "error"
    },
    {
      "inputs": [],
      "name": "SetTokenApprovalForAllFailed",
      "type": "error"
    },
    {
      "inputs": [],
      "name": "SingleAssociationFailed",
      "type": "error"
    },
    {
      "inputs": [],
      "name": "SingleDissociationFailed",
      "type": "error"
    },
    {
      "inputs": [],
      "name": "TokenDeleteFailed",
      "type": "error"
    },
    {
      "inputs": [],
      "name": "TokenTransferFailed",
      "type": "error"
    },
    {
      "inputs": [],
      "name": "TokensTransferFailed",
      "type": "error"
    },
    {
      "inputs": [],
      "name": "UnfreezeTokenFailed",
      "type": "error"
    },
    {
      "inputs": [],
      "name": "UnpauseTokenFailed",
      "type": "error"
    },
    {
      "inputs": [],
      "name": "UpdateTokenExpiryInfoFailed",
      "type": "error"
    },
    {
      "inputs": [],
      "name": "UpdateTokenInfoFailed",
      "type": "error"
    },
    {
      "inputs": [],
      "name": "UpdateTokenKeysFailed",
      "type": "error"
    },
    {
      "inputs": [],
      "name": "WipeTokenAccountFailed",
      "type": "error"
    },
    {
      "inputs": [],
      "name": "WipeTokenAccountNFTFailed",
      "type": "error"
    },
    {
      "anonymous": false,
      "inputs": [
        {
          "indexed": false,
          "internalType": "int64",
          "name": "",
          "type": "int64"
        }
      ],
      "name": "BurnToken",
      "type": "event"
    },
    {
      "anonymous": false,
      "inputs": [
        {
          "indexed": false,
          "internalType": "int64[]",
          "name": "",
          "type": "int64[]"
        },
        {
          "indexed": false,
          "internalType": "int64",
          "name": "",
          "type": "int64"
        }
      ],
      "name": "MintedNft",
      "type": "event"
    },
    {
      "anonymous": false,
      "inputs": [
        {
          "indexed": false,
          "internalType": "int32",
          "name": "",
          "type": "int32"
        }
      ],
      "name": "ResponseCode",
      "type": "event"
    },
    {
      "anonymous": false,
      "inputs": [
        {
          "indexed": false,
          "internalType": "address",
          "name": "",
          "type": "address"
        }
      ],
      "name": "TokenCreated",
      "type": "event"
    },
    {
      "inputs": [
        {
          "internalType": "address",
          "name": "token",
          "type": "address"
        },
        {
          "internalType": "address",
          "name": "approved",
          "type": "address"
        },
        {
          "internalType": "int64",
          "name": "serialNumber",
          "type": "int64"
        }
      ],
      "name": "safeApproveNFTPublic",
      "outputs": [],
      "stateMutability": "nonpayable",
      "type": "function"
    },
    {
      "inputs": [
        {
          "internalType": "address",
          "name": "token",
          "type": "address"
        },
        {
          "internalType": "address",
          "name": "spender",
          "type": "address"
        },
        {
          "internalType": "uint256",
          "name": "amount",
          "type": "uint256"
        }
      ],
      "name": "safeApprovePublic",
      "outputs": [],
      "stateMutability": "nonpayable",
      "type": "function"
    },
    {
      "inputs": [
        {
          "internalType": "address",
          "name": "sender",
          "type": "address"
        },
        {
          "internalType": "address",
          "name": "tokenAddress",
          "type": "address"
        }
      ],
      "name": "safeAssociateTokenPublic",
      "outputs": [],
      "stateMutability": "nonpayable",
      "type": "function"
    },
    {
      "inputs": [
        {
          "internalType": "address",
          "name": "account",
          "type": "address"
        },
        {
          "internalType": "address[]",
          "name": "tokens",
          "type": "address[]"
        }
      ],
      "name": "safeAssociateTokensPublic",
      "outputs": [],
      "stateMutability": "nonpayable",
      "type": "function"
    },
    {
      "inputs": [
        {
          "internalType": "address",
          "name": "token",
          "type": "address"
        },
        {
          "internalType": "int64",
          "name": "amount",
          "type": "int64"
        },
        {
          "internalType": "int64[]",
          "name": "serialNumbers",
          "type": "int64[]"
        }
      ],
      "name": "safeBurnTokenPublic",
      "outputs": [
        {
          "internalType": "int64",
          "name": "newTotalSupply",
          "type": "int64"
        }
      ],
      "stateMutability": "nonpayable",
      "type": "function"
    },
    {
      "inputs": [],
      "name": "safeCreateFungibleTokenPublic",
      "outputs": [
        {
          "internalType": "address",
          "name": "tokenAddress",
          "type": "address"
        }
      ],
      "stateMutability": "payable",
      "type": "function"
    },
    {
      "inputs": [
        {
          "internalType": "address",
          "name": "feeCollector",
          "type": "address"
        },
        {
          "internalType": "address",
          "name": "existingTokenAddress",
          "type": "address"
        }
      ],
      "name": "safeCreateFungibleTokenWithCustomFeesPublic",
      "outputs": [
        {
          "internalType": "address",
          "name": "tokenAddress",
          "type": "address"
        }
      ],
      "stateMutability": "payable",
      "type": "function"
    },
    {
      "inputs": [],
      "name": "safeCreateNonFungibleTokenPublic",
      "outputs": [
        {
          "internalType": "address",
          "name": "tokenAddress",
          "type": "address"
        }
      ],
      "stateMutability": "payable",
      "type": "function"
    },
    {
      "inputs": [
        {
          "internalType": "address",
          "name": "feeCollector",
          "type": "address"
        },
        {
          "internalType": "address",
          "name": "existingTokenAddress",
          "type": "address"
        }
      ],
      "name": "safeCreateNonFungibleTokenWithCustomFeesPublic",
      "outputs": [
        {
          "internalType": "address",
          "name": "tokenAddress",
          "type": "address"
        }
      ],
      "stateMutability": "payable",
      "type": "function"
    },
    {
      "inputs": [
        {
          "components": [
            {
              "components": [
                {
                  "internalType": "address",
                  "name": "accountID",
                  "type": "address"
                },
                {
                  "internalType": "int64",
                  "name": "amount",
                  "type": "int64"
                },
                {
                  "internalType": "bool",
                  "name": "isApproval",
                  "type": "bool"
                }
              ],
              "internalType": "struct IHederaTokenService.AccountAmount[]",
              "name": "transfers",
              "type": "tuple[]"
            }
          ],
          "internalType": "struct IHederaTokenService.TransferList",
          "name": "transferList",
          "type": "tuple"
        },
        {
          "components": [
            {
              "internalType": "address",
              "name": "token",
              "type": "address"
            },
            {
              "components": [
                {
                  "internalType": "address",
                  "name": "accountID",
                  "type": "address"
                },
                {
                  "internalType": "int64",
                  "name": "amount",
                  "type": "int64"
                },
                {
                  "internalType": "bool",
                  "name": "isApproval",
                  "type": "bool"
                }
              ],
              "internalType": "struct IHederaTokenService.AccountAmount[]",
              "name": "transfers",
              "type": "tuple[]"
            },
            {
              "components": [
                {
                  "internalType": "address",
                  "name": "senderAccountID",
                  "type": "address"
                },
                {
                  "internalType": "address",
                  "name": "receiverAccountID",
                  "type": "address"
                },
                {
                  "internalType": "int64",
                  "name": "serialNumber",
                  "type": "int64"
                },
                {
                  "internalType": "bool",
                  "name": "isApproval",
                  "type": "bool"
                }
              ],
              "internalType": "struct IHederaTokenService.NftTransfer[]",
              "name": "nftTransfers",
              "type": "tuple[]"
            }
          ],
          "internalType": "struct IHederaTokenService.TokenTransferList[]",
          "name": "tokenTransferList",
          "type": "tuple[]"
        }
      ],
      "name": "safeCryptoTransferPublic",
      "outputs": [],
      "stateMutability": "nonpayable",
      "type": "function"
    },
    {
      "inputs": [
        {
          "internalType": "address",
          "name": "token",
          "type": "address"
        }
      ],
      "name": "safeDeleteTokenPublic",
      "outputs": [],
      "stateMutability": "nonpayable",
      "type": "function"
    },
    {
      "inputs": [
        {
          "internalType": "address",
          "name": "sender",
          "type": "address"
        },
        {
          "internalType": "address",
          "name": "tokenAddress",
          "type": "address"
        }
      ],
      "name": "safeDissociateTokenPublic",
      "outputs": [],
      "stateMutability": "nonpayable",
      "type": "function"
    },
    {
      "inputs": [
        {
          "internalType": "address",
          "name": "account",
          "type": "address"
        },
        {
          "internalType": "address[]",
          "name": "tokens",
          "type": "address[]"
        }
      ],
      "name": "safeDissociateTokensPublic",
      "outputs": [],
      "stateMutability": "nonpayable",
      "type": "function"
    },
    {
      "inputs": [
        {
          "internalType": "address",
          "name": "token",
          "type": "address"
        },
        {
          "internalType": "address",
          "name": "account",
          "type": "address"
        }
      ],
      "name": "safeFreezeTokenPublic",
      "outputs": [],
      "stateMutability": "nonpayable",
      "type": "function"
    },
    {
      "inputs": [
        {
          "internalType": "address",
          "name": "token",
          "type": "address"
        },
        {
          "internalType": "address",
          "name": "account",
          "type": "address"
        }
      ],
      "name": "safeGrantTokenKycPublic",
      "outputs": [],
      "stateMutability": "nonpayable",
      "type": "function"
    },
    {
      "inputs": [
        {
          "internalType": "address",
          "name": "token",
          "type": "address"
        },
        {
          "internalType": "int64",
          "name": "amount",
          "type": "int64"
        },
        {
          "internalType": "bytes[]",
          "name": "metadata",
          "type": "bytes[]"
        }
      ],
      "name": "safeMintTokenPublic",
      "outputs": [
        {
          "internalType": "int64",
          "name": "newTotalSupply",
          "type": "int64"
        },
        {
          "internalType": "int64[]",
          "name": "serialNumbers",
          "type": "int64[]"
        }
      ],
      "stateMutability": "nonpayable",
      "type": "function"
    },
    {
      "inputs": [
        {
          "internalType": "address",
          "name": "token",
          "type": "address"
        }
      ],
      "name": "safePauseTokenPublic",
      "outputs": [],
      "stateMutability": "nonpayable",
      "type": "function"
    },
    {
      "inputs": [
        {
          "internalType": "address",
          "name": "token",
          "type": "address"
        },
        {
          "internalType": "address",
          "name": "account",
          "type": "address"
        }
      ],
      "name": "safeRevokeTokenKycPublic",
      "outputs": [],
      "stateMutability": "nonpayable",
      "type": "function"
    },
    {
      "inputs": [
        {
          "internalType": "address",
          "name": "token",
          "type": "address"
        },
        {
          "internalType": "address",
          "name": "operator",
          "type": "address"
        },
        {
          "internalType": "bool",
          "name": "approved",
          "type": "bool"
        }
      ],
      "name": "safeSetApprovalForAllPublic",
      "outputs": [],
      "stateMutability": "nonpayable",
      "type": "function"
    },
    {
      "inputs": [
        {
          "internalType": "address",
          "name": "token",
          "type": "address"
        },
        {
          "internalType": "address",
          "name": "sender",
          "type": "address"
        },
        {
          "internalType": "address",
          "name": "receiver",
          "type": "address"
        },
        {
          "internalType": "int64",
          "name": "serialNum",
          "type": "int64"
        }
      ],
      "name": "safeTransferNFTPublic",
      "outputs": [],
      "stateMutability": "nonpayable",
      "type": "function"
    },
    {
      "inputs": [
        {
          "internalType": "address",
          "name": "token",
          "type": "address"
        },
        {
          "internalType": "address[]",
          "name": "sender",
          "type": "address[]"
        },
        {
          "internalType": "address[]",
          "name": "receiver",
          "type": "address[]"
        },
        {
          "internalType": "int64[]",
          "name": "serialNumber",
          "type": "int64[]"
        }
      ],
      "name": "safeTransferNFTsPublic",
      "outputs": [],
      "stateMutability": "nonpayable",
      "type": "function"
    },
    {
      "inputs": [
        {
          "internalType": "address",
          "name": "token",
          "type": "address"
        },
        {
          "internalType": "address",
          "name": "sender",
          "type": "address"
        },
        {
          "internalType": "address",
          "name": "receiver",
          "type": "address"
        },
        {
          "internalType": "int64",
          "name": "amount",
          "type": "int64"
        }
      ],
      "name": "safeTransferTokenPublic",
      "outputs": [],
      "stateMutability": "nonpayable",
      "type": "function"
    },
    {
      "inputs": [
        {
          "internalType": "address",
          "name": "token",
          "type": "address"
        },
        {
          "internalType": "address[]",
          "name": "accountIds",
          "type": "address[]"
        },
        {
          "internalType": "int64[]",
          "name": "amounts",
          "type": "int64[]"
        }
      ],
      "name": "safeTransferTokensPublic",
      "outputs": [],
      "stateMutability": "nonpayable",
      "type": "function"
    },
    {
      "inputs": [
        {
          "internalType": "address",
          "name": "token",
          "type": "address"
        },
        {
          "internalType": "address",
          "name": "account",
          "type": "address"
        }
      ],
      "name": "safeUnfreezeTokenPublic",
      "outputs": [],
      "stateMutability": "nonpayable",
      "type": "function"
    },
    {
      "inputs": [
        {
          "internalType": "address",
          "name": "token",
          "type": "address"
        }
      ],
      "name": "safeUnpauseTokenPublic",
      "outputs": [],
      "stateMutability": "nonpayable",
      "type": "function"
    },
    {
      "inputs": [
        {
          "internalType": "address",
          "name": "token",
          "type": "address"
        },
        {
          "components": [
            {
              "internalType": "int64",
              "name": "second",
              "type": "int64"
            },
            {
              "internalType": "address",
              "name": "autoRenewAccount",
              "type": "address"
            },
            {
              "internalType": "int64",
              "name": "autoRenewPeriod",
              "type": "int64"
            }
          ],
          "internalType": "struct IHederaTokenService.Expiry",
          "name": "expiryInfo",
          "type": "tuple"
        }
      ],
      "name": "safeUpdateTokenExpiryInfoPublic",
      "outputs": [],
      "stateMutability": "nonpayable",
      "type": "function"
    },
    {
      "inputs": [
        {
          "internalType": "address",
          "name": "token",
          "type": "address"
        },
        {
          "components": [
            {
              "internalType": "string",
              "name": "name",
              "type": "string"
            },
            {
              "internalType": "string",
              "name": "symbol",
              "type": "string"
            },
            {
              "internalType": "address",
              "name": "treasury",
              "type": "address"
            },
            {
              "internalType": "string",
              "name": "memo",
              "type": "string"
            },
            {
              "internalType": "bool",
              "name": "tokenSupplyType",
              "type": "bool"
            },
            {
              "internalType": "int64",
              "name": "maxSupply",
              "type": "int64"
            },
            {
              "internalType": "bool",
              "name": "freezeDefault",
              "type": "bool"
            },
            {
              "components": [
                {
                  "internalType": "uint256",
                  "name": "keyType",
                  "type": "uint256"
                },
                {
                  "components": [
                    {
                      "internalType": "bool",
                      "name": "inheritAccountKey",
                      "type": "bool"
                    },
                    {
                      "internalType": "address",
                      "name": "contractId",
                      "type": "address"
                    },
                    {
                      "internalType": "bytes",
                      "name": "ed25519",
                      "type": "bytes"
                    },
                    {
                      "internalType": "bytes",
                      "name": "ECDSA_secp256k1",
                      "type": "bytes"
                    },
                    {
                      "internalType": "address",
                      "name": "delegatableContractId",
                      "type": "address"
                    }
                  ],
                  "internalType": "struct IHederaTokenService.KeyValue",
                  "name": "key",
                  "type": "tuple"
                }
              ],
              "internalType": "struct IHederaTokenService.TokenKey[]",
              "name": "tokenKeys",
              "type": "tuple[]"
            },
            {
              "components": [
                {
                  "internalType": "int64",
                  "name": "second",
                  "type": "int64"
                },
                {
                  "internalType": "address",
                  "name": "autoRenewAccount",
                  "type": "address"
                },
                {
                  "internalType": "int64",
                  "name": "autoRenewPeriod",
                  "type": "int64"
                }
              ],
              "internalType": "struct IHederaTokenService.Expiry",
              "name": "expiry",
              "type": "tuple"
            }
          ],
          "internalType": "struct IHederaTokenService.HederaToken",
          "name": "tokenInfo",
          "type": "tuple"
        }
      ],
      "name": "safeUpdateTokenInfoPublic",
      "outputs": [],
      "stateMutability": "nonpayable",
      "type": "function"
    },
    {
      "inputs": [
        {
          "internalType": "address",
          "name": "token",
          "type": "address"
        },
        {
          "components": [
            {
              "internalType": "uint256",
              "name": "keyType",
              "type": "uint256"
            },
            {
              "components": [
                {
                  "internalType": "bool",
                  "name": "inheritAccountKey",
                  "type": "bool"
                },
                {
                  "internalType": "address",
                  "name": "contractId",
                  "type": "address"
                },
                {
                  "internalType": "bytes",
                  "name": "ed25519",
                  "type": "bytes"
                },
                {
                  "internalType": "bytes",
                  "name": "ECDSA_secp256k1",
                  "type": "bytes"
                },
                {
                  "internalType": "address",
                  "name": "delegatableContractId",
                  "type": "address"
                }
              ],
              "internalType": "struct IHederaTokenService.KeyValue",
              "name": "key",
              "type": "tuple"
            }
          ],
          "internalType": "struct IHederaTokenService.TokenKey[]",
          "name": "keys",
          "type": "tuple[]"
        }
      ],
      "name": "safeUpdateTokenKeysPublic",
      "outputs": [],
      "stateMutability": "nonpayable",
      "type": "function"
    },
    {
      "inputs": [
        {
          "internalType": "address",
          "name": "token",
          "type": "address"
        },
        {
          "internalType": "address",
          "name": "account",
          "type": "address"
        },
        {
          "internalType": "int64[]",
          "name": "serialNumbers",
          "type": "int64[]"
        }
      ],
      "name": "safeWipeTokenAccountNFTPublic",
      "outputs": [],
      "stateMutability": "nonpayable",
      "type": "function"
    },
    {
      "inputs": [
        {
          "internalType": "address",
          "name": "token",
          "type": "address"
        },
        {
          "internalType": "address",
          "name": "account",
          "type": "address"
        },
        {
          "internalType": "int64",
          "name": "amount",
          "type": "int64"
        }
      ],
      "name": "safeWipeTokenAccountPublic",
      "outputs": [],
      "stateMutability": "nonpayable",
      "type": "function"
    }
  ],
  "bytecode": "0x60808060405234602257600160ff196000541617600055612ea290816100288239f35b600080fdfe608080604052600436101561001357600080fd5b60003560e01c90816304bb3987146122fe57508063075683d11461227b5780630a36520014612139578063159d16c1146120a6578063204176f214611f8b57806327877ab314611cc9578063308aba9814611c1a578063419bb75d14611b71578063567faa0d14611b0557806372fffaad146119dc578063755d4c1b1461195957806386010168146118c657806388ccc3f31461180857806390c597d9146117685780639c95ceea1461149e578063a83f96791461140b578063abe7564314611027578063adece39a14610f94578063b1897fe414610f28578063b91d8ec214610e95578063bb3a563014610e03578063be7f2ed714610d22578063bea8e32e146109f0578063ce2e3c8914610952578063da4d7d29146108b2578063dfc868eb14610830578063e9adf74514610736578063edf8e822146106a3578063f222723a1461038e5763f5ca7b341461016957600080fd5b346103895760403660031901126103895761018261238c565b6024356001600160401b038111610389578036039061016060031983011261038957604051916101b183612488565b81600401356001600160401b038111610389576101d490600436918501016125e9565b835260248201356001600160401b038111610389576101f990600436918501016125e9565b602084015261020a604483016123b8565b604084015260648201356001600160401b0381116103895761023290600436918501016125e9565b6060840152610243608483016125c1565b608084015261025460a483016123ec565b60a084015261026560c483016125c1565b60c084015260e4820135906001600160401b038211610389576102906060926004369186010161262e565b60e0850152610103190112610389576103589261033461034260009485946102e8610144604051926102c184612452565b6102ce61010482016123ec565b84526102dd61012482016123b8565b6020850152016123ec565b60408201526101008201526102fc81612df1565b60408051633e982e7d60e11b602082019081526001600160a01b03909616602482015260448101919091529283916064830190612ba0565b03601f1981018352826124bf565b5190826101675af161035261298b565b90612dc0565b1561037857600080516020612e2d833981519152602060405160168152a1005b63c2f7c6d760e01b60005260046000fd5b600080fd5b6040366003190112610389576103a261238c565b6103aa6123a2565b906103b3612858565b906103bc6127e6565b82526103c661280d565b60208301526103d3612836565b6060830152306040830152608092604051916103ef85846124bf565b60038352601f19850160005b81811061068c57505061040c612d0b565b60048152600560208201526001600160a01b0390911660a0820181905290610432612d0b565b916004835260056020840152600a6040840152600060608401526001878401528060a0840152610460612d0b565b6004815260056020820152600a60408201526001600160a01b03909416606085015260008785015260a084015261049684612a40565b526104a083612a40565b506104aa83612a63565b526104b482612a63565b506104be82612a73565b526104c881612a73565b506040519260006104da6020866124bf565b84526000805b8181106106755750506104f283612df1565b61052e6040519461051c602087019563abb54eb560e01b8752606060248901526084880190612ba0565b86810360231901604488015290612d4c565b602319858203016064860152602080845192838152019301916000905b82821061061057600080878961056a818a03601f1981018352826124bf565b5190346101675af161057a61298b565b90156106045761059581602080601694518301019101612c61565b6001600160a01b0316919060030b5b60030b036105f3576040516001600160a01b03909116808252602091600080516020612e4d833981519152908390a1600080516020612e2d8339815191528260405160168152a1604051908152f35b63893b894d60e01b60005260046000fd5b506000601660156105a4565b90919293602060c06001928751805160070b82528381015160070b84830152604081015160070b6040830152848060a01b0360608201511660608301528581015115158683015260a08580821b039101511660a082015201950192019092919261054b565b602090610680612960565b828289010152016104e0565b602090610697612d0b565b828288010152016103fb565b34610389576040366003190112610389576107056000806106c261238c565b6103346103426106d06123a2565b60405163248a35ef60e11b602082019081526001600160a01b0395861660248301529490911660448201529182906064820190565b1561072557600080516020612e2d833981519152602060405160168152a1005b630aadd01b60e31b60005260046000fd5b346103895760803660031901126103895761074f61238c565b60603660231901126103895760405161076781612452565b6024358060070b81036103895781526044356001600160a01b03811681036103895760208201526064358060070b81036103895760408083019182525163d27be6cd60e01b60208083019182526001600160a01b0380871660248501528551600790810b604486015291909501519094166064830152915190920b60848301526107ff9160009182916084815261034260a4826124bf565b1561081f57600080516020612e2d833981519152602060405160168152a1005b63c779f09560e01b60005260046000fd5b346103895760203660031901126103895761088260008061084f61238c565b604051637834fb8960e11b602082019081526001600160a01b0390921660248083019190915281526103426044826124bf565b156108a257600080516020612e2d833981519152602060405160168152a1005b62b4909160e51b60005260046000fd5b34610389576060366003190112610389576109216000806108d161238c565b6108d96123a2565b6103426108e46123dc565b6040516307336aaf60e41b602082019081526001600160a01b03958616602483015294909316604484015260070b60648301528160848101610334565b1561094157600080516020612e2d833981519152602060405160168152a1005b6323241c4960e01b60005260046000fd5b34610389576060366003190112610389576109bf60008061097161238c565b6109796123a2565b60405163e1f21c6760e01b602082019081526001600160a01b039384166024830152929091166044808301919091523560648083019190915281526103426084826124bf565b156109df57600080516020612e2d833981519152602060405160168152a1005b633e3f8f7360e01b60005260046000fd5b604036600319011261038957610a0461238c565b610a0c6123a2565b90610a15612858565b90610a1e6127e6565b8252610a2861280d565b6020830152306040830152604051906080610a4381846124bf565b60038352601f190160005b818110610cf5575050610a5f612960565b600181526001600160a01b03948516602082015293166080840181905292610a85612960565b6002815260016040820152846080820152610a9e612960565b916004835260016060840152856080840152610ab984612a40565b52610ac383612a40565b50610acd83612a63565b52610ad782612a63565b50610ae182612a73565b52610aeb81612a73565b50604092835190610afc85836124bf565b60018252601f19850160005b818110610cde575050610b19612d0b565b906004825260056020830152600a86830152601e60608301526001608083015260a0820152610b4782612a40565b52610b5181612a40565b50610b5b83612df1565b610ba4845192610b84602085019563157862cd60e11b875260a0602487015260c4860190612ba0565b60c860448601526008606486015284810360231901608486015290612d4c565b6023198382030160a48401526020808351928381520192019060005b818110610c7f57866000808888610be0818a03601f1981018352826124bf565b5190346101675af1610bf061298b565b9015610c7357610c0b81602080601694518301019101612c61565b6001600160a01b0316919060030b5b60030b03610c625781600080516020612e4d83398151915260208094519360018060a01b031693848152a1600080516020612e2d83398151915283825160168152a151908152f35b6351aeaaf760e11b60005260046000fd5b50600060166015610c1a565b909192602060c06001928651805160070b82528381015160070b848301528a81015160070b8b830152606081015160070b606083015260808101511515608083015260a08580821b039101511660a08201520194019101919091610bc0565b602090610ce9612d0b565b82828701015201610b08565b602090610d00612960565b82828701015201610a4e565b634e487b7160e01b600052604160045260246000fd5b3461038957606036600319011261038957610d3b61238c565b6024356001600160401b03811161038957610d5a90369060040161255c565b6044356001600160401b03811161038957610dd292610dc0610342600094610334610d8a879636906004016124f7565b6040516382bba49360e01b602082019081526001600160a01b0390971660248201526060604482015294859360848501906129d7565b838103602319016064850152906127af565b15610df257600080516020612e2d833981519152602060405160168152a1005b63311bf68160e11b60005260046000fd5b3461038957610e64600080610342610334610e1d366123fa565b604051635cfc901160e01b602082019081526001600160a01b039586166024830152938516604482015293909116606484015260070b6084830152929091829060a4820190565b15610e8457600080516020612e2d833981519152602060405160168152a1005b6308c0b8b360e31b60005260046000fd5b3461038957604036600319011261038957610ef7600080610eb461238c565b610334610342610ec26123a2565b6040516352f9138760e01b602082019081526001600160a01b0395861660248301529490911660448201529182906064820190565b15610f1757600080516020612e2d833981519152602060405160168152a1005b633b85464b60e11b60005260046000fd5b3461038957610f63600080610342610334610f423661276d565b6040939193519283916020830195632e63879b60e01b875260248401612c8e565b15610f8357600080516020612e2d833981519152602060405160168152a1005b6304abe53f60e51b60005260046000fd5b3461038957604036600319011261038957610ff6600080610fb361238c565b610334610342610fc16123a2565b604051638f8d7f9960e01b602082019081526001600160a01b0395861660248301529490911660448201529182906064820190565b1561101657600080516020612e2d833981519152602060405160168152a1005b630fe6b06560e11b60005260046000fd5b34610389576040366003190112610389576004356001600160401b038111610389576020600319823603011261038957602435906001600160401b03821161038957366023830112156103895781600401356001600160401b0381116103895760248160051b840101923684116103895760009360405193602085018581106001600160401b038211176113f7576040528060040135906001600160401b0382116113f3576110e09060048896959493369201016128c0565b85526110eb836124e0565b926110f960405194856124bf565b835260208301809260248101915b8383106112775750505050604051916111416020840195630e71804f60e01b87526040602486015251602060648601526084850190612cb0565b9060231984830301604485015251808252602082019160208260051b820101939286915b8383106111b6578761118781808c8b610342818d03601f1981018352826124bf565b156111a857600080516020612e2d833981519152602060405160168152a180f35b62eebe6360e81b8152600490fd5b91939596509193601f19828203018352855160018060a01b03815116825260406111ef6020830151606060208601526060850190612cb0565b910151916040818303910152602080835192838152019201908a905b80821061122e575050506020806001929701930193019092889695949293611165565b9091926020608060019260608751858060a01b038151168352858060a01b03858201511685840152604081015160070b604084015201511515606082015201940192019061120b565b9091809394959650356001600160401b0381116113ef578201606060231982360301126113ef57604051906112ab82612452565b6112b7602482016123b8565b825260448101356001600160401b0381116113eb576112dc90602436918401016128c0565b602083015260648101356001600160401b0381116113eb57602491010136601f820112156113e757803561130f816124e0565b9161131d60405193846124bf565b81835260208084019260071b820101903682116113e357602001915b81831061135c575050506040820152815287959493926020908101929101611107565b6080833603126113e357604051608081018181106001600160401b038211176113cf57604052608091602091611391866123b8565b815261139e8387016123b8565b838201526113ae604087016123ec565b60408201526113bf606087016125c1565b6060820152815201920191611339565b634e487b7160e01b8f52604160045260248ffd5b8c80fd5b8980fd5b8a80fd5b8880fd5b8680fd5b634e487b7160e01b87526041600452602487fd5b346103895760403660031901126103895761146d60008061142a61238c565b6103346103426114386123a2565b604051630132f29d60e31b602082019081526001600160a01b0395861660248301529490911660448201529182906064820190565b1561148d57600080516020612e2d833981519152602060405160168152a1005b6314439df560e31b60005260046000fd5b34610389576060366003190112610389576114b761238c565b6114bf6123cc565b90604435906001600160401b0382116103895736602383011215610389578160040135906114ec826124e0565b926114fa60405194856124bf565b82845260208401906024829460051b820101903682116103895760248101925b828410611739575050505060405192602084019463707a02cd60e11b8652608485019260018060a01b0316602486015260070b6044850152606060648501525180915260a483019060a48160051b85010192916000905b82821061170e576000808888611590818a03601f1981018352826124bf565b5190826101675af16115a061298b565b90600090156116ed57508051810160608260208301920312610389576115c8602083016129bb565b6115d4604084016129c9565b926060810151906001600160401b03821161038957019180603f84011215610389576020830151611604816124e0565b9361161260405195866124bf565b8185526020808087019360051b8301010192831161038957604001905b8282106116d5575050506016909291925b60030b036116c5577f565ec5622bfe74fc2f81580234d95112d399dfaa1c273c617c3fffd9d388f83a604051604081528061167e60408201866127af565b9360070b938460208301520390a1600080516020612e2d833981519152602060405160168152a16116c160405192839283526040602084015260408301906127af565b0390f35b62ec6f7b60e31b60005260046000fd5b602080916116e2846129c9565b81520191019061162f565b60405191506116fd6020836124bf565b808252368137600060166015611640565b9091929360208061172b60019360a3198a82030186528851612aa3565b960192019201909291611571565b83356001600160401b0381116103895760209161175d8392602436918701016125e9565b81520193019261151a565b34610389576060366003190112610389576117d760008061178761238c565b61178f6123a2565b61034261179a6123dc565b60405163efef57f960e01b602082019081526001600160a01b03958616602483015294909316604484015260070b60648301528160848101610334565b156117f757600080516020612e2d833981519152602060405160168152a1005b634c55bcdb60e11b60005260046000fd5b346103895760603660031901126103895761182161238c565b6118296123a2565b6044356001600160401b0381116103895761189592600092610342611853859436906004016124f7565b604051637bf9c71360e11b602082019081526001600160a01b0395861660248301529490931660448401526060606484015282906103349060848301906127af565b156118b557600080516020612e2d833981519152602060405160168152a1005b633c9afe0960e11b60005260046000fd5b34610389576040366003190112610389576119286000806118e561238c565b6103346103426118f36123a2565b60405163af99c63360e01b602082019081526001600160a01b0395861660248301529490911660448201529182906064820190565b1561194857600080516020612e2d833981519152602060405160168152a1005b63b5c2401d60e01b60005260046000fd5b34610389576020366003190112610389576119ab60008061197861238c565b604051633b3bff0f60e01b602082019081526001600160a01b0390921660248083019190915281526103426044826124bf565b156119cb57600080516020612e2d833981519152602060405160168152a1005b63f5db475160e01b60005260046000fd5b6000366003190112610389576000806119f3612858565b6119fb6127e6565b8152611a0561280d565b6020820152306040820152611a1981612df1565b604051611a5f81611a436020820194630fb65bf360e01b8652606060248401526084830190612ba0565b60c860448301526008606483015203601f1981018352826124bf565b5190346101675af1611a6f61298b565b9015611af957611a8a81602080601694518301019101612c61565b6001600160a01b0316919060030b5b60030b03611ae8576040516001600160a01b03909116808252602091600080516020612e4d833981519152908390a1600080516020612e2d8339815191528260405160168152a1604051908152f35b636cc9c7cf60e11b60005260046000fd5b50600060166015611a99565b3461038957611b40600080610342610334611b1f3661276d565b6040939193519283916020830195630f16c72360e31b875260248401612c8e565b15611b6057600080516020612e2d833981519152602060405160168152a1005b63de94cd4f60e01b60005260046000fd5b3461038957606036600319011261038957611b8a61238c565b611b926123a2565b60443580151580910361038957604051631b3b02e560e11b602082019081526001600160a01b0394851660248301529290931660448401526064808401919091528252611be99160009182916103426084826124bf565b15611c0957600080516020612e2d833981519152602060405160168152a1005b6354b6b38d60e01b60005260046000fd5b3461038957604036600319011261038957611c3361238c565b602435906001600160401b0382116103895760008091610334610342611c60611c9896369060040161262e565b60408051636fc3cbaf60e01b602082019081526001600160a01b03909616602482015260448101919091529283916064830190612ae4565b15611cb857600080516020612e2d833981519152602060405160168152a1005b6315f62c9d60e21b60005260046000fd5b600036600319011261038957604051611ce181612452565b60008152336020820152627a1200604082015260ff600054169060c060405190611d0b81836124bf565b6005825260005b60a08110611f60576000808686868387611d2a612a14565b60018152611d36612a14565b60018152611d42612a14565b60018152611d4e612a14565b9160018352611d5b612a14565b936001855260405190611d6d8261246d565b600182526020820152611d7f88612a40565b52611d8987612a40565b5060405190611d978261246d565b600282526020820152611da987612a63565b52611db386612a63565b5060405190611dc18261246d565b600482526020820152611dd386612a73565b52611ddd85612a73565b5060405190611deb8261246d565b600882526020820152611dfd85612a83565b52611e0784612a83565b5060405190611e158261246d565b601082526020820152611e2784612a93565b52611e3183612a93565b5060405194611e3f86612488565b611e476127e6565b8652611e5161280d565b6020870152336040870152611e64612836565b6060870152151560808601526103e860a086015284015260e0830152610100820152611e8f81612df1565b604051611eb981610334602082019463ea83f29360e01b8652602060248401526044830190612ba0565b5190346101675af1611ec961298b565b9015611f5457611ee481602080601694518301019101612c61565b6001600160a01b0316919060030b5b60030b03611f4357602090600080516020612e2d8339815191528260405160168152a16040516001600160a01b0390911680825290600080516020612e4d833981519152908390a1604051908152f35b635850783b60e11b60005260046000fd5b50600060166015611ef3565b602090604051611f6f8161246d565b60008152611f7b612a14565b8382015282828601015201611d12565b3461038957608036600319011261038957611fa461238c565b6024356001600160401b03811161038957611fc390369060040161255c565b6044356001600160401b03811161038957611fe290369060040161255c565b90606435926001600160401b038411610389576120516103426000949361033486956120636120186120759a36906004016124f7565b604051632c4ba19160e01b602082019081526001600160a01b0390991660248201526080604482015296879591939160a48701906129d7565b858103602319016064870152906129d7565b838103602319016084850152906127af565b1561209557600080516020612e2d833981519152602060405160168152a1005b636d4b973960e01b60005260046000fd5b34610389576040366003190112610389576121086000806120c561238c565b6103346103426120d36123a2565b6040516316e3e16160e21b602082019081526001600160a01b0395861660248301529490911660448201529182906064820190565b1561212857600080516020612e2d833981519152602060405160168152a1005b631a0a25f560e31b60005260046000fd5b346103895760603660031901126103895761215261238c565b61215a6123cc565b90604435906001600160401b038211610389576000926121c6612182859436906004016124f7565b604051636b48868360e11b602082019081526001600160a01b03909516602482015260079390930b60448401526060606484015282906103349060848301906127af565b5190826101675af16121d661298b565b901561226f5760408180518101031261038957601661220360406121fc602085016129bb565b93016129c9565b915b60030b0361225e576020907f53133e0356fe8800515f6b5d4118d1b488f960dd621cc18e91f1ddd508d85441826040519260070b92838152a1600080516020612e2d8339815191528260405160168152a1604051908152f35b631bc5aabf60e21b60005260046000fd5b50600060166015612205565b34610389576020366003190112610389576122cd60008061229a61238c565b604051631f106b4b60e21b602082019081526001600160a01b0390921660248083019190915281526103426044826124bf565b156122ed57600080516020612e2d833981519152602060405160168152a1005b630d797d9160e31b60005260046000fd5b34610389576000806103348361034261235b9561231a366123fa565b63eca3691760e01b602086019081526001600160a01b03948516602487015292841660448601529216606484015260079190910b60848301529360a4820190565b1561237b57600080516020612e2d833981519152602060405160168152a1005b63022e258160e11b60005260046000fd5b600435906001600160a01b038216820361038957565b602435906001600160a01b038216820361038957565b35906001600160a01b038216820361038957565b602435908160070b820361038957565b604435908160070b820361038957565b35908160070b820361038957565b6080906003190112610389576004356001600160a01b038116810361038957906024356001600160a01b038116810361038957906044356001600160a01b038116810361038957906064358060070b81036103895790565b606081019081106001600160401b03821117610d0c57604052565b604081019081106001600160401b03821117610d0c57604052565b61012081019081106001600160401b03821117610d0c57604052565b60a081019081106001600160401b03821117610d0c57604052565b90601f801991011681019081106001600160401b03821117610d0c57604052565b6001600160401b038111610d0c5760051b60200190565b9080601f8301121561038957813561250e816124e0565b9261251c60405194856124bf565b81845260208085019260051b82010192831161038957602001905b8282106125445750505090565b60208091612551846123ec565b815201910190612537565b9080601f83011215610389578135612573816124e0565b9261258160405194856124bf565b81845260208085019260051b82010192831161038957602001905b8282106125a95750505090565b602080916125b6846123b8565b81520191019061259c565b3590811515820361038957565b6001600160401b038111610d0c57601f01601f191660200190565b81601f8201121561038957602081359101612603826125ce565b9261261160405194856124bf565b828452828201116103895781600092602092838601378301015290565b9080601f8301121561038957813591612646836124e0565b9261265460405194856124bf565b80845260208085019160051b830101918383116103895760208101915b83831061268057505050505090565b82356001600160401b0381116103895782016040818703601f19011261038957604051906126ad8261246d565b6020810135825260408101356001600160401b0381116103895760209101019160a08388031261038957604051916126e4836124a4565b6126ed846125c1565b83526126fb602085016123b8565b602084015260408401356001600160401b038111610389578861271f9186016125e9565b60408401526060840135926001600160401b0384116103895761275960808661274e8c602099988a99016125e9565b6060850152016123b8565b608082015283820152815201920191612671565b906040600319830112610389576004356001600160a01b03811681036103895791602435906001600160401b038211610389576127ac9160040161255c565b90565b906020808351928381520192019060005b8181106127cd5750505090565b825160070b8452602093840193909201916001016127c0565b604051906127f56040836124bf565b6009825268746f6b656e4e616d6560b81b6020830152565b6040519061281c6040836124bf565b600b82526a1d1bdad95b94de5b589bdb60aa1b6020830152565b604051906128456040836124bf565b60048252636d656d6f60e01b6020830152565b6040519061286582612488565b8160608152606060208201526000604082015260608082015260006080820152600060a0820152600060c0820152606060e0820152610100604051916128aa83612452565b6000835260006020840152600060408401520152565b81601f82011215610389578035906128d7826124e0565b926128e560405194856124bf565b8284526020606081860194028301019181831161038957602001925b82841061290f575050505090565b60608483031261038957602060609160405161292a81612452565b612933876123b8565b81526129408388016123ec565b83820152612950604088016125c1565b6040820152815201930192612901565b6040519061296d826124a4565b60006080838281528260208201528260408201528260608201520152565b3d156129b6573d9061299c826125ce565b916129aa60405193846124bf565b82523d6000602084013e565b606090565b51908160030b820361038957565b51908160070b820361038957565b906020808351928381520192019060005b8181106129f55750505090565b82516001600160a01b03168452602093840193909201916001016129e8565b60405190612a21826124a4565b6000608083828152826020820152606060408201526060808201520152565b805115612a4d5760200190565b634e487b7160e01b600052603260045260246000fd5b805160011015612a4d5760400190565b805160021015612a4d5760600190565b805160031015612a4d5760800190565b805160041015612a4d5760a00190565b919082519283825260005b848110612acf575050826000602080949584010152601f8019910116010190565b80602080928401015182828601015201612aae565b9080602083519182815201916020808360051b8301019401926000915b838310612b1057505050505090565b9091929394602080600192601f1985820301865281895180518352015190604083820152815115156040820152848060a01b038383015116606082015260c0612b81612b6b604085015160a0608086015260e0850190612aa3565b6060850151848203603f190160a0860152612aa3565b926080878060a01b039101511691015297019301930191939290612b01565b906127ac9061010080612c34612bfd612bd9612bc788516101608852610160880190612aa3565b60208901518782036020890152612aa3565b60018060a01b03604089015116604087015260608801518682036060880152612aa3565b60808701511515608086015260a087015160070b60a086015260c0870151151560c086015260e087015185820360e0870152612ae4565b94015191019060408091805160070b845260018060a01b036020820151166020850152015160070b910152565b9190826040910312610389576020612c78836129bb565b9201516001600160a01b03811681036103895790565b6001600160a01b0390911681526040602082018190526127ac929101906129d7565b906020808351928381520192019060005b818110612cce5750505090565b825180516001600160a01b0316855260208181015160070b8187015260409182015115159186019190915260609094019390920191600101612cc1565b6040519060c082018281106001600160401b03821117610d0c57604052600060a0838281528260208201528260408201528260608201528260808201520152565b906020808351928381520192019060005b818110612d6a5750505090565b8251805160070b85526020818101516001600160a01b0390811682880152604080840151151590880152606080840151151590880152608092830151169186019190915260a09094019390920191600101612d5d565b15612de75760208180518101031261038957612de06020601692016129bb565b60030b1490565b5060166015612de0565b610100018051805160070b1580612e1d575b612e0b575050565b60406276a70091015260203091510152565b50604081015160070b15612e0356fef439550dfaf7974fb4d395703abdb07ed45b72b335dcf7653e10bc0689ab25a02e2b3f61b70d2d131b2a807371103cc98d51adcaa5e9a8f9c32658ad8426e74ea26469706673582212200c89b53dce687ffdfb185c4d4d1820c5a62a27392369dd9adc0d6ca2ce3ff3a064736f6c634300081d0033",
  "linkReferences": {},
  "deployedLinkReferences": {}
}