{
  "_format": "hh-sol-artifact-1",
  "contractName": "CryptoAllowance",
  "sourceName": "contracts/system-contracts/hedera-account-service/examples/IHRC-906/cryptoAllowance.sol",
  "abi": [
    {
      "anonymous": false,
      "inputs": [
        {
          "indexed": false,
          "internalType": "bool",
          "name": "",
          "type": "bool"
        },
        {
          "indexed": false,
          "internalType": "bytes",
          "name": "",
          "type": "bytes"
        }
      ],
      "name": "CallResponseEvent",
      "type": "event"
    },
    {
      "anonymous": false,
      "inputs": [
        {
          "indexed": false,
          "internalType": "address",
          "name": "owner",
          "type": "address"
        },
        {
          "indexed": false,
          "internalType": "address",
          "name": "spender",
          "type": "address"
        },
        {
          "indexed": false,
          "internalType": "int256",
          "name": "allowance",
          "type": "int256"
        }
      ],
      "name": "HbarAllowance",
      "type": "event"
    },
    {
      "anonymous": false,
      "inputs": [
        {
          "indexed": false,
          "internalType": "address",
          "name": "account",
          "type": "address"
        },
        {
          "indexed": false,
          "internalType": "bool",
          "name": "response",
          "type": "bool"
        }
      ],
      "name": "IsAuthorizedRaw",
      "type": "event"
    },
    {
      "anonymous": false,
      "inputs": [
        {
          "indexed": false,
          "internalType": "int256",
          "name": "responseCode",
          "type": "int256"
        }
      ],
      "name": "ResponseCode",
      "type": "event"
    },
    {
      "inputs": [
        {
          "components": [
            {
              "components": [
                {
                  "internalType": "address",
                  "name": "accountID",
                  "type": "address"
                },
                {
                  "internalType": "int64",
                  "name": "amount",
                  "type": "int64"
                },
                {
                  "internalType": "bool",
                  "name": "isApproval",
                  "type": "bool"
                }
              ],
              "internalType": "struct IHederaTokenService.AccountAmount[]",
              "name": "transfers",
              "type": "tuple[]"
            }
          ],
          "internalType": "struct IHederaTokenService.TransferList",
          "name": "transferList",
          "type": "tuple"
        },
        {
          "components": [
            {
              "internalType": "address",
              "name": "token",
              "type": "address"
            },
            {
              "components": [
                {
                  "internalType": "address",
                  "name": "accountID",
                  "type": "address"
                },
                {
                  "internalType": "int64",
                  "name": "amount",
                  "type": "int64"
                },
                {
                  "internalType": "bool",
                  "name": "isApproval",
                  "type": "bool"
                }
              ],
              "internalType": "struct IHederaTokenService.AccountAmount[]",
              "name": "transfers",
              "type": "tuple[]"
            },
            {
              "components": [
                {
                  "internalType": "address",
                  "name": "senderAccountID",
                  "type": "address"
                },
                {
                  "internalType": "address",
                  "name": "receiverAccountID",
                  "type": "address"
                },
                {
                  "internalType": "int64",
                  "name": "serialNumber",
                  "type": "int64"
                },
                {
                  "internalType": "bool",
                  "name": "isApproval",
                  "type": "bool"
                }
              ],
              "internalType": "struct IHederaTokenService.NftTransfer[]",
              "name": "nftTransfers",
              "type": "tuple[]"
            }
          ],
          "internalType": "struct IHederaTokenService.TokenTransferList[]",
          "name": "tokenTransferList",
          "type": "tuple[]"
        }
      ],
      "name": "cryptoTransferPublic",
      "outputs": [
        {
          "internalType": "int256",
          "name": "responseCode",
          "type": "int256"
        }
      ],
      "stateMutability": "nonpayable",
      "type": "function"
    },
    {
      "inputs": [
        {
          "internalType": "address",
          "name": "owner",
          "type": "address"
        },
        {
          "internalType": "address",
          "name": "spender",
          "type": "address"
        }
      ],
      "name": "hbarAllowancePublic",
      "outputs": [
        {
          "internalType": "int64",
          "name": "responseCode",
          "type": "int64"
        },
        {
          "internalType": "int256",
          "name": "allowance",
          "type": "int256"
        }
      ],
      "stateMutability": "nonpayable",
      "type": "function"
    },
    {
      "inputs": [
        {
          "internalType": "address",
          "name": "owner",
          "type": "address"
        },
        {
          "internalType": "address",
          "name": "spender",
          "type": "address"
        },
        {
          "internalType": "int256",
          "name": "amount",
          "type": "int256"
        }
      ],
      "name": "hbarApprovePublic",
      "outputs": [
        {
          "internalType": "int64",
          "name": "responseCode",
          "type": "int64"
        }
      ],
      "stateMutability": "nonpayable",
      "type": "function"
    },
    {
      "inputs": [
        {
          "internalType": "address",
          "name": "token",
          "type": "address"
        },
        {
          "internalType": "bytes",
          "name": "encodedFunctionSelector",
          "type": "bytes"
        }
      ],
      "name": "redirectForToken",
      "outputs": [
        {
          "internalType": "int256",
          "name": "responseCode",
          "type": "int256"
        },
        {
          "internalType": "bytes",
          "name": "response",
          "type": "bytes"
        }
      ],
      "stateMutability": "nonpayable",
      "type": "function"
    },
    {
      "inputs": [
        {
          "internalType": "address",
          "name": "token",
          "type": "address"
        },
        {
          "internalType": "address",
          "name": "from",
          "type": "address"
        },
        {
          "internalType": "address",
          "name": "to",
          "type": "address"
        },
        {
          "internalType": "uint256",
          "name": "amount",
          "type": "uint256"
        }
      ],
      "name": "transferFrom",
      "outputs": [
        {
          "internalType": "int64",
          "name": "responseCode",
          "type": "int64"
        }
      ],
      "stateMutability": "nonpayable",
      "type": "function"
    },
    {
      "inputs": [
        {
          "internalType": "address",
          "name": "token",
          "type": "address"
        },
        {
          "internalType": "address",
          "name": "from",
          "type": "address"
        },
        {
          "internalType": "address",
          "name": "to",
          "type": "address"
        },
        {
          "internalType": "uint256",
          "name": "serialNumber",
          "type": "uint256"
        }
      ],
      "name": "transferFromNFT",
      "outputs": [
        {
          "internalType": "int64",
          "name": "responseCode",
          "type": "int64"
        }
      ],
      "stateMutability": "nonpayable",
      "type": "function"
    }
  ],
  "bytecode": "0x60808060405234601557610bb9908161001b8239f35b600080fdfe608080604052600436101561001357600080fd5b60003560e01c90816315dacbea146108855750806348e309e0146107a5578063618dc65e14610655578063970e23d2146102415780639b23d3d9146101935763e06da58d1461006157600080fd5b346101845760403660031901126101845761007a6108dc565b6100826108f2565b604051637f62333360e11b602082019081526001600160a01b038085166024840152831660448084019190915282529192916000918291906100c560648261099b565b51908261016a5af16100d5610a18565b9015610189576040818051810103126101845760406100f660208301610a48565b910151905b60030b917f90a5cf4cffe88b4edbb041cfc7a8a812c48a5ec30b84640fb37690875168e3aa6020604051858152a16016830361018457604080516001600160a01b039283168152949091166020850152838101829052927fb43ff8a636f83cf14bb647951bbcbd71fd09b36cf207b15408bebcb03151c31690606090a182519182526020820152f35b600080fd5b50600060156100fb565b34610184576000806101fc6101ee6101aa3661091c565b604051639b23d3d960e01b602082019081526001600160a01b03958616602483015293851660448201529390911660648401526084830152929091829060a4820190565b03601f19810183528261099b565b5190826101675af161020c610a18565b9015610237576020818051810103126101845761022c6020809201610a48565b6040519060030b8152f35b506020601561022c565b34610184576040366003190112610184576004356001600160401b0381116101845760206003198236030112610184576024356001600160401b0381116101845736602382011215610184578060040135916001600160401b0383116101845760248360051b830101913683116101845760009260405192602084018481106001600160401b038211176106415760405280600401356001600160401b03811161063d576102f491369101600401610a88565b83526102ff85610a56565b9461030d604051968761099b565b855260208501809260248101915b8383106104cc5750505050604051906103556020830193630e71804f60e01b85526040602485015251602060648501526084840190610b28565b9460231983870301604484015251808652602086019060208160051b880101929186905b828210610413578780808989610398818b03601f19810183528261099b565b5190826101675af16103a8610a18565b901561040b576020818051810103126104075760206103c79101610a48565b60030b7f90a5cf4cffe88b4edbb041cfc7a8a812c48a5ec30b84640fb37690875168e3aa6020604051838152a16016810361040757602090604051908152f35b5080fd5b5060156103c7565b90919293601f19898203018252845160018060a01b03815116825260406104496020830151606060208601526060850190610b28565b9101519160408183039101526020808351928381520192019089905b80821061048357505050602080600192960192019201909291610379565b9091926020608060019260608751858060a01b038151168352858060a01b03858201511685840152604081015160070b6040840152015115156060820152019401920190610465565b82356001600160401b0381116106395782016060602319823603011261063957604051906104f98261096a565b61050560248201610908565b825260448101356001600160401b0381116106355761052a9060243691840101610a88565b60208301526064810135906001600160401b0382116106355790602491010136601f8201121561063157803561055f81610a56565b9161056d604051938461099b565b81835260208084019260071b8201019036821161062d57602001915b8183106105a657505050604082015281526020928301920161031b565b60808336031261062d57604051608081018181106001600160401b03821117610619576040526080916020916105db86610908565b81526105e8838701610908565b838201526105f860408701610a6d565b604082015261060960608701610a7b565b6060820152815201920191610589565b634e487b7160e01b8e52604160045260248efd5b8b80fd5b8880fd5b8980fd5b8780fd5b8580fd5b634e487b7160e01b86526041600452602486fd5b346101845760403660031901126101845761066e6108dc565b602435906001600160401b03821161018457366023830112156101845781600401359061069a826109bc565b916106a8604051938461099b565b80835236602482860101116101845761070b60009493856020846101ee9560248499018386013783010152604080516330c6e32f60e11b602082019081526001600160a01b039096166024820152604481019190915292839160648301906109d7565b5190826101675af161071b610a18565b907f4af4780e06fe8cb9df64b0794fa6f01399af979175bb988e35e0e57e594567bc6040518215158152604060208201528061075a60408201866109d7565b0390a16000901561078c575060165b61078860405192839260030b83526040602084015260408301906109d7565b0390f35b604051915061079c60208361099b565b81526015610769565b34610184576060366003190112610184576000806107c16108dc565b6101ee61080e6107cf6108f2565b604051632824611960e21b602082019081526001600160a01b039586166024830152949091166044808301919091523560648201529182906084820190565b51908261016a5af161081e610a18565b901561087d5760208180518101031261018457602061083d9101610a48565b60030b7f90a5cf4cffe88b4edbb041cfc7a8a812c48a5ec30b84640fb37690875168e3aa6020604051838152a16016810361018457602090604051908152f35b50601561083d565b346101845760006101ee826101fc839461089e3661091c565b630aed65f560e11b602086019081526001600160a01b03948516602487015292841660448601529216606484015260848301919091529360a4820190565b600435906001600160a01b038216820361018457565b602435906001600160a01b038216820361018457565b35906001600160a01b038216820361018457565b6080906003190112610184576004356001600160a01b038116810361018457906024356001600160a01b038116810361018457906044356001600160a01b0381168103610184579060643590565b606081019081106001600160401b0382111761098557604052565b634e487b7160e01b600052604160045260246000fd5b90601f801991011681019081106001600160401b0382111761098557604052565b6001600160401b03811161098557601f01601f191660200190565b919082519283825260005b848110610a03575050826000602080949584010152601f8019910116010190565b806020809284010151828286010152016109e2565b3d15610a43573d90610a29826109bc565b91610a37604051938461099b565b82523d6000602084013e565b606090565b51908160030b820361018457565b6001600160401b0381116109855760051b60200190565b35908160070b820361018457565b3590811515820361018457565b81601f8201121561018457803590610a9f82610a56565b92610aad604051948561099b565b8284526020606081860194028301019181831161018457602001925b828410610ad7575050505090565b606084830312610184576020606091604051610af28161096a565b610afb87610908565b8152610b08838801610a6d565b83820152610b1860408801610a7b565b6040820152815201930192610ac9565b906020808351928381520192019060005b818110610b465750505090565b825180516001600160a01b0316855260208181015160070b8187015260409182015115159186019190915260609094019390920191600101610b3956fea26469706673582212204d7f50a37a46a2654f17f1b13a8bdca4677431fe7c8bc295806395ad4b19948964736f6c634300081d0033",
  "linkReferences": {},
  "deployedLinkReferences": {}
}