{
  "_format": "hh-sol-artifact-1",
  "contractName": "ERC721Contract",
  "sourceName": "contracts/system-contracts/hedera-token-service/examples/erc-721/ERC721Contract.sol",
  "abi": [
    {
      "inputs": [
        {
          "internalType": "address",
          "name": "token",
          "type": "address"
        },
        {
          "internalType": "address",
          "name": "to",
          "type": "address"
        },
        {
          "internalType": "uint256",
          "name": "tokenId",
          "type": "uint256"
        }
      ],
      "name": "approve",
      "outputs": [],
      "stateMutability": "payable",
      "type": "function"
    },
    {
      "inputs": [
        {
          "internalType": "address",
          "name": "token",
          "type": "address"
        },
        {
          "internalType": "address",
          "name": "owner",
          "type": "address"
        }
      ],
      "name": "balanceOf",
      "outputs": [
        {
          "internalType": "uint256",
          "name": "",
          "type": "uint256"
        }
      ],
      "stateMutability": "view",
      "type": "function"
    },
    {
      "inputs": [
        {
          "internalType": "address",
          "name": "token",
          "type": "address"
        },
        {
          "internalType": "address",
          "name": "to",
          "type": "address"
        },
        {
          "internalType": "uint256",
          "name": "tokenId",
          "type": "uint256"
        }
      ],
      "name": "delegateApprove",
      "outputs": [],
      "stateMutability": "payable",
      "type": "function"
    },
    {
      "inputs": [
        {
          "internalType": "address",
          "name": "token",
          "type": "address"
        },
        {
          "internalType": "address",
          "name": "operator",
          "type": "address"
        },
        {
          "internalType": "bool",
          "name": "approved",
          "type": "bool"
        }
      ],
      "name": "delegateSetApprovalForAll",
      "outputs": [],
      "stateMutability": "nonpayable",
      "type": "function"
    },
    {
      "inputs": [
        {
          "internalType": "address",
          "name": "token",
          "type": "address"
        },
        {
          "internalType": "address",
          "name": "from",
          "type": "address"
        },
        {
          "internalType": "address",
          "name": "to",
          "type": "address"
        },
        {
          "internalType": "uint256",
          "name": "tokenId",
          "type": "uint256"
        }
      ],
      "name": "delegateTransferFrom",
      "outputs": [],
      "stateMutability": "payable",
      "type": "function"
    },
    {
      "inputs": [
        {
          "internalType": "address",
          "name": "token",
          "type": "address"
        },
        {
          "internalType": "uint256",
          "name": "tokenId",
          "type": "uint256"
        }
      ],
      "name": "getApproved",
      "outputs": [
        {
          "internalType": "address",
          "name": "",
          "type": "address"
        }
      ],
      "stateMutability": "view",
      "type": "function"
    },
    {
      "inputs": [
        {
          "internalType": "address",
          "name": "token",
          "type": "address"
        },
        {
          "internalType": "address",
          "name": "owner",
          "type": "address"
        },
        {
          "internalType": "address",
          "name": "operator",
          "type": "address"
        }
      ],
      "name": "isApprovedForAll",
      "outputs": [
        {
          "internalType": "bool",
          "name": "",
          "type": "bool"
        }
      ],
      "stateMutability": "view",
      "type": "function"
    },
    {
      "inputs": [
        {
          "internalType": "address",
          "name": "token",
          "type": "address"
        }
      ],
      "name": "name",
      "outputs": [
        {
          "internalType": "string",
          "name": "",
          "type": "string"
        }
      ],
      "stateMutability": "view",
      "type": "function"
    },
    {
      "inputs": [
        {
          "internalType": "address",
          "name": "token",
          "type": "address"
        },
        {
          "internalType": "uint256",
          "name": "tokenId",
          "type": "uint256"
        }
      ],
      "name": "ownerOf",
      "outputs": [
        {
          "internalType": "address",
          "name": "",
          "type": "address"
        }
      ],
      "stateMutability": "view",
      "type": "function"
    },
    {
      "inputs": [
        {
          "internalType": "address",
          "name": "token",
          "type": "address"
        },
        {
          "internalType": "address",
          "name": "from",
          "type": "address"
        },
        {
          "internalType": "address",
          "name": "to",
          "type": "address"
        },
        {
          "internalType": "uint256",
          "name": "tokenId",
          "type": "uint256"
        }
      ],
      "name": "safeTransferFrom",
      "outputs": [],
      "stateMutability": "payable",
      "type": "function"
    },
    {
      "inputs": [
        {
          "internalType": "address",
          "name": "token",
          "type": "address"
        },
        {
          "internalType": "address",
          "name": "from",
          "type": "address"
        },
        {
          "internalType": "address",
          "name": "to",
          "type": "address"
        },
        {
          "internalType": "uint256",
          "name": "tokenId",
          "type": "uint256"
        },
        {
          "internalType": "bytes",
          "name": "data",
          "type": "bytes"
        }
      ],
      "name": "safeTransferFromWithData",
      "outputs": [],
      "stateMutability": "payable",
      "type": "function"
    },
    {
      "inputs": [
        {
          "internalType": "address",
          "name": "token",
          "type": "address"
        },
        {
          "internalType": "address",
          "name": "operator",
          "type": "address"
        },
        {
          "internalType": "bool",
          "name": "approved",
          "type": "bool"
        }
      ],
      "name": "setApprovalForAll",
      "outputs": [],
      "stateMutability": "nonpayable",
      "type": "function"
    },
    {
      "inputs": [
        {
          "internalType": "address",
          "name": "token",
          "type": "address"
        }
      ],
      "name": "symbol",
      "outputs": [
        {
          "internalType": "string",
          "name": "",
          "type": "string"
        }
      ],
      "stateMutability": "view",
      "type": "function"
    },
    {
      "inputs": [
        {
          "internalType": "address",
          "name": "token",
          "type": "address"
        },
        {
          "internalType": "uint256",
          "name": "index",
          "type": "uint256"
        }
      ],
      "name": "tokenByIndex",
      "outputs": [
        {
          "internalType": "uint256",
          "name": "",
          "type": "uint256"
        }
      ],
      "stateMutability": "view",
      "type": "function"
    },
    {
      "inputs": [
        {
          "internalType": "address",
          "name": "token",
          "type": "address"
        },
        {
          "internalType": "address",
          "name": "owner",
          "type": "address"
        },
        {
          "internalType": "uint256",
          "name": "index",
          "type": "uint256"
        }
      ],
      "name": "tokenOfOwnerByIndex",
      "outputs": [
        {
          "internalType": "uint256",
          "name": "",
          "type": "uint256"
        }
      ],
      "stateMutability": "view",
      "type": "function"
    },
    {
      "inputs": [
        {
          "internalType": "address",
          "name": "token",
          "type": "address"
        },
        {
          "internalType": "uint256",
          "name": "tokenId",
          "type": "uint256"
        }
      ],
      "name": "tokenURI",
      "outputs": [
        {
          "internalType": "string",
          "name": "",
          "type": "string"
        }
      ],
      "stateMutability": "view",
      "type": "function"
    },
    {
      "inputs": [
        {
          "internalType": "address",
          "name": "token",
          "type": "address"
        }
      ],
      "name": "totalSupply",
      "outputs": [
        {
          "internalType": "uint256",
          "name": "",
          "type": "uint256"
        }
      ],
      "stateMutability": "view",
      "type": "function"
    },
    {
      "inputs": [
        {
          "internalType": "address",
          "name": "token",
          "type": "address"
        },
        {
          "internalType": "address",
          "name": "from",
          "type": "address"
        },
        {
          "internalType": "address",
          "name": "to",
          "type": "address"
        },
        {
          "internalType": "uint256",
          "name": "tokenId",
          "type": "uint256"
        }
      ],
      "name": "transferFrom",
      "outputs": [],
      "stateMutability": "payable",
      "type": "function"
    }
  ],
  "bytecode": "0x60808060405234601557610c10908161001b8239f35b600080fdfe608080604052600436101561001357600080fd5b600090813560e01c90816301984892146108e257508063039d6f19146107d7578063098f2366146107735780630db1cc1b1461072157806315dacbea146106c95780631f29d2dc14610637578063367605ca146105df5780636b42bf2f14610575578063734194a714610528578063a86e3576146104d0578063cb60f1bf14610476578063d9fc4b611461041a578063e1f21c67146103a6578063e4dc2aa414610354578063e9dc6375146102cc578063eac6f3fe14610256578063f49f40db146101925763f7888aec146100e757600080fd5b3461018f57604036600319011261018f57610100610936565b90602061010b61094c565b6040516370a0823160e01b81526001600160a01b0391821660048201529384916024918391165afa908115610183579061014b575b602090604051908152f35b506020813d60201161017b575b8161016560209383610a92565b810103126101765760209051610140565b600080fd5b3d9150610158565b604051903d90823e3d90fd5b80fd5b503461018f57606036600319011261018f576101ac610936565b60206101b661094c565b60446101c0610962565b60405163e985e9c560e01b81526001600160a01b03938416600482015290831660248201529384928391165afa90811561024b578291610208575b6020826040519015158152f35b90506020813d602011610243575b8161022360209383610a92565b8101031261023f5751801515810361023f5760209150386101fb565b5080fd5b3d9150610216565b6040513d84823e3d90fd5b506102c981806102ae61026836610a0a565b6040516323b872dd60e01b602082019081526001600160a01b0394851660248301529290931660448401526064830152919281608481015b03601f198101835282610a92565b51916001600160a01b03165af46102c3610b67565b50610b97565b80f35b503461018f57604036600319011261018f576024816102e9610936565b60405163c87b56dd60e01b81528335600482015292839182906001600160a01b03165afa90811561024b578261032d9392610331575b50506040519182918261099b565b0390f35b61034d92503d8091833e6103458183610a92565b810190610ae6565b388061031f565b503461018f57602036600319011261018f5760049060206001600160a01b0361037b610936565b16604051938480926318160ddd60e01b82525afa908115610183579061014b57602090604051908152f35b50806103b136610a58565b6001600160a01b0390921691823b156104155760405163095ea7b360e01b81526001600160a01b03909216600483015260248201529082908290818381604481015b03925af1801561024b576104045750f35b8161040e91610a92565b61018f5780f35b505050fd5b508061042536610a0a565b90926001600160a01b0316803b1561047257604051632142170760e11b81526001600160a01b039384166004820152939092166024840152604483015282908290818381606481016103f3565b8480fd5b503461018f57604036600319011261018f576024906020610495610936565b604051634f6ccce760e01b81528435600482015293849182906001600160a01b03165afa908115610183579061014b57602090604051908152f35b503461018f57602036600319011261018f576004816001600160a01b036104f5610936565b16604051928380926395d89b4160e01b82525afa90811561024b578261032d93926103315750506040519182918261099b565b506102c981806102a06102ae61053d36610a58565b60405163095ea7b360e01b602082019081526001600160a01b0390931660248201526044810191909152919390929082906064820190565b503461018f576105bb90602061058a36610a58565b604051632f745c5960e01b81526001600160a01b039092166004830152602482015293849190829081906044820190565b03916001600160a01b03165afa908115610183579061014b57602090604051908152f35b503461018f57806105ef366109c7565b6001600160a01b0390921691823b156104155760405163a22cb46560e01b81526001600160a01b039092166004830152151560248201529082908290818381604481016103f3565b503461018f57604036600319011261018f5760246020610655610936565b6040516331a9108f60e11b81528335600482015292839182906001600160a01b03165afa90811561024b576020929161069c575b506040516001600160a01b039091168152f35b6106bc9150823d84116106c2575b6106b48183610a92565b810190610b48565b38610689565b503d6106aa565b50806106d436610a0a565b90926001600160a01b0316803b15610472576040516323b872dd60e01b81526001600160a01b039384166004820152939092166024840152604483015282908290818381606481016103f3565b503461018f576102c981806102a06102ae61073b366109c7565b60405163a22cb46560e01b602082019081526001600160a01b0390931660248201529015156044820152919390929082906064820190565b503461018f57604036600319011261018f5760246020610791610936565b60405163020604bf60e21b81528335600482015292839182906001600160a01b03165afa90811561024b576020929161069c57506040516001600160a01b039091168152f35b5060a036600319011261018f576107ec610936565b816107f561094c565b916107fe610962565b6084359067ffffffffffffffff82116108de57366023830112156108de5781600401359267ffffffffffffffff8411610472573660248585010111610472576001600160a01b031690813b1561047257604051635c46a7ef60e11b81526001600160a01b039687166004820152951660248681019190915260648035604488015260809087015260848601849052849386938492869260a4928592829101838501378181018301849052601f01601f191681010301925af180156108d1576108c35780f35b6108cc91610a92565b388180f35b50604051903d90823e3d90fd5b8380fd5b90503461023f57602036600319011261023f5781816004816001600160a01b0361090a610936565b6306fdde0360e01b8352165afa90811561024b578261032d93926103315750506040519182918261099b565b600435906001600160a01b038216820361017657565b602435906001600160a01b038216820361017657565b604435906001600160a01b038216820361017657565b60005b83811061098b5750506000910152565b818101518382015260200161097b565b604091602082526109bb8151809281602086015260208686019101610978565b601f01601f1916010190565b6060906003190112610176576004356001600160a01b038116810361017657906024356001600160a01b0381168103610176579060443580151581036101765790565b6080906003190112610176576004356001600160a01b038116810361017657906024356001600160a01b038116810361017657906044356001600160a01b0381168103610176579060643590565b6060906003190112610176576004356001600160a01b038116810361017657906024356001600160a01b0381168103610176579060443590565b90601f8019910116810190811067ffffffffffffffff821117610ab457604052565b634e487b7160e01b600052604160045260246000fd5b67ffffffffffffffff8111610ab457601f01601f191660200190565b6020818303126101765780519067ffffffffffffffff8211610176570181601f82011215610176578051610b1981610aca565b92610b276040519485610a92565b8184526020828401011161017657610b459160208085019101610978565b90565b9081602091031261017657516001600160a01b03811681036101765790565b3d15610b92573d90610b7882610aca565b91610b866040519384610a92565b82523d6000602084013e565b606090565b15610b9e57565b60405162461bcd60e51b815260206004820152601460248201527311195b1959d85d194818d85b1b0819985a5b195960621b6044820152606490fdfea2646970667358221220a1e3785375db598b936a1218b52756d429e95bc479b55d32991c11158103682964736f6c634300081d0033",
  "linkReferences": {},
  "deployedLinkReferences": {}
}