{
  "_format": "hh-sol-artifact-1",
  "contractName": "EcrecoverCaller",
  "sourceName": "contracts/system-contracts/native/EcrecoverCaller.sol",
  "abi": [
    {
      "anonymous": false,
      "inputs": [
        {
          "indexed": false,
          "internalType": "bytes",
          "name": "result",
          "type": "bytes"
        }
      ],
      "name": "EcrecoverResult",
      "type": "event"
    },
    {
      "inputs": [
        {
          "internalType": "bytes",
          "name": "callData",
          "type": "bytes"
        }
      ],
      "name": "call0x1",
      "outputs": [
        {
          "internalType": "bool",
          "name": "",
          "type": "bool"
        }
      ],
      "stateMutability": "payable",
      "type": "function"
    },
    {
      "inputs": [
        {
          "internalType": "bytes32",
          "name": "messageHash",
          "type": "bytes32"
        },
        {
          "internalType": "uint8",
          "name": "v",
          "type": "uint8"
        },
        {
          "internalType": "bytes32",
          "name": "r",
          "type": "bytes32"
        },
        {
          "internalType": "bytes32",
          "name": "s",
          "type": "bytes32"
        }
      ],
      "name": "callEcrecover",
      "outputs": [
        {
          "internalType": "address",
          "name": "",
          "type": "address"
        }
      ],
      "stateMutability": "pure",
      "type": "function"
    },
    {
      "inputs": [],
      "name": "send0x1",
      "outputs": [],
      "stateMutability": "payable",
      "type": "function"
    },
    {
      "inputs": [],
      "name": "transfer0x1",
      "outputs": [],
      "stateMutability": "payable",
      "type": "function"
    }
  ],
  "bytecode": "0x60808060405234602857600080546001600160a01b031916600117905561028f908161002e8239f35b600080fdfe608080604052600436101561001357600080fd5b60003560e01c90816301f56b78146101ac5750806328f2bd321461004b57806342bbbffd146100505763e80e2cfe1461004b57600080fd5b61021d565b60203660031901126101895760043567ffffffffffffffff811161018957366023820112156101895780600401359067ffffffffffffffff8211610189573660248383010111610189576000916024839260018060a01b0384541692806040519384930183378101848152039134905af13d156101a4573d9067ffffffffffffffff821161018e5760405191601f8101601f19908116603f0116830167ffffffffffffffff81118482101761018e5760405282523d6000602084013e5b15806101895760209160405190838252805190818584015260005b82811061017557505090604081836000837f2817b13fac611ba4ed2a2994fc447fcdc41a9580b5e3d3256a221360680366ab9684010152601f80199101168101030190a160405190158152f35b818101860151848201604001528501610128565b600080fd5b634e487b7160e01b600052604160045260246000fd5b60609061010d565b34610189576080366003190112610189576024359060ff82168092036101895760806000916020936004358252848201526044356040820152606435606082015282805260015afa15610211576000516040516001600160a01b039091168152602090f35b6040513d6000823e3d90fd5b6000366003190112610189576000805481908190819081906001600160a01b0316341561024f575b3491f11561021157005b6108fc915061024556fea2646970667358221220ee78748ccbfb4b5bd89c82605af1ce81ad23bf76282c248b234ef7891237837664736f6c634300081d0033",
  "linkReferences": {},
  "deployedLinkReferences": {}
}