{
  "_format": "hh-sol-artifact-1",
  "contractName": "ERC20Contract",
  "sourceName": "contracts/system-contracts/hedera-token-service/examples/erc-20/ERC20Contract.sol",
  "abi": [
    {
      "inputs": [
        {
          "internalType": "address",
          "name": "token",
          "type": "address"
        },
        {
          "internalType": "address",
          "name": "owner",
          "type": "address"
        },
        {
          "internalType": "address",
          "name": "spender",
          "type": "address"
        }
      ],
      "name": "allowance",
      "outputs": [
        {
          "internalType": "uint256",
          "name": "",
          "type": "uint256"
        }
      ],
      "stateMutability": "view",
      "type": "function"
    },
    {
      "inputs": [
        {
          "internalType": "address",
          "name": "token",
          "type": "address"
        },
        {
          "internalType": "address",
          "name": "spender",
          "type": "address"
        },
        {
          "internalType": "uint256",
          "name": "amount",
          "type": "uint256"
        }
      ],
      "name": "approve",
      "outputs": [
        {
          "internalType": "bool",
          "name": "",
          "type": "bool"
        }
      ],
      "stateMutability": "nonpayable",
      "type": "function"
    },
    {
      "inputs": [
        {
          "internalType": "address",
          "name": "token",
          "type": "address"
        },
        {
          "internalType": "address",
          "name": "account",
          "type": "address"
        }
      ],
      "name": "balanceOf",
      "outputs": [
        {
          "internalType": "uint256",
          "name": "",
          "type": "uint256"
        }
      ],
      "stateMutability": "view",
      "type": "function"
    },
    {
      "inputs": [
        {
          "internalType": "address",
          "name": "token",
          "type": "address"
        }
      ],
      "name": "decimals",
      "outputs": [
        {
          "internalType": "uint8",
          "name": "",
          "type": "uint8"
        }
      ],
      "stateMutability": "view",
      "type": "function"
    },
    {
      "inputs": [
        {
          "internalType": "address",
          "name": "token",
          "type": "address"
        },
        {
          "internalType": "address",
          "name": "recipient",
          "type": "address"
        },
        {
          "internalType": "uint256",
          "name": "amount",
          "type": "uint256"
        }
      ],
      "name": "delegateApprove",
      "outputs": [],
      "stateMutability": "nonpayable",
      "type": "function"
    },
    {
      "inputs": [
        {
          "internalType": "address",
          "name": "token",
          "type": "address"
        },
        {
          "internalType": "address",
          "name": "recipient",
          "type": "address"
        },
        {
          "internalType": "uint256",
          "name": "amount",
          "type": "uint256"
        }
      ],
      "name": "delegateTransfer",
      "outputs": [],
      "stateMutability": "nonpayable",
      "type": "function"
    },
    {
      "inputs": [
        {
          "internalType": "address",
          "name": "token",
          "type": "address"
        },
        {
          "internalType": "address",
          "name": "from",
          "type": "address"
        },
        {
          "internalType": "address",
          "name": "to",
          "type": "address"
        },
        {
          "internalType": "uint256",
          "name": "amount",
          "type": "uint256"
        }
      ],
      "name": "delegateTransferFrom",
      "outputs": [],
      "stateMutability": "payable",
      "type": "function"
    },
    {
      "inputs": [
        {
          "internalType": "address",
          "name": "token",
          "type": "address"
        }
      ],
      "name": "name",
      "outputs": [
        {
          "internalType": "string",
          "name": "",
          "type": "string"
        }
      ],
      "stateMutability": "view",
      "type": "function"
    },
    {
      "inputs": [
        {
          "internalType": "address",
          "name": "token",
          "type": "address"
        }
      ],
      "name": "symbol",
      "outputs": [
        {
          "internalType": "string",
          "name": "",
          "type": "string"
        }
      ],
      "stateMutability": "view",
      "type": "function"
    },
    {
      "inputs": [
        {
          "internalType": "address",
          "name": "token",
          "type": "address"
        }
      ],
      "name": "totalSupply",
      "outputs": [
        {
          "internalType": "uint256",
          "name": "",
          "type": "uint256"
        }
      ],
      "stateMutability": "view",
      "type": "function"
    },
    {
      "inputs": [
        {
          "internalType": "address",
          "name": "token",
          "type": "address"
        },
        {
          "internalType": "address",
          "name": "recipient",
          "type": "address"
        },
        {
          "internalType": "uint256",
          "name": "amount",
          "type": "uint256"
        }
      ],
      "name": "transfer",
      "outputs": [
        {
          "internalType": "bool",
          "name": "",
          "type": "bool"
        }
      ],
      "stateMutability": "nonpayable",
      "type": "function"
    },
    {
      "inputs": [
        {
          "internalType": "address",
          "name": "token",
          "type": "address"
        },
        {
          "internalType": "address",
          "name": "sender",
          "type": "address"
        },
        {
          "internalType": "address",
          "name": "recipient",
          "type": "address"
        },
        {
          "internalType": "uint256",
          "name": "amount",
          "type": "uint256"
        }
      ],
      "name": "transferFrom",
      "outputs": [
        {
          "internalType": "bool",
          "name": "",
          "type": "bool"
        }
      ],
      "stateMutability": "nonpayable",
      "type": "function"
    }
  ],
  "bytecode": "0x6080806040523460155761084e908161001b8239f35b600080fdfe608080604052600436101561001357600080fd5b60003560e01c90816301984892146105825750806315dacbea14610534578063734194a7146104e2578063927da10514610461578063a86e3576146103e2578063beabacc81461039b578063d449a83214610304578063e1f21c6714610267578063e4dc2aa414610216578063eac6f3fe146101c8578063f4b79da51461014b5763f7888aec146100a357600080fd5b34610132576040366003190112610132576100bc6105d4565b60206100c66105ea565b6040516370a0823160e01b81526001600160a01b0391821660048201529283916024918391165afa801561013f57600090610107575b602090604051908152f35b506020813d602011610137575b81610121602093836106d7565b8101031261013257602090516100fc565b600080fd5b3d9150610114565b6040513d6000823e3d90fd5b34610132576101c660008061019d6101ab6101653661069d565b60405163a9059cbb60e01b602082019081526001600160a01b0390931660248201526044810191909152919390929082906064820190565b03601f1981018352826106d7565b51916001600160a01b03165af46101c06107a5565b506107d5565b005b6101c66000806101ab6101da3661064f565b6040516323b872dd60e01b602082019081526001600160a01b03948516602483015292909316604484015260648301529192816084810161019d565b3461013257602036600319011261013257600460206001600160a01b0361023b6105d4565b16604051928380926318160ddd60e01b82525afa801561013f5760009061010757602090604051908152f35b34610132576102ae602061027a3661069d565b60405163095ea7b360e01b81526001600160a01b039092166004830152602482015292839190829060009082906044820190565b03926001600160a01b03165af1801561013f576020916000916102d7575b506040519015158152f35b6102f79150823d84116102fd575b6102ef81836106d7565b81019061078d565b826102cc565b503d6102e5565b3461013257602036600319011261013257600460206001600160a01b036103296105d4565b166040519283809263313ce56760e01b82525afa90811561013f5760009161035a575b60208260ff60405191168152f35b6020813d602011610393575b81610373602093836106d7565b8101031261038f575160ff8116810361038f579050602061034c565b5080fd5b3d9150610366565b34610132576102ae60206103ae3661069d565b60405163a9059cbb60e01b81526001600160a01b039092166004830152602482015292839190829060009082906044820190565b3461013257602036600319011261013257600460006001600160a01b036104076105d4565b16604051928380926395d89b4160e01b82525afa801561013f5761043a9160009161043e575b5060405191829182610623565b0390f35b61045b91503d806000833e61045381836106d7565b81019061072b565b8261042d565b346101325760603660031901126101325761047a6105d4565b6104826105ea565b6044356001600160a01b0381169081900361013257604051636eb1769f60e11b81526001600160a01b03928316600482015260248101919091529160209183916044918391165afa801561013f5760009061010757602090604051908152f35b34610132576101c660008061019d6101ab6104fc3661069d565b60405163095ea7b360e01b602082019081526001600160a01b0390931660248201526044810191909152919390929082906064820190565b34610132576102ae602060006105493661064f565b6040516323b872dd60e01b81526001600160a01b0393841660048201529290911660248301526044820152938492839182906064820190565b34610132576020366003190112610132576000816004816001600160a01b036105a96105d4565b6306fdde0360e01b8352165afa801561013f5761043a9160009161043e575060405191829182610623565b600435906001600160a01b038216820361013257565b602435906001600160a01b038216820361013257565b60005b8381106106135750506000910152565b8181015183820152602001610603565b604091602082526106438151809281602086015260208686019101610600565b601f01601f1916010190565b6080906003190112610132576004356001600160a01b038116810361013257906024356001600160a01b038116810361013257906044356001600160a01b0381168103610132579060643590565b6060906003190112610132576004356001600160a01b038116810361013257906024356001600160a01b0381168103610132579060443590565b90601f8019910116810190811067ffffffffffffffff8211176106f957604052565b634e487b7160e01b600052604160045260246000fd5b67ffffffffffffffff81116106f957601f01601f191660200190565b6020818303126101325780519067ffffffffffffffff8211610132570181601f8201121561013257805161075e8161070f565b9261076c60405194856106d7565b818452602082840101116101325761078a9160208085019101610600565b90565b90816020910312610132575180151581036101325790565b3d156107d0573d906107b68261070f565b916107c460405193846106d7565b82523d6000602084013e565b606090565b156107dc57565b60405162461bcd60e51b815260206004820152601460248201527311195b1959d85d194818d85b1b0819985a5b195960621b6044820152606490fdfea2646970667358221220ed7b24eef290723f4a813daf932474bb5f60b9f3b62bad320d29bf65266fb2d764736f6c634300081d0033",
  "linkReferences": {},
  "deployedLinkReferences": {}
}