{
  "_format": "hh-sol-artifact-1",
  "contractName": "Airdrop",
  "sourceName": "contracts/system-contracts/hedera-token-service/examples/hrc-904/Airdrop.sol",
  "abi": [
    {
      "anonymous": false,
      "inputs": [
        {
          "indexed": false,
          "internalType": "bool",
          "name": "",
          "type": "bool"
        },
        {
          "indexed": false,
          "internalType": "bytes",
          "name": "",
          "type": "bytes"
        }
      ],
      "name": "CallResponseEvent",
      "type": "event"
    },
    {
      "inputs": [
        {
          "internalType": "address[]",
          "name": "token",
          "type": "address[]"
        },
        {
          "internalType": "address[]",
          "name": "nft",
          "type": "address[]"
        },
        {
          "internalType": "address[]",
          "name": "tokenSenders",
          "type": "address[]"
        },
        {
          "internalType": "address[]",
          "name": "tokenReceivers",
          "type": "address[]"
        },
        {
          "internalType": "address[]",
          "name": "nftSenders",
          "type": "address[]"
        },
        {
          "internalType": "address[]",
          "name": "nftReceivers",
          "type": "address[]"
        },
        {
          "internalType": "int64",
          "name": "tokenAmount",
          "type": "int64"
        },
        {
          "internalType": "int64[]",
          "name": "serials",
          "type": "int64[]"
        }
      ],
      "name": "mixedAirdrop",
      "outputs": [
        {
          "internalType": "int64",
          "name": "responseCode",
          "type": "int64"
        }
      ],
      "stateMutability": "payable",
      "type": "function"
    },
    {
      "inputs": [
        {
          "internalType": "address[]",
          "name": "tokens",
          "type": "address[]"
        },
        {
          "internalType": "address",
          "name": "sender",
          "type": "address"
        },
        {
          "internalType": "address",
          "name": "receiver",
          "type": "address"
        },
        {
          "internalType": "int64",
          "name": "amount",
          "type": "int64"
        }
      ],
      "name": "multipleFtAirdrop",
      "outputs": [
        {
          "internalType": "int64",
          "name": "responseCode",
          "type": "int64"
        }
      ],
      "stateMutability": "payable",
      "type": "function"
    },
    {
      "inputs": [
        {
          "internalType": "address[]",
          "name": "nfts",
          "type": "address[]"
        },
        {
          "internalType": "address",
          "name": "sender",
          "type": "address"
        },
        {
          "internalType": "address",
          "name": "receiver",
          "type": "address"
        },
        {
          "internalType": "int64[]",
          "name": "serials",
          "type": "int64[]"
        }
      ],
      "name": "multipleNftAirdrop",
      "outputs": [
        {
          "internalType": "int64",
          "name": "responseCode",
          "type": "int64"
        }
      ],
      "stateMutability": "nonpayable",
      "type": "function"
    },
    {
      "inputs": [
        {
          "internalType": "address",
          "name": "token",
          "type": "address"
        },
        {
          "internalType": "address",
          "name": "sender",
          "type": "address"
        },
        {
          "internalType": "address",
          "name": "receiver",
          "type": "address"
        },
        {
          "internalType": "int64",
          "name": "serial",
          "type": "int64"
        }
      ],
      "name": "nftAirdrop",
      "outputs": [
        {
          "internalType": "int64",
          "name": "responseCode",
          "type": "int64"
        }
      ],
      "stateMutability": "payable",
      "type": "function"
    },
    {
      "inputs": [
        {
          "internalType": "address",
          "name": "token",
          "type": "address"
        },
        {
          "internalType": "address",
          "name": "sender",
          "type": "address"
        },
        {
          "internalType": "address[]",
          "name": "receivers",
          "type": "address[]"
        },
        {
          "internalType": "int64[]",
          "name": "serials",
          "type": "int64[]"
        }
      ],
      "name": "nftAirdropDistribute",
      "outputs": [
        {
          "internalType": "int64",
          "name": "responseCode",
          "type": "int64"
        }
      ],
      "stateMutability": "payable",
      "type": "function"
    },
    {
      "inputs": [
        {
          "internalType": "address",
          "name": "token",
          "type": "address"
        },
        {
          "internalType": "bytes",
          "name": "encodedFunctionSelector",
          "type": "bytes"
        }
      ],
      "name": "redirectForToken",
      "outputs": [
        {
          "internalType": "int256",
          "name": "responseCode",
          "type": "int256"
        },
        {
          "internalType": "bytes",
          "name": "response",
          "type": "bytes"
        }
      ],
      "stateMutability": "nonpayable",
      "type": "function"
    },
    {
      "inputs": [
        {
          "internalType": "address",
          "name": "token",
          "type": "address"
        },
        {
          "internalType": "address",
          "name": "sender",
          "type": "address"
        },
        {
          "internalType": "address",
          "name": "receiver",
          "type": "address"
        },
        {
          "internalType": "int64",
          "name": "amount",
          "type": "int64"
        }
      ],
      "name": "tokenAirdrop",
      "outputs": [
        {
          "internalType": "int64",
          "name": "responseCode",
          "type": "int64"
        }
      ],
      "stateMutability": "payable",
      "type": "function"
    },
    {
      "inputs": [
        {
          "internalType": "address",
          "name": "token",
          "type": "address"
        },
        {
          "internalType": "address",
          "name": "sender",
          "type": "address"
        },
        {
          "internalType": "address[]",
          "name": "receivers",
          "type": "address[]"
        },
        {
          "internalType": "int64",
          "name": "amount",
          "type": "int64"
        }
      ],
      "name": "tokenAirdropDistribute",
      "outputs": [
        {
          "internalType": "int64",
          "name": "responseCode",
          "type": "int64"
        }
      ],
      "stateMutability": "payable",
      "type": "function"
    },
    {
      "inputs": [
        {
          "internalType": "address",
          "name": "token",
          "type": "address"
        },
        {
          "internalType": "address",
          "name": "from",
          "type": "address"
        },
        {
          "internalType": "address",
          "name": "to",
          "type": "address"
        },
        {
          "internalType": "uint256",
          "name": "amount",
          "type": "uint256"
        }
      ],
      "name": "transferFrom",
      "outputs": [
        {
          "internalType": "int64",
          "name": "responseCode",
          "type": "int64"
        }
      ],
      "stateMutability": "nonpayable",
      "type": "function"
    },
    {
      "inputs": [
        {
          "internalType": "address",
          "name": "token",
          "type": "address"
        },
        {
          "internalType": "address",
          "name": "from",
          "type": "address"
        },
        {
          "internalType": "address",
          "name": "to",
          "type": "address"
        },
        {
          "internalType": "uint256",
          "name": "serialNumber",
          "type": "uint256"
        }
      ],
      "name": "transferFromNFT",
      "outputs": [
        {
          "internalType": "int64",
          "name": "responseCode",
          "type": "int64"
        }
      ],
      "stateMutability": "nonpayable",
      "type": "function"
    }
  ],
  "bytecode": "0x608080604052346015576111cc908161001b8239f35b600080fdfe6080604052600436101561001257600080fd5b60003560e01c8063061f8739146109e857806315dacbea1461098d5780631b79e5f9146109495780634e3956341461085557806352c0d7d4146107f4578063618dc65e146106a4578063913073f9146104f95780639b23d3d9146104515780639ef773bf146101e55763c4d7ff7c1461008a57600080fd5b608036600319011261017e5761009e610b2d565b6100a6610b01565b6044356001600160401b03811161017e576100c5903690600401610b43565b916064356001600160401b03811161017e576100e5903690600401610c67565b918351906100f1610d4b565b936100fa610d2b565b6001600160a01b03909416845261011083610aea565b9561011e6040519788610ac9565b838752601f1961012d85610aea565b0160005b8181106101ce57505060005b8481106101835761016887878a604082015261015882610ddc565b5261016281610ddc565b50610fd3565b60070b6016810361017e57602090604051908152f35b600080fd5b6001906101b26001600160a01b0361019b8386610e0f565b51166101a78387610e0f565b5160070b908761116d565b6101bc828b610e0f565b526101c7818a610e0f565b500161013d565b6020906101d9610e6c565b82828c01015201610131565b61010036600319011261017e576004356001600160401b03811161017e57610211903690600401610b43565b6024356001600160401b03811161017e57610230903690600401610b43565b906044356001600160401b03811161017e57610250903690600401610b43565b906064356001600160401b03811161017e57610270903690600401610b43565b926084356001600160401b03811161017e57610290903690600401610b43565b9360a4356001600160401b03811161017e576102b0903690600401610b43565b9360c435928360070b840361017e5760e4356001600160401b03811161017e576102de903690600401610c67565b8251918851830180931161043b576102f583610d8c565b9860005b855181101561037557808b610363600193610312610d2b565b928d61032483888060a01b0392610e0f565b511684526103598d8d8d61033e868b8060a01b0392610e0f565b511690610351868b8060a01b0392610e0f565b511690610f29565b6020850152610e0f565b5261036e818d610e0f565b50016102f9565b50888a9551936000945b86811061038f5761016888610fd3565b61042f6104359161039e610d2b565b6001600160a01b036103b08a8a610e0f565b511681526103bc610ea1565b6103fb6001600160a01b036103d18c8b610e0f565b51166001600160a01b036103e58d8b610e0f565b51166103f18d8a610e0f565b5160070b9161116d565b61040482610ddc565b5261040e81610ddc565b50604082015261041e828c610e0f565b52610429818b610e0f565b50610f1a565b95610f1a565b9461037f565b634e487b7160e01b600052601160045260246000fd5b3461017e576000806104ba6104ac61046836610bc1565b604051639b23d3d960e01b602082019081526001600160a01b03958616602483015293851660448201529390911660648401526084830152929091829060a4820190565b03601f198101835282610ac9565b5190826101675af16104ca610e23565b90156104ef576104e4816020808094518301019101610e53565b6040519060030b8152f35b50602060156104e4565b608036600319011261017e5761050d610b2d565b610515610b01565b906044356001600160401b03811161017e57610535903690600401610b43565b9061053e610bb1565b928251916001830180931161043b57908491610558610d4b565b91610561610d2b565b6001600160a01b039092168252610576610ee2565b9060018060a01b0316815260009460009460070b955b87518610156105c15760070b8601677fffffffffffffff8113677fffffffffffffff1982121761043b5760019095019461058c565b8695506105ce8891610f01565b60070b60208401526105df82610aea565b926105ed6040519485610ac9565b828452601f196105fc84610aea565b0160005b81811061068d57505061061284610ddc565b5261061c83610ddc565b5060015b82811061063b57610168868686602082015261015882610ddc565b610643610ee2565b6000198201919081831161043b576001926001600160a01b03906106679086610e0f565b5116815288602082015261067b8287610e0f565b526106868186610e0f565b5001610620565b602090610698610ee2565b82828901015201610600565b3461017e57604036600319011261017e576106bd610b2d565b602435906001600160401b03821161017e573660238301121561017e578160040135906106e982610ccf565b916106f76040519384610ac9565b808352366024828601011161017e5761075a60009493856020846104ac9560248499018386013783010152604080516330c6e32f60e11b602082019081526001600160a01b03909616602482015260448101919091529283916064830190610cea565b5190826101675af161076a610e23565b907f4af4780e06fe8cb9df64b0794fa6f01399af979175bb988e35e0e57e594567bc604051821515815260406020820152806107a96040820186610cea565b0390a1600090156107db575060165b6107d760405192839260030b8352604060208401526040830190610cea565b0390f35b60405191506107eb602083610ac9565b815260156107b8565b61016861082a61080336610c0f565b9061080f949294610d4b565b94610818610d2b565b6001600160a01b03909516855261116d565b610832610ea1565b9061083c82610ddc565b5261084681610ddc565b50604082015261015882610ddc565b3461017e57608036600319011261017e576004356001600160401b03811161017e57610885903690600401610b43565b61088d610b01565b610895610b17565b916064356001600160401b03811161017e576108b5903690600401610c67565b8151926108c184610d8c565b9460005b8581106108d55761016887610fd3565b6001906108e0610d2b565b828060a01b036108f08389610e0f565b511681526108fc610ea1565b6109146109098489610e0f565b5160070b868861116d565b61091d82610ddc565b5261092781610ddc565b506040820152610937828a610e0f565b526109428189610e0f565b50016108c5565b61016861097f61095836610c0f565b90610964949294610d4b565b9461096d610d2b565b6001600160a01b039095168552610f29565b602082015261015882610ddc565b3461017e576000806104ba6104ac6109a436610bc1565b604051630aed65f560e11b602082019081526001600160a01b03958616602483015293851660448201529390911660648401526084830152929091829060a4820190565b608036600319011261017e576004356001600160401b03811161017e57610a13903690600401610b43565b610a1b610b01565b90610a24610b17565b90610a2d610bb1565b815192610a3984610d8c565b9460005b858110610a4d5761016887610fd3565b600190610a58610d2b565b828060a01b03610a688389610e0f565b51168152610a77868686610f29565b6020820152610a86828a610e0f565b52610a918189610e0f565b5001610a3d565b606081019081106001600160401b03821117610ab357604052565b634e487b7160e01b600052604160045260246000fd5b90601f801991011681019081106001600160401b03821117610ab357604052565b6001600160401b038111610ab35760051b60200190565b602435906001600160a01b038216820361017e57565b604435906001600160a01b038216820361017e57565b600435906001600160a01b038216820361017e57565b9080601f8301121561017e57813590610b5b82610aea565b92610b696040519485610ac9565b82845260208085019360051b82010191821161017e57602001915b818310610b915750505090565b82356001600160a01b038116810361017e57815260209283019201610b84565b606435908160070b820361017e57565b608090600319011261017e576004356001600160a01b038116810361017e57906024356001600160a01b038116810361017e57906044356001600160a01b038116810361017e579060643590565b608090600319011261017e576004356001600160a01b038116810361017e57906024356001600160a01b038116810361017e57906044356001600160a01b038116810361017e57906064358060070b810361017e5790565b9080601f8301121561017e57813590610c7f82610aea565b92610c8d6040519485610ac9565b82845260208085019360051b82010191821161017e57602001915b818310610cb55750505090565b82358060070b810361017e57815260209283019201610ca8565b6001600160401b038111610ab357601f01601f191660200190565b919082519283825260005b848110610d16575050826000602080949584010152601f8019910116010190565b80602080928401015182828601015201610cf5565b60405190610d3882610a98565b6060604083600081528260208201520152565b60408051909190610d5c8382610ac9565b6001815291601f19018260005b828110610d7557505050565b602090610d80610d2b565b82828501015201610d69565b90610d9682610aea565b610da36040519182610ac9565b8281528092610db4601f1991610aea565b019060005b828110610dc557505050565b602090610dd0610d2b565b82828501015201610db9565b805115610de95760200190565b634e487b7160e01b600052603260045260246000fd5b805160011015610de95760400190565b8051821015610de95760209160051b010190565b3d15610e4e573d90610e3482610ccf565b91610e426040519384610ac9565b82523d6000602084013e565b606090565b9081602091031261017e57518060030b810361017e5790565b60405190608082018281106001600160401b03821117610ab35760405260006060838281528260208201528260408201520152565b60408051909190610eb28382610ac9565b6001815291601f19018260005b828110610ecb57505050565b602090610ed6610e6c565b82828501015201610ebf565b60405190610eef82610a98565b60006040838281528260208201520152565b60070b677fffffffffffffff19811461043b5760000390565b600019811461043b5760010190565b91610f32610ee2565b6001600160a01b039093168352610f4881610f01565b60070b6020840152610f58610ee2565b6001600160a01b03909216825260070b6020820152604051916060610f7d8185610ac9565b60028452601f190160005b818110610fbc575050610f9a83610ddc565b52610fa482610ddc565b50610fae82610dff565b52610fb881610dff565b5090565b602090610fc7610ee2565b82828801015201610f88565b6040516020810191632f34811960e01b8352604482016020602484015281518091526064830190602060648260051b8601019301916000905b8282106110675750505050918161103060009493859403601f198101835282610ac9565b5190826101675af1611040610e23565b901561105f578060208061105993518301019101610e53565b60030b90565b506015611059565b909192936063198682030182528451606082019060018060a01b0381511683526020810151916060602085015282518091526020608085019301906000905b8082106111355750505060400151916040818303910152602080835192838152019201906000905b8082106110ec5750505060208060019296019201920190929161100c565b9091926020608060019260608751858060a01b038151168352858060a01b03858201511685840152604081015160070b60408401520151151560608201520194019201906110ce565b9091936020606060019260408851858060a01b0381511683528481015160070b858401520151151560408201520195019201906110a6565b9190611177610e6c565b6001600160a01b0393841681529216602083015260070b60408201529056fea2646970667358221220bf76390cbe6d4e457e319b04bca7cb902eb3f24abe6a61756bc5da77501170b964736f6c634300081d0033",
  "linkReferences": {},
  "deployedLinkReferences": {}
}