{
  "_format": "hh-sol-artifact-1",
  "contractName": "PriceOracle",
  "sourceName": "contracts/PriceOracle.sol",
  "abi": [
    {
      "inputs": [],
      "stateMutability": "nonpayable",
      "type": "constructor"
    },
    {
      "anonymous": false,
      "inputs": [
        {
          "indexed": true,
          "internalType": "address",
          "name": "tokenId",
          "type": "address"
        },
        {
          "indexed": true,
          "internalType": "uint64",
          "name": "price",
          "type": "uint64"
        }
      ],
      "name": "PriceUpdate",
      "type": "event"
    },
    {
      "inputs": [],
      "name": "admin",
      "outputs": [
        {
          "internalType": "address",
          "name": "",
          "type": "address"
        }
      ],
      "stateMutability": "view",
      "type": "function"
    },
    {
      "inputs": [],
      "name": "denominator",
      "outputs": [
        {
          "internalType": "uint64",
          "name": "",
          "type": "uint64"
        }
      ],
      "stateMutability": "view",
      "type": "function"
    },
    {
      "inputs": [
        {
          "internalType": "address",
          "name": "tokenId",
          "type": "address"
        }
      ],
      "name": "getPrice",
      "outputs": [
        {
          "internalType": "uint64",
          "name": "",
          "type": "uint64"
        }
      ],
      "stateMutability": "view",
      "type": "function"
    },
    {
      "inputs": [
        {
          "internalType": "address",
          "name": "",
          "type": "address"
        }
      ],
      "name": "prices",
      "outputs": [
        {
          "internalType": "uint64",
          "name": "",
          "type": "uint64"
        }
      ],
      "stateMutability": "view",
      "type": "function"
    },
    {
      "inputs": [
        {
          "internalType": "address",
          "name": "tokenId",
          "type": "address"
        },
        {
          "internalType": "uint64",
          "name": "price",
          "type": "uint64"
        }
      ],
      "name": "updatePrice",
      "outputs": [],
      "stateMutability": "nonpayable",
      "type": "function"
    }
  ],
  "bytecode": "0x60808060405234602e57600080546001600160e01b0319163317613d0960a61b17905561025d90816100348239f35b600080fdfe608080604052600436101561001357600080fd5b60003560e01c90816341976e09146101d1575080637df660a5146100f357806396ce0795146100c8578063cfed246b146100845763f851a4401461005657600080fd5b3461007f57600036600319011261007f576000546040516001600160a01b039091168152602090f35b600080fd5b3461007f57602036600319011261007f576001600160a01b036100a5610211565b166000526001602052602067ffffffffffffffff60406000205416604051908152f35b3461007f57600036600319011261007f57602067ffffffffffffffff60005460a01c16604051908152f35b3461007f57604036600319011261007f5761010c610211565b6024359067ffffffffffffffff821680920361007f576000546001600160a01b03163303610182576001600160a01b03166000818152600160205260408120805467ffffffffffffffff1916841790557f4e8a1506f0160e5a8f035492450562e630d692809144b66e2001566a9139daad9080a3005b60405162461bcd60e51b815260206004820152602160248201527f4f6e6c792061646d696e2063616e2063616c6c20746869732066756e6374696f6044820152603760f91b6064820152608490fd5b3461007f57602036600319011261007f576020906001600160a01b036101f5610211565b166000526001825267ffffffffffffffff604060002054168152f35b600435906001600160a01b038216820361007f5756fea2646970667358221220c5f02a2d53e81d9659282defdad84b578ea13c5a25bf8334010ff211070066a264736f6c634300081d0033",
  "linkReferences": {},
  "deployedLinkReferences": {}
}