{
  "_format": "hh-sol-artifact-1",
  "contractName": "TokenCreateContract",
  "sourceName": "contracts/system-contracts/hedera-token-service/examples/token-create/TokenCreateContract.sol",
  "abi": [
    {
      "anonymous": false,
      "inputs": [
        {
          "indexed": false,
          "internalType": "bool",
          "name": "",
          "type": "bool"
        },
        {
          "indexed": false,
          "internalType": "bytes",
          "name": "",
          "type": "bytes"
        }
      ],
      "name": "CallResponseEvent",
      "type": "event"
    },
    {
      "anonymous": false,
      "inputs": [
        {
          "indexed": false,
          "internalType": "address",
          "name": "tokenAddress",
          "type": "address"
        }
      ],
      "name": "CreatedToken",
      "type": "event"
    },
    {
      "anonymous": false,
      "inputs": [
        {
          "indexed": false,
          "internalType": "bool",
          "name": "kycGranted",
          "type": "bool"
        }
      ],
      "name": "KycGranted",
      "type": "event"
    },
    {
      "anonymous": false,
      "inputs": [
        {
          "indexed": false,
          "internalType": "int64",
          "name": "newTotalSupply",
          "type": "int64"
        },
        {
          "indexed": false,
          "internalType": "int64[]",
          "name": "serialNumbers",
          "type": "int64[]"
        }
      ],
      "name": "MintedToken",
      "type": "event"
    },
    {
      "anonymous": false,
      "inputs": [
        {
          "indexed": false,
          "internalType": "int256",
          "name": "responseCode",
          "type": "int256"
        }
      ],
      "name": "ResponseCode",
      "type": "event"
    },
    {
      "inputs": [
        {
          "internalType": "address",
          "name": "token",
          "type": "address"
        },
        {
          "internalType": "address",
          "name": "spender",
          "type": "address"
        },
        {
          "internalType": "uint256",
          "name": "amount",
          "type": "uint256"
        }
      ],
      "name": "approvePublic",
      "outputs": [
        {
          "internalType": "int256",
          "name": "responseCode",
          "type": "int256"
        }
      ],
      "stateMutability": "nonpayable",
      "type": "function"
    },
    {
      "inputs": [
        {
          "internalType": "address",
          "name": "account",
          "type": "address"
        },
        {
          "internalType": "address",
          "name": "token",
          "type": "address"
        }
      ],
      "name": "associateTokenPublic",
      "outputs": [
        {
          "internalType": "int256",
          "name": "responseCode",
          "type": "int256"
        }
      ],
      "stateMutability": "nonpayable",
      "type": "function"
    },
    {
      "inputs": [
        {
          "internalType": "address",
          "name": "account",
          "type": "address"
        },
        {
          "internalType": "address[]",
          "name": "tokens",
          "type": "address[]"
        }
      ],
      "name": "associateTokensPublic",
      "outputs": [
        {
          "internalType": "int256",
          "name": "responseCode",
          "type": "int256"
        }
      ],
      "stateMutability": "nonpayable",
      "type": "function"
    },
    {
      "inputs": [
        {
          "internalType": "address",
          "name": "treasury",
          "type": "address"
        }
      ],
      "name": "createFungibleTokenPublic",
      "outputs": [],
      "stateMutability": "payable",
      "type": "function"
    },
    {
      "inputs": [
        {
          "internalType": "address",
          "name": "treasury",
          "type": "address"
        },
        {
          "internalType": "address",
          "name": "fixedFeeTokenAddress",
          "type": "address"
        }
      ],
      "name": "createFungibleTokenWithCustomFeesPublic",
      "outputs": [],
      "stateMutability": "payable",
      "type": "function"
    },
    {
      "inputs": [
        {
          "internalType": "address",
          "name": "treasury",
          "type": "address"
        },
        {
          "internalType": "bytes",
          "name": "adminKey",
          "type": "bytes"
        },
        {
          "internalType": "int64",
          "name": "amount",
          "type": "int64"
        }
      ],
      "name": "createFungibleTokenWithSECP256K1AdminKeyAssociateAndTransferToAddressPublic",
      "outputs": [],
      "stateMutability": "payable",
      "type": "function"
    },
    {
      "inputs": [
        {
          "internalType": "address",
          "name": "treasury",
          "type": "address"
        },
        {
          "internalType": "bytes",
          "name": "adminKey",
          "type": "bytes"
        }
      ],
      "name": "createFungibleTokenWithSECP256K1AdminKeyPublic",
      "outputs": [
        {
          "internalType": "address",
          "name": "",
          "type": "address"
        }
      ],
      "stateMutability": "payable",
      "type": "function"
    },
    {
      "inputs": [
        {
          "internalType": "address",
          "name": "treasury",
          "type": "address"
        },
        {
          "internalType": "bytes",
          "name": "adminKey",
          "type": "bytes"
        }
      ],
      "name": "createFungibleTokenWithSECP256K1AdminKeyWithoutKYCPublic",
      "outputs": [
        {
          "internalType": "address",
          "name": "",
          "type": "address"
        }
      ],
      "stateMutability": "payable",
      "type": "function"
    },
    {
      "inputs": [
        {
          "internalType": "address",
          "name": "treasury",
          "type": "address"
        }
      ],
      "name": "createNonFungibleTokenPublic",
      "outputs": [],
      "stateMutability": "payable",
      "type": "function"
    },
    {
      "inputs": [
        {
          "internalType": "address",
          "name": "treasury",
          "type": "address"
        },
        {
          "internalType": "address",
          "name": "fixedFeeTokenAddress",
          "type": "address"
        }
      ],
      "name": "createNonFungibleTokenWithCustomFeesPublic",
      "outputs": [],
      "stateMutability": "payable",
      "type": "function"
    },
    {
      "inputs": [
        {
          "internalType": "address",
          "name": "treasury",
          "type": "address"
        },
        {
          "internalType": "bytes",
          "name": "adminKey",
          "type": "bytes"
        }
      ],
      "name": "createNonFungibleTokenWithSECP256K1AdminKeyPublic",
      "outputs": [],
      "stateMutability": "payable",
      "type": "function"
    },
    {
      "inputs": [
        {
          "internalType": "address",
          "name": "treasury",
          "type": "address"
        },
        {
          "internalType": "bytes",
          "name": "adminKey",
          "type": "bytes"
        }
      ],
      "name": "createNonFungibleTokenWithSECP256K1AdminKeyWithoutKYCPublic",
      "outputs": [],
      "stateMutability": "payable",
      "type": "function"
    },
    {
      "inputs": [
        {
          "internalType": "address",
          "name": "token",
          "type": "address"
        },
        {
          "internalType": "address",
          "name": "account",
          "type": "address"
        }
      ],
      "name": "grantTokenKycPublic",
      "outputs": [
        {
          "internalType": "int64",
          "name": "responseCode",
          "type": "int64"
        }
      ],
      "stateMutability": "nonpayable",
      "type": "function"
    },
    {
      "inputs": [
        {
          "internalType": "address",
          "name": "token",
          "type": "address"
        },
        {
          "internalType": "int64",
          "name": "amount",
          "type": "int64"
        },
        {
          "internalType": "bytes[]",
          "name": "metadata",
          "type": "bytes[]"
        }
      ],
      "name": "mintTokenPublic",
      "outputs": [
        {
          "internalType": "int256",
          "name": "responseCode",
          "type": "int256"
        },
        {
          "internalType": "int64",
          "name": "newTotalSupply",
          "type": "int64"
        },
        {
          "internalType": "int64[]",
          "name": "serialNumbers",
          "type": "int64[]"
        }
      ],
      "stateMutability": "nonpayable",
      "type": "function"
    },
    {
      "inputs": [
        {
          "internalType": "address",
          "name": "token",
          "type": "address"
        },
        {
          "internalType": "int64",
          "name": "amount",
          "type": "int64"
        },
        {
          "internalType": "bytes[]",
          "name": "metadata",
          "type": "bytes[]"
        }
      ],
      "name": "mintTokenToAddressPublic",
      "outputs": [
        {
          "internalType": "int256",
          "name": "responseCode",
          "type": "int256"
        },
        {
          "internalType": "int64",
          "name": "newTotalSupply",
          "type": "int64"
        },
        {
          "internalType": "int64[]",
          "name": "serialNumbers",
          "type": "int64[]"
        }
      ],
      "stateMutability": "nonpayable",
      "type": "function"
    },
    {
      "inputs": [
        {
          "internalType": "address",
          "name": "token",
          "type": "address"
        },
        {
          "internalType": "bytes",
          "name": "encodedFunctionSelector",
          "type": "bytes"
        }
      ],
      "name": "redirectForToken",
      "outputs": [
        {
          "internalType": "int256",
          "name": "responseCode",
          "type": "int256"
        },
        {
          "internalType": "bytes",
          "name": "response",
          "type": "bytes"
        }
      ],
      "stateMutability": "nonpayable",
      "type": "function"
    },
    {
      "inputs": [
        {
          "internalType": "address",
          "name": "token",
          "type": "address"
        },
        {
          "internalType": "address",
          "name": "from",
          "type": "address"
        },
        {
          "internalType": "address",
          "name": "to",
          "type": "address"
        },
        {
          "internalType": "uint256",
          "name": "amount",
          "type": "uint256"
        }
      ],
      "name": "transferFrom",
      "outputs": [
        {
          "internalType": "int64",
          "name": "responseCode",
          "type": "int64"
        }
      ],
      "stateMutability": "nonpayable",
      "type": "function"
    },
    {
      "inputs": [
        {
          "internalType": "address",
          "name": "token",
          "type": "address"
        },
        {
          "internalType": "address",
          "name": "from",
          "type": "address"
        },
        {
          "internalType": "address",
          "name": "to",
          "type": "address"
        },
        {
          "internalType": "uint256",
          "name": "serialNumber",
          "type": "uint256"
        }
      ],
      "name": "transferFromNFT",
      "outputs": [
        {
          "internalType": "int64",
          "name": "responseCode",
          "type": "int64"
        }
      ],
      "stateMutability": "nonpayable",
      "type": "function"
    },
    {
      "inputs": [
        {
          "internalType": "address",
          "name": "token",
          "type": "address"
        },
        {
          "components": [
            {
              "internalType": "string",
              "name": "name",
              "type": "string"
            },
            {
              "internalType": "string",
              "name": "symbol",
              "type": "string"
            },
            {
              "internalType": "address",
              "name": "treasury",
              "type": "address"
            },
            {
              "internalType": "string",
              "name": "memo",
              "type": "string"
            },
            {
              "internalType": "bool",
              "name": "tokenSupplyType",
              "type": "bool"
            },
            {
              "internalType": "int64",
              "name": "maxSupply",
              "type": "int64"
            },
            {
              "internalType": "bool",
              "name": "freezeDefault",
              "type": "bool"
            },
            {
              "components": [
                {
                  "internalType": "uint256",
                  "name": "keyType",
                  "type": "uint256"
                },
                {
                  "components": [
                    {
                      "internalType": "bool",
                      "name": "inheritAccountKey",
                      "type": "bool"
                    },
                    {
                      "internalType": "address",
                      "name": "contractId",
                      "type": "address"
                    },
                    {
                      "internalType": "bytes",
                      "name": "ed25519",
                      "type": "bytes"
                    },
                    {
                      "internalType": "bytes",
                      "name": "ECDSA_secp256k1",
                      "type": "bytes"
                    },
                    {
                      "internalType": "address",
                      "name": "delegatableContractId",
                      "type": "address"
                    }
                  ],
                  "internalType": "struct IHederaTokenService.KeyValue",
                  "name": "key",
                  "type": "tuple"
                }
              ],
              "internalType": "struct IHederaTokenService.TokenKey[]",
              "name": "tokenKeys",
              "type": "tuple[]"
            },
            {
              "components": [
                {
                  "internalType": "int64",
                  "name": "second",
                  "type": "int64"
                },
                {
                  "internalType": "address",
                  "name": "autoRenewAccount",
                  "type": "address"
                },
                {
                  "internalType": "int64",
                  "name": "autoRenewPeriod",
                  "type": "int64"
                }
              ],
              "internalType": "struct IHederaTokenService.Expiry",
              "name": "expiry",
              "type": "tuple"
            }
          ],
          "internalType": "struct IHederaTokenService.HederaToken",
          "name": "tokenInfo",
          "type": "tuple"
        }
      ],
      "name": "updateTokenInfoPublic",
      "outputs": [
        {
          "internalType": "int256",
          "name": "responseCode",
          "type": "int256"
        }
      ],
      "stateMutability": "nonpayable",
      "type": "function"
    }
  ],
  "bytecode": "0x6080604052346102cf57600080546001600160a01b0319168155600160208181527fa6eef7e35abe7026729641147f7915573c7e97b47efa546f5f6e3230263bcb499190915560027fcc69885fda6bcc1a4ace058b4a62bf5e179ea78fd58a1ccd71c22cc9b688792f81905560047fd9d16d34ffb15ba3a3d852f0d403e2ce1d691fb54de27ac87cd2f993f3ec330f5560087f7dfe757ecd65cbd7922a9c0161e935dd7fdbcc0e999689c7d31633896b1fc60b5560107fedc95719e9a3b28dd8e80877cb5880a9be7de1a13fc8b05e7999683b6b567643557fe2689cd4a84e23ad2f564004f1c9013e9589d260bde6380aba3ca7e09e4df40c91909155600690915260407f8f331abe73332f95a25873e8b430885974c0409691f89d643119a11623a7924a555461012f906102d4565b601f8111610285575b507f746f6b656e4e616d650000000000000000000000000000000000000000000012600255600354610169906102d4565b601f811161023b575b507f746f6b656e53796d626f6c0000000000000000000000000000000000000000166003556004546101a3906102d4565b601f81116101f1575b6008636d656d6f60e01b01600455600580546001600160b01b0319167501000000000000000004a817c80000000002540be400179055604051612b86908161030f8239f35b6004600052601f0160051c7f8a35acfbc15ff81a39ae7d344fd709f28e8600b4aa8c65c6b64bfe7fe36bd19b908101905b81811061022f57506101ac565b60008155600101610222565b6003600052601f0160051c7fc2575a0e9e593c00f959f8c92f12db2869c3395a3b0502d05e2516446f71f85b908101905b8181106102795750610172565b6000815560010161026c565b6002600052601f0160051c7f405787fa12a823e0f2b7631cc41b3ba8828b3321ca811111fa75cd3aa3bb5ace908101905b8181106102c35750610138565b600081556001016102b6565b600080fd5b90600182811c92168015610304575b60208310146102ee57565b634e487b7160e01b600052602260045260246000fd5b91607f16916102e356fe6080604052600436101561001257600080fd5b60003560e01c80630488c939146118c55780630fd2601e14611866578063118741e71461175e57806315dacbea1461170357806336348de3146114135780634b5c6687146111fb5780634d1769d6146110ea578063618dc65e1461101c57806371de370714610de45780638ba74da014610a2a5780638f74a17b14610a005780639b23d3d914610960578063b35d417a1461089f578063cc265af414610718578063d85f74c1146104c3578063de84a77914610442578063e9f732261461022e578063f4a01e5b146101c15763f848fec4146100ed57600080fd5b346101b45760603660031901126101b457600080610109611ca9565b610111611cbf565b60405163e1f21c6760e01b602082019081526001600160a01b03938416602483015292909116604480830191909152356064808301919091528152610157608482611d71565b5190826101675af1610167612465565b90156101b9576020818051810103126101b45760206101869101612495565b60030b600080516020612b318339815191526020604051838152a1601681036101b457602090604051908152f35b600080fd5b506015610186565b346101b45760403660031901126101b4576000806101dd611ca9565b6102206101576101eb611cbf565b60405163248a35ef60e11b602082019081526001600160a01b0395861660248301529490911660448201529182906064820190565b03601f198101835282611d71565b60008061023a36611f8d565b6102a26102456120dc565b9161024f81612512565b6102588461211d565b526102628361211d565b5061026c816125f1565b61027584612140565b5261027f83612140565b5061028981612632565b61029284612150565b5261029c83612150565b50612673565b6102ab82612160565b526102b581612160565b50604051916102c383611ce9565b83835260018060a01b0316918260208201526040810190627a1200825260055492604051946102f186611d04565b6102f9612190565b8652610303612274565b60208701526040860152610315612322565b606086015260ff8460a81c16151560808601528360401c60070b60a086015260ff8460a01c16151560c086015260e0850152806101008501525160070b1580610436575b61042a575b506103ad604051809261038a6020830195630fb65bf360e01b87526060602485015260848401906126d8565b908060070b604484015260801c60030b606483015203601f198101835282611d71565b5190346101675af16103bd612465565b901561041e576103d8816020806016945183010191016128bd565b6001600160a01b0316919060030b5b60030b036101b4576040516001600160a01b03909116808252602091600080516020612b11833981519152908390a1604051908152f35b506000601660156103e7565b6276a70090528461035e565b50805160070b15610359565b346101b45761045961045336611e72565b916128ea565b600080516020612b318339815191526020604094939451848152a1601682036101b4576104bf907ffc6b20023c4bac8ff1c48c1693e0cea5cd3c2163e9c2da41c58f17dd6d9f163d604051806104b08488836124a3565b0390a160405193849384611f6b565b0390f35b60203660031901126101b4576104d7611ca9565b6000806104e261205a565b926020936104fe6040516104f68782611d71565b8481526124ed565b6105078261211d565b526105118161211d565b5061052a6040516105228782611d71565b848152612526565b61053382612140565b5261053d81612140565b5061055660405161054e8782611d71565b848152612561565b61055f82612150565b5261056981612150565b5061058260405161057a8782611d71565b848152612585565b61058b82612160565b5261059581612160565b506105ae6040516105a68782611d71565b8481526125a9565b6105b782612170565b526105c181612170565b50604051916105cf83611ce9565b83835260018060a01b03169182868201526040810191627a1200835260ff600554604051956105fd87611d04565b610605612190565b875261060f612274565b8a8801526040870152610620612322565b6060870152818160a81c16151560808701528060401c60070b60a087015260a01c16151560c085015260e0840152806101008401525160070b158061070c575b610700575b5060405161068e816102208782019463ea83f29360e01b865288602484015260448301906126d8565b5190346101675af161069e612465565b90156106f357906106b98282806016955183010191016128bd565b6001600160a01b0316929060030b5b60030b036101b4576040516001600160a01b039092168252600080516020612b1183398151915291a1005b50600090601660156106c8565b6276a700905284610665565b50805160070b15610660565b60008061072436611f8d565b61072f6102456120dc565b61073882612160565b5261074281612160565b506040519161075083611ce9565b83835260018060a01b0316918260208201526040810191627a1200835260ff6005546040519561077f87611d04565b610787612190565b8752610791612274565b602088015260408701526107a3612322565b6060870152818160a81c16151560808701528060401c60070b60a087015260a01c16151560c085015260e0840152806101008401525160070b1580610893575b610887575b5060405161081381610220602082019463ea83f29360e01b86526020602484015260448301906126d8565b5190346101675af1610823612465565b901561087b5761083e816020806016945183010191016128bd565b6001600160a01b0316919060030b5b60030b036101b4576040516001600160a01b039091168152600080516020612b1183398151915290602090a1005b5060006016601561084d565b6276a7009052836107e8565b50805160070b156107e3565b6000806108ab36611f8d565b61094d6108b661209b565b916108c081612512565b6108c98461211d565b526108d38361211d565b506108dd816125cd565b6108e684612140565b526108f083612140565b506108fa816125f1565b61090384612150565b5261090d83612150565b5061091781612632565b61092084612160565b5261092a83612160565b5061093481612673565b61093d84612170565b5261094783612170565b50612697565b61095682612180565b5261074281612180565b346101b4576000806109bb61022061097736611da9565b604051639b23d3d960e01b602082019081526001600160a01b03958616602483015293851660448201529390911660648401526084830152929091829060a4820190565b5190826101675af16109cb612465565b90156109f6576020818051810103126101b4576109eb6020809201612495565b6040519060030b8152f35b50602060156109eb565b600080610a0c36611f8d565b610a176108b661209b565b610a2082612180565b526102b581612180565b60403660031901126101b457610a3e611ca9565b610a46611cbf565b6040805190610a558183611d71565b60018252601f190160005b818110610db7575050602091610a90604051610a7c8582611d71565b60008152610a88612039565b506000612a78565b60405190610a9d82611d56565b6001825284820152610aae8361211d565b52610ab88261211d565b5060405193610ac685611ce9565b6000855260018060a01b03168084860152627a1200604086015260055460405193610af085611d04565b610af8612190565b8552610b02612274565b86860152826040860152610b14612322565b606086015260ff8260a81c16151560808601528160401c60070b60a0860152600060c086015260e08501526101008401958652610b4f6123d0565b9260405190610b5d82611d20565b600182526001600160a01b031686820152600060408201819052606082015260808101839052610b8c8461211d565b52610b968361211d565b50604095865192610ba78885611d71565b60018452601f1988018760005b828110610da15750505090610c669291885190610bd082611d3b565b60048252600589830152600a8a830152601e60608301526000608083015260a0820152610bfc8561211d565b52610c068461211d565b505187815160070b1580610d93575b610d85575b90505193610c408786019663157862cd60e11b885260a0602488015260c48701906126d8565b918060070b604487015260801c60030b6064860152602319858303016084860152612849565b8281036023190160a484015281518082529085019185019060005b86828210610d285788906000808989610ca3818b03601f198101835282611d71565b5190346101675af1610cb3612465565b9015610d1c57610ccd8183806016945183010191016128bd565b6001600160a01b0316919060030b5b60030b600080516020612b31833981519152848651838152a1036101b45791516001600160a01b039092168252600080516020612b1183398151915291a1005b50600060166015610cdc565b60c08495600193949551805160070b82528381015160070b848301528b81015160070b8c830152606081015160070b606083015260808101511515608083015260a08580821b039101511660a08201520194019101919091610c81565b6276a7009101528787610c1a565b508082015160070b15610c15565b610da9612434565b828289010152018890610bb4565b602090610dc2612039565b82828601015201610a60565b634e487b7160e01b600052604160045260246000fd5b60603660031901126101b457610df8611ca9565b6024356001600160401b0381116101b457610e17903690600401611e12565b604435918260070b83036101b457604051638f74a17b60e01b81529160209183918291610e489190600484016124bd565b038134305af1908115610f9857600091610fd3575b5060405163f4a01e5b60e01b81523360048201526001600160a01b03821660248201529091906020816044816000305af18015610f9857610fa4575b506040516307e9300f60e11b81526001600160a01b03831660048201523360248201526020816044816000305af18015610f9857610f4f575b5060405163eca3691760e01b602082019081526001600160a01b03909316602482015230604482015233606482015260079190910b60848201526000918291610f1e8160a48101610220565b5190826101675af1610f2e612465565b9015610f4d576020818051810103126101b4576020610f4d9101612495565b005b90916020823d602011610f90575b81610f6a60209383611d71565b810103126101b457610220610f1e600094610f8586956124df565b509350505091610ed2565b3d9150610f5d565b6040513d6000823e3d90fd5b6020813d602011610fcb575b81610fbd60209383611d71565b810103126101b45751610e99565b3d9150610fb0565b6020813d602011611014575b81610fec60209383611d71565b810103126110105751906001600160a01b038216820361100d575082610e5d565b80fd5b5080fd5b3d9150610fdf565b346101b45760008061105461022061103336611f8d565b60409391935192839160208301956330c6e32f60e11b8752602484016124bd565b5190826101675af1611064612465565b907f4af4780e06fe8cb9df64b0794fa6f01399af979175bb988e35e0e57e594567bc604051821515815260406020820152806110a36040820186611fcc565b0390a1600090156110d1575060165b6104bf60405192839260030b8352604060208401526040830190611fcc565b60405191506110e1602083611d71565b815260156110b2565b346101b4576111046110fb36611e72565b908293926128ea565b9092600080516020612b318339815191526020604051858152a1601683036101b457600080917ffc6b20023c4bac8ff1c48c1693e0cea5cd3c2163e9c2da41c58f17dd6d9f163d6040518061115a878a836124a3565b0390a16102206111b061116c8661211d565b51604051635cfc901160e01b602082019081526001600160a01b03909516602482015230604482015233606482015260079190910b608482015291829060a4820190565b5190826101675af1906111c1612465565b91156111f1576020828051810103126101b4576111e360206104bf9301612495565b505b60405193849384611f6b565b6104bf91506111e5565b60203660031901126101b45761120f611ca9565b60008061121a61209b565b9260209361122e6040516104f68782611d71565b6112378261211d565b526112418161211d565b506112526040516105228782611d71565b61125b82612140565b5261126581612140565b5061127660405161054e8782611d71565b61127f82612150565b5261128981612150565b5061129a6040516105a68782611d71565b6112a382612160565b526112ad81612160565b506112be60405161057a8782611d71565b6112c782612170565b526112d181612170565b506040516112df8682611d71565b83815261130384916112ef612039565b506005835260018852604083205492612a78565b6040519161131083611d56565b82528682015261131f82612180565b5261132981612180565b506040519161133783611ce9565b83835260018060a01b03169182868201526040810190627a12008252600554926040519461136486611d04565b61136c612190565b8652611376612274565b898701526040860152611387612322565b606086015260ff8460a81c16151560808601528360401c60070b60a086015260ff8460a01c16151560c086015260e0850152806101008501525160070b1580611407575b6113fb575b5061068e604051809261038a88830195630fb65bf360e01b87526060602485015260848401906126d8565b6276a7009052856113d0565b50805160070b156113cb565b346101b45760403660031901126101b45761142c611ca9565b6024356001600160401b0381116101b457803603916101606003198401126101b4576040519261145b84611d04565b82600401356001600160401b0381116101b45761147e9060043691860101611e12565b845260248301356001600160401b0381116101b4576114a39060043691860101611e12565b60208501526114b460448401611cd5565b604085015260648301356001600160401b0381116101b4576114dc9060043691860101611e12565b60608501526114ed60848401611e57565b60808501526114fe60a48401611e64565b60a085015261150f60c48401611e57565b60c085015260e48301356001600160401b0381116101b4578301366023820112156101b457600481013561154281611d92565b916115506040519384611d71565b818352602060048185019360051b83010101903682116101b45760248101925b828410611611575050505060e0850152606061010319909101126101b45761022061015760009485946115d3610144604051926115ac84611ce9565b6115b96101048201611e64565b84526115c86101248201611cd5565b602085015201611e64565b60408201526101008201526040519283916020830195633e982e7d60e11b875260018060a01b031660248401526040604484015260648301906126d8565b83356001600160401b0381116101b4576004908301016040601f1982360301126101b4576040519061164282611d56565b6020810135825260408101356001600160401b0381116101b45760209101019160a0833603126101b4576040519161167983611d20565b61168284611e57565b835261169060208501611cd5565b602084015260408401356001600160401b0381116101b4576116b59036908601611e12565b60408401526060840135926001600160401b0384116101b4576116ef60806020966116e4889736908301611e12565b606085015201611cd5565b608082015283820152815201930192611570565b346101b4576000806109bb61022061171a36611da9565b604051630aed65f560e11b602082019081526001600160a01b03958616602483015293851660448201529390911660648401526084830152929091829060a4820190565b346101b45760403660031901126101b457611777611ca9565b6024356001600160401b0381116101b457366023820112156101b45780600401356117a181611d92565b916117af6040519384611d71565b818352602083016024819360051b830101913683116101b457602401905b82821061184e57505050604051926020840192632e63879b60e01b8452606485019160018060a01b03166024860152604060448601525180915260848401919060005b81811061182f576000808688610157818903601f198101835282611d71565b82516001600160a01b0316845260209384019390920191600101611810565b6020809161185b84611cd5565b8152019101906117cd565b346101b45760403660031901126101b457600080611882611ca9565b610220610157611890611cbf565b604051638f8d7f9960e01b602082019081526001600160a01b0395861660248301529490911660448201529182906064820190565b60403660031901126101b4576118d9611ca9565b6118e1611cbf565b906118ea61205a565b6020916119066040516118fd8582611d71565b600081526124ed565b61190f8361211d565b526119198261211d565b5061193360405161192a8582611d71565b60008152612526565b61193c83612140565b5261194682612140565b506119606040516119578582611d71565b60008152612561565b61196983612150565b5261197382612150565b5061198d6040516119848582611d71565b60008152612585565b61199683612160565b526119a082612160565b506119ba6040516119b18582611d71565b600081526125a9565b6119c383612170565b526119cd82612170565b50604051906119db82611ce9565b6000825260018060a01b03168084830152627a120060408301526005549260ff60405194611a0886611d04565b611a10612190565b8652611a1a612274565b87870152836040870152611a2c612322565b6060870152818160a81c16151560808701528060401c60070b60a087015260a01c16151560c085015260e08401526101008301918252611a6a6123d0565b9160405195611a7887611d20565b600187526001600160a01b031685870181905260006040880181905260608801526080870183905295611aaa8461211d565b52611ab48361211d565b50604095865192611ac58885611d71565b60018452601f1988018760005b828110611c9357505050875191611ae883611d3b565b60048352600588840152600a8984015260608301526000608083015260a0820152611b128361211d565b52611b1c8261211d565b505185815160070b1580611c85575b611c77575b611b6b91505192611b598685019563abb54eb560e01b87526060602487015260848601906126d8565b84810360231901604486015290612849565b82810360231901606484015281518082529085019185019060005b86828210611c175788906000808989611ba8818b03601f198101835282611d71565b5190346101675af1611bb8612465565b9015611c0b57611bd28183806016945183010191016128bd565b6001600160a01b0316919060030b5b60030b036101b45791516001600160a01b039092168252600080516020612b1183398151915291a1005b50600060166015611be1565b83518051600790810b875282820151810b838801528a820151900b8a8701526060808201516001600160a01b039081169188019190915260808083015115159088015260a091820151169086015260c09094019390920191600101611b86565b6276a7009101528585611b30565b508082015160070b15611b2b565b611c9b612434565b828289010152018890611ad2565b600435906001600160a01b03821682036101b457565b602435906001600160a01b03821682036101b457565b35906001600160a01b03821682036101b457565b606081019081106001600160401b03821117610dce57604052565b61012081019081106001600160401b03821117610dce57604052565b60a081019081106001600160401b03821117610dce57604052565b60c081019081106001600160401b03821117610dce57604052565b604081019081106001600160401b03821117610dce57604052565b90601f801991011681019081106001600160401b03821117610dce57604052565b6001600160401b038111610dce5760051b60200190565b60809060031901126101b4576004356001600160a01b03811681036101b457906024356001600160a01b03811681036101b457906044356001600160a01b03811681036101b4579060643590565b6001600160401b038111610dce57601f01601f191660200190565b81601f820112156101b457602081359101611e2c82611df7565b92611e3a6040519485611d71565b828452828201116101b45781600092602092838601378301015290565b359081151582036101b457565b35908160070b82036101b457565b60606003198201126101b4576004356001600160a01b03811681036101b457916024358060070b81036101b45791604435906001600160401b0382116101b457806023830112156101b4578160040135611ecb81611d92565b92611ed96040519485611d71565b8184526024602085019260051b820101918383116101b45760248201905b838210611f0657505050505090565b81356001600160401b0381116101b457602091611f298760248594880101611e12565b815201910190611ef7565b906020808351928381520192019060005b818110611f525750505090565b825160070b845260209384019390920191600101611f45565b611f8a9392606092825260070b60208201528160408201520190611f34565b90565b9060406003198301126101b4576004356001600160a01b03811681036101b45791602435906001600160401b0382116101b457611f8a91600401611e12565b919082519283825260005b848110611ff8575050826000602080949584010152601f8019910116010190565b80602080928401015182828601015201611fd7565b6040519061201a82611d20565b6000608083828152826020820152606060408201526060808201520152565b6040519061204682611d56565b8160008152602061205561200d565b910152565b60405160c0919061206b8382611d71565b6005815291601f19018260005b82811061208457505050565b60209061208f612039565b82828501015201612078565b60405160e091906120ac8382611d71565b6006815291601f19018260005b8281106120c557505050565b6020906120d0612039565b828285010152016120b9565b60405160a091906120ed8382611d71565b6004815291601f19018260005b82811061210657505050565b602090612111612039565b828285010152016120fa565b80511561212a5760200190565b634e487b7160e01b600052603260045260246000fd5b80516001101561212a5760400190565b80516002101561212a5760600190565b80516003101561212a5760800190565b80516004101561212a5760a00190565b80516005101561212a5760c00190565b604051906000600254908160011c9160018116801561226a575b60208410811461225657838652859291811561223757506001146121d7575b6121d592500383611d71565b565b506002600090815290917f405787fa12a823e0f2b7631cc41b3ba8828b3321ca811111fa75cd3aa3bb5ace5b81831061221b5750509060206121d5928201016121c9565b6020919350806001915483858901015201910190918492612203565b602092506121d594915060ff191682840152151560051b8201016121c9565b634e487b7160e01b83526022600452602483fd5b92607f16926121aa565b604051906000600354908160011c91600181168015612318575b60208410811461225657838652859291811561223757506001146122b8576121d592500383611d71565b506003600090815290917fc2575a0e9e593c00f959f8c92f12db2869c3395a3b0502d05e2516446f71f85b5b8183106122fc5750509060206121d5928201016121c9565b60209193508060019154838589010152019101909184926122e4565b92607f169261228e565b604051906000600454908160011c916001811680156123c6575b6020841081146122565783865285929181156122375750600114612366576121d592500383611d71565b506004600090815290917f8a35acfbc15ff81a39ae7d344fd709f28e8600b4aa8c65c6b64bfe7fe36bd19b5b8183106123aa5750509060206121d5928201016121c9565b6020919350806001915483858901015201910190918492612392565b92607f169261233c565b604080519091906123e18382611d71565b6001815291601f19018260005b8281106123fa57505050565b60209060405161240981611d20565b60008152600083820152600060408201526000606082015260006080820152828285010152016123ee565b6040519061244182611d3b565b600060a0838281528260208201528260408201528260608201528260808201520152565b3d15612490573d9061247682611df7565b916124846040519384611d71565b82523d6000602084013e565b606090565b51908160030b82036101b457565b604090611f8a939260070b81528160208201520190611f34565b6001600160a01b039091168152604060208201819052611f8a92910190611fcc565b51908160070b82036101b457565b6124f990610a88612039565b6040519061250682611d56565b60418252602082015290565b6124f99061251e612039565b506003612a78565b61252e612039565b506001600052600160205261254a604060002054916000612a78565b6040519161255783611d56565b8252602082015290565b612569612039565b506002600052600160205261254a604060002054916000612a78565b61258d612039565b506004600052600160205261254a604060002054916000612a78565b6125b1612039565b506003600052600160205261254a604060002054916000612a78565b6125d5612039565b506001600052600160205261254a604060002054916003612a78565b6125f9612039565b50600260005260016020527fd9d16d34ffb15ba3a3d852f0d403e2ce1d691fb54de27ac87cd2f993f3ec330f549061254a906003612a78565b61263a612039565b50600460005260016020527fedc95719e9a3b28dd8e80877cb5880a9be7de1a13fc8b05e7999683b6b567643549061254a906003612a78565b61267b612039565b506003600052600160205261254a604060002054916003612a78565b61269f612039565b50600560005260016020527fe2689cd4a84e23ad2f564004f1c9013e9589d260bde6380aba3ca7e09e4df40c549061254a906003612a78565b9061272a6127066126f484516101608552610160850190611fcc565b60208501518482036020860152611fcc565b60018060a01b03604085015116604084015260608401518382036060850152611fcc565b9160808101511515608083015260a081015160070b60a083015260c0810151151560c083015260e08101519282810360e0840152835180825260208201916020808360051b8301019601926000915b8383106127b95750505050506040610100610140920151805160070b61010085015260018060a01b03602082015116610120850152015160070b91015290565b9091929396602080600192601f19858203018652818b5180518352015190604083820152815115156040820152848060a01b038383015116606082015260c061282a612814604085015160a0608086015260e0850190611fcc565b6060850151848203603f190160a0860152611fcc565b926080878060a01b039101511691015299019301930191939290612779565b906020808351928381520192019060005b8181106128675750505090565b8251805160070b85526020818101516001600160a01b0390811682880152604080840151151590880152606080840151151590880152608092830151169186019190915260a0909401939092019160010161285a565b91908260409103126101b45760206128d483612495565b9201516001600160a01b03811681036101b45790565b929160405193602085019263707a02cd60e11b8452608486019160018060a01b0316602487015260070b604486015260606064860152815180915260a4850190602060a48260051b8801019301916000905b828210612a4d5750505050908361296060009495859403601f198101835282611d71565b5190826101675af1612970612465565b9060009015612a2c575080518101606082602083019203126101b45761299860208301612495565b6129a4604084016124df565b926060810151906001600160401b0382116101b457019180603f840112156101b45760208301516129d481611d92565b936129e26040519586611d71565b8185526020808087019360051b830101019283116101b457604001905b828210612a145750505091905b909160030b92565b60208091612a21846124df565b8152019101906129ff565b6040519150612a3c602083611d71565b808252368137601590600090612a0c565b90919293602080612a6a60019360a3198c82030186528851611fcc565b96019201920190929161293c565b9190612a8261200d565b926005811015612afa5780612a9957505060018252565b600060018203612ab95750506000546001600160a01b0316602084015250565b5060028103612aca57506040830152565b600060038203612add5750506060830152565b6004925050036121d5576000546001600160a01b03166080830152565b634e487b7160e01b600052602160045260246000fdfe7bb17726df1f3adee8aa00ba8e8bc5d6f182af3bbf77604639cb7f008dd3b4ed90a5cf4cffe88b4edbb041cfc7a8a812c48a5ec30b84640fb37690875168e3aaa264697066735822122074e55a6ed86681eb73423f5e489c7f57224c8d75028fb253fe94eb74613fbfbd64736f6c634300081d0033",
  "linkReferences": {},
  "deployedLinkReferences": {}
}