{
  "_format": "hh-sol-artifact-1",
  "contractName": "HRC719Contract",
  "sourceName": "contracts/system-contracts/hedera-token-service/examples/hrc-719/HRC719Contract.sol",
  "abi": [
    {
      "anonymous": false,
      "inputs": [
        {
          "indexed": false,
          "internalType": "bool",
          "name": "status",
          "type": "bool"
        }
      ],
      "name": "IsAssociated",
      "type": "event"
    },
    {
      "inputs": [
        {
          "internalType": "address",
          "name": "token",
          "type": "address"
        }
      ],
      "name": "associate",
      "outputs": [
        {
          "internalType": "uint256",
          "name": "responseCode",
          "type": "uint256"
        }
      ],
      "stateMutability": "nonpayable",
      "type": "function"
    },
    {
      "inputs": [
        {
          "internalType": "address",
          "name": "token",
          "type": "address"
        }
      ],
      "name": "dissociate",
      "outputs": [
        {
          "internalType": "uint256",
          "name": "responseCode",
          "type": "uint256"
        }
      ],
      "stateMutability": "nonpayable",
      "type": "function"
    },
    {
      "inputs": [
        {
          "internalType": "address",
          "name": "token",
          "type": "address"
        }
      ],
      "name": "isAssociated",
      "outputs": [],
      "stateMutability": "nonpayable",
      "type": "function"
    }
  ],
  "bytecode": "0x6080806040523460155761025d908161001b8239f35b600080fdfe608080604052600436101561001357600080fd5b60003560e01c908163322e35501461019c57508063d55fe582146100dd5763d89f31231461004057600080fd5b346100c45760203660031901126100c4576004356001600160a01b038116908190036100c457602060009160046040518094819363053aa6f360e11b83525af180156100d157600090610099575b602090604051908152f35b506020813d6020116100c9575b816100b3602093836101ef565b810103126100c4576020905161008e565b600080fd5b3d91506100a6565b6040513d6000823e3d90fd5b346100c45760203660031901126100c4576004356001600160a01b038116908190036100c457602060049160405192838092634d8fdd6d60e01b82525afa9081156100d157600091610159575b7f69aab4f43be6895e531764e5a61651bff1a197b11793d3716ac700ad4030f6066020836040519015158152a1005b6020813d602011610194575b81610172602093836101ef565b81010312610190575190811515820361018d5750602061012a565b80fd5b5080fd5b3d9150610165565b346100c45760203660031901126100c4576004356001600160a01b038116908190036100c4578160048160006020946302e490bf60e51b83525af180156100d15760009061009957602090604051908152f35b90601f8019910116810190811067ffffffffffffffff82111761021157604052565b634e487b7160e01b600052604160045260246000fdfea264697066735822122035723e700b811cac6c577d3170549c58080e3f01bc1d63a2681033aa8a8c244d64736f6c634300081d0033",
  "linkReferences": {},
  "deployedLinkReferences": {}
}