{
  "_format": "hh-sol-artifact-1",
  "contractName": "TokenTransferContract",
  "sourceName": "contracts/system-contracts/hedera-token-service/examples/token-transfer/TokenTransferContract.sol",
  "abi": [
    {
      "anonymous": false,
      "inputs": [
        {
          "indexed": false,
          "internalType": "bool",
          "name": "",
          "type": "bool"
        },
        {
          "indexed": false,
          "internalType": "bytes",
          "name": "",
          "type": "bytes"
        }
      ],
      "name": "CallResponseEvent",
      "type": "event"
    },
    {
      "anonymous": false,
      "inputs": [
        {
          "indexed": false,
          "internalType": "int256",
          "name": "responseCode",
          "type": "int256"
        }
      ],
      "name": "ResponseCode",
      "type": "event"
    },
    {
      "inputs": [
        {
          "internalType": "address",
          "name": "token",
          "type": "address"
        },
        {
          "internalType": "address",
          "name": "approved",
          "type": "address"
        },
        {
          "internalType": "uint256",
          "name": "serialNumber",
          "type": "uint256"
        }
      ],
      "name": "approveNFTPublic",
      "outputs": [
        {
          "internalType": "int256",
          "name": "responseCode",
          "type": "int256"
        }
      ],
      "stateMutability": "nonpayable",
      "type": "function"
    },
    {
      "inputs": [
        {
          "internalType": "address",
          "name": "token",
          "type": "address"
        },
        {
          "internalType": "address",
          "name": "spender",
          "type": "address"
        },
        {
          "internalType": "uint256",
          "name": "amount",
          "type": "uint256"
        }
      ],
      "name": "approvePublic",
      "outputs": [
        {
          "internalType": "int256",
          "name": "responseCode",
          "type": "int256"
        }
      ],
      "stateMutability": "nonpayable",
      "type": "function"
    },
    {
      "inputs": [
        {
          "internalType": "address",
          "name": "account",
          "type": "address"
        },
        {
          "internalType": "address",
          "name": "token",
          "type": "address"
        }
      ],
      "name": "associateTokenPublic",
      "outputs": [
        {
          "internalType": "int256",
          "name": "responseCode",
          "type": "int256"
        }
      ],
      "stateMutability": "nonpayable",
      "type": "function"
    },
    {
      "inputs": [
        {
          "components": [
            {
              "components": [
                {
                  "internalType": "address",
                  "name": "accountID",
                  "type": "address"
                },
                {
                  "internalType": "int64",
                  "name": "amount",
                  "type": "int64"
                },
                {
                  "internalType": "bool",
                  "name": "isApproval",
                  "type": "bool"
                }
              ],
              "internalType": "struct IHederaTokenService.AccountAmount[]",
              "name": "transfers",
              "type": "tuple[]"
            }
          ],
          "internalType": "struct IHederaTokenService.TransferList",
          "name": "transferList",
          "type": "tuple"
        },
        {
          "components": [
            {
              "internalType": "address",
              "name": "token",
              "type": "address"
            },
            {
              "components": [
                {
                  "internalType": "address",
                  "name": "accountID",
                  "type": "address"
                },
                {
                  "internalType": "int64",
                  "name": "amount",
                  "type": "int64"
                },
                {
                  "internalType": "bool",
                  "name": "isApproval",
                  "type": "bool"
                }
              ],
              "internalType": "struct IHederaTokenService.AccountAmount[]",
              "name": "transfers",
              "type": "tuple[]"
            },
            {
              "components": [
                {
                  "internalType": "address",
                  "name": "senderAccountID",
                  "type": "address"
                },
                {
                  "internalType": "address",
                  "name": "receiverAccountID",
                  "type": "address"
                },
                {
                  "internalType": "int64",
                  "name": "serialNumber",
                  "type": "int64"
                },
                {
                  "internalType": "bool",
                  "name": "isApproval",
                  "type": "bool"
                }
              ],
              "internalType": "struct IHederaTokenService.NftTransfer[]",
              "name": "nftTransfers",
              "type": "tuple[]"
            }
          ],
          "internalType": "struct IHederaTokenService.TokenTransferList[]",
          "name": "tokenTransferList",
          "type": "tuple[]"
        }
      ],
      "name": "cryptoTransferPublic",
      "outputs": [
        {
          "internalType": "int256",
          "name": "responseCode",
          "type": "int256"
        }
      ],
      "stateMutability": "nonpayable",
      "type": "function"
    },
    {
      "inputs": [
        {
          "internalType": "address",
          "name": "token",
          "type": "address"
        },
        {
          "internalType": "address",
          "name": "account",
          "type": "address"
        }
      ],
      "name": "grantTokenKycPublic",
      "outputs": [
        {
          "internalType": "int64",
          "name": "responseCode",
          "type": "int64"
        }
      ],
      "stateMutability": "nonpayable",
      "type": "function"
    },
    {
      "inputs": [
        {
          "internalType": "address",
          "name": "token",
          "type": "address"
        },
        {
          "internalType": "bytes",
          "name": "encodedFunctionSelector",
          "type": "bytes"
        }
      ],
      "name": "redirectForToken",
      "outputs": [
        {
          "internalType": "int256",
          "name": "responseCode",
          "type": "int256"
        },
        {
          "internalType": "bytes",
          "name": "response",
          "type": "bytes"
        }
      ],
      "stateMutability": "nonpayable",
      "type": "function"
    },
    {
      "inputs": [
        {
          "internalType": "address",
          "name": "token",
          "type": "address"
        },
        {
          "internalType": "address",
          "name": "operator",
          "type": "address"
        },
        {
          "internalType": "bool",
          "name": "approved",
          "type": "bool"
        }
      ],
      "name": "setApprovalForAllPublic",
      "outputs": [
        {
          "internalType": "int256",
          "name": "responseCode",
          "type": "int256"
        }
      ],
      "stateMutability": "nonpayable",
      "type": "function"
    },
    {
      "inputs": [
        {
          "internalType": "address",
          "name": "token",
          "type": "address"
        },
        {
          "internalType": "address",
          "name": "from",
          "type": "address"
        },
        {
          "internalType": "address",
          "name": "to",
          "type": "address"
        },
        {
          "internalType": "uint256",
          "name": "amount",
          "type": "uint256"
        }
      ],
      "name": "transferFrom",
      "outputs": [
        {
          "internalType": "int64",
          "name": "responseCode",
          "type": "int64"
        }
      ],
      "stateMutability": "nonpayable",
      "type": "function"
    },
    {
      "inputs": [
        {
          "internalType": "address",
          "name": "token",
          "type": "address"
        },
        {
          "internalType": "address",
          "name": "from",
          "type": "address"
        },
        {
          "internalType": "address",
          "name": "to",
          "type": "address"
        },
        {
          "internalType": "uint256",
          "name": "serialNumber",
          "type": "uint256"
        }
      ],
      "name": "transferFromNFT",
      "outputs": [
        {
          "internalType": "int64",
          "name": "responseCode",
          "type": "int64"
        }
      ],
      "stateMutability": "nonpayable",
      "type": "function"
    },
    {
      "inputs": [
        {
          "internalType": "address",
          "name": "token",
          "type": "address"
        },
        {
          "internalType": "address",
          "name": "from",
          "type": "address"
        },
        {
          "internalType": "address",
          "name": "to",
          "type": "address"
        },
        {
          "internalType": "uint256",
          "name": "serialNumber",
          "type": "uint256"
        }
      ],
      "name": "transferFromNFTPublic",
      "outputs": [
        {
          "internalType": "int64",
          "name": "responseCode",
          "type": "int64"
        }
      ],
      "stateMutability": "nonpayable",
      "type": "function"
    },
    {
      "inputs": [
        {
          "internalType": "address",
          "name": "token",
          "type": "address"
        },
        {
          "internalType": "address",
          "name": "from",
          "type": "address"
        },
        {
          "internalType": "address",
          "name": "to",
          "type": "address"
        },
        {
          "internalType": "uint256",
          "name": "amount",
          "type": "uint256"
        }
      ],
      "name": "transferFromPublic",
      "outputs": [
        {
          "internalType": "int64",
          "name": "responseCode",
          "type": "int64"
        }
      ],
      "stateMutability": "nonpayable",
      "type": "function"
    },
    {
      "inputs": [
        {
          "internalType": "address",
          "name": "token",
          "type": "address"
        },
        {
          "internalType": "address",
          "name": "sender",
          "type": "address"
        },
        {
          "internalType": "address",
          "name": "receiver",
          "type": "address"
        },
        {
          "internalType": "int64",
          "name": "serialNumber",
          "type": "int64"
        }
      ],
      "name": "transferNFTPublic",
      "outputs": [
        {
          "internalType": "int256",
          "name": "responseCode",
          "type": "int256"
        }
      ],
      "stateMutability": "nonpayable",
      "type": "function"
    },
    {
      "inputs": [
        {
          "internalType": "address",
          "name": "token",
          "type": "address"
        },
        {
          "internalType": "address[]",
          "name": "sender",
          "type": "address[]"
        },
        {
          "internalType": "address[]",
          "name": "receiver",
          "type": "address[]"
        },
        {
          "internalType": "int64[]",
          "name": "serialNumber",
          "type": "int64[]"
        }
      ],
      "name": "transferNFTsPublic",
      "outputs": [
        {
          "internalType": "int256",
          "name": "responseCode",
          "type": "int256"
        }
      ],
      "stateMutability": "nonpayable",
      "type": "function"
    },
    {
      "inputs": [
        {
          "internalType": "address",
          "name": "token",
          "type": "address"
        },
        {
          "internalType": "address",
          "name": "sender",
          "type": "address"
        },
        {
          "internalType": "address",
          "name": "receiver",
          "type": "address"
        },
        {
          "internalType": "int64",
          "name": "amount",
          "type": "int64"
        }
      ],
      "name": "transferTokenPublic",
      "outputs": [
        {
          "internalType": "int256",
          "name": "responseCode",
          "type": "int256"
        }
      ],
      "stateMutability": "nonpayable",
      "type": "function"
    },
    {
      "inputs": [
        {
          "internalType": "address",
          "name": "token",
          "type": "address"
        },
        {
          "internalType": "address[]",
          "name": "accountId",
          "type": "address[]"
        },
        {
          "internalType": "int64[]",
          "name": "amount",
          "type": "int64[]"
        }
      ],
      "name": "transferTokensPublic",
      "outputs": [
        {
          "internalType": "int256",
          "name": "responseCode",
          "type": "int256"
        }
      ],
      "stateMutability": "nonpayable",
      "type": "function"
    }
  ],
  "bytecode": "0x60806040523461012e57600080546001600160a01b0319168155600160208181527fa6eef7e35abe7026729641147f7915573c7e97b47efa546f5f6e3230263bcb499190915560027fcc69885fda6bcc1a4ace058b4a62bf5e179ea78fd58a1ccd71c22cc9b688792f5560047fd9d16d34ffb15ba3a3d852f0d403e2ce1d691fb54de27ac87cd2f993f3ec330f5560087f7dfe757ecd65cbd7922a9c0161e935dd7fdbcc0e999689c7d31633896b1fc60b5560107fedc95719e9a3b28dd8e80877cb5880a9be7de1a13fc8b05e7999683b6b567643557fe2689cd4a84e23ad2f564004f1c9013e9589d260bde6380aba3ca7e09e4df40c556006905260407f8f331abe73332f95a25873e8b430885974c0409691f89d643119a11623a7924a8190555161116990816101348239f35b600080fdfe608080604052600436101561001357600080fd5b60003560e01c9081630fd2601e14610c135750806315dacbea14610bd85780634ba6703514610b7a5780635813155114610acc578063618dc65e1461097c5780636c40a7771461094a5780636da6b1f0146108ec578063842b71db14610826578063970e23d2146104185780639b23d3d91461039e578063cc2528f0146102b8578063df6c06f514610269578063f25b1200146101f2578063f4a01e5b146101935763f848fec4146100c457600080fd5b346101865760008061011d6100d836610ef0565b60405163e1f21c6760e01b602082019081526001600160a01b03948516602483015292909316604484015260648301529181608481015b03601f198101835282610d92565b5190826101675af161012d610f62565b901561018b578060208061014693518301019101610f92565b60030b7f90a5cf4cffe88b4edbb041cfc7a8a812c48a5ec30b84640fb37690875168e3aa6020604051838152a16016810361018657602090604051908152f35b600080fd5b506015610146565b34610186576040366003190112610186576000806101af610c6d565b61010f61011d6101bd610c83565b60405163248a35ef60e11b602082019081526001600160a01b0395861660248301529490911660448201529182906064820190565b346101865760603660031901126101865761020b610c6d565b610213610c83565b906044359081151580920361018657604051631b3b02e560e11b602082019081526001600160a01b039283166024830152939091166044820152606480820192909252908152600091829161011d608482610d92565b346101865760008061011d61027d36610ef0565b6040516307336aaf60e41b602082019081526001600160a01b039485166024830152929093166044840152606483015291816084810161010f565b34610186576080366003190112610186576102d1610c6d565b6024356001600160401b038111610186576102f0903690600401610dca565b6044356001600160401b0381116101865761030f903690600401610dca565b916064356001600160401b0381116101865761011d6000949361010f869561038c61034161037a963690600401610e2f565b604051632c4ba19160e01b602082019081526001600160a01b0390991660248201526080604482015296879591939160a4870190611064565b85810360231901606487015290611064565b838103602319016084850152906110a1565b34610186576000806103d961010f6103b536610cad565b6040959395949194519485936020850197639b23d3d960e01b895260248601610f37565b5190826101675af16103e9610f62565b901561040e57610403816020808094518301019101610f92565b6040519060030b8152f35b5060206015610403565b34610186576040366003190112610186576004356001600160401b0381116101865760206003198236030112610186576024356001600160401b0381116101865736602382011215610186578060040135916001600160401b0383116101865760248360051b830101913683116101865760009260405192602084018481106001600160401b038211176108125760405280600401356001600160401b03811161080e576104cb91369101600401610fc4565b83526104d685610db3565b946104e46040519687610d92565b855260208501809260248101915b83831061069d57505050506040519061052c6020830193630e71804f60e01b855260406024850152516020606485015260848401906110d8565b9460231983870301604484015251808652602086019060208160051b880101929186905b8282106105e457878080898961056f818b03601f198101835282610d92565b5190826101675af161057f610f62565b90156105dc578060208061059893518301019101610f92565b60030b7f90a5cf4cffe88b4edbb041cfc7a8a812c48a5ec30b84640fb37690875168e3aa6020604051838152a1601681036105d857602090604051908152f35b5080fd5b506015610598565b90919293601f19898203018252845160018060a01b038151168252604061061a60208301516060602086015260608501906110d8565b9101519160408183039101526020808351928381520192019089905b80821061065457505050602080600192960192019201909291610550565b9091926020608060019260608751858060a01b038151168352858060a01b03858201511685840152604081015160070b6040840152015115156060820152019401920190610636565b82356001600160401b03811161080a5782016060602319823603011261080a57604051906106ca82610d61565b6106d660248201610c99565b825260448101356001600160401b038111610806576106fb9060243691840101610fc4565b60208301526064810135906001600160401b0382116108065790602491010136601f8201121561080257803561073081610db3565b9161073e6040519384610d92565b81835260208084019260071b820101903682116107fe57602001915b8183106107775750505060408201528152602092830192016104f2565b6080833603126107fe57604051608081018181106001600160401b038211176107ea576040526080916020916107ac86610c99565b81526107b9838701610c99565b838201526107c960408701610cfb565b60408201526107da60608701610f2a565b606082015281520192019161075a565b634e487b7160e01b8e52604160045260248efd5b8b80fd5b8880fd5b8980fd5b8780fd5b8580fd5b634e487b7160e01b86526041600452602486fd5b3461018657610858602061083936610cad565b604051630aed65f560e11b815295869485949193919060048601610f37565b03816000305af19081156108e0576000916108b1575b507f90a5cf4cffe88b4edbb041cfc7a8a812c48a5ec30b84640fb37690875168e3aa60206040519260070b92838152a16016810361018657602090604051908152f35b6108d3915060203d6020116108d9575b6108cb8183610d92565b810190610fab565b8161086e565b503d6108c1565b6040513d6000823e3d90fd5b346101865760008061011d61010f61090336610d09565b604051635cfc901160e01b602082019081526001600160a01b039586166024830152938516604482015293909116606484015260070b6084830152929091829060a4820190565b3461018657610858602061095d36610cad565b604051639b23d3d960e01b815295869485949193919060048601610f37565b3461018657604036600319011261018657610995610c6d565b602435906001600160401b0382116101865736602383011215610186578160040135906109c182610e94565b916109cf6040519384610d92565b808352366024828601011161018657610a32600094938560208461010f9560248499018386013783010152604080516330c6e32f60e11b602082019081526001600160a01b03909616602482015260448101919091529283916064830190610eaf565b5190826101675af1610a42610f62565b907f4af4780e06fe8cb9df64b0794fa6f01399af979175bb988e35e0e57e594567bc60405182151581526040602082015280610a816040820186610eaf565b0390a160009015610ab3575060165b610aaf60405192839260030b8352604060208401526040830190610eaf565b0390f35b6040519150610ac3602083610d92565b81526015610a90565b3461018657606036600319011261018657610ae5610c6d565b6024356001600160401b03811161018657610b04903690600401610dca565b90604435906001600160401b03821161018657610b6861011d60009461010f610b3287963690600401610e2f565b6040516382bba49360e01b602082019081526001600160a01b039097166024820152606060448201529485936084850190611064565b838103602319016064850152906110a1565b346101865760008061011d61010f610b9136610d09565b60405163eca3691760e01b602082019081526001600160a01b039586166024830152938516604482015293909116606484015260070b6084830152929091829060a4820190565b34610186576000806103d961010f610bef36610cad565b6040959395949194519485936020850197630aed65f560e11b895260248601610f37565b346101865760403660031901126101865760008091610c30610c6d565b9061011d8161010f610c40610c83565b638f8d7f9960e01b602084019081526001600160a01b039687166024850152951660448301526064820190565b600435906001600160a01b038216820361018657565b602435906001600160a01b038216820361018657565b35906001600160a01b038216820361018657565b6080906003190112610186576004356001600160a01b038116810361018657906024356001600160a01b038116810361018657906044356001600160a01b0381168103610186579060643590565b35908160070b820361018657565b6080906003190112610186576004356001600160a01b038116810361018657906024356001600160a01b038116810361018657906044356001600160a01b038116810361018657906064358060070b81036101865790565b606081019081106001600160401b03821117610d7c57604052565b634e487b7160e01b600052604160045260246000fd5b90601f801991011681019081106001600160401b03821117610d7c57604052565b6001600160401b038111610d7c5760051b60200190565b9080601f83011215610186578135610de181610db3565b92610def6040519485610d92565b81845260208085019260051b82010192831161018657602001905b828210610e175750505090565b60208091610e2484610c99565b815201910190610e0a565b9080601f83011215610186578135610e4681610db3565b92610e546040519485610d92565b81845260208085019260051b82010192831161018657602001905b828210610e7c5750505090565b60208091610e8984610cfb565b815201910190610e6f565b6001600160401b038111610d7c57601f01601f191660200190565b919082519283825260005b848110610edb575050826000602080949584010152601f8019910116010190565b80602080928401015182828601015201610eba565b6060906003190112610186576004356001600160a01b038116810361018657906024356001600160a01b0381168103610186579060443590565b3590811515820361018657565b6001600160a01b03918216815291811660208301529091166040820152606081019190915260800190565b3d15610f8d573d90610f7382610e94565b91610f816040519384610d92565b82523d6000602084013e565b606090565b9081602091031261018657518060030b81036101865790565b9081602091031261018657518060070b81036101865790565b81601f8201121561018657803590610fdb82610db3565b92610fe96040519485610d92565b8284526020606081860194028301019181831161018657602001925b828410611013575050505090565b60608483031261018657602060609160405161102e81610d61565b61103787610c99565b8152611044838801610cfb565b8382015261105460408801610f2a565b6040820152815201930192611005565b906020808351928381520192019060005b8181106110825750505090565b82516001600160a01b0316845260209384019390920191600101611075565b906020808351928381520192019060005b8181106110bf5750505090565b825160070b8452602093840193909201916001016110b2565b906020808351928381520192019060005b8181106110f65750505090565b825180516001600160a01b0316855260208181015160070b81870152604091820151151591860191909152606090940193909201916001016110e956fea264697066735822122070c73c3a797850b7bb53d283cd5ef6938fb9853de1829b8161ae955c9a1af26264736f6c634300081d0033",
  "linkReferences": {},
  "deployedLinkReferences": {}
}