{
  "_format": "hh-sol-artifact-1",
  "contractName": "ExchangeRateMock",
  "sourceName": "contracts/system-contracts/exchange-rate/ExchangeRateMock.sol",
  "abi": [
    {
      "anonymous": false,
      "inputs": [
        {
          "indexed": false,
          "internalType": "uint256",
          "name": "tinybars",
          "type": "uint256"
        }
      ],
      "name": "TinyBars",
      "type": "event"
    },
    {
      "anonymous": false,
      "inputs": [
        {
          "indexed": false,
          "internalType": "uint256",
          "name": "tinycents",
          "type": "uint256"
        }
      ],
      "name": "TinyCents",
      "type": "event"
    },
    {
      "inputs": [
        {
          "internalType": "uint256",
          "name": "tinybars",
          "type": "uint256"
        }
      ],
      "name": "convertTinybarsToTinycents",
      "outputs": [
        {
          "internalType": "uint256",
          "name": "tineycents",
          "type": "uint256"
        }
      ],
      "stateMutability": "nonpayable",
      "type": "function"
    },
    {
      "inputs": [
        {
          "internalType": "uint256",
          "name": "tineycents",
          "type": "uint256"
        }
      ],
      "name": "convertTinycentsToTinybars",
      "outputs": [
        {
          "internalType": "uint256",
          "name": "tinybars",
          "type": "uint256"
        }
      ],
      "stateMutability": "nonpayable",
      "type": "function"
    }
  ],
  "bytecode": "0x6080806040523460155761021e908161001b8239f35b600080fdfe608080604052600436101561001357600080fd5b60003560e01c9081634abd27a3146100d6575063677feb671461003557600080fd5b346100d15760203660031901126100d15760008060405160208101906343a8822960e01b8252600435602482015260248152610072604482610170565b5190826101685af16100826101a8565b90156100d157602081519181808201938492010103126100d157602090517fc399bb30ec076dee6179663a550714898c27a4a8cf23a336b2e49ec77777945982604051838152a1604051908152f35b600080fd5b346100d15760203660031901126100d15760008160208293019063171e7fb560e11b8252600435602482015260248152610111604482610170565b5190826101685af16101216101a8565b90156100d157602081519181808201938492010103126100d157602090517f1e2eedf37f019c356cd1ab2a7445bef30fa8b9e32be6636e6efae70244c7b3e082604051838152a1604051908152f35b90601f8019910116810190811067ffffffffffffffff82111761019257604052565b634e487b7160e01b600052604160045260246000fd5b3d156101e3573d9067ffffffffffffffff821161019257604051916101d7601f8201601f191660200184610170565b82523d6000602084013e565b60609056fea264697066735822122059c8c03022c3ce39b66026e682439880ef8fe37f6250bd5f95c6e4a6e79d31f964736f6c634300081d0033",
  "linkReferences": {},
  "deployedLinkReferences": {}
}