{
  "_format": "hh-sol-artifact-1",
  "contractName": "TokenCreateCustomContract",
  "sourceName": "contracts/system-contracts/hedera-token-service/examples/token-create/TokenCreateCustom.sol",
  "abi": [
    {
      "anonymous": false,
      "inputs": [
        {
          "indexed": false,
          "internalType": "bool",
          "name": "",
          "type": "bool"
        },
        {
          "indexed": false,
          "internalType": "bytes",
          "name": "",
          "type": "bytes"
        }
      ],
      "name": "CallResponseEvent",
      "type": "event"
    },
    {
      "anonymous": false,
      "inputs": [
        {
          "indexed": false,
          "internalType": "address",
          "name": "tokenAddress",
          "type": "address"
        }
      ],
      "name": "CreatedToken",
      "type": "event"
    },
    {
      "anonymous": false,
      "inputs": [
        {
          "indexed": false,
          "internalType": "int64",
          "name": "newTotalSupply",
          "type": "int64"
        },
        {
          "indexed": false,
          "internalType": "int64[]",
          "name": "serialNumbers",
          "type": "int64[]"
        }
      ],
      "name": "MintedToken",
      "type": "event"
    },
    {
      "anonymous": false,
      "inputs": [
        {
          "indexed": false,
          "internalType": "int256",
          "name": "responseCode",
          "type": "int256"
        }
      ],
      "name": "ResponseCode",
      "type": "event"
    },
    {
      "anonymous": false,
      "inputs": [
        {
          "indexed": false,
          "internalType": "address",
          "name": "tokenAddress",
          "type": "address"
        },
        {
          "indexed": false,
          "internalType": "address",
          "name": "receiver",
          "type": "address"
        },
        {
          "indexed": false,
          "internalType": "int64",
          "name": "amount",
          "type": "int64"
        }
      ],
      "name": "TransferToken",
      "type": "event"
    },
    {
      "inputs": [
        {
          "internalType": "address",
          "name": "token",
          "type": "address"
        },
        {
          "internalType": "address",
          "name": "spender",
          "type": "address"
        },
        {
          "internalType": "uint256",
          "name": "amount",
          "type": "uint256"
        }
      ],
      "name": "approvePublic",
      "outputs": [
        {
          "internalType": "int256",
          "name": "responseCode",
          "type": "int256"
        }
      ],
      "stateMutability": "nonpayable",
      "type": "function"
    },
    {
      "inputs": [
        {
          "internalType": "address",
          "name": "account",
          "type": "address"
        },
        {
          "internalType": "address",
          "name": "token",
          "type": "address"
        }
      ],
      "name": "associateTokenPublic",
      "outputs": [
        {
          "internalType": "int256",
          "name": "responseCode",
          "type": "int256"
        }
      ],
      "stateMutability": "nonpayable",
      "type": "function"
    },
    {
      "inputs": [
        {
          "internalType": "address",
          "name": "account",
          "type": "address"
        },
        {
          "internalType": "address[]",
          "name": "tokens",
          "type": "address[]"
        }
      ],
      "name": "associateTokensPublic",
      "outputs": [
        {
          "internalType": "int256",
          "name": "responseCode",
          "type": "int256"
        }
      ],
      "stateMutability": "nonpayable",
      "type": "function"
    },
    {
      "inputs": [
        {
          "internalType": "string",
          "name": "name",
          "type": "string"
        },
        {
          "internalType": "string",
          "name": "symbol",
          "type": "string"
        },
        {
          "internalType": "string",
          "name": "memo",
          "type": "string"
        },
        {
          "internalType": "int64",
          "name": "initialTotalSupply",
          "type": "int64"
        },
        {
          "internalType": "int64",
          "name": "maxSupply",
          "type": "int64"
        },
        {
          "internalType": "int32",
          "name": "decimals",
          "type": "int32"
        },
        {
          "internalType": "bool",
          "name": "freezeDefaultStatus",
          "type": "bool"
        },
        {
          "internalType": "address",
          "name": "treasury",
          "type": "address"
        },
        {
          "components": [
            {
              "internalType": "uint256",
              "name": "keyType",
              "type": "uint256"
            },
            {
              "components": [
                {
                  "internalType": "bool",
                  "name": "inheritAccountKey",
                  "type": "bool"
                },
                {
                  "internalType": "address",
                  "name": "contractId",
                  "type": "address"
                },
                {
                  "internalType": "bytes",
                  "name": "ed25519",
                  "type": "bytes"
                },
                {
                  "internalType": "bytes",
                  "name": "ECDSA_secp256k1",
                  "type": "bytes"
                },
                {
                  "internalType": "address",
                  "name": "delegatableContractId",
                  "type": "address"
                }
              ],
              "internalType": "struct IHederaTokenService.KeyValue",
              "name": "key",
              "type": "tuple"
            }
          ],
          "internalType": "struct IHederaTokenService.TokenKey[]",
          "name": "keys",
          "type": "tuple[]"
        }
      ],
      "name": "createFungibleTokenPublic",
      "outputs": [],
      "stateMutability": "payable",
      "type": "function"
    },
    {
      "inputs": [
        {
          "internalType": "address",
          "name": "treasury",
          "type": "address"
        },
        {
          "internalType": "string",
          "name": "name",
          "type": "string"
        },
        {
          "internalType": "string",
          "name": "symbol",
          "type": "string"
        },
        {
          "internalType": "string",
          "name": "memo",
          "type": "string"
        },
        {
          "internalType": "int64",
          "name": "initialTotalSupply",
          "type": "int64"
        },
        {
          "internalType": "int64",
          "name": "maxSupply",
          "type": "int64"
        },
        {
          "internalType": "int32",
          "name": "decimals",
          "type": "int32"
        },
        {
          "components": [
            {
              "internalType": "int64",
              "name": "amount",
              "type": "int64"
            },
            {
              "internalType": "address",
              "name": "tokenId",
              "type": "address"
            },
            {
              "internalType": "bool",
              "name": "useHbarsForPayment",
              "type": "bool"
            },
            {
              "internalType": "bool",
              "name": "useCurrentTokenForPayment",
              "type": "bool"
            },
            {
              "internalType": "address",
              "name": "feeCollector",
              "type": "address"
            }
          ],
          "internalType": "struct IHederaTokenService.FixedFee[]",
          "name": "fixedFees",
          "type": "tuple[]"
        },
        {
          "components": [
            {
              "internalType": "int64",
              "name": "numerator",
              "type": "int64"
            },
            {
              "internalType": "int64",
              "name": "denominator",
              "type": "int64"
            },
            {
              "internalType": "int64",
              "name": "minimumAmount",
              "type": "int64"
            },
            {
              "internalType": "int64",
              "name": "maximumAmount",
              "type": "int64"
            },
            {
              "internalType": "bool",
              "name": "netOfTransfers",
              "type": "bool"
            },
            {
              "internalType": "address",
              "name": "feeCollector",
              "type": "address"
            }
          ],
          "internalType": "struct IHederaTokenService.FractionalFee[]",
          "name": "fractionalFees",
          "type": "tuple[]"
        },
        {
          "components": [
            {
              "internalType": "uint256",
              "name": "keyType",
              "type": "uint256"
            },
            {
              "components": [
                {
                  "internalType": "bool",
                  "name": "inheritAccountKey",
                  "type": "bool"
                },
                {
                  "internalType": "address",
                  "name": "contractId",
                  "type": "address"
                },
                {
                  "internalType": "bytes",
                  "name": "ed25519",
                  "type": "bytes"
                },
                {
                  "internalType": "bytes",
                  "name": "ECDSA_secp256k1",
                  "type": "bytes"
                },
                {
                  "internalType": "address",
                  "name": "delegatableContractId",
                  "type": "address"
                }
              ],
              "internalType": "struct IHederaTokenService.KeyValue",
              "name": "key",
              "type": "tuple"
            }
          ],
          "internalType": "struct IHederaTokenService.TokenKey[]",
          "name": "keys",
          "type": "tuple[]"
        }
      ],
      "name": "createFungibleTokenWithCustomFeesPublic",
      "outputs": [],
      "stateMutability": "payable",
      "type": "function"
    },
    {
      "inputs": [
        {
          "internalType": "string",
          "name": "name",
          "type": "string"
        },
        {
          "internalType": "string",
          "name": "symbol",
          "type": "string"
        },
        {
          "internalType": "string",
          "name": "memo",
          "type": "string"
        },
        {
          "internalType": "int64",
          "name": "initialTotalSupply",
          "type": "int64"
        },
        {
          "internalType": "int64",
          "name": "maxSupply",
          "type": "int64"
        },
        {
          "internalType": "int32",
          "name": "decimals",
          "type": "int32"
        },
        {
          "internalType": "bool",
          "name": "freezeDefaultStatus",
          "type": "bool"
        },
        {
          "internalType": "address",
          "name": "treasury",
          "type": "address"
        }
      ],
      "name": "createFungibleTokenWithPresetKeys",
      "outputs": [],
      "stateMutability": "payable",
      "type": "function"
    },
    {
      "inputs": [
        {
          "internalType": "string",
          "name": "name",
          "type": "string"
        },
        {
          "internalType": "string",
          "name": "symbol",
          "type": "string"
        },
        {
          "internalType": "string",
          "name": "memo",
          "type": "string"
        },
        {
          "internalType": "int64",
          "name": "maxSupply",
          "type": "int64"
        },
        {
          "internalType": "address",
          "name": "treasury",
          "type": "address"
        },
        {
          "components": [
            {
              "internalType": "uint256",
              "name": "keyType",
              "type": "uint256"
            },
            {
              "components": [
                {
                  "internalType": "bool",
                  "name": "inheritAccountKey",
                  "type": "bool"
                },
                {
                  "internalType": "address",
                  "name": "contractId",
                  "type": "address"
                },
                {
                  "internalType": "bytes",
                  "name": "ed25519",
                  "type": "bytes"
                },
                {
                  "internalType": "bytes",
                  "name": "ECDSA_secp256k1",
                  "type": "bytes"
                },
                {
                  "internalType": "address",
                  "name": "delegatableContractId",
                  "type": "address"
                }
              ],
              "internalType": "struct IHederaTokenService.KeyValue",
              "name": "key",
              "type": "tuple"
            }
          ],
          "internalType": "struct IHederaTokenService.TokenKey[]",
          "name": "keys",
          "type": "tuple[]"
        }
      ],
      "name": "createNonFungibleTokenPublic",
      "outputs": [],
      "stateMutability": "payable",
      "type": "function"
    },
    {
      "inputs": [
        {
          "internalType": "address",
          "name": "treasury",
          "type": "address"
        },
        {
          "internalType": "string",
          "name": "name",
          "type": "string"
        },
        {
          "internalType": "string",
          "name": "symbol",
          "type": "string"
        },
        {
          "internalType": "string",
          "name": "memo",
          "type": "string"
        },
        {
          "internalType": "int64",
          "name": "maxSupply",
          "type": "int64"
        },
        {
          "components": [
            {
              "internalType": "int64",
              "name": "amount",
              "type": "int64"
            },
            {
              "internalType": "address",
              "name": "tokenId",
              "type": "address"
            },
            {
              "internalType": "bool",
              "name": "useHbarsForPayment",
              "type": "bool"
            },
            {
              "internalType": "bool",
              "name": "useCurrentTokenForPayment",
              "type": "bool"
            },
            {
              "internalType": "address",
              "name": "feeCollector",
              "type": "address"
            }
          ],
          "internalType": "struct IHederaTokenService.FixedFee[]",
          "name": "fixedFees",
          "type": "tuple[]"
        },
        {
          "components": [
            {
              "internalType": "int64",
              "name": "numerator",
              "type": "int64"
            },
            {
              "internalType": "int64",
              "name": "denominator",
              "type": "int64"
            },
            {
              "internalType": "int64",
              "name": "amount",
              "type": "int64"
            },
            {
              "internalType": "address",
              "name": "tokenId",
              "type": "address"
            },
            {
              "internalType": "bool",
              "name": "useHbarsForPayment",
              "type": "bool"
            },
            {
              "internalType": "address",
              "name": "feeCollector",
              "type": "address"
            }
          ],
          "internalType": "struct IHederaTokenService.RoyaltyFee[]",
          "name": "royaltyFees",
          "type": "tuple[]"
        },
        {
          "components": [
            {
              "internalType": "uint256",
              "name": "keyType",
              "type": "uint256"
            },
            {
              "components": [
                {
                  "internalType": "bool",
                  "name": "inheritAccountKey",
                  "type": "bool"
                },
                {
                  "internalType": "address",
                  "name": "contractId",
                  "type": "address"
                },
                {
                  "internalType": "bytes",
                  "name": "ed25519",
                  "type": "bytes"
                },
                {
                  "internalType": "bytes",
                  "name": "ECDSA_secp256k1",
                  "type": "bytes"
                },
                {
                  "internalType": "address",
                  "name": "delegatableContractId",
                  "type": "address"
                }
              ],
              "internalType": "struct IHederaTokenService.KeyValue",
              "name": "key",
              "type": "tuple"
            }
          ],
          "internalType": "struct IHederaTokenService.TokenKey[]",
          "name": "keys",
          "type": "tuple[]"
        }
      ],
      "name": "createNonFungibleTokenWithCustomFeesPublic",
      "outputs": [],
      "stateMutability": "payable",
      "type": "function"
    },
    {
      "inputs": [
        {
          "internalType": "address",
          "name": "token",
          "type": "address"
        },
        {
          "internalType": "address",
          "name": "account",
          "type": "address"
        }
      ],
      "name": "grantTokenKycPublic",
      "outputs": [
        {
          "internalType": "int64",
          "name": "responseCode",
          "type": "int64"
        }
      ],
      "stateMutability": "nonpayable",
      "type": "function"
    },
    {
      "inputs": [
        {
          "internalType": "address",
          "name": "token",
          "type": "address"
        },
        {
          "internalType": "address",
          "name": "receiver",
          "type": "address"
        },
        {
          "internalType": "int64",
          "name": "amount",
          "type": "int64"
        },
        {
          "internalType": "bytes[]",
          "name": "metadata",
          "type": "bytes[]"
        }
      ],
      "name": "mintNonFungibleTokenToAddressPublic",
      "outputs": [
        {
          "internalType": "int256",
          "name": "responseCode",
          "type": "int256"
        },
        {
          "internalType": "int64",
          "name": "newTotalSupply",
          "type": "int64"
        },
        {
          "internalType": "int64[]",
          "name": "serialNumbers",
          "type": "int64[]"
        }
      ],
      "stateMutability": "nonpayable",
      "type": "function"
    },
    {
      "inputs": [
        {
          "internalType": "address",
          "name": "token",
          "type": "address"
        },
        {
          "internalType": "int64",
          "name": "amount",
          "type": "int64"
        },
        {
          "internalType": "bytes[]",
          "name": "metadata",
          "type": "bytes[]"
        }
      ],
      "name": "mintTokenPublic",
      "outputs": [
        {
          "internalType": "int256",
          "name": "responseCode",
          "type": "int256"
        },
        {
          "internalType": "int64",
          "name": "newTotalSupply",
          "type": "int64"
        },
        {
          "internalType": "int64[]",
          "name": "serialNumbers",
          "type": "int64[]"
        }
      ],
      "stateMutability": "nonpayable",
      "type": "function"
    },
    {
      "inputs": [
        {
          "internalType": "address",
          "name": "token",
          "type": "address"
        },
        {
          "internalType": "address",
          "name": "receiver",
          "type": "address"
        },
        {
          "internalType": "int64",
          "name": "amount",
          "type": "int64"
        },
        {
          "internalType": "bytes[]",
          "name": "metadata",
          "type": "bytes[]"
        }
      ],
      "name": "mintTokenToAddressPublic",
      "outputs": [
        {
          "internalType": "int256",
          "name": "responseCode",
          "type": "int256"
        },
        {
          "internalType": "int64",
          "name": "newTotalSupply",
          "type": "int64"
        },
        {
          "internalType": "int64[]",
          "name": "serialNumbers",
          "type": "int64[]"
        }
      ],
      "stateMutability": "nonpayable",
      "type": "function"
    },
    {
      "inputs": [
        {
          "internalType": "address",
          "name": "token",
          "type": "address"
        },
        {
          "internalType": "bytes",
          "name": "encodedFunctionSelector",
          "type": "bytes"
        }
      ],
      "name": "redirectForToken",
      "outputs": [
        {
          "internalType": "int256",
          "name": "responseCode",
          "type": "int256"
        },
        {
          "internalType": "bytes",
          "name": "response",
          "type": "bytes"
        }
      ],
      "stateMutability": "nonpayable",
      "type": "function"
    },
    {
      "inputs": [
        {
          "internalType": "address",
          "name": "token",
          "type": "address"
        },
        {
          "internalType": "address",
          "name": "from",
          "type": "address"
        },
        {
          "internalType": "address",
          "name": "to",
          "type": "address"
        },
        {
          "internalType": "uint256",
          "name": "amount",
          "type": "uint256"
        }
      ],
      "name": "transferFrom",
      "outputs": [
        {
          "internalType": "int64",
          "name": "responseCode",
          "type": "int64"
        }
      ],
      "stateMutability": "nonpayable",
      "type": "function"
    },
    {
      "inputs": [
        {
          "internalType": "address",
          "name": "token",
          "type": "address"
        },
        {
          "internalType": "address",
          "name": "from",
          "type": "address"
        },
        {
          "internalType": "address",
          "name": "to",
          "type": "address"
        },
        {
          "internalType": "uint256",
          "name": "serialNumber",
          "type": "uint256"
        }
      ],
      "name": "transferFromNFT",
      "outputs": [
        {
          "internalType": "int64",
          "name": "responseCode",
          "type": "int64"
        }
      ],
      "stateMutability": "nonpayable",
      "type": "function"
    }
  ],
  "bytecode": "0x60806040523461013f57600080546001600160a01b0319168155600160208181527fa6eef7e35abe7026729641147f7915573c7e97b47efa546f5f6e3230263bcb4982905560027fcc69885fda6bcc1a4ace058b4a62bf5e179ea78fd58a1ccd71c22cc9b688792f81905560047fd9d16d34ffb15ba3a3d852f0d403e2ce1d691fb54de27ac87cd2f993f3ec330f5560087f7dfe757ecd65cbd7922a9c0161e935dd7fdbcc0e999689c7d31633896b1fc60b5560107fedc95719e9a3b28dd8e80877cb5880a9be7de1a13fc8b05e7999683b6b567643557fe2689cd4a84e23ad2f564004f1c9013e9589d260bde6380aba3ca7e09e4df40c91909155600690925260407f8f331abe73332f95a25873e8b430885974c0409691f89d643119a11623a7924a819055825460ff1916909117909155516121ee90816101458239f35b600080fdfe608080604052600436101561001357600080fd5b60003560e01c9081630fd2601e146115f457508063118741e7146114ec57806311ba467f146110bd57806315dacbea1461106257806329fc46e614610ec0578063424f165e14610d5857806355a0d9a3146109bb578063618dc65e146108ab5780639b23d3d91461080b578063c827bd32146107a2578063de84a7791461073f578063e36f75551461034c578063f4a01e5b146102ed578063f848fec41461020c5763fec394da146100c457600080fd5b346101d8576100e06100d536611b42565b818493959294611cfa565b60405163eca3691760e01b602082019081526001600160a01b03808716602484015230604484015288166064830152600787900b6084830152929693959193919260009182919061013e8160a481015b03601f198101835282611742565b5190826101675af19361014f611cbc565b94156101dd576020858051810103126101d8576101c57f215c8eec9aa8fa57cdc8525400a046bf00ff93b20cc529980e01c1ef114fc2289361019660206101d49801611cec565b505b604080516001600160a01b03948516815294909316602085015260070b9183019190915281906060820190565b0390a160405193849384611bdd565b0390f35b600080fd5b6101d494506101c57f215c8eec9aa8fa57cdc8525400a046bf00ff93b20cc529980e01c1ef114fc22893610198565b346101d85760603660031901126101d85760008061022861164e565b610230611664565b60405163e1f21c6760e01b602082019081526001600160a01b03938416602483015292909116604480830191909152356064808301919091528152610276608482611742565b5190826101675af1610286611cbc565b90156102e5576020818051810103126101d85760206102a59101611cec565b60030b7f90a5cf4cffe88b4edbb041cfc7a8a812c48a5ec30b84640fb37690875168e3aa6020604051838152a1601681036101d857602090604051908152f35b5060156102a5565b346101d85760403660031901126101d85760008061030961164e565b610130610276610317611664565b60405163248a35ef60e11b602082019081526001600160a01b0395861660248301529490911660448201529182906064820190565b6101403660031901126101d85761036161164e565b6024356001600160401b0381116101d857610380903690600401611795565b6044356001600160401b0381116101d85761039f903690600401611795565b6064356001600160401b0381116101d8576103be903690600401611795565b906103c76117ea565b9360a435928360070b8094036101d85760c435958660030b8097036101d85760e4356001600160401b0381116101d8576104059036906004016119c1565b9261010435946001600160401b0386116101d857366023870112156101d85785600401359661043388611763565b966104416040519889611742565b8888526020880190602460c0839b02820101903682116101d857602401915b8183106106bb57505050610124356001600160401b0381116101d85761048a903690600401611882565b9160405193610498856116d5565b60008552600160a01b6001900316958660208601526040850196627a1200885260025460ff16926040519c6104cc8e6116f0565b8d5260208d015260408c015260608b0152151560808a015260a089015260c088016000905260e0880152806101008801525160070b159261055b92846020956106af575b6106a3575b506040519761053c858a019863157862cd60e11b8a5260a060248c015260c48b0190611eff565b9260070b60448a0152606489015260231988830301608489015261209d565b8581036023190160a487015291518083529101919060005b818110610642576000808688610592818903601f198101835282611742565b5190346101675af16105a2611cbc565b9015610636576105bd81602080601694518301019101612070565b6001600160a01b0316919060030b5b60030b7f90a5cf4cffe88b4edbb041cfc7a8a812c48a5ec30b84640fb37690875168e3aa6020604051838152a1036101d8576040516001600160a01b0390911681527f7bb17726df1f3adee8aa00ba8e8bc5d6f182af3bbf77604639cb7f008dd3b4ed90602090a1005b506000601660156105cc565b909192602060c06001928651805160070b82528381015160070b84830152604081015160070b6040830152606081015160070b606083015260808101511515608083015260a08580821b039101511660a08201520194019101919091610573565b6276a700905288610515565b50805160070b15610510565b60c0833603126101d857602060c0916040516106d68161170c565b6106df866117fa565b81526106ec8387016117fa565b838201526106fc604087016117fa565b604082015261070d606087016117fa565b606082015261071e60808701611827565b608082015261072f60a08701611690565b60a0820152815201920191610460565b346101d85760603660031901126101d85761075861164e565b602435908160070b82036101d857604435906001600160401b0382116101d8576101d49261078d610793933690600401611ac4565b91611cfa565b60409391935193849384611bdd565b346101d8576107b36100d536611b42565b919390946000806107c385611c49565b51604051635cfc901160e01b602082019081526001600160a01b03808a1660248401523060448401528616606483015260079290920b608482015261013e8160a48101610130565b346101d85760008061086661013061082236611834565b604051639b23d3d960e01b602082019081526001600160a01b03958616602483015293851660448201529390911660648401526084830152929091829060a4820190565b5190826101675af1610876611cbc565b90156108a1576020818051810103126101d8576108966020809201611cec565b6040519060030b8152f35b5060206015610896565b346101d85760403660031901126101d8576108c461164e565b6024356001600160401b0381116101d8576000916101306109256108ed85943690600401611795565b604080516330c6e32f60e11b602082019081526001600160a01b03909616602482015260448101919091529283916064830190611a83565b5190826101675af1610935611cbc565b907f4af4780e06fe8cb9df64b0794fa6f01399af979175bb988e35e0e57e594567bc604051821515815260406020820152806109746040820186611a83565b0390a1600090156109a2575060165b6101d460405192839260030b8352604060208401526040830190611a83565b60405191506109b2602083611742565b81526015610983565b6101003660031901126101d8576109d061164e565b6024356001600160401b0381116101d8576109ef903690600401611795565b6044356001600160401b0381116101d857610a0e903690600401611795565b6064356001600160401b0381116101d857610a2d903690600401611795565b90610a366117ea565b9160a4356001600160401b0381116101d857610a569036906004016119c1565b9460c435926001600160401b0384116101d857366023850112156101d857836004013594610a8386611763565b94610a916040519687611742565b8686526020860190602460c0839902820101903682116101d857602401915b818310610cd45750505060e4356001600160401b0381116101d857610ad9903690600401611882565b9160405193610ae7856116d5565b6000855260018060a01b0316948560208601526040850195627a1200875260ff60025416926040519a610b198c6116f0565b8b5260208b015260408a015260608901521515608088015260070b60a0870152600060c087015260e0860152806101008601525160070b1580610cc8575b610cbc575b506020610b9a60405195610b888388019663abb54eb560e01b8852606060248a01526084890190611eff565b8781036023190160448901529061209d565b85810360231901606487015291518083529101919060005b818110610c57576000808688610bd1818903601f198101835282611742565b5190346101675af1610be1611cbc565b9015610c4b57610bfc81602080601694518301019101612070565b6001600160a01b0316919060030b5b60030b036101d8576040516001600160a01b0390911681527f7bb17726df1f3adee8aa00ba8e8bc5d6f182af3bbf77604639cb7f008dd3b4ed90602090a1005b50600060166015610c0b565b909192602060c06001928651805160070b82528381015160070b84830152604081015160070b6040830152848060a01b03606082015116606083015260808101511515608083015260a08580821b039101511660a08201520194019101919091610bb2565b6276a700905284610b5c565b50805160070b15610b57565b60c0833603126101d857602060c091604051610cef8161170c565b610cf8866117fa565b8152610d058387016117fa565b83820152610d15604087016117fa565b6040820152610d2660608701611690565b6060820152610d3760808701611827565b6080820152610d4860a08701611690565b60a0820152815201920191610ab0565b60c03660031901126101d8576004356001600160401b0381116101d857610d83903690600401611795565b6024356001600160401b0381116101d857610da2903690600401611795565b6044356001600160401b0381116101d857610dc1903690600401611795565b91610dca6117da565b926084356001600160a01b03811691908290036101d85760a435936001600160401b0385116101d857600095610e0587963690600401611882565b9160405193610e13856116d5565b8785528560208601526040850195627a1200875260ff600254169260405198610e3b8a6116f0565b89526020890152604088015260608701521515608086015260070b60a08501528460c085015260e0840152806101008401525160070b1580610eb4575b610ea8575b50604051610bd181610130602082019463ea83f29360e01b8652602060248401526044830190611eff565b6276a700905283610e7d565b50805160070b15610e78565b6101203660031901126101d8576004356001600160401b0381116101d857610eec903690600401611795565b6024356001600160401b0381116101d857610f0b903690600401611795565b906044356001600160401b0381116101d857610f2b903690600401611795565b90610f346117da565b610f3c6117ea565b92610f45611808565b610f4d611818565b95610f5661167a565b61010435936001600160401b0385116101d8576000988998610fbe98610f83610bd1983690600401611882565b9360405195610f91876116d5565b8c875260018060a01b03168060208801526040870197627a1200895260ff60025416936040519d8e6116f0565b8d5260208d015260408c015260608b0152151560808a015260070b60a0890152151560c088015260e0870152806101008701525160070b1580611056575b61104a575b5060405192839161102b6020840196630fb65bf360e01b8852606060248601526084850190611eff565b9160070b604484015260030b606483015203601f198101835282611742565b6276a700905286611001565b50805160070b15610ffc565b346101d85760008061086661013061107936611834565b604051630aed65f560e11b602082019081526001600160a01b03958616602483015293851660448201529390911660648401526084830152929091829060a4820190565b6101003660031901126101d8576004356001600160401b0381116101d8576110e9903690600401611795565b6024356001600160401b0381116101d857611108903690600401611795565b906044356001600160401b0381116101d857611128903690600401611795565b6111306117da565b916111396117ea565b90611142611808565b9361114b611818565b9461115461167a565b9660e0976040516111658a82611742565b60068152601f198a0160005b8181106114d55750509061143593929160209a8b9a60008c6111966040519182611742565b5261119f611c28565b506111a8611bfc565b9960009d8e9c8c60018f9e52604051906111c1826116a4565b60418252838201526111d287611c49565b526111dc86611c49565b508c61120d6040516111ee8582611742565b8281526111f9611c28565b50600183526001855260408320549261211f565b6040519161121a836116a4565b82528382015261122987611c6c565b5261123386611c6c565b508c6112646040516112458582611742565b828152611250611c28565b50600283526001855260408320549261211f565b60405191611271836116a4565b82528382015261128087611c7c565b5261128a86611c7c565b508c6112bb60405161129c8582611742565b8281526112a7611c28565b50600383526001855260408320549261211f565b604051916112c8836116a4565b8252838201526112d787611c8c565b526112e186611c8c565b508c6113126040516112f38582611742565b8281526112fe611c28565b50600483526001855260408320549261211f565b6040519161131f836116a4565b82528382015261132e87611c9c565b5261133886611c9c565b508c61136960405161134a8582611742565b828152611355611c28565b50600583526001855260408320549261211f565b60405191611376836116a4565b82528382015261138587611cac565b5261138f86611cac565b506040519661139d886116d5565b8d885260018060a01b031680838901526040880198627a12008a5260ff60025416936040519e8f906113ce826116f0565b8152015260408d015260608c0152151560808b015260070b60a08a0152151560c0890152870152806101008701525160070b15806114c9575b6114bd575b5060405192839161102b89840196630fb65bf360e01b8852606060248601526084850190611eff565b5190346101675af1611445611cbc565b90156114b15790611460828280601695518301019101612070565b6001600160a01b0316929060030b5b60030b036114ad576040516001600160a01b0390921682527f7bb17726df1f3adee8aa00ba8e8bc5d6f182af3bbf77604639cb7f008dd3b4ed91a180f35b8280fd5b5081906016601561146f565b6276a70090528861140c565b50805160070b15611407565b6020906114e0611c28565b82828601015201611171565b346101d85760403660031901126101d85761150561164e565b6024356001600160401b0381116101d857366023820112156101d857806004013561152f81611763565b9161153d6040519384611742565b818352602083016024819360051b830101913683116101d857602401905b8282106115dc57505050604051926020840192632e63879b60e01b8452606485019160018060a01b03166024860152604060448601525180915260848401919060005b8181106115bd576000808688610276818903601f198101835282611742565b82516001600160a01b031684526020938401939092019160010161159e565b602080916115e984611690565b81520191019061155b565b346101d85760403660031901126101d8576000809161161161164e565b9061027681610130611621611664565b638f8d7f9960e01b602084019081526001600160a01b039687166024850152951660448301526064820190565b600435906001600160a01b03821682036101d857565b602435906001600160a01b03821682036101d857565b60e435906001600160a01b03821682036101d857565b35906001600160a01b03821682036101d857565b604081019081106001600160401b038211176116bf57604052565b634e487b7160e01b600052604160045260246000fd5b606081019081106001600160401b038211176116bf57604052565b61012081019081106001600160401b038211176116bf57604052565b60c081019081106001600160401b038211176116bf57604052565b60a081019081106001600160401b038211176116bf57604052565b90601f801991011681019081106001600160401b038211176116bf57604052565b6001600160401b0381116116bf5760051b60200190565b6001600160401b0381116116bf57601f01601f191660200190565b81601f820112156101d8576020813591016117af8261177a565b926117bd6040519485611742565b828452828201116101d85781600092602092838601378301015290565b606435908160070b82036101d857565b608435908160070b82036101d857565b35908160070b82036101d857565b60a435908160030b82036101d857565b60c4359081151582036101d857565b359081151582036101d857565b60809060031901126101d8576004356001600160a01b03811681036101d857906024356001600160a01b03811681036101d857906044356001600160a01b03811681036101d8579060643590565b9080601f830112156101d85781359161189a83611763565b926118a86040519485611742565b80845260208085019160051b830101918383116101d85760208101915b8383106118d457505050505090565b82356001600160401b0381116101d85782016040818703601f1901126101d85760405190611901826116a4565b6020810135825260408101356001600160401b0381116101d85760209101019160a0838803126101d8576040519161193883611727565b61194184611827565b835261194f60208501611690565b602084015260408401356001600160401b0381116101d85788611973918601611795565b60408401526060840135926001600160401b0384116101d8576119ad6080866119a28c602099988a9901611795565b606085015201611690565b6080820152838201528152019201916118c5565b81601f820112156101d8578035906119d882611763565b926119e66040519485611742565b828452602060a08186019402830101918183116101d857602001925b828410611a10575050505090565b60a0848303126101d857602060a091604051611a2b81611727565b611a34876117fa565b8152611a41838801611690565b83820152611a5160408801611827565b6040820152611a6260608801611827565b6060820152611a7360808801611690565b6080820152815201930192611a02565b919082519283825260005b848110611aaf575050826000602080949584010152601f8019910116010190565b80602080928401015182828601015201611a8e565b9080601f830112156101d8578135611adb81611763565b92611ae96040519485611742565b81845260208085019260051b820101918383116101d85760208201905b838210611b1557505050505090565b81356001600160401b0381116101d857602091611b3787848094880101611795565b815201910190611b06565b9060806003198301126101d8576004356001600160a01b03811681036101d857916024356001600160a01b03811681036101d857916044358060070b81036101d85791606435906001600160401b0382116101d857611ba391600401611ac4565b90565b906020808351928381520192019060005b818110611bc45750505090565b825160070b845260209384019390920191600101611bb7565b611ba39392606092825260070b60208201528160408201520190611ba6565b60405190611c0982611727565b6000608083828152826020820152606060408201526060808201520152565b60405190611c35826116a4565b81600081526020611c44611bfc565b910152565b805115611c565760200190565b634e487b7160e01b600052603260045260246000fd5b805160011015611c565760400190565b805160021015611c565760600190565b805160031015611c565760800190565b805160041015611c565760a00190565b805160051015611c565760c00190565b3d15611ce7573d90611ccd8261177a565b91611cdb6040519384611742565b82523d6000602084013e565b606090565b51908160030b82036101d857565b929160405193602085019263707a02cd60e11b8452608486019160018060a01b0316602487015260070b604486015260606064860152815180915260a4850190602060a48260051b8801019301916000905b828210611ed457505050509083611d7060009495859403601f198101835282611742565b5190826101675af1611d80611cbc565b9060009015611eb5575080518101606082602083019203126101d857611da860208301611cec565b611db460408401612111565b926060810151906001600160401b0382116101d857019180603f840112156101d8576020830151611de481611763565b93611df26040519586611742565b8185526020808087019360051b830101019283116101d857604001905b828210611e9d575050509190915b60030b92829180936016867f90a5cf4cffe88b4edbb041cfc7a8a812c48a5ec30b84640fb37690875168e3aa6020604051838152a1036101d8577ffc6b20023c4bac8ff1c48c1693e0cea5cd3c2163e9c2da41c58f17dd6d9f163d91611e9860405192839260070b8352604060208401526040830190611ba6565b0390a1565b60208091611eaa84612111565b815201910190611e0f565b6040519150611ec5602083611742565b80825236813760006015611e1d565b90919293602080611ef160019360a3198c82030186528851611a83565b960192019201909291611d4c565b90611f51611f2d611f1b84516101608552610160850190611a83565b60208501518482036020860152611a83565b60018060a01b03604085015116604084015260608401518382036060850152611a83565b9160808101511515608083015260a081015160070b60a083015260c0810151151560c083015260e08101519282810360e0840152835180825260208201916020808360051b8301019601926000915b838310611fe05750505050506040610100610140920151805160070b61010085015260018060a01b03602082015116610120850152015160070b91015290565b9091929396602080600192601f19858203018652818b5180518352015190604083820152815115156040820152848060a01b038383015116606082015260c061205161203b604085015160a0608086015260e0850190611a83565b6060850151848203603f190160a0860152611a83565b926080878060a01b039101511691015299019301930191939290611fa0565b91908260409103126101d857602061208783611cec565b9201516001600160a01b03811681036101d85790565b906020808351928381520192019060005b8181106120bb5750505090565b8251805160070b85526020818101516001600160a01b0390811682880152604080840151151590880152606080840151151590880152608092830151169186019190915260a090940193909201916001016120ae565b51908160070b82036101d857565b9190612129611bfc565b9260058110156121a25780612141575050600182525b565b6000600182036121615750506000546001600160a01b0316602084015250565b506002810361217257506040830152565b6000600382036121855750506060830152565b60049250500361213f576000546001600160a01b03166080830152565b634e487b7160e01b600052602160045260246000fdfea2646970667358221220e8b4b160e3e76ba15ace2be30a4abfe9cc9f8f436466b1e955e6462684c2c4f764736f6c634300081d0033",
  "linkReferences": {},
  "deployedLinkReferences": {}
}