{
  "_format": "hh-sol-artifact-1",
  "contractName": "AliasAccountUtility",
  "sourceName": "contracts/system-contracts/hedera-account-service/examples/IHRC-632/aliasAccountUtility.sol",
  "abi": [
    {
      "anonymous": false,
      "inputs": [
        {
          "indexed": false,
          "internalType": "int64",
          "name": "responseCode",
          "type": "int64"
        },
        {
          "indexed": false,
          "internalType": "address",
          "name": "account",
          "type": "address"
        },
        {
          "indexed": false,
          "internalType": "bool",
          "name": "response",
          "type": "bool"
        }
      ],
      "name": "AccountAuthorizationResponse",
      "type": "event"
    },
    {
      "anonymous": false,
      "inputs": [
        {
          "indexed": false,
          "internalType": "int64",
          "name": "responseCode",
          "type": "int64"
        },
        {
          "indexed": false,
          "internalType": "address",
          "name": "evmAddressAlias",
          "type": "address"
        }
      ],
      "name": "AddressAliasResponse",
      "type": "event"
    },
    {
      "anonymous": false,
      "inputs": [
        {
          "indexed": false,
          "internalType": "int64",
          "name": "responseCode",
          "type": "int64"
        },
        {
          "indexed": false,
          "internalType": "bool",
          "name": "response",
          "type": "bool"
        }
      ],
      "name": "IsValidAliasResponse",
      "type": "event"
    },
    {
      "anonymous": false,
      "inputs": [
        {
          "indexed": false,
          "internalType": "int256",
          "name": "responseCode",
          "type": "int256"
        }
      ],
      "name": "ResponseCode",
      "type": "event"
    },
    {
      "inputs": [
        {
          "internalType": "address",
          "name": "accountNumAlias",
          "type": "address"
        }
      ],
      "name": "getEvmAddressAliasPublic",
      "outputs": [
        {
          "internalType": "int64",
          "name": "responseCode",
          "type": "int64"
        },
        {
          "internalType": "address",
          "name": "evmAddressAlias",
          "type": "address"
        }
      ],
      "stateMutability": "nonpayable",
      "type": "function"
    },
    {
      "inputs": [
        {
          "internalType": "address",
          "name": "evmAddressAlias",
          "type": "address"
        }
      ],
      "name": "getHederaAccountNumAliasPublic",
      "outputs": [
        {
          "internalType": "int64",
          "name": "responseCode",
          "type": "int64"
        },
        {
          "internalType": "address",
          "name": "accountNumAlias",
          "type": "address"
        }
      ],
      "stateMutability": "nonpayable",
      "type": "function"
    },
    {
      "inputs": [
        {
          "internalType": "address",
          "name": "account",
          "type": "address"
        },
        {
          "internalType": "bytes",
          "name": "message",
          "type": "bytes"
        },
        {
          "internalType": "bytes",
          "name": "signature",
          "type": "bytes"
        }
      ],
      "name": "isAuthorizedPublic",
      "outputs": [
        {
          "internalType": "int64",
          "name": "responseCode",
          "type": "int64"
        },
        {
          "internalType": "bool",
          "name": "authorized",
          "type": "bool"
        }
      ],
      "stateMutability": "nonpayable",
      "type": "function"
    },
    {
      "inputs": [
        {
          "internalType": "address",
          "name": "account",
          "type": "address"
        },
        {
          "internalType": "bytes",
          "name": "messageHash",
          "type": "bytes"
        },
        {
          "internalType": "bytes",
          "name": "signature",
          "type": "bytes"
        }
      ],
      "name": "isAuthorizedRawPublic",
      "outputs": [
        {
          "internalType": "int64",
          "name": "responseCode",
          "type": "int64"
        },
        {
          "internalType": "bool",
          "name": "authorized",
          "type": "bool"
        }
      ],
      "stateMutability": "nonpayable",
      "type": "function"
    },
    {
      "inputs": [
        {
          "internalType": "address",
          "name": "addr",
          "type": "address"
        }
      ],
      "name": "isValidAliasPublic",
      "outputs": [
        {
          "internalType": "int64",
          "name": "responseCode",
          "type": "int64"
        },
        {
          "internalType": "bool",
          "name": "response",
          "type": "bool"
        }
      ],
      "stateMutability": "nonpayable",
      "type": "function"
    }
  ],
  "bytecode": "0x60808060405234601557610764908161001b8239f35b600080fdfe608080604052600436101561001357600080fd5b60003560e01c90816309d98c5914610424575080631c0e502d1461032f57806360626c1a146102255780638bce4f7d1461015d5763f83479cb1461005657600080fd5b3461014d576100926000806100a061006d366105dd565b604096929693919351928391602083019563b252636760e01b875289602485016106f8565b03601f198101835282610542565b51908261016a5af1906100b161063f565b91156101525760408280518101031261014d576100dc60406100d56020850161066f565b93016106aa565b915b60030b906016820361014d5760408051600784900b81526001600160a01b039092166020830152831515908201527f162586be4b98b0928c37fb28878bf8924f5dd1eef9de96579d71ead76d8922d29080606081015b0390a16040805160079290920b82529115156020820152f35b600080fd5b6000915060156100de565b3461014d57610092600080610199610174366105dd565b6040969296939193519283916020830195632ca8c76960e21b875289602485016106f8565b51908261016a5af16101a961063f565b901561021a5760208180518101031261014d5760206101c891016106aa565b9060169060408051600784900b81526001600160a01b039092166020830152831515908201527f162586be4b98b0928c37fb28878bf8924f5dd1eef9de96579d71ead76d8922d2908060608101610134565b5060009060156100de565b3461014d57602036600319011261014d5760008061024161052c565b60405163dea3d08160e01b602082019081526001600160a01b039092166024808301919091528152610274604482610542565b51908261016a5af161028461063f565b9015610325578060208061029d9351830101910161067d565b6001600160a01b03169060030b5b6040805160039290920b8083526001600160a01b0384166020840152917fa27cdbf2730224c9c11367703bc63bc3582fadeeb2bc00a48fa5230be0a2e2c49190a160168114158061031a575b61014d576040805160079290920b82526001600160a01b03929092166020820152f35b50600f8114156102f7565b50600060156102ab565b3461014d57602036600319011261014d5760008061034b61052c565b60405163308ef30160e01b602082019081526001600160a01b03909216602480830191909152815261037e604482610542565b51908261016a5af161038e61063f565b901561041a5760208180518101031261014d5760206103ad91016106aa565b60165b6040805160039290920b8083528315156020840152917f693ca0ebcfd96a65d10022521651984f4fe4eac5b025d2b76cb38487fbf979c89190a160168114158061040f575b61014d576040805160079290920b82529115156020820152f35b50601d8114156103f5565b50600060156103b0565b3461014d57602036600319011261014d576000809161044161052c565b635df8969760e11b602083019081526001600160a01b03909116602480840191909152825290610472604482610542565b51908261016a5af161048261063f565b9015610522578060208061049b9351830101910161067d565b6001600160a01b03169060030b5b6040805160039290920b8083526001600160a01b0384166020840152917fa27cdbf2730224c9c11367703bc63bc3582fadeeb2bc00a48fa5230be0a2e2c49190a16016811415806105175761014d576040805160079290920b82526001600160a01b03929092166020820152f35b50601d8114156102f7565b50600060156104a9565b600435906001600160a01b038216820361014d57565b90601f8019910116810190811067ffffffffffffffff82111761056457604052565b634e487b7160e01b600052604160045260246000fd5b67ffffffffffffffff811161056457601f01601f191660200190565b81601f8201121561014d578035906105ad8261057a565b926105bb6040519485610542565b8284526020838301011161014d57816000926020809301838601378301015290565b606060031982011261014d576004356001600160a01b038116810361014d579160243567ffffffffffffffff811161014d578261061c91600401610596565b916044359067ffffffffffffffff821161014d5761063c91600401610596565b90565b3d1561066a573d906106508261057a565b9161065e6040519384610542565b82523d6000602084013e565b606090565b51908160030b820361014d57565b919082604091031261014d5760206106948361066f565b9201516001600160a01b038116810361014d5790565b5190811515820361014d57565b919082519283825260005b8481106106e3575050826000602080949584010152601f8019910116010190565b806020809284010151828286010152016106c2565b6001600160a01b03909116815260606020820181905261063c939192610720918401906106b7565b9160408184039101526106b756fea264697066735822122009bc0ed2d0f531cde1d0a632af550674e8f497b44224efee299087718d3caba064736f6c634300081d0033",
  "linkReferences": {},
  "deployedLinkReferences": {}
}