{
  "_format": "hh-sol-artifact-1",
  "contractName": "CryptoOwner",
  "sourceName": "contracts/system-contracts/hedera-account-service/examples/IHRC-906/cryptoOwner.sol",
  "abi": [
    {
      "anonymous": false,
      "inputs": [
        {
          "indexed": false,
          "internalType": "int256",
          "name": "responseCode",
          "type": "int256"
        }
      ],
      "name": "ResponseCode",
      "type": "event"
    },
    {
      "inputs": [
        {
          "internalType": "address",
          "name": "_cryptoAllowance",
          "type": "address"
        },
        {
          "internalType": "int64",
          "name": "amount",
          "type": "int64"
        },
        {
          "internalType": "address",
          "name": "receiver",
          "type": "address"
        }
      ],
      "name": "cryptoTransfer",
      "outputs": [
        {
          "internalType": "int64",
          "name": "responseCode",
          "type": "int64"
        }
      ],
      "stateMutability": "nonpayable",
      "type": "function"
    },
    {
      "stateMutability": "payable",
      "type": "receive"
    }
  ],
  "bytecode": "0x60808060405234601557610565908161001b8239f35b600080fdfe608080604052600436101561001d575b50361561001b57600080fd5b005b60003560e01c632a4500160361000f57346103de5760603660031901126103de576004356001600160a01b03811691908281036103de57602435928360070b928385036103de576044356001600160a01b03811695908690036103de5767ffffffffffffffff479116116103ed5750600080916040516020810191632824611960e21b83523060248301526044820152856064820152606481526100c260848261043f565b51908261016a5af16100d26104ef565b90156103e3576020818051810103126103de57602001518060030b81036103de576016905b60030b036103de5760609260405192610110858561043f565b60028452601f19850160005b8181106103b2575050806000038060070b90810361039c576040519061014182610423565b30825260208201526000604082015261015985610461565b5261016384610461565b506040519161017183610423565b825260208201526000604082015261018883610484565b5261019282610484565b50604051602081019281841067ffffffffffffffff8511176103865760019360405281526020936040516101c6868261043f565b60008152600094610381575b9184926040949294519061020588830193634b8711e960e11b855260406024850152518960648501526084840190610494565b6023198382030160448401528151908181528981018a808460051b84010194019888925b8484106102bf5750505050508495509061024d81869303601f19810183528261043f565b51925af1600161025b6104ef565b911515036102bb5782818051810103126102bb57820151908160070b8092036102b8577f90a5cf4cffe88b4edbb041cfc7a8a812c48a5ec30b84640fb37690875168e3aa83604051848152a1601682036102b85750604051908152f35b80fd5b5080fd5b919395979996985091938b90601f19838203018552875160018060a01b03815116825260406102f984830151878686015287850190610494565b9101519160408183039101528280835192838152019201908d905b808210610339575050509080600192980194019401918a989694919997959399610229565b825180516001600160a01b03908116865286820151168686015260408082015160070b908601528701511515878501528f946080909401939092019160019190910190610314565b6101d2565b634e487b7160e01b600052604160045260246000fd5b634e487b7160e01b600052601160045260246000fd5b6020906040516103c181610423565b60008152600083820152600060408201528282890101520161011c565b600080fd5b50601660156100f7565b62461bcd60e51b8152602060048201526011602482015270125b9cdd59999a58da595b9d08119d5b99607a1b6044820152606490fd5b6060810190811067ffffffffffffffff82111761038657604052565b90601f8019910116810190811067ffffffffffffffff82111761038657604052565b80511561046e5760200190565b634e487b7160e01b600052603260045260246000fd5b80516001101561046e5760400190565b906020808351928381520192019060005b8181106104b25750505090565b825180516001600160a01b0316855260208181015160070b81870152604091820151151591860191909152606090940193909201916001016104a5565b3d1561052a573d9067ffffffffffffffff8211610386576040519161051e601f8201601f19166020018461043f565b82523d6000602084013e565b60609056fea26469706673582212207ebfe998f5f7301f85d9ce16a8d412a98979143171dea9ebeea340dbe9cd6fe964736f6c634300081d0033",
  "linkReferences": {},
  "deployedLinkReferences": {}
}