{
  "_format": "hh-sol-artifact-1",
  "contractName": "CancelAirdrop",
  "sourceName": "contracts/system-contracts/hedera-token-service/examples/hrc-904/CancelAirdrop.sol",
  "abi": [
    {
      "anonymous": false,
      "inputs": [
        {
          "indexed": false,
          "internalType": "bool",
          "name": "",
          "type": "bool"
        },
        {
          "indexed": false,
          "internalType": "bytes",
          "name": "",
          "type": "bytes"
        }
      ],
      "name": "CallResponseEvent",
      "type": "event"
    },
    {
      "inputs": [
        {
          "internalType": "address",
          "name": "sender",
          "type": "address"
        },
        {
          "internalType": "address",
          "name": "receiver",
          "type": "address"
        },
        {
          "internalType": "address",
          "name": "token",
          "type": "address"
        }
      ],
      "name": "cancelAirdrop",
      "outputs": [
        {
          "internalType": "int64",
          "name": "responseCode",
          "type": "int64"
        }
      ],
      "stateMutability": "nonpayable",
      "type": "function"
    },
    {
      "inputs": [
        {
          "internalType": "address[]",
          "name": "senders",
          "type": "address[]"
        },
        {
          "internalType": "address[]",
          "name": "receivers",
          "type": "address[]"
        },
        {
          "internalType": "address[]",
          "name": "tokens",
          "type": "address[]"
        },
        {
          "internalType": "int64[]",
          "name": "serials",
          "type": "int64[]"
        }
      ],
      "name": "cancelMultipleAirdrops",
      "outputs": [
        {
          "internalType": "int64",
          "name": "responseCode",
          "type": "int64"
        }
      ],
      "stateMutability": "nonpayable",
      "type": "function"
    },
    {
      "inputs": [
        {
          "internalType": "address",
          "name": "sender",
          "type": "address"
        },
        {
          "internalType": "address",
          "name": "receiver",
          "type": "address"
        },
        {
          "internalType": "address",
          "name": "token",
          "type": "address"
        },
        {
          "internalType": "int64",
          "name": "serial",
          "type": "int64"
        }
      ],
      "name": "cancelNFTAirdrop",
      "outputs": [
        {
          "internalType": "int64",
          "name": "responseCode",
          "type": "int64"
        }
      ],
      "stateMutability": "nonpayable",
      "type": "function"
    },
    {
      "inputs": [
        {
          "internalType": "address",
          "name": "token",
          "type": "address"
        },
        {
          "internalType": "bytes",
          "name": "encodedFunctionSelector",
          "type": "bytes"
        }
      ],
      "name": "redirectForToken",
      "outputs": [
        {
          "internalType": "int256",
          "name": "responseCode",
          "type": "int256"
        },
        {
          "internalType": "bytes",
          "name": "response",
          "type": "bytes"
        }
      ],
      "stateMutability": "nonpayable",
      "type": "function"
    },
    {
      "inputs": [
        {
          "internalType": "address",
          "name": "token",
          "type": "address"
        },
        {
          "internalType": "address",
          "name": "from",
          "type": "address"
        },
        {
          "internalType": "address",
          "name": "to",
          "type": "address"
        },
        {
          "internalType": "uint256",
          "name": "amount",
          "type": "uint256"
        }
      ],
      "name": "transferFrom",
      "outputs": [
        {
          "internalType": "int64",
          "name": "responseCode",
          "type": "int64"
        }
      ],
      "stateMutability": "nonpayable",
      "type": "function"
    },
    {
      "inputs": [
        {
          "internalType": "address",
          "name": "token",
          "type": "address"
        },
        {
          "internalType": "address",
          "name": "from",
          "type": "address"
        },
        {
          "internalType": "address",
          "name": "to",
          "type": "address"
        },
        {
          "internalType": "uint256",
          "name": "serialNumber",
          "type": "uint256"
        }
      ],
      "name": "transferFromNFT",
      "outputs": [
        {
          "internalType": "int64",
          "name": "responseCode",
          "type": "int64"
        }
      ],
      "stateMutability": "nonpayable",
      "type": "function"
    }
  ],
  "bytecode": "0x6080806040523460155761092f908161001b8239f35b600080fdfe6080604052600436101561001257600080fd5b60003560e01c806304e74b561461051d57806315dacbea146104c2578063618dc65e146103715780637e5fb7dc146101a85780638f68e13c1461010b57639b23d3d91461005e57600080fd5b34610106576000806100c76100b9610075366105c2565b604051639b23d3d960e01b602082019081526001600160a01b03958616602483015293851660448201529390911660648401526084830152929091829060a4820190565b03601f198101835282610610565b5190826101675af16100d76107d9565b90156100fc576100f1816020808094518301019101610809565b6040519060030b8152f35b50602060156100f1565b600080fd5b3461010657608036600319011261010657610124610580565b61012c610596565b6101346105ac565b916064358060070b809103610106576101929361014f610761565b9361015861072b565b6001600160a01b0394851681529084166020820152921660408301526060820152610182826107a2565b5261018c816107a2565b50610822565b60070b6016810361010657602090604051908152f35b346101065760803660031901126101065760043567ffffffffffffffff8111610106576101d99036906004016106bd565b60243567ffffffffffffffff8111610106576101f99036906004016106bd565b9060443567ffffffffffffffff81116101065761021a9036906004016106bd565b9060643567ffffffffffffffff81116101065736602382011215610106578060040135610246816106a5565b916102546040519384610610565b8183526024602084019260051b8201019036821161010657602401915b81831061035757505050815192610287846106a5565b946102956040519687610610565b848652601f196102a4866106a5565b0160005b81811061034057505060005b8581106102c45761019287610822565b6001906102cf61072b565b828060a01b036102df83896107c5565b51168152828060a01b036102f383866107c5565b51166020820152828060a01b0361030a83876107c5565b5116604082015261031b82876107c5565b5160070b606082015261032e828a6107c5565b5261033981896107c5565b50016102b4565b60209061034b61072b565b82828b010152016102a8565b82358060070b810361010657815260209283019201610271565b346101065760403660031901126101065761038a610580565b6024359067ffffffffffffffff82116101065736602383011215610106578160040135906103b782610648565b916103c56040519384610610565b80835236602482860101116101065761042860009493856020846100b99560248499018386013783010152604080516330c6e32f60e11b602082019081526001600160a01b03909616602482015260448101919091529283916064830190610664565b5190826101675af16104386107d9565b907f4af4780e06fe8cb9df64b0794fa6f01399af979175bb988e35e0e57e594567bc604051821515815260406020820152806104776040820186610664565b0390a1600090156104a9575060165b6104a560405192839260030b8352604060208401526040830190610664565b0390f35b60405191506104b9602083610610565b81526015610486565b34610106576000806100c76100b96104d9366105c2565b604051630aed65f560e11b602082019081526001600160a01b03958616602483015293851660448201529390911660648401526084830152929091829060a4820190565b3461010657606036600319011261010657610192610539610580565b610541610596565b9061054a6105ac565b610552610761565b9261055b61072b565b6001600160a01b039384168152908316602082015291166040820152610182826107a2565b600435906001600160a01b038216820361010657565b602435906001600160a01b038216820361010657565b604435906001600160a01b038216820361010657565b6080906003190112610106576004356001600160a01b038116810361010657906024356001600160a01b038116810361010657906044356001600160a01b0381168103610106579060643590565b90601f8019910116810190811067ffffffffffffffff82111761063257604052565b634e487b7160e01b600052604160045260246000fd5b67ffffffffffffffff811161063257601f01601f191660200190565b919082519283825260005b848110610690575050826000602080949584010152601f8019910116010190565b8060208092840101518282860101520161066f565b67ffffffffffffffff81116106325760051b60200190565b9080601f83011215610106578135906106d5826106a5565b926106e36040519485610610565b82845260208085019360051b82010191821161010657602001915b81831061070b5750505090565b82356001600160a01b0381168103610106578152602092830192016106fe565b604051906080820182811067ffffffffffffffff8211176106325760405260006060838281528260208201528260408201520152565b604080519091906107728382610610565b6001815291601f19018260005b82811061078b57505050565b60209061079661072b565b8282850101520161077f565b8051156107af5760200190565b634e487b7160e01b600052603260045260246000fd5b80518210156107af5760209160051b010190565b3d15610804573d906107ea82610648565b916107f86040519384610610565b82523d6000602084013e565b606090565b9081602091031261010657518060030b81036101065790565b604051602081019163012ebcaf60e01b83526044820160206024840152815180915260206064840192019060005b8181106108aa57505050918161087360009493859403601f198101835282610610565b5190826101675af16108836107d9565b90156108a2578060208061089c93518301019101610809565b60030b90565b50601561089c565b825180516001600160a01b0390811686526020828101518216818801526040808401519092169187019190915260609182015160070b918601919091526080909401939092019160010161085056fea2646970667358221220ad318292bd026e5321f2ca0fd194c5d1825e9415633af116be30de3db985a12264736f6c634300081d0033",
  "linkReferences": {},
  "deployedLinkReferences": {}
}