{
  "_format": "hh-sol-artifact-1",
  "contractName": "Issuer",
  "sourceName": "contracts/Issuer.sol",
  "abi": [
    {
      "inputs": [],
      "stateMutability": "nonpayable",
      "type": "constructor"
    },
    {
      "anonymous": false,
      "inputs": [
        {
          "indexed": true,
          "internalType": "uint64",
          "name": "amount",
          "type": "uint64"
        },
        {
          "indexed": true,
          "internalType": "uint256",
          "name": "newTotalSupply",
          "type": "uint256"
        },
        {
          "indexed": true,
          "internalType": "address",
          "name": "token",
          "type": "address"
        }
      ],
      "name": "AssetBurned",
      "type": "event"
    },
    {
      "anonymous": false,
      "inputs": [
        {
          "indexed": true,
          "internalType": "bytes32",
          "name": "name",
          "type": "bytes32"
        },
        {
          "indexed": true,
          "internalType": "bytes32",
          "name": "symbol",
          "type": "bytes32"
        },
        {
          "indexed": true,
          "internalType": "address",
          "name": "token",
          "type": "address"
        }
      ],
      "name": "AssetCreated",
      "type": "event"
    },
    {
      "anonymous": false,
      "inputs": [
        {
          "indexed": true,
          "internalType": "uint64",
          "name": "amount",
          "type": "uint64"
        },
        {
          "indexed": true,
          "internalType": "uint256",
          "name": "newTotalSupply",
          "type": "uint256"
        },
        {
          "indexed": true,
          "internalType": "address",
          "name": "token",
          "type": "address"
        }
      ],
      "name": "AssetMinted",
      "type": "event"
    },
    {
      "anonymous": false,
      "inputs": [
        {
          "indexed": true,
          "internalType": "address",
          "name": "asset",
          "type": "address"
        },
        {
          "indexed": true,
          "internalType": "uint64",
          "name": "amount",
          "type": "uint64"
        },
        {
          "indexed": true,
          "internalType": "address",
          "name": "buyer",
          "type": "address"
        }
      ],
      "name": "AssetPurchased",
      "type": "event"
    },
    {
      "anonymous": false,
      "inputs": [
        {
          "indexed": true,
          "internalType": "address",
          "name": "asset",
          "type": "address"
        },
        {
          "indexed": true,
          "internalType": "uint64",
          "name": "amount",
          "type": "uint64"
        },
        {
          "indexed": true,
          "internalType": "address",
          "name": "seller",
          "type": "address"
        }
      ],
      "name": "AssetSold",
      "type": "event"
    },
    {
      "anonymous": false,
      "inputs": [
        {
          "indexed": true,
          "internalType": "address",
          "name": "account",
          "type": "address"
        },
        {
          "indexed": true,
          "internalType": "address",
          "name": "token",
          "type": "address"
        }
      ],
      "name": "KYCGranted",
      "type": "event"
    },
    {
      "stateMutability": "payable",
      "type": "fallback"
    },
    {
      "inputs": [],
      "name": "admin",
      "outputs": [
        {
          "internalType": "address",
          "name": "",
          "type": "address"
        }
      ],
      "stateMutability": "view",
      "type": "function"
    },
    {
      "inputs": [
        {
          "internalType": "string",
          "name": "name",
          "type": "string"
        },
        {
          "internalType": "uint64",
          "name": "amount",
          "type": "uint64"
        }
      ],
      "name": "burn",
      "outputs": [],
      "stateMutability": "nonpayable",
      "type": "function"
    },
    {
      "inputs": [
        {
          "internalType": "string",
          "name": "_name",
          "type": "string"
        },
        {
          "internalType": "string",
          "name": "_symbol",
          "type": "string"
        }
      ],
      "name": "createTokenizedAsset",
      "outputs": [],
      "stateMutability": "payable",
      "type": "function"
    },
    {
      "inputs": [
        {
          "internalType": "string",
          "name": "name",
          "type": "string"
        }
      ],
      "name": "getTokenAddress",
      "outputs": [
        {
          "internalType": "address",
          "name": "",
          "type": "address"
        }
      ],
      "stateMutability": "view",
      "type": "function"
    },
    {
      "inputs": [
        {
          "internalType": "string",
          "name": "name",
          "type": "string"
        },
        {
          "internalType": "address",
          "name": "account",
          "type": "address"
        }
      ],
      "name": "grantKYC",
      "outputs": [],
      "stateMutability": "nonpayable",
      "type": "function"
    },
    {
      "inputs": [
        {
          "internalType": "string",
          "name": "name",
          "type": "string"
        },
        {
          "internalType": "uint64",
          "name": "amount",
          "type": "uint64"
        }
      ],
      "name": "mint",
      "outputs": [],
      "stateMutability": "nonpayable",
      "type": "function"
    },
    {
      "inputs": [
        {
          "internalType": "string",
          "name": "name",
          "type": "string"
        },
        {
          "internalType": "uint64",
          "name": "amount",
          "type": "uint64"
        }
      ],
      "name": "purchaseAsset",
      "outputs": [],
      "stateMutability": "nonpayable",
      "type": "function"
    },
    {
      "inputs": [
        {
          "internalType": "address",
          "name": "",
          "type": "address"
        }
      ],
      "name": "reserves",
      "outputs": [
        {
          "internalType": "contract AssetCollateralReserve",
          "name": "",
          "type": "address"
        }
      ],
      "stateMutability": "view",
      "type": "function"
    },
    {
      "inputs": [
        {
          "internalType": "string",
          "name": "name",
          "type": "string"
        },
        {
          "internalType": "uint64",
          "name": "suppliedAssets",
          "type": "uint64"
        }
      ],
      "name": "sellAsset",
      "outputs": [],
      "stateMutability": "nonpayable",
      "type": "function"
    },
    {
      "inputs": [
        {
          "internalType": "string",
          "name": "",
          "type": "string"
        }
      ],
      "name": "tokenizedAssets",
      "outputs": [
        {
          "internalType": "contract TokenizedAssetManager",
          "name": "",
          "type": "address"
        }
      ],
      "stateMutability": "view",
      "type": "function"
    },
    {
      "stateMutability": "payable",
      "type": "receive"
    }
  ],
  "bytecode": "0x60808060405234602757600080546001600160a01b03191633179055612ecd908161002d8239f35b600080fdfe60806040526004361015610010575b005b60003560e01c80631e99044b146100b05780632362ed59146100ab5780632750af63146100a657806343876d3e146100a15780637d8a38a81461009c578063c409123614610097578063d38d3b0614610092578063d66bd5241461008d578063e9f92aef146100885763f851a4400361000e57610e4c565b610bf8565b610bb3565b610a5c565b6109e6565b6107de565b6107b4565b610615565b610348565b610197565b634e487b7160e01b600052604160045260246000fd5b90601f801991011681019081106001600160401b038211176100ec57604052565b6100b5565b81601f82011215610147578035906001600160401b0382116100ec5760405192610125601f8401601f1916602001856100cb565b8284526020838301011161014757816000926020809301838601378301015290565b600080fd5b6001600160401b0381160361014757565b604060031982011261014757600435906001600160401b03821161014757610187916004016100f1565b906024356101948161014c565b90565b34610147576101a53661015d565b906101bb60018060a01b03600054163314610e75565b6101e36101d76101ca8361078e565b546001600160a01b031690565b6001600160a01b031690565b90813b1561014757604051631f73a13960e31b81526001600160401b0384166004820152916000908390602490829084905af19081156102f9576101d76101ca6102389260049560209561032d575b5061078e565b604051637e062a3560e11b815292839182905afa9081156102f9576000916102fe575b506040516318160ddd60e01b81526001600160a01b039190911691602082600481865afa9182156102f9576000926102bf575b506001600160401b03167f0cfb70a16c64346ca9c7b70dbcf81bc4a5b0f6cadd89fddd15058461a4e3c2ea600080a4005b6001600160401b039192506102eb9060203d6020116102f2575b6102e381836100cb565b810190610eec565b919061028e565b503d6102d9565b610ecb565b610320915060203d602011610326575b61031881836100cb565b810190610ed7565b3861025b565b503d61030e565b8061033c6000610342936100cb565b80610e41565b38610232565b34610147576101ca6103666101d761035f3661015d565b939061078e565b604051637e062a3560e11b815290602082600481845afa9182156102f9576000926105e3575b506001600160a01b03821660009081526002602052604090206103ae906101ca565b6040516341976e0960e01b81526001600160a01b0384166004820152909190602081602481625881045afa9081156102f9576103f49186916000916105b4575b50610f10565b604051630aed65f560e11b8152625880fb60048201523360248201526001600160a01b0393909316604484018190526001600160401b0382166064850152909290919060208160848160006101675af180156102f957601691600091610585575b5060070b0361054757803b1561014757604051633ee1515b60e11b81523360048201526001600160401b0386166024820152906000908290604490829084905af180156102f957610532575b50803b156101475760405163026ecb0760e31b81526001600160401b039290921660048301526000908290602490829084905af180156102f95761051d575b5033916001600160401b0316906001600160a01b03167f7994e0b974911e4810e91c9a7bdaab2d5466aad64c1aea6299c553f9e86632e4600080a4005b8061033c600061052c936100cb565b386104e0565b8061033c6000610541936100cb565b386104a1565b60405162461bcd60e51b81526020600482015260166024820152754661696c656420746f207472616e73666572204b455360501b6044820152606490fd5b6105a7915060203d6020116105ad575b61059f81836100cb565b810190610f49565b38610455565b503d610595565b6105d6915060203d6020116105dc575b6105ce81836100cb565b810190610efb565b386103ee565b503d6105c4565b6105fd91925060203d6020116103265761031881836100cb565b903861038c565b6001600160a01b0381160361014757565b34610147576040366003190112610147576004356001600160401b038111610147576106459036906004016100f1565b6024359061065282610604565b61066760018060a01b03600054163314610e75565b6106766101d76101ca8361078e565b90813b156101475760405163d9ca93ff60e01b81526001600160a01b0384166004820152916000908390602490829084905af19081156102f9576101d76101ca6106ca9260049560209561032d575061078e565b604051637e062a3560e11b815292839182905afa9081156102f957600091610722575b506001600160a01b0390811691167f6ecd1075df0bd503981045f61c7c6333854478ebc3f77d4f73b2ff6e041a28f9600080a3005b61073b915060203d6020116103265761031881836100cb565b386106ed565b602060031982011261014757600435906001600160401b03821161014757610194916004016100f1565b60005b83811061077e5750506000910152565b818101518382015260200161076e565b60206107a791816040519382858094519384920161076b565b8101600181520301902090565b346101475760206001600160a01b036107d46107cf36610741565b61078e565b5416604051908152f35b6040366003190112610147576004356001600160401b038111610147576108099036906004016100f1565b6024356001600160401b038111610147576108289036906004016100f1565b9061083e60018060a01b03600054163314610e75565b60405161198c808201908282106001600160401b038311176100ec578484849361086c93610fc18639610f87565b039034f09081156102f9576040516001600160a01b038316929061054b8082016001600160401b038111838210176100ec57856108bd91849361294d85396001600160a01b03909116815260200190565b03906000f09081156102f9576108f5906108d68461078e565b80546001600160a01b0319166001600160a01b03909216919091179055565b604051637e062a3560e11b815290602082600481875afa9182156102f95760049361094a610955936108d660209661094f956000916109c9575b506001600160a01b0316600090815260026020526040902090565b610fac565b94610fac565b9260405192838092637e062a3560e11b82525afa9081156102f9576000916109aa575b506001600160a01b0316917f0e4426a09a21fb01f3e086832fbf5bf1f9e51b02393ed5108fab27951089a936600080a4005b6109c3915060203d6020116103265761031881836100cb565b38610978565b6109e09150883d8a116103265761031881836100cb565b3861092f565b3461014757600460206001600160a01b03610a036107cf36610741565b541660405192838092637e062a3560e11b82525afa9081156102f957600091610a3d575b506040516001600160a01b039091168152602090f35b610a56915060203d6020116103265761031881836100cb565b38610a27565b3461014757610a6a3661015d565b90610a8060018060a01b03600054163314610e75565b610a8f6101d76101ca8361078e565b90813b1561014757604051634edf56a160e11b81526001600160401b0384166004820152916000908390602490829084905af19081156102f9576101d76101ca610ae39260049560209561032d575061078e565b604051637e062a3560e11b815292839182905afa9081156102f957600091610b94575b506040516318160ddd60e01b81526001600160a01b039190911691602082600481865afa9182156102f957600092610b6a575b506001600160401b03167f5f8b82027297301b627704f9d6dd9867afa350299d5bbc1665db4d63e5112fff600080a4005b6001600160401b03919250610b8d9060203d6020116102f2576102e381836100cb565b9190610b39565b610bad915060203d6020116103265761031881836100cb565b38610b06565b3461014757602036600319011261014757600435610bd081610604565b60018060a01b03166000526002602052602060018060a01b0360406000205416604051908152f35b34610147576101ca610c0f6101d761035f3661015d565b604051637e062a3560e11b815290602082600481845afa9182156102f957600092610e20575b506001600160a01b0382166000908152600260205260409020610c57906101ca565b6040516341976e0960e01b81526001600160a01b0384166004820152602081602481625881045afa9081156102f95785610ca0610ce893602093600091610e03575b5082610f10565b604051630aed65f560e11b81526001600160a01b03808916600483015233602483015290961660448701526001600160401b0390911660648601529391829081906084820190565b038160006101675af180156102f957601691600091610de4575b5060070b03610daa576001600160a01b0316803b1561014757604051631eb489b760e21b81526001600160401b039290921660048301523360248301526000908290604490829084905af180156102f957610d95575b5033916001600160401b0316906001600160a01b03167facef75eb0efa8b15ee1fe42c210742c1aa257a48d4a2558c3810a960f55c23e7600080a4005b8061033c6000610da4936100cb565b38610d58565b60405162461bcd60e51b81526020600482015260126024820152712330b4b632b2103a37903a3930b739b332b960711b6044820152606490fd5b610dfd915060203d6020116105ad5761059f81836100cb565b38610d02565b610e1a9150843d86116105dc576105ce81836100cb565b38610c99565b610e3a91925060203d6020116103265761031881836100cb565b9038610c35565b600091031261014757565b34610147576000366003190112610147576000546040516001600160a01b039091168152602090f35b15610e7c57565b60405162461bcd60e51b815260206004820152602160248201527f4f6e6c792061646d696e2063616e2063616c6c20746869732066756e6374696f6044820152603760f91b6064820152608490fd5b6040513d6000823e3d90fd5b90816020910312610147575161019481610604565b90816020910312610147575190565b9081602091031261014757516101948161014c565b906001600160401b03809116911602906001600160401b038216918203610f3357565b634e487b7160e01b600052601160045260246000fd5b9081602091031261014757518060070b81036101475790565b90602091610f7b8151809281855285808601910161076b565b601f01601f1916010190565b9091610f9e61019493604084526040840190610f62565b916020818403910152610f62565b805115610fba576020015190565b5060009056fe60808060405261198c80380380916100178285610786565b83398101906040818303126106775780516001600160401b03811161067757826100429183016107e7565b60208201519092906001600160401b0381116106775761006292016107e7565b600080546001600160a01b03199081168255600160208181527fa6eef7e35abe7026729641147f7915573c7e97b47efa546f5f6e3230263bcb499190915560027fcc69885fda6bcc1a4ace058b4a62bf5e179ea78fd58a1ccd71c22cc9b688792f5560047fd9d16d34ffb15ba3a3d852f0d403e2ce1d691fb54de27ac87cd2f993f3ec330f81905560087f7dfe757ecd65cbd7922a9c0161e935dd7fdbcc0e999689c7d31633896b1fc60b5560107fedc95719e9a3b28dd8e80877cb5880a9be7de1a13fc8b05e7999683b6b567643557fe2689cd4a84e23ad2f564004f1c9013e9589d260bde6380aba3ca7e09e4df40c91909155600690925260407f8f331abe73332f95a25873e8b430885974c0409691f89d643119a11623a7924a819055825482163317909255600380549091163017905551919061012083016001600160401b038111848210176107555760405260608352602083019160608352604084019160008352606085016060815260808601936000855260a08701906000825260c08801926000845260e0890194606086526101008a019661020361082c565b88528a52885230825261021461082c565b3060208201526278645060408201528652610100604051906102368183610786565b60078252601f190160005b81811061073e575050610252610897565b5061025d600061093b565b5461026661085b565b306020820152604051916102798361076b565b82526020820152610289826108b8565b52610293816108b8565b5061029c610897565b506102a7600161093b565b546102b061085b565b306020820152604051916102c38361076b565b825260208201526102d3826108db565b526102dd816108db565b506102e6610897565b506102f1600261093b565b546102fa61085b565b3060208201526040519161030d8361076b565b8252602082015261031d826108eb565b52610327816108eb565b50610330610897565b5061033b600361093b565b5461034461085b565b306020820152604051916103578361076b565b82526020820152610367826108fb565b52610371816108fb565b5061037a610897565b50610385600461093b565b5461038e61085b565b306020820152604051916103a18361076b565b825260208201526103b18261090b565b526103bb8161090b565b506103c4610897565b506103cf600561093b565b546103d861085b565b306020820152604051916103eb8361076b565b825260208201526103fb8261091b565b526104058161091b565b5061040e610897565b50610419600661093b565b5461042261085b565b306020820152604051916104358361076b565b825260208201526104458261092b565b5261044f8161092b565b5085528551805160070b158061072f575b610720575b50604051976020890199630fb65bf360e01b8b5260248a01606090525160848a0161016090526101e48a016104999161096a565b90518982036083190160a48b01526104b1919061096a565b91516001600160a01b031660c4890152518782036083190160e48901526104d8919061096a565b945115156101048701525160070b610124860152511515610144850152519160831984820301610164850152825180825260208201918160051b810160200194602001926000915b838310610690576000808a8a610578818c60408d51805160070b61018485015260018060a01b036020820151166101a4850152015160070b6101c483015285604483015285606483015203601f198101835282610786565b5190346101675af13d15610688573d90610591826107a9565b9161059f6040519384610786565b82523d6000602084013e5b1561067c57604081805181010312610677576020810151908160030b80920361067757604001516001600160a01b0381169190829003610677576016905b60030b0361063257600280546001600160a01b0319166001600160a01b039290921691909117905560048054600160a01b600160e01b0319169055604051610ffc90816109908239f35b60405162461bcd60e51b815260206004820152601660248201527f4661696c656420746f2063726561746520746f6b656e000000000000000000006044820152606490fd5b600080fd5b506000601660156105e8565b6060906105aa565b9091929395602080600192601f19858203018652818a5180518352015190604083820152815115156040820152848060a01b038383015116606082015260c06107016106eb604085015160a0608086015260e085019061096a565b6060850151848203603f190160a086015261096a565b926080878060a01b039101511691015298019301930191939290610520565b60406276a70091015238610465565b50604081015160070b15610460565b602090610749610897565b82828601015201610241565b634e487b7160e01b600052604160045260246000fd5b604081019081106001600160401b0382111761075557604052565b601f909101601f19168101906001600160401b0382119082101761075557604052565b6001600160401b03811161075557601f01601f191660200190565b60005b8381106107d75750506000910152565b81810151838201526020016107c7565b81601f820112156106775780516107fd816107a9565b9261080b6040519485610786565b818452602082840101116106775761082991602080850191016107c4565b90565b60405190606082016001600160401b038111838210176107555760405260006040838281528260208201520152565b6040519060a082016001600160401b03811183821017610755576040526000608083828152826020820152606060408201526060808201520152565b604051906108a48261076b565b816000815260206108b361085b565b910152565b8051156108c55760200190565b634e487b7160e01b600052603260045260246000fd5b8051600110156108c55760400190565b8051600210156108c55760600190565b8051600310156108c55760800190565b8051600410156108c55760a00190565b8051600510156108c55760c00190565b8051600610156108c55760e00190565b6007811015610954576000526001602052604060002090565b634e487b7160e01b600052602160045260246000fd5b90602091610983815180928185528580860191016107c4565b601f01601f191601019056fe608080604052600436101561001057005b60003560e01c90816315dacbea14610d225750806318160ddd14610cf7578063618dc65e14610ba65780637dc2a2b6146107785780639b23d3d9146106d85780639dbead4214610538578063d9ca93ff146103a2578063f77c479114610379578063f851a44014610350578063fb9d09c8146100c05763fc0c546a1461009257005b346100bb5760003660031901126100bb576002546040516001600160a01b039091168152602090f35b600080fd5b346100bb5760203660031901126100bb576100d9610e8e565b6004546001600160a01b031633148015610347575b6100f790610ee3565b6001808060a01b0360025416916020906040516101148382610e0f565b60008152600093610342575b6040519467ffffffffffffffff8487019363707a02cd60e11b8552608488019260248901521660070b604487015260606064870152815180915260a48601908460a48260051b89010193019186905b8282106103185787878180898d61018f818c03601f198101835282610e0f565b5190826101675af1906101a0610ea5565b91156102f65781518201916060818385019403126102f2576101c3828201610ed5565b6101cf60408301610fb8565b9160608101519067ffffffffffffffff82116102ee57019380603f860112156102ea57838501519467ffffffffffffffff86116102d6578560051b908582019661021c6040519889610e0f565b8752858080890193830101019283116102d2576040869101915b8383106102ba57509395506016935050505b60030b0361027f57506004805467ffffffffffffffff60a01b191660a09290921b67ffffffffffffffff60a01b1691909117905580f35b6064906040519062461bcd60e51b82526004820152601460248201527311985a5b1959081d1bc81b5a5b9d08185cdcd95d60621b6044820152fd5b81906102c584610fb8565b8152019101908590610236565b8780fd5b634e487b7160e01b87526041600452602487fd5b8580fd5b8680fd5b8380fd5b60405191506103058183610e0f565b8282528236813760166015849350610248565b90919293868061033460019360a3198d82030186528851610e4d565b96019201920190929161016f565b610120565b503330146100ee565b346100bb5760003660031901126100bb576004546040516001600160a01b039091168152602090f35b346100bb5760003660031901126100bb576003546040516001600160a01b039091168152602090f35b346100bb5760203660031901126100bb576103bb610d79565b6004546001600160a01b03163314801561052f575b6103d990610ee3565b600254604051633cb0c7fd60e21b602082019081526001600160a01b0392831660248301529183166044820152600091829161042281606481015b03601f198101835282610e0f565b5190826101675af1610432610ea5565b9015610527576040818051810103126100bb5761045d604061045660208401610ed5565b9201610f39565b90505b1561046757005b600254604051638f8d7f9960e01b602082019081526001600160a01b03928316602483015292909116604482015260009182916104a78160648101610414565b5190826101675af16104b7610ea5565b901561051d576020818051810103126100bb576104d8602060169201610ed5565b60030b036104e257005b60405162461bcd60e51b81526020600482015260136024820152724661696c656420746f206772616e74204b594360681b6044820152606490fd5b50601660156104d8565b506000610460565b503330146103d0565b346100bb5760203660031901126100bb57610551610e8e565b6004546001600160a01b0316331480156106cf575b61056f90610ee3565b600254604051602092916001600160a01b03169061058d8482610e0f565b6000815260003681376040519167ffffffffffffffff85840194636b48868360e11b8652608485019260248601521660070b60448401526060606484015281518091528460a4840192019060005b868282106106b85760008088886105fb818a03601f198101835282610e0f565b5190826101675af19061060c610ea5565b91156106ab576040828051810103126100bb5760166106386040610631848601610ed5565b9401610fb8565b925b60030b0361067057506004805467ffffffffffffffff60a01b191660a09290921b67ffffffffffffffff60a01b16919091179055005b6064906040519062461bcd60e51b82526004820152601460248201527311985a5b1959081d1bc8189d5c9b88185cdcd95d60621b6044820152fd5b600091506016601561063a565b835160070b855293840193909201916001016105db565b50333014610566565b346100bb576000806107336104146106ef36610d8f565b604051639b23d3d960e01b602082019081526001600160a01b03958616602483015293851660448201529390911660648401526084830152929091829060a4820190565b5190826101675af1610743610ea5565b901561076e576020818051810103126100bb576107636020809201610ed5565b6040519060030b8152f35b5060206015610763565b346100bb5760403660031901126100bb57610791610d79565b60243567ffffffffffffffff81168091036100bb576004546001600160a01b031633148015610b9d575b6107c490610ee3565b600254604051634d8fdd6d60e01b81526001600160a01b039091169190602081600481865afa908115610b9157600091610b57575b5015610b1257610807610f46565b6001600160a01b03909316835260070b6020830181905291610827610f46565b30815292677fffffffffffffff198114610afc5760000360070b602084015261084e610f65565b918252606090604051936108628386610e0f565b60028552601f19830160005b818110610ae5575050610897849560206108a99596019281845261089182610f85565b52610f85565b5051906108a382610fa8565b52610fa8565b506040918251906108ba8483610e0f565b60018252601f19840160005b818110610ace5750506108d882610f85565b526108e281610f85565b508251906020820192632f34811960e01b845260448301906020602485015282518092526064840191602060648260051b8701019401926000905b8282106109c557886000808a8a61093d818c03601f198101835282610e0f565b5190826101675af161094d610ea5565b90156109bb576020818051810103126100bb5761096e602060169201610ed5565b60030b0361097857005b5162461bcd60e51b815260206004820152601860248201527f4661696c656420746f2061697264726f7020746f6b656e7300000000000000006044820152606490fd5b506016601561096e565b90919293946063198782030182528551898683019160018060a01b03815116845260208101519288602086015283518091526020608086019401906000905b8a818310610a9557505050500151918a8183039101526020808351928381520192019060005b878c838310610a4d5750505050506020806001929701920192019093929161091d565b845180516001600160a01b039081168852602082810151909116818901528183015160070b928801929092529091015115158986015260809094019390920191600101610a2a565b83968660019496976020949651868060a01b0381511684528581015160070b86850152015115159082015201950192018d939291610a04565b602090610ad9610f65565b828287010152016108c6565b602090610af0610f46565b82828a0101520161086e565b634e487b7160e01b600052601160045260246000fd5b60405162461bcd60e51b815260206004820152601760248201527f546f6b656e206973206e6f74206173736f6369617465640000000000000000006044820152606490fd5b90506020813d602011610b89575b81610b7260209383610e0f565b810103126100bb57610b8390610f39565b846107f9565b3d9150610b65565b6040513d6000823e3d90fd5b503330146107bb565b346100bb5760403660031901126100bb57610bbf610d79565b6024359067ffffffffffffffff82116100bb57366023830112156100bb57816004013590610bec82610e31565b91610bfa6040519384610e0f565b80835236602482860101116100bb57610c5d60009493856020846104149560248499018386013783010152604080516330c6e32f60e11b602082019081526001600160a01b03909616602482015260448101919091529283916064830190610e4d565b5190826101675af1610c6d610ea5565b907f4af4780e06fe8cb9df64b0794fa6f01399af979175bb988e35e0e57e594567bc60405182151581526040602082015280610cac6040820186610e4d565b0390a160009015610cde575060165b610cda60405192839260030b8352604060208401526040830190610e4d565b0390f35b6040519150610cee602083610e0f565b81526015610cbb565b346100bb5760003660031901126100bb57602067ffffffffffffffff60045460a01c16604051908152f35b346100bb576000610414826107338394610d3b36610d8f565b630aed65f560e11b602086019081526001600160a01b03948516602487015292841660448601529216606484015260848301919091529360a4820190565b600435906001600160a01b03821682036100bb57565b60809060031901126100bb576004356001600160a01b03811681036100bb57906024356001600160a01b03811681036100bb57906044356001600160a01b03811681036100bb579060643590565b6060810190811067ffffffffffffffff821117610df957604052565b634e487b7160e01b600052604160045260246000fd5b90601f8019910116810190811067ffffffffffffffff821117610df957604052565b67ffffffffffffffff8111610df957601f01601f191660200190565b919082519283825260005b848110610e79575050826000602080949584010152601f8019910116010190565b80602080928401015182828601015201610e58565b6004359067ffffffffffffffff821682036100bb57565b3d15610ed0573d90610eb682610e31565b91610ec46040519384610e0f565b82523d6000602084013e565b606090565b51908160030b82036100bb57565b15610eea57565b60405162461bcd60e51b815260206004820152602160248201527f4f6e6c792061646d696e2063616e2063616c6c20746869732066756e6374696f6044820152603760f91b6064820152608490fd5b519081151582036100bb57565b60405190610f5382610ddd565b60006040838281528260208201520152565b60405190610f7282610ddd565b6060604083600081528260208201520152565b805115610f925760200190565b634e487b7160e01b600052603260045260246000fd5b805160011015610f925760400190565b51908160070b82036100bb5756fea2646970667358221220cfa1810f579b39b310b87860a330c38957077c1118dc5dd38a2d3fe96ccf39c664736f6c634300081d00336080806040523461012d5760208161054b803803809161001f8285610146565b83398101031261012d57516001600160a01b0381169081900361012d5760405163053aa6f360e11b81526020816004816000625880fb5af190811561013a576000916100ff575b5063ffffffff6016911660030b036100ab57600080546001600160a01b031990811692909217815560025560018054909116331790556040516103cb90816101808239f35b60405162461bcd60e51b815260206004820152602660248201527f4661696c656420746f207365747570205553444320746f6b656e206173736f6360448201526534b0ba34b7b760d11b6064820152608490fd5b90506020813d602011610132575b8161011a60209383610146565b8101031261012d575163ffffffff610066565b600080fd5b3d915061010d565b6040513d6000823e3d90fd5b601f909101601f19168101906001600160401b0382119082101761016957604052565b634e487b7160e01b600052604160045260246000fdfe6080604052600436101561001257600080fd5b60003560e01c806313765838146102935780634c68df6714610275578063750f0acc1461024357637ad226dc1461004857600080fd5b3461023e57604036600319011261023e576004356024356001600160a01b0381169081900361023e576001546001600160a01b031633148015908082610235575b610092906102ee565b9061022c575b6100a1906102ee565b60405163e1f21c6760e01b8152625880fb60048201523060248201526044810183905260208160648160006101675af180156101b25760169160009161020d575b5060070b036101be5760405190630aed65f560e11b8252625880fb6004830152306024830152604482015281606482015260208160848160006101675af180156101b257601691600091610183575b5060070b0361014b57610146906002546102e1565b600255005b60405162461bcd60e51b815260206004820152601060248201526f11985a5b1959081d1bc81c99599d5b9960821b6044820152606490fd5b6101a5915060203d6020116101ab575b61019d8183610344565b81019061037c565b38610131565b503d610193565b6040513d6000823e3d90fd5b60405162461bcd60e51b815260206004820152602160248201527f4661696c656420746f206772616e7420616c6c6f77616e636520746f2073656c6044820152603360f91b6064820152608490fd5b610226915060203d6020116101ab5761019d8183610344565b386100e2565b50333014610098565b50333014610089565b600080fd5b3461023e57602036600319011261023e5760043567ffffffffffffffff811680910361023e57610146906002546102e1565b3461023e57600036600319011261023e576020600254604051908152f35b3461023e57602036600319011261023e5760043567ffffffffffffffff811680910361023e576002549081018091116102cb57600255005b634e487b7160e01b600052601160045260246000fd5b919082039182116102cb57565b156102f557565b60405162461bcd60e51b815260206004820152602160248201527f4f6e6c792061646d696e2063616e2063616c6c20746869732066756e6374696f6044820152603760f91b6064820152608490fd5b90601f8019910116810190811067ffffffffffffffff82111761036657604052565b634e487b7160e01b600052604160045260246000fd5b9081602091031261023e57518060070b810361023e579056fea2646970667358221220b1d59c6638694f13646f444e639dc09a3678b646fb77ce78ab6157e0fa0c287064736f6c634300081d0033a2646970667358221220f6d7566fa5bde36283a21ac3a3103eb4636cdd8b20858c83471fbd8ed58fb70a64736f6c634300081d0033",
  "linkReferences": {},
  "deployedLinkReferences": {}
}