{
  "_format": "hh-sol-artifact-1",
  "contractName": "AtomicHTS",
  "sourceName": "contracts/system-contracts/hedera-token-service/AtomicHTS.sol",
  "abi": [
    {
      "anonymous": false,
      "inputs": [
        {
          "indexed": false,
          "internalType": "int256",
          "name": "transferTokenResponseCode",
          "type": "int256"
        },
        {
          "indexed": false,
          "internalType": "int256",
          "name": "approveResponseCode",
          "type": "int256"
        },
        {
          "indexed": false,
          "internalType": "int256",
          "name": "associateResponseCode",
          "type": "int256"
        },
        {
          "indexed": false,
          "internalType": "int256",
          "name": "grantKYCResponseCode",
          "type": "int256"
        },
        {
          "indexed": false,
          "internalType": "int256",
          "name": "transferFromResponseCode",
          "type": "int256"
        }
      ],
      "name": "BatchApproveAssociateGrantKYCTransferFrom",
      "type": "event"
    },
    {
      "anonymous": false,
      "inputs": [
        {
          "indexed": false,
          "internalType": "int256",
          "name": "associateResponseCode",
          "type": "int256"
        },
        {
          "indexed": false,
          "internalType": "int256",
          "name": "grantKYCResponseCode",
          "type": "int256"
        },
        {
          "indexed": false,
          "internalType": "int256",
          "name": "transferTokenResponseCode",
          "type": "int256"
        }
      ],
      "name": "BatchAssociateGrantKYCTransfer",
      "type": "event"
    },
    {
      "anonymous": false,
      "inputs": [
        {
          "indexed": false,
          "internalType": "int256",
          "name": "associateResponseCode",
          "type": "int256"
        },
        {
          "indexed": false,
          "internalType": "int256",
          "name": "mintTokenResponseCode",
          "type": "int256"
        },
        {
          "indexed": false,
          "internalType": "int256",
          "name": "grantKYCResponseCode",
          "type": "int256"
        },
        {
          "indexed": false,
          "internalType": "int256",
          "name": "transferTokenResponseCode",
          "type": "int256"
        }
      ],
      "name": "BatchAssociateMintGrantTransfer",
      "type": "event"
    },
    {
      "anonymous": false,
      "inputs": [
        {
          "indexed": false,
          "internalType": "int256",
          "name": "mintTokenResponseCode",
          "type": "int256"
        },
        {
          "indexed": false,
          "internalType": "int256",
          "name": "unfreezeTokenResponseCode",
          "type": "int256"
        },
        {
          "indexed": false,
          "internalType": "int256",
          "name": "grantKYCResponseCode",
          "type": "int256"
        },
        {
          "indexed": false,
          "internalType": "int256",
          "name": "freezeTokenResponseCode",
          "type": "int256"
        }
      ],
      "name": "BatchMintUnfreezeGrantKYCTransferFreeze",
      "type": "event"
    },
    {
      "anonymous": false,
      "inputs": [
        {
          "indexed": false,
          "internalType": "int256",
          "name": "unfreezeTokenResponseCode",
          "type": "int256"
        },
        {
          "indexed": false,
          "internalType": "int256",
          "name": "grantKYCResponseCode",
          "type": "int256"
        },
        {
          "indexed": false,
          "internalType": "int256",
          "name": "transferTokenResponseCode",
          "type": "int256"
        },
        {
          "indexed": false,
          "internalType": "int256",
          "name": "freezeTokenResponseCode",
          "type": "int256"
        }
      ],
      "name": "BatchUnfreezeGrantKYCTransferFreeze",
      "type": "event"
    },
    {
      "anonymous": false,
      "inputs": [
        {
          "indexed": false,
          "internalType": "int256",
          "name": "wipeTokenResponseCode",
          "type": "int256"
        },
        {
          "indexed": false,
          "internalType": "int256",
          "name": "mintTokenResponseCode",
          "type": "int256"
        },
        {
          "indexed": false,
          "internalType": "int256",
          "name": "transferTokenResponseCode",
          "type": "int256"
        }
      ],
      "name": "BatchWipeMintTransfer",
      "type": "event"
    },
    {
      "anonymous": false,
      "inputs": [
        {
          "indexed": false,
          "internalType": "bool",
          "name": "",
          "type": "bool"
        },
        {
          "indexed": false,
          "internalType": "bytes",
          "name": "",
          "type": "bytes"
        }
      ],
      "name": "CallResponseEvent",
      "type": "event"
    },
    {
      "inputs": [
        {
          "internalType": "address",
          "name": "token",
          "type": "address"
        },
        {
          "internalType": "address",
          "name": "owner",
          "type": "address"
        },
        {
          "internalType": "address",
          "name": "receipient",
          "type": "address"
        },
        {
          "internalType": "int64",
          "name": "transferAmount",
          "type": "int64"
        },
        {
          "internalType": "uint256",
          "name": "allowance",
          "type": "uint256"
        }
      ],
      "name": "batchApproveAssociateGrantKYCTransferFrom",
      "outputs": [],
      "stateMutability": "nonpayable",
      "type": "function"
    },
    {
      "inputs": [
        {
          "internalType": "address",
          "name": "token",
          "type": "address"
        },
        {
          "internalType": "address",
          "name": "sender",
          "type": "address"
        },
        {
          "internalType": "address",
          "name": "receiver",
          "type": "address"
        },
        {
          "internalType": "int64",
          "name": "amount",
          "type": "int64"
        }
      ],
      "name": "batchAssociateGrantKYCTransfer",
      "outputs": [],
      "stateMutability": "nonpayable",
      "type": "function"
    },
    {
      "inputs": [
        {
          "internalType": "address",
          "name": "token",
          "type": "address"
        },
        {
          "internalType": "address",
          "name": "sender",
          "type": "address"
        },
        {
          "internalType": "address",
          "name": "receiver",
          "type": "address"
        },
        {
          "internalType": "int64",
          "name": "amount",
          "type": "int64"
        }
      ],
      "name": "batchAssociateMintGrantTransfer",
      "outputs": [],
      "stateMutability": "nonpayable",
      "type": "function"
    },
    {
      "inputs": [
        {
          "internalType": "address",
          "name": "token",
          "type": "address"
        },
        {
          "internalType": "address",
          "name": "sender",
          "type": "address"
        },
        {
          "internalType": "address",
          "name": "receiver",
          "type": "address"
        },
        {
          "internalType": "int64",
          "name": "mintAmount",
          "type": "int64"
        },
        {
          "internalType": "int64",
          "name": "transferAmount",
          "type": "int64"
        }
      ],
      "name": "batchMintUnfreezeGrantKYCTransferFreeze",
      "outputs": [],
      "stateMutability": "nonpayable",
      "type": "function"
    },
    {
      "inputs": [
        {
          "internalType": "address",
          "name": "token",
          "type": "address"
        },
        {
          "internalType": "address",
          "name": "sender",
          "type": "address"
        },
        {
          "internalType": "address",
          "name": "receiver",
          "type": "address"
        },
        {
          "internalType": "int64",
          "name": "amount",
          "type": "int64"
        }
      ],
      "name": "batchUnfreezeGrantKYCTransferFreeze",
      "outputs": [],
      "stateMutability": "nonpayable",
      "type": "function"
    },
    {
      "inputs": [
        {
          "internalType": "address",
          "name": "token",
          "type": "address"
        },
        {
          "internalType": "address",
          "name": "treasury",
          "type": "address"
        },
        {
          "internalType": "address",
          "name": "owner",
          "type": "address"
        },
        {
          "internalType": "int64",
          "name": "wipedAmount",
          "type": "int64"
        },
        {
          "internalType": "int64",
          "name": "mintAmount",
          "type": "int64"
        },
        {
          "internalType": "int64",
          "name": "transferAmount",
          "type": "int64"
        }
      ],
      "name": "batchWipeMintTransfer",
      "outputs": [],
      "stateMutability": "nonpayable",
      "type": "function"
    },
    {
      "inputs": [
        {
          "internalType": "address",
          "name": "token",
          "type": "address"
        },
        {
          "internalType": "bytes",
          "name": "encodedFunctionSelector",
          "type": "bytes"
        }
      ],
      "name": "redirectForToken",
      "outputs": [
        {
          "internalType": "int256",
          "name": "responseCode",
          "type": "int256"
        },
        {
          "internalType": "bytes",
          "name": "response",
          "type": "bytes"
        }
      ],
      "stateMutability": "nonpayable",
      "type": "function"
    },
    {
      "inputs": [
        {
          "internalType": "address",
          "name": "token",
          "type": "address"
        },
        {
          "internalType": "address",
          "name": "from",
          "type": "address"
        },
        {
          "internalType": "address",
          "name": "to",
          "type": "address"
        },
        {
          "internalType": "uint256",
          "name": "amount",
          "type": "uint256"
        }
      ],
      "name": "transferFrom",
      "outputs": [
        {
          "internalType": "int64",
          "name": "responseCode",
          "type": "int64"
        }
      ],
      "stateMutability": "nonpayable",
      "type": "function"
    },
    {
      "inputs": [
        {
          "internalType": "address",
          "name": "token",
          "type": "address"
        },
        {
          "internalType": "address",
          "name": "from",
          "type": "address"
        },
        {
          "internalType": "address",
          "name": "to",
          "type": "address"
        },
        {
          "internalType": "uint256",
          "name": "serialNumber",
          "type": "uint256"
        }
      ],
      "name": "transferFromNFT",
      "outputs": [
        {
          "internalType": "int64",
          "name": "responseCode",
          "type": "int64"
        }
      ],
      "stateMutability": "nonpayable",
      "type": "function"
    }
  ],
  "bytecode": "0x6080806040523460155761141b908161001b8239f35b600080fdfe608080604052600436101561001357600080fd5b60003560e01c90816315dacbea14610e40575080632233bd1d14610b405780635fc8bc40146108a4578063618dc65e14610753578063693b673f146106ab578063744270871461043b5780639b23d3d9146103ad578063c352d09b146101495763db649c361461008257600080fd5b34610144577fe63c8f26de61087c5d2afb0d9893672df4a6e20d3c13a2598d0e16305ca5b94c61010c61013f6100b736610fbb565b93929194906100fa6100c9828561136b565b60070b956100d9601688146111b2565b826100e4818761132e565b60070b986100f460168b14611158565b86611262565b92610107601685146110c0565b6113a8565b60070b9061011c601683146111fe565b604051948594859094939260609260808301968352602083015260408201520152565b0390a1005b600080fd5b346101445761015736610fbb565b909261016381856112f1565b916016831480156103a3575b6101789061110c565b600094604051866020820163707a02cd60e11b8152608483019260018060a01b03871660248201528560070b60448201526060606482015260605180945260a4810160a48560051b8301019460809185905b82821061037057505050506101e981849503601f198101835282610f26565b5190826101675af16101f961103e565b901561032457805181019660608260208a019903126103195761021e6020830161106e565b61022a604084016111a4565b9260608101519067ffffffffffffffff821161032057019880603f8b01121561031c5760208a01519961025c8b61124a565b9361026a6040519586610f26565b8b85526020808087019d60051b840101019283116103195750604001995b818b106103015750507f3d674a1ad36ef4c76dcf2c25991ff5125563f1dbd4bcce57e8264e3a6ad479179850916102f4939161013f96959391905b505060030b966102d56016891461107c565b6102df828661132e565b60070b946102ef60168714611158565b611262565b9061011c601683146110c0565b6020809161030e8d6111a4565b8152019a0199610288565b80fd5b8280fd5b8380fd5b5061013f92916102f491877f3d674a1ad36ef4c76dcf2c25991ff5125563f1dbd4bcce57e8264e3a6ad479179850604051610360602082610f26565b81815281368137601591906102c3565b9193955091939560208061039060019360a3198a82030186528851610f7a565b9601920192018c959391929694966101ca565b5060c2831461016f565b34610144576000806103f66103e86103c436610eb8565b6040959395949194519485936020850197639b23d3d960e01b895260248601611013565b03601f198101835282610f26565b5190826101675af161040661103e565b90156104315760208180518101031261014457610426602080920161106e565b6040519060030b8152f35b5060206015610426565b346101445760a036600319011261014457610454610e76565b61045c610e8c565b90610465610ea2565b9061046e610f06565b92610477610f16565b9260009485604051602081019063707a02cd60e11b8252608481019360018060a01b038816602483015260070b60448201526060606482015260605180945260a4810160a48560051b8301019460809185905b82821061067857505050506104e981849503601f198101835282610f26565b5190826101675af16104f961103e565b901561062d578051810195606082602089019803126103195761051e6020830161106e565b61052a604084016111a4565b9260608101519067ffffffffffffffff821161032057019780603f8a01121561031c5760208901519861055c8a61124a565b9361056a6040519586610f26565b8a85526020808087019c60051b840101019283116103195750604001985b818a106106155750507fb0fc214eefabee691b226e12fdae9cef27195953e362485a61a55e9f7aebacfa97509161013f94939161010c9391905b505060030b946105d46016871461107c565b610107601661060f6105e6858561136b565b60070b996105f5838c146111b2565b85610600818761132e565b60070b986100f4858b14611158565b146110c0565b602080916106228c6111a4565b815201990198610588565b509061010c61013f92867fb0fc214eefabee691b226e12fdae9cef27195953e362485a61a55e9f7aebacfa9750604051610668602082610f26565b81815281368137601591906105c2565b9193955091939560208061069860019360a3198a82030186528851610f7a565b9601920192018b959391929694966104ca565b34610144577fe4030211b90d9f1da56785f91728f2710a8a72a97cb3febfa38442380a736e5261013f6107206106e036610fbb565b906106f184829795979694966112f1565b94601686148015610749575b6107069061110c565b610710828861132e565b60070b966102ef60168914611158565b61072c601682146110c0565b604051938493846040919493926060820195825260208201520152565b5060c286146106fd565b346101445760403660031901126101445761076c610e76565b6024359067ffffffffffffffff821161014457366023830112156101445781600401359061079982610f5e565b916107a76040519384610f26565b80835236602482860101116101445761080a60009493856020846103e89560248499018386013783010152604080516330c6e32f60e11b602082019081526001600160a01b03909616602482015260448101919091529283916064830190610f7a565b5190826101675af161081a61103e565b907f4af4780e06fe8cb9df64b0794fa6f01399af979175bb988e35e0e57e594567bc604051821515815260406020820152806108596040820186610f7a565b0390a16000901561088b575060165b61088760405192839260030b8352604060208401526040830190610f7a565b0390f35b604051915061089b602083610f26565b81526015610868565b346101445760a0366003190112610144576108bd610e76565b6108c5610e8c565b906108ce610ea2565b9161091d6108da610f06565b608435926108fd6108eb86306112f1565b60168114908115610b35575b5061110c565b610915601661090c308861132e565b60070b14611158565b309085611262565b9161092a601684146110c0565b60405163e1f21c6760e01b602082019081526001600160a01b03831660248301523060448301526064808301859052825260009182919061096c608482610f26565b5190826101675af161097c61103e565b9015610b2d5760208180518101031261014457602061099b910161106e565b60030b9160168303610ae95760206109b383876112f1565b95601687148015610adf575b6109c89061110c565b6109d2818561132e565b60070b936109e260168614611158565b610a026040519485938493630aed65f560e11b8552309060048601611013565b03816000305af1908115610ad357600091610a6d575b7f3ff6c94580787f75fc6c239d2de43d4b3b3aac4792ea38a0ff0ad44bc604e22160a08686868a8760070b92610a50601685146110c0565b6040519485526020850152604084015260608301526080820152a1005b93929190506020843d602011610acb575b81610a8b60209383610f26565b81010312610144577f3ff6c94580787f75fc6c239d2de43d4b3b3aac4792ea38a0ff0ad44bc604e22194610ac060a0956111a4565b919293945094610a18565b3d9150610a7e565b6040513d6000823e3d90fd5b5060c287146109bf565b606460405162461bcd60e51b815260206004820152602060248201527f4661696c656420746f206772616e7420746f6b656e20616c6c6f77616e63652e6044820152fd5b50601561099b565b60c2915014886108f7565b346101445760c036600319011261014457610b59610e76565b610b61610e8c565b90610b6a610ea2565b610b72610f06565b92610b7b610f16565b9160a435918260070b830361014457600080604051602081019063efef57f960e01b825260018060a01b038916998a602483015260018060a01b038716604483015260070b606482015260648152610bd4608482610f26565b5190826101675af1610be461103e565b9015610e3857602081805181010312610144576020610c03910161106e565b60030b9360168503610dfb579560008097604051602081019163707a02cd60e11b83526084820194602483015260070b60448201526060606482015260605180945260a4810160a48560051b8301019460809185905b828210610dc85750505050610c7881849503601f198101835282610f26565b5190826101675af1610c8861103e565b9015610d7c57805181019660608260208a0199031261031957610cad6020830161106e565b610cb9604084016111a4565b9260608101519067ffffffffffffffff821161032057019880603f8b01121561031c5760208a015199610ceb8b61124a565b93610cf96040519586610f26565b8b85526020808087019d60051b840101019283116103195750604001995b818b10610d645750507fdcf20e982e9b4fb642e084af8406d7ae1483fb2d09e7a65a23cfdad87a4ed3ac98509161013f959391610720959391905b505060030b966102ef6016891461107c565b60208091610d718d6111a4565b8152019a0199610d17565b50916107209161013f93877fdcf20e982e9b4fb642e084af8406d7ae1483fb2d09e7a65a23cfdad87a4ed3ac9850604051610db8602082610f26565b8181528136813760159190610d52565b91939550919395602080610de860019360a3198a82030186528851610f7a565b9601920192018c95939192969496610c59565b60405162461bcd60e51b81526020600482015260156024820152742330b4b632b2103a37903bb4b832903a37b5b2b71760591b6044820152606490fd5b506015610c03565b346101445760006103e8826103f68394610e5936610eb8565b630aed65f560e11b60208601908152979390929060248601611013565b600435906001600160a01b038216820361014457565b602435906001600160a01b038216820361014457565b604435906001600160a01b038216820361014457565b6080906003190112610144576004356001600160a01b038116810361014457906024356001600160a01b038116810361014457906044356001600160a01b0381168103610144579060643590565b606435908160070b820361014457565b608435908160070b820361014457565b90601f8019910116810190811067ffffffffffffffff821117610f4857604052565b634e487b7160e01b600052604160045260246000fd5b67ffffffffffffffff8111610f4857601f01601f191660200190565b919082519283825260005b848110610fa6575050826000602080949584010152601f8019910116010190565b80602080928401015182828601015201610f85565b6080906003190112610144576004356001600160a01b038116810361014457906024356001600160a01b038116810361014457906044356001600160a01b038116810361014457906064358060070b81036101445790565b6001600160a01b03918216815291811660208301529091166040820152606081019190915260800190565b3d15611069573d9061104f82610f5e565b9161105d6040519384610f26565b82523d6000602084013e565b606090565b51908160030b820361014457565b1561108357565b60405162461bcd60e51b81526020600482015260156024820152742330b4b632b2103a379036b4b73a103a37b5b2b71760591b6044820152606490fd5b156110c757565b60405162461bcd60e51b815260206004820152601960248201527f4661696c656420746f207472616e7366657220746f6b656e2e000000000000006044820152606490fd5b1561111357565b60405162461bcd60e51b815260206004820152601a60248201527f4661696c656420746f206173736f636961746520746f6b656e2e0000000000006044820152606490fd5b1561115f57565b60405162461bcd60e51b815260206004820152601a60248201527f4661696c656420746f206772616e7420746f6b656e204b59432e0000000000006044820152606490fd5b51908160070b820361014457565b156111b957565b60405162461bcd60e51b815260206004820152601960248201527f4661696c656420746f20756e667265657a6520746f6b656e2e000000000000006044820152606490fd5b1561120557565b60405162461bcd60e51b815260206004820152601760248201527f4661696c656420746f20667265657a6520746f6b656e2e0000000000000000006044820152606490fd5b67ffffffffffffffff8111610f485760051b60200190565b60405163eca3691760e01b602082019081526001600160a01b03928316602483015292821660448201529216606483015260079290920b608480830191909152815260009182916112b460a482610f26565b5190826101675af16112c461103e565b90156112e9576020818051810103126101445760206112e3910161106e565b60030b90565b5060156112e3565b60405163248a35ef60e11b602082019081526001600160a01b03928316602483015292909116604482015260009182916112b481606481016103e8565b604051638f8d7f9960e01b602082019081526001600160a01b03928316602483015292909116604482015260009182916112b481606481016103e8565b6040516352f9138760e01b602082019081526001600160a01b03928316602483015292909116604482015260009182916112b481606481016103e8565b6040516316e3e16160e21b602082019081526001600160a01b03928316602483015292909116604482015260009182916112b481606481016103e856fea2646970667358221220ded1045b0b705df52e49b9f097807bbd1e3796f3e1c1672b2ea2d5e63a2d2b1d64736f6c634300081d0033",
  "linkReferences": {},
  "deployedLinkReferences": {}
}