{
  "_format": "hh-sol-artifact-1",
  "contractName": "HRC755Contract",
  "sourceName": "contracts/system-contracts/hedera-schedule-service/examples/IHRC-755/HRC755Contract.sol",
  "abi": [
    {
      "inputs": [
        {
          "internalType": "address",
          "name": "schedule",
          "type": "address"
        }
      ],
      "name": "authorizeScheduleCall",
      "outputs": [
        {
          "internalType": "int64",
          "name": "responseCode",
          "type": "int64"
        }
      ],
      "stateMutability": "nonpayable",
      "type": "function"
    },
    {
      "inputs": [
        {
          "internalType": "address",
          "name": "schedule",
          "type": "address"
        },
        {
          "internalType": "bytes",
          "name": "signatureMap",
          "type": "bytes"
        }
      ],
      "name": "signScheduleCall",
      "outputs": [
        {
          "internalType": "int64",
          "name": "responseCode",
          "type": "int64"
        }
      ],
      "stateMutability": "nonpayable",
      "type": "function"
    }
  ],
  "bytecode": "0x6080806040523460155761036e908161001b8239f35b600080fdfe608080604052600436101561001357600080fd5b60003560e01c908163092a1052146101ab575063fb53b5561461003557600080fd5b346101a65760403660031901126101a65761004e610285565b6024359067ffffffffffffffff82116101a657366023830112156101a657816004013561007a816102d3565b92610088604051948561029b565b81845236602483830101116101a657816000926024602093018387013784010152604051602081019163358eeb0360e01b835260018060a01b0316602482015260406044820152825180606483015260005b81811061019057600080858561010c6084828886838284010152601f801991011681010301601f19810183528261029b565b51908261016b5af161011c6102ef565b901561018857806020806101359351830101910161031f565b60070b6016810361014b57602090604051908152f35b60405162461bcd60e51b815260206004820152601560248201527429b4b3b71039b1b432b23ab632903330b4b632b21760591b6044820152606490fd5b506015610135565b80602080928701015160848286010152016100da565b600080fd5b346101a65760203660031901126101a657600080916101c8610285565b63f063796160e01b602083019081526001600160a01b039091166024808401919091528252906101f960448261029b565b51908261016b5af16102096102ef565b901561027d57806020806102229351830101910161031f565b60070b6016810361023857602090604051908152f35b60405162461bcd60e51b815260206004820152601a60248201527f417574686f72697a65207363686564756c65206661696c65642e0000000000006044820152606490fd5b506015610222565b600435906001600160a01b03821682036101a657565b90601f8019910116810190811067ffffffffffffffff8211176102bd57604052565b634e487b7160e01b600052604160045260246000fd5b67ffffffffffffffff81116102bd57601f01601f191660200190565b3d1561031a573d90610300826102d3565b9161030e604051938461029b565b82523d6000602084013e565b606090565b908160209103126101a657518060070b81036101a6579056fea2646970667358221220f25fe0c911b360baf4e183127aac3e89b240e92b71bcf715c458147871551f9364736f6c634300081d0033",
  "linkReferences": {},
  "deployedLinkReferences": {}
}