{
  "_format": "hh-sol-artifact-1",
  "contractName": "ClaimAirdrop",
  "sourceName": "contracts/system-contracts/hedera-token-service/examples/hrc-904/ClaimAirdrop.sol",
  "abi": [
    {
      "anonymous": false,
      "inputs": [
        {
          "indexed": false,
          "internalType": "bool",
          "name": "",
          "type": "bool"
        },
        {
          "indexed": false,
          "internalType": "bytes",
          "name": "",
          "type": "bytes"
        }
      ],
      "name": "CallResponseEvent",
      "type": "event"
    },
    {
      "inputs": [
        {
          "internalType": "address",
          "name": "sender",
          "type": "address"
        },
        {
          "internalType": "address",
          "name": "receiver",
          "type": "address"
        },
        {
          "internalType": "address",
          "name": "token",
          "type": "address"
        }
      ],
      "name": "claim",
      "outputs": [
        {
          "internalType": "int64",
          "name": "responseCode",
          "type": "int64"
        }
      ],
      "stateMutability": "nonpayable",
      "type": "function"
    },
    {
      "inputs": [
        {
          "internalType": "address[]",
          "name": "senders",
          "type": "address[]"
        },
        {
          "internalType": "address[]",
          "name": "receivers",
          "type": "address[]"
        },
        {
          "internalType": "address[]",
          "name": "tokens",
          "type": "address[]"
        },
        {
          "internalType": "int64[]",
          "name": "serials",
          "type": "int64[]"
        }
      ],
      "name": "claimMultipleAirdrops",
      "outputs": [
        {
          "internalType": "int64",
          "name": "responseCode",
          "type": "int64"
        }
      ],
      "stateMutability": "nonpayable",
      "type": "function"
    },
    {
      "inputs": [
        {
          "internalType": "address",
          "name": "sender",
          "type": "address"
        },
        {
          "internalType": "address",
          "name": "receiver",
          "type": "address"
        },
        {
          "internalType": "address",
          "name": "token",
          "type": "address"
        },
        {
          "internalType": "int64",
          "name": "serial",
          "type": "int64"
        }
      ],
      "name": "claimNFTAirdrop",
      "outputs": [
        {
          "internalType": "int64",
          "name": "responseCode",
          "type": "int64"
        }
      ],
      "stateMutability": "nonpayable",
      "type": "function"
    },
    {
      "inputs": [
        {
          "internalType": "address",
          "name": "token",
          "type": "address"
        },
        {
          "internalType": "bytes",
          "name": "encodedFunctionSelector",
          "type": "bytes"
        }
      ],
      "name": "redirectForToken",
      "outputs": [
        {
          "internalType": "int256",
          "name": "responseCode",
          "type": "int256"
        },
        {
          "internalType": "bytes",
          "name": "response",
          "type": "bytes"
        }
      ],
      "stateMutability": "nonpayable",
      "type": "function"
    },
    {
      "inputs": [
        {
          "internalType": "address",
          "name": "token",
          "type": "address"
        },
        {
          "internalType": "address",
          "name": "from",
          "type": "address"
        },
        {
          "internalType": "address",
          "name": "to",
          "type": "address"
        },
        {
          "internalType": "uint256",
          "name": "amount",
          "type": "uint256"
        }
      ],
      "name": "transferFrom",
      "outputs": [
        {
          "internalType": "int64",
          "name": "responseCode",
          "type": "int64"
        }
      ],
      "stateMutability": "nonpayable",
      "type": "function"
    },
    {
      "inputs": [
        {
          "internalType": "address",
          "name": "token",
          "type": "address"
        },
        {
          "internalType": "address",
          "name": "from",
          "type": "address"
        },
        {
          "internalType": "address",
          "name": "to",
          "type": "address"
        },
        {
          "internalType": "uint256",
          "name": "serialNumber",
          "type": "uint256"
        }
      ],
      "name": "transferFromNFT",
      "outputs": [
        {
          "internalType": "int64",
          "name": "responseCode",
          "type": "int64"
        }
      ],
      "stateMutability": "nonpayable",
      "type": "function"
    }
  ],
  "bytecode": "0x6080806040523460155761092e908161001b8239f35b600080fdfe608080604052600436101561001357600080fd5b60003560e01c90816315dacbea1461052857508063482bf6a4146104b15780635e1c75e11461043e578063618dc65e146102ed57806399bde7ea1461010e57639b23d3d91461006157600080fd5b34610109576000806100ca6100bc610078366105c1565b604051639b23d3d960e01b602082019081526001600160a01b03958616602483015293851660448201529390911660648401526084830152929091829060a4820190565b03601f19810183528261060f565b5190826101675af16100da61072a565b90156100ff576100f481602080809451830101910161075a565b6040519060030b8152f35b50602060156100f4565b600080fd5b346101095760803660031901126101095760043567ffffffffffffffff81116101095761013f9036906004016106bc565b60243567ffffffffffffffff81116101095761015f9036906004016106bc565b9060443567ffffffffffffffff8111610109576101809036906004016106bc565b9060643567ffffffffffffffff811161010957366023820112156101095780600401356101ac816106a4565b916101ba604051938461060f565b8183526024602084019260051b8201019036821161010957602401915b8183106102d3575050508151926101ed846106a4565b946101fb604051968761060f565b848652601f1961020a866106a4565b0160005b8181106102bc57505060005b8581106102405761022a87610821565b60070b6016810361010957602090604051908152f35b60019061024b610773565b828060a01b0361025b838961080d565b51168152828060a01b0361026f838661080d565b51166020820152828060a01b03610286838761080d565b51166040820152610297828761080d565b5160070b60608201526102aa828a61080d565b526102b5818961080d565b500161021a565b6020906102c7610773565b82828b0101520161020e565b82358060070b8103610109578152602092830192016101d7565b346101095760403660031901126101095761030661057f565b6024359067ffffffffffffffff821161010957366023830112156101095781600401359061033382610647565b91610341604051938461060f565b8083523660248286010111610109576103a460009493856020846100bc9560248499018386013783010152604080516330c6e32f60e11b602082019081526001600160a01b03909616602482015260448101919091529283916064830190610663565b5190826101675af16103b461072a565b907f4af4780e06fe8cb9df64b0794fa6f01399af979175bb988e35e0e57e594567bc604051821515815260406020820152806103f36040820186610663565b0390a160009015610425575060165b61042160405192839260030b8352604060208401526040830190610663565b0390f35b604051915061043560208361060f565b81526015610402565b346101095760603660031901126101095761022a61045a61057f565b610462610595565b9061046b6105ab565b6104736107a9565b9261047c610773565b6001600160a01b0393841681529083166020820152911660408201526104a1826107ea565b526104ab816107ea565b50610821565b34610109576080366003190112610109576104ca61057f565b6104d2610595565b6104da6105ab565b916064358060070b8091036101095761022a936104f56107a9565b936104fe610773565b6001600160a01b03948516815290841660208201529216604083015260608201526104a1826107ea565b346101095760006100bc826100ca8394610541366105c1565b630aed65f560e11b602086019081526001600160a01b03948516602487015292841660448601529216606484015260848301919091529360a4820190565b600435906001600160a01b038216820361010957565b602435906001600160a01b038216820361010957565b604435906001600160a01b038216820361010957565b6080906003190112610109576004356001600160a01b038116810361010957906024356001600160a01b038116810361010957906044356001600160a01b0381168103610109579060643590565b90601f8019910116810190811067ffffffffffffffff82111761063157604052565b634e487b7160e01b600052604160045260246000fd5b67ffffffffffffffff811161063157601f01601f191660200190565b919082519283825260005b84811061068f575050826000602080949584010152601f8019910116010190565b8060208092840101518282860101520161066e565b67ffffffffffffffff81116106315760051b60200190565b9080601f83011215610109578135906106d4826106a4565b926106e2604051948561060f565b82845260208085019360051b82010191821161010957602001915b81831061070a5750505090565b82356001600160a01b0381168103610109578152602092830192016106fd565b3d15610755573d9061073b82610647565b91610749604051938461060f565b82523d6000602084013e565b606090565b9081602091031261010957518060030b81036101095790565b604051906080820182811067ffffffffffffffff8211176106315760405260006060838281528260208201528260408201520152565b604080519091906107ba838261060f565b6001815291601f19018260005b8281106107d357505050565b6020906107de610773565b828285010152016107c7565b8051156107f75760200190565b634e487b7160e01b600052603260045260246000fd5b80518210156107f75760209160051b010190565b6040516020810191630596164160e01b83526044820160206024840152815180915260206064840192019060005b8181106108a957505050918161087260009493859403601f19810183528261060f565b5190826101675af161088261072a565b90156108a1578060208061089b9351830101910161075a565b60030b90565b50601561089b565b825180516001600160a01b0390811686526020828101518216818801526040808401519092169187019190915260609182015160070b918601919091526080909401939092019160010161084f56fea264697066735822122015989c202ed9f4fe852981e8470ab148f2951074cb4946d988ec12ec5284cd0364736f6c634300081d0033",
  "linkReferences": {},
  "deployedLinkReferences": {}
}