{
  "_format": "hh-sol-artifact-1",
  "contractName": "AssetCollateralReserve",
  "sourceName": "contracts/Reserve.sol",
  "abi": [
    {
      "inputs": [
        {
          "internalType": "address",
          "name": "_asset",
          "type": "address"
        }
      ],
      "stateMutability": "nonpayable",
      "type": "constructor"
    },
    {
      "inputs": [
        {
          "internalType": "uint64",
          "name": "amount",
          "type": "uint64"
        }
      ],
      "name": "deposit",
      "outputs": [],
      "stateMutability": "nonpayable",
      "type": "function"
    },
    {
      "inputs": [
        {
          "internalType": "uint256",
          "name": "amount",
          "type": "uint256"
        },
        {
          "internalType": "address",
          "name": "account",
          "type": "address"
        }
      ],
      "name": "refund",
      "outputs": [],
      "stateMutability": "nonpayable",
      "type": "function"
    },
    {
      "inputs": [],
      "name": "totalReserve",
      "outputs": [
        {
          "internalType": "uint256",
          "name": "",
          "type": "uint256"
        }
      ],
      "stateMutability": "view",
      "type": "function"
    },
    {
      "inputs": [
        {
          "internalType": "uint64",
          "name": "amount",
          "type": "uint64"
        }
      ],
      "name": "withdraw",
      "outputs": [],
      "stateMutability": "nonpayable",
      "type": "function"
    }
  ],
  "bytecode": "0x6080806040523461012d5760208161054b803803809161001f8285610146565b83398101031261012d57516001600160a01b0381169081900361012d5760405163053aa6f360e11b81526020816004816000625880fb5af190811561013a576000916100ff575b5063ffffffff6016911660030b036100ab57600080546001600160a01b031990811692909217815560025560018054909116331790556040516103cb90816101808239f35b60405162461bcd60e51b815260206004820152602660248201527f4661696c656420746f207365747570205553444320746f6b656e206173736f6360448201526534b0ba34b7b760d11b6064820152608490fd5b90506020813d602011610132575b8161011a60209383610146565b8101031261012d575163ffffffff610066565b600080fd5b3d915061010d565b6040513d6000823e3d90fd5b601f909101601f19168101906001600160401b0382119082101761016957604052565b634e487b7160e01b600052604160045260246000fdfe6080604052600436101561001257600080fd5b60003560e01c806313765838146102935780634c68df6714610275578063750f0acc1461024357637ad226dc1461004857600080fd5b3461023e57604036600319011261023e576004356024356001600160a01b0381169081900361023e576001546001600160a01b031633148015908082610235575b610092906102ee565b9061022c575b6100a1906102ee565b60405163e1f21c6760e01b8152625880fb60048201523060248201526044810183905260208160648160006101675af180156101b25760169160009161020d575b5060070b036101be5760405190630aed65f560e11b8252625880fb6004830152306024830152604482015281606482015260208160848160006101675af180156101b257601691600091610183575b5060070b0361014b57610146906002546102e1565b600255005b60405162461bcd60e51b815260206004820152601060248201526f11985a5b1959081d1bc81c99599d5b9960821b6044820152606490fd5b6101a5915060203d6020116101ab575b61019d8183610344565b81019061037c565b38610131565b503d610193565b6040513d6000823e3d90fd5b60405162461bcd60e51b815260206004820152602160248201527f4661696c656420746f206772616e7420616c6c6f77616e636520746f2073656c6044820152603360f91b6064820152608490fd5b610226915060203d6020116101ab5761019d8183610344565b386100e2565b50333014610098565b50333014610089565b600080fd5b3461023e57602036600319011261023e5760043567ffffffffffffffff811680910361023e57610146906002546102e1565b3461023e57600036600319011261023e576020600254604051908152f35b3461023e57602036600319011261023e5760043567ffffffffffffffff811680910361023e576002549081018091116102cb57600255005b634e487b7160e01b600052601160045260246000fd5b919082039182116102cb57565b156102f557565b60405162461bcd60e51b815260206004820152602160248201527f4f6e6c792061646d696e2063616e2063616c6c20746869732066756e6374696f6044820152603760f91b6064820152608490fd5b90601f8019910116810190811067ffffffffffffffff82111761036657604052565b634e487b7160e01b600052604160045260246000fd5b9081602091031261023e57518060070b810361023e579056fea2646970667358221220b1d59c6638694f13646f444e639dc09a3678b646fb77ce78ab6157e0fa0c287064736f6c634300081d0033",
  "linkReferences": {},
  "deployedLinkReferences": {}
}