{
  "_format": "hh-sol-artifact-1",
  "contractName": "Control",
  "sourceName": "contracts/control.sol",
  "abi": [
    {
      "inputs": [],
      "stateMutability": "nonpayable",
      "type": "constructor"
    },
    {
      "inputs": [],
      "name": "PAUSE_TRADING",
      "outputs": [
        {
          "internalType": "bool",
          "name": "",
          "type": "bool"
        }
      ],
      "stateMutability": "view",
      "type": "function"
    },
    {
      "inputs": [],
      "name": "admin",
      "outputs": [
        {
          "internalType": "address",
          "name": "",
          "type": "address"
        }
      ],
      "stateMutability": "view",
      "type": "function"
    },
    {
      "inputs": [],
      "name": "pauseTrading",
      "outputs": [],
      "stateMutability": "nonpayable",
      "type": "function"
    }
  ],
  "bytecode": "0x60808060405234602757600080546001600160a81b0319163317905561014e908161002d8239f35b600080fdfe608080604052600436101561001357600080fd5b60003560e01c9081631031e36e146100945750806394cc79141461006e5763f851a4401461004057600080fd5b34610069576000366003190112610069576000546040516001600160a01b039091168152602090f35b600080fd5b3461006957600036600319011261006957602060ff60005460a01c166040519015158152f35b3461006957600036600319011261006957600054906001600160a01b03821633036100cc575060ff60a01b1916600160a01b17600055005b62461bcd60e51b815260206004820152602160248201527f4f6e6c792061646d696e2063616e2063616c6c20746869732066756e6374696f6044820152603760f91b6064820152608490fdfea26469706673582212203e93863c6b4e6d8ad57f1c57a209a0245f4a0845f3bdfb47752de57a6aa71c3864736f6c634300081d0033",
  "linkReferences": {},
  "deployedLinkReferences": {}
}