{
  "_format": "hh-sol-artifact-1",
  "contractName": "USD",
  "sourceName": "contracts/usd.sol",
  "abi": [
    {
      "anonymous": false,
      "inputs": [
        {
          "indexed": false,
          "internalType": "bool",
          "name": "",
          "type": "bool"
        },
        {
          "indexed": false,
          "internalType": "bytes",
          "name": "",
          "type": "bytes"
        }
      ],
      "name": "CallResponseEvent",
      "type": "event"
    },
    {
      "inputs": [
        {
          "internalType": "string",
          "name": "name",
          "type": "string"
        },
        {
          "internalType": "string",
          "name": "symbol",
          "type": "string"
        },
        {
          "internalType": "string",
          "name": "memo",
          "type": "string"
        },
        {
          "internalType": "int64",
          "name": "maxSupply",
          "type": "int64"
        },
        {
          "internalType": "int64",
          "name": "autoRenewPeriod",
          "type": "int64"
        }
      ],
      "name": "createNft",
      "outputs": [
        {
          "internalType": "address",
          "name": "",
          "type": "address"
        }
      ],
      "stateMutability": "payable",
      "type": "function"
    },
    {
      "inputs": [
        {
          "internalType": "address",
          "name": "token",
          "type": "address"
        },
        {
          "internalType": "bytes[]",
          "name": "metadata",
          "type": "bytes[]"
        }
      ],
      "name": "mintNft",
      "outputs": [
        {
          "internalType": "int64",
          "name": "",
          "type": "int64"
        }
      ],
      "stateMutability": "nonpayable",
      "type": "function"
    },
    {
      "inputs": [
        {
          "internalType": "address",
          "name": "token",
          "type": "address"
        },
        {
          "internalType": "bytes",
          "name": "encodedFunctionSelector",
          "type": "bytes"
        }
      ],
      "name": "redirectForToken",
      "outputs": [
        {
          "internalType": "int256",
          "name": "responseCode",
          "type": "int256"
        },
        {
          "internalType": "bytes",
          "name": "response",
          "type": "bytes"
        }
      ],
      "stateMutability": "nonpayable",
      "type": "function"
    },
    {
      "inputs": [
        {
          "internalType": "address",
          "name": "token",
          "type": "address"
        },
        {
          "internalType": "address",
          "name": "from",
          "type": "address"
        },
        {
          "internalType": "address",
          "name": "to",
          "type": "address"
        },
        {
          "internalType": "uint256",
          "name": "amount",
          "type": "uint256"
        }
      ],
      "name": "transferFrom",
      "outputs": [
        {
          "internalType": "int64",
          "name": "responseCode",
          "type": "int64"
        }
      ],
      "stateMutability": "nonpayable",
      "type": "function"
    },
    {
      "inputs": [
        {
          "internalType": "address",
          "name": "token",
          "type": "address"
        },
        {
          "internalType": "address",
          "name": "from",
          "type": "address"
        },
        {
          "internalType": "address",
          "name": "to",
          "type": "address"
        },
        {
          "internalType": "uint256",
          "name": "serialNumber",
          "type": "uint256"
        }
      ],
      "name": "transferFromNFT",
      "outputs": [
        {
          "internalType": "int64",
          "name": "responseCode",
          "type": "int64"
        }
      ],
      "stateMutability": "nonpayable",
      "type": "function"
    },
    {
      "inputs": [
        {
          "internalType": "address",
          "name": "token",
          "type": "address"
        },
        {
          "internalType": "address",
          "name": "receiver",
          "type": "address"
        },
        {
          "internalType": "int64",
          "name": "serial",
          "type": "int64"
        }
      ],
      "name": "transferNft",
      "outputs": [
        {
          "internalType": "int256",
          "name": "",
          "type": "int256"
        }
      ],
      "stateMutability": "nonpayable",
      "type": "function"
    }
  ],
  "bytecode": "0x60806040523461012e57600080546001600160a01b0319168155600160208181527fa6eef7e35abe7026729641147f7915573c7e97b47efa546f5f6e3230263bcb499190915560027fcc69885fda6bcc1a4ace058b4a62bf5e179ea78fd58a1ccd71c22cc9b688792f5560047fd9d16d34ffb15ba3a3d852f0d403e2ce1d691fb54de27ac87cd2f993f3ec330f5560087f7dfe757ecd65cbd7922a9c0161e935dd7fdbcc0e999689c7d31633896b1fc60b5560107fedc95719e9a3b28dd8e80877cb5880a9be7de1a13fc8b05e7999683b6b567643557fe2689cd4a84e23ad2f564004f1c9013e9589d260bde6380aba3ca7e09e4df40c556006905260407f8f331abe73332f95a25873e8b430885974c0409691f89d643119a11623a7924a81905551610d0d90816101348239f35b600080fdfe6080604052600436101561001257600080fd5b60003560e01c80630a284cb6146107eb57806315dacbea14610790578063618dc65e1461067c57806382b562aa1461055a5780639b23d3d9146104ac5763b6c907a61461005e57600080fd5b60a03660031901126103c5576004356001600160401b0381116103c557610089903690600401610b08565b6024356001600160401b0381116103c5576100a8903690600401610b08565b6044356001600160401b0381116103c5576100c7903690600401610b08565b906064358060070b8091036103c5576084358060070b8091036103c5576040948551936100f48786610ab5565b60018552601f19870160005b818110610495575050610111610c79565b50600460005260016020528660002054610129610c3d565b30602082015288519161013b83610a9a565b8252602082015261014b86610bdc565b5261015585610bdc565b508651956101208701938785106001600160401b0386111761047f5787948952606085526020850196606088528986019160008352606087019160608352608088019860008a5260a08901956000875260c08a01976000895260e08b019960608b526101008c019b6101c5610c9a565b8d52528c52845230855260018a5285528652600085526101e3610c9a565b3060208201528b81019182528088525160070b1580610473575b610467575b509089959493929186519860208a019a63ea83f29360e01b8c5260248b01602090525160448b0161016090526101a48b0161023c91610b9b565b90518a82036043190160648c01526102549190610b9b565b91516001600160a01b031660848a0152518882036043190160a48a015261027b9190610b9b565b9551151560c48801525160070b60e4870152511515610104860152519260431985820301610124860152835180825260208201918160051b810160200195602001926000915b8383106103d657866000808c8c61030d818e878e51805160070b61014485015260018060a01b03602082015116610164850152015160070b61018483015203601f198101835282610ab5565b5190346101675af161031d610bff565b90156103ca5781818051810103126103c5578161033c60208301610c2f565b9101516001600160a01b03811691908290036103c55760169060030b5b60030b036103755790516001600160a01b039091168152602090f35b815162461bcd60e51b815260206004820152602360248201527f4661696c656420746f20637265617465206e6f6e2d66756e6769626c6520746f60448201526235b2b760e91b6064820152608490fd5b600080fd5b50600060166015610359565b9193966020600192949697819260c061044561042f858e601f198b8703018c52518051865201519480878601528551151581860152888060a01b038787015116606086015285015160a0608086015260e0850190610b9b565b6060850151848203603f190160a0860152610b9b565b926080878060a01b0391015116910152980193019301909289959492936102c1565b6276a700905238610202565b50805160070b156101fd565b634e487b7160e01b600052604160045260246000fd5b6020906104a0610c79565b82828a01015201610100565b346103c5576000806105156105076104c336610b4d565b604051639b23d3d960e01b602082019081526001600160a01b03958616602483015293851660448201529390911660648401526084830152929091829060a4820190565b03601f198101835282610ab5565b5190826101675af1610525610bff565b9015610550576020818051810103126103c5576105456020809201610c2f565b6040519060030b8152f35b5060206015610545565b346103c55760603660031901126103c557610573610a84565b6024356001600160a01b03811691908290036103c557604435908160070b8092036103c5576000928392604051916020830193635cfc901160e01b855260018060a01b0316602484015230604484015260648301526084820152608481526105dc60a482610ab5565b5190826101675af16105ec610bff565b9015610674576020818051810103126103c557602061060b9101610c2f565b60030b6016810361062157602090604051908152f35b60405162461bcd60e51b815260206004820152602560248201527f4661696c656420746f207472616e73666572206e6f6e2d66756e6769626c65206044820152643a37b5b2b760d91b6064820152608490fd5b50601561060b565b346103c55760403660031901126103c557610695610a84565b6024356001600160401b0381116103c5576000916105076106f66106be85943690600401610b08565b604080516330c6e32f60e11b602082019081526001600160a01b03909616602482015260448101919091529283916064830190610b9b565b5190826101675af1610706610bff565b907f4af4780e06fe8cb9df64b0794fa6f01399af979175bb988e35e0e57e594567bc604051821515815260406020820152806107456040820186610b9b565b0390a160009015610777575060165b61077360405192839260030b8352604060208401526040830190610b9b565b0390f35b6040519150610787602083610ab5565b81526015610754565b346103c5576000806105156105076107a736610b4d565b604051630aed65f560e11b602082019081526001600160a01b03958616602483015293851660448201529390911660648401526084830152929091829060a4820190565b346103c55760403660031901126103c557610804610a84565b602435906001600160401b0382116103c557366023830112156103c557816004013561082f81610ad6565b9261083d6040519485610ab5565b81845260208401906024829360051b820101903682116103c55760248101925b828410610a55575050505060405191602083019363707a02cd60e11b8552608484019160018060a01b0316602485015260006044850152606060648501525180915260a483019060a48160051b85010192916000905b828210610a2a5760008088886108d2818a03601f198101835282610ab5565b5190826101675af16108e2610bff565b9060009015610a0b57508051810190606081602084019303126103c55761090b60208201610c2f565b61091760408301610cc9565b916060810151906001600160401b0382116103c557019083603f830112156103c55760208201519361094885610ad6565b926109566040519485610ab5565b8584526020808086019760051b830101019182116103c557604001945b8186106109f357505060169293509250915b60030b036109a457610998602091610bdc565b5160070b604051908152f35b60405162461bcd60e51b815260206004820152602160248201527f4661696c656420746f206d696e74206e6f6e2d66756e6769626c6520746f6b656044820152603760f91b6064820152608490fd5b60208091610a0088610cc9565b815201950194610973565b6040519150610a1b602083610ab5565b80825236813760166015610985565b90919293602080610a4760019360a3198a82030186528851610b9b565b9601920192019092916108b3565b83356001600160401b0381116103c557602091610a79839260243691870101610b08565b81520193019261085d565b600435906001600160a01b03821682036103c557565b604081019081106001600160401b0382111761047f57604052565b90601f801991011681019081106001600160401b0382111761047f57604052565b6001600160401b03811161047f5760051b60200190565b6001600160401b03811161047f57601f01601f191660200190565b81601f820112156103c557602081359101610b2282610aed565b92610b306040519485610ab5565b828452828201116103c55781600092602092838601378301015290565b60809060031901126103c5576004356001600160a01b03811681036103c557906024356001600160a01b03811681036103c557906044356001600160a01b03811681036103c5579060643590565b919082519283825260005b848110610bc7575050826000602080949584010152601f8019910116010190565b80602080928401015182828601015201610ba6565b805115610be95760200190565b634e487b7160e01b600052603260045260246000fd5b3d15610c2a573d90610c1082610aed565b91610c1e6040519384610ab5565b82523d6000602084013e565b606090565b51908160030b82036103c557565b6040519060a082018281106001600160401b0382111761047f576040526000608083828152826020820152606060408201526060808201520152565b60405190610c8682610a9a565b81600081526020610c95610c3d565b910152565b60405190606082018281106001600160401b0382111761047f5760405260006040838281528260208201520152565b51908160070b82036103c55756fea2646970667358221220ad3f55ead018a6758caab509a48b4b25111b66876db82c449f315a1bd90a6a1064736f6c634300081d0033",
  "linkReferences": {},
  "deployedLinkReferences": {}
}