{
  "_format": "hh-sol-artifact-1",
  "contractName": "EthNativePrecompileCaller",
  "sourceName": "contracts/system-contracts/native/EthNativePrecompileCaller.sol",
  "abi": [
    {
      "anonymous": false,
      "inputs": [
        {
          "indexed": false,
          "internalType": "bytes",
          "name": "result",
          "type": "bytes"
        }
      ],
      "name": "PrecompileResult",
      "type": "event"
    },
    {
      "anonymous": false,
      "inputs": [
        {
          "indexed": false,
          "internalType": "bytes32",
          "name": "result",
          "type": "bytes32"
        }
      ],
      "name": "PrecompileResult32",
      "type": "event"
    },
    {
      "anonymous": false,
      "inputs": [
        {
          "indexed": false,
          "internalType": "uint256",
          "name": "result",
          "type": "uint256"
        }
      ],
      "name": "PrecompileResultUint",
      "type": "event"
    },
    {
      "inputs": [
        {
          "internalType": "bytes",
          "name": "callData",
          "type": "bytes"
        }
      ],
      "name": "call0x01",
      "outputs": [
        {
          "internalType": "bool",
          "name": "",
          "type": "bool"
        }
      ],
      "stateMutability": "nonpayable",
      "type": "function"
    },
    {
      "inputs": [
        {
          "internalType": "string",
          "name": "input",
          "type": "string"
        }
      ],
      "name": "call0x02",
      "outputs": [
        {
          "internalType": "bool",
          "name": "",
          "type": "bool"
        }
      ],
      "stateMutability": "nonpayable",
      "type": "function"
    },
    {
      "inputs": [
        {
          "internalType": "string",
          "name": "input",
          "type": "string"
        }
      ],
      "name": "call0x02sha256",
      "outputs": [
        {
          "internalType": "bytes32",
          "name": "",
          "type": "bytes32"
        }
      ],
      "stateMutability": "pure",
      "type": "function"
    },
    {
      "inputs": [
        {
          "internalType": "string",
          "name": "input",
          "type": "string"
        }
      ],
      "name": "call0x03",
      "outputs": [
        {
          "internalType": "bool",
          "name": "",
          "type": "bool"
        }
      ],
      "stateMutability": "nonpayable",
      "type": "function"
    },
    {
      "inputs": [
        {
          "internalType": "string",
          "name": "data",
          "type": "string"
        }
      ],
      "name": "call0x04",
      "outputs": [
        {
          "internalType": "bool",
          "name": "",
          "type": "bool"
        }
      ],
      "stateMutability": "nonpayable",
      "type": "function"
    },
    {
      "inputs": [
        {
          "internalType": "uint64",
          "name": "base",
          "type": "uint64"
        },
        {
          "internalType": "uint64",
          "name": "exp",
          "type": "uint64"
        },
        {
          "internalType": "uint64",
          "name": "modulus",
          "type": "uint64"
        }
      ],
      "name": "call0x05",
      "outputs": [
        {
          "internalType": "bytes",
          "name": "",
          "type": "bytes"
        }
      ],
      "stateMutability": "nonpayable",
      "type": "function"
    },
    {
      "inputs": [
        {
          "internalType": "bytes",
          "name": "callData",
          "type": "bytes"
        }
      ],
      "name": "call0x06",
      "outputs": [
        {
          "internalType": "bool",
          "name": "",
          "type": "bool"
        }
      ],
      "stateMutability": "nonpayable",
      "type": "function"
    },
    {
      "inputs": [
        {
          "internalType": "bytes",
          "name": "callData",
          "type": "bytes"
        }
      ],
      "name": "call0x07",
      "outputs": [
        {
          "internalType": "bool",
          "name": "",
          "type": "bool"
        }
      ],
      "stateMutability": "nonpayable",
      "type": "function"
    },
    {
      "inputs": [
        {
          "internalType": "bytes",
          "name": "callData",
          "type": "bytes"
        }
      ],
      "name": "call0x08",
      "outputs": [
        {
          "internalType": "bool",
          "name": "",
          "type": "bool"
        }
      ],
      "stateMutability": "nonpayable",
      "type": "function"
    },
    {
      "inputs": [
        {
          "internalType": "bytes",
          "name": "callData",
          "type": "bytes"
        }
      ],
      "name": "call0x09",
      "outputs": [
        {
          "internalType": "bool",
          "name": "",
          "type": "bool"
        }
      ],
      "stateMutability": "nonpayable",
      "type": "function"
    }
  ],
  "bytecode": "0x60808060405234601557610b08908161001b8239f35b600080fdfe608080604052600436101561001357600080fd5b60003560e01c9081630fcbb9971461087a57508063128f1e1c146107a657806335d43f10146106d95780635cd72a8b1461051557806380cd05bd1461043a578063830d164b146103355780638ac063fb146102e7578063ae6928c214610240578063e030a3d21461016c5763fa285edf1461008d57600080fd5b34610167576020366003190112610167576004356001600160401b0381116101675760006100c081923690600401610936565b908160405192839283378101838152039060095afa6100dd610a6c565b9015610122576101147f1e294729a14a0826febb93010ae2a312c2099fa867fcd57d7cedcaf2a65957b19160405191829182610986565b0390a1602060405160018152f35b60405162461bcd60e51b815260206004820152601d60248201527f4572726f722063616c6c696e6720707265636f6d70696c6520307830390000006044820152606490fd5b600080fd5b34610167576020366003190112610167576004356001600160401b03811161016757600061019f81923690600401610936565b908160405192839283378101838152039060035afa6101bc610a6c565b90156101fb5760208151918180820193849201010312610167576020600080516020610ab38339815191529151604051908152a1602060405160018152f35b60405162461bcd60e51b815260206004820152601d60248201527f4572726f722063616c6c696e6720707265636f6d70696c6520307830330000006044820152606490fd5b346101675760008061025136610a04565b60208151910160025afa610263610a6c565b90156102a25760208151918180820193849201010312610167576020600080516020610ab38339815191529151604051908152a1602060405160018152f35b60405162461bcd60e51b815260206004820152601d60248201527f4572726f722063616c6c696e6720707265636f6d70696c6520307830320000006044820152606490fd5b34610167576020600061030f6102fc36610a04565b8360405192828480945193849201610963565b8101039060025afa15610329576020600051604051908152f35b6040513d6000823e3d90fd5b34610167576020366003190112610167576004356001600160401b03811161016757610365903690600401610936565b6000806040518385823780848101838152039060045afa610384610a6c565b90156103f5577f1e294729a14a0826febb93010ae2a312c2099fa867fcd57d7cedcaf2a65957b192836103be604093845191829182610986565b0390a182825193849260208452816020850152848401376000828201840152601f01601f19168101030190a1602060405160018152f35b60405162461bcd60e51b815260206004820152601d60248201527f4572726f722063616c6c696e6720707265636f6d70696c6520307830340000006044820152606490fd5b34610167576020366003190112610167576004356001600160401b03811161016757600061046d81923690600401610936565b908160405192839283378101838152039060075afa61048a610a6c565b90156104d057602080600080516020610ab38339815191526104b58483808497518301019101610a9c565b9290604051908152a1604051908152a1602060405160018152f35b60405162461bcd60e51b815260206004820152601d60248201527f4572726f722063616c6c696e6720707265636f6d70696c6520307830370000006044820152606490fd5b34610167576060366003190112610167576004356001600160401b038116810361016757602435906001600160401b038216820361016757604435916001600160401b03831683036101675761065b61066b60009460208695604051906001600160401b0360c01b9060c01b16908183820152600881526105976028826109b2565b5195604051906001600160401b0360c01b9060c01b16908184820152600881526105c26028826109b2565b5193604051906001600160401b0360c01b9060c01b16908185820152600881526105ed6028826109b2565b5160405195858701998a5260408701526060860152606085526106116080866109b2565b6040519184830193845260288301526030820152601881526106346038826109b2565b60405195869461064c858701998a9251928391610963565b85019151809385840190610963565b010103601f1981018352826109b2565b51908260055af161067a610a6c565b9015610694576106909060405191829182610986565b0390f35b60405162461bcd60e51b815260206004820152601d60248201527f4572726f722063616c6c696e6720707265636f6d70696c6520307830350000006044820152606490fd5b34610167576020366003190112610167576004356001600160401b03811161016757600061070c81923690600401610936565b90816040519283928337810183815203908260015af161072a610a6c565b9015610761576101147f1e294729a14a0826febb93010ae2a312c2099fa867fcd57d7cedcaf2a65957b19160405191829182610986565b60405162461bcd60e51b815260206004820152601d60248201527f4572726f722063616c6c696e6720707265636f6d70696c6520307830310000006044820152606490fd5b34610167576020366003190112610167576004356001600160401b0381116101675760006107d981923690600401610936565b908160405192839283378101838152039060085afa6107f6610a6c565b90156108355760208151918180820193849201010312610167576020600080516020610ab38339815191529151604051908152a1602060405160018152f35b60405162461bcd60e51b815260206004820152601d60248201527f4572726f722063616c6c696e6720707265636f6d70696c6520307830380000006044820152606490fd5b34610167576020366003190112610167576004356001600160401b03811161016757816000926108af84933690600401610936565b809183378101838152039060065afa6108c6610a6c565b90156108f157602080600080516020610ab38339815191526104b58483808497518301019101610a9c565b60405162461bcd60e51b815260206004820152601d60248201527f4572726f722063616c6c696e6720707265636f6d70696c6520307830360000006044820152606490fd5b9181601f84011215610167578235916001600160401b038311610167576020838186019501011161016757565b60005b8381106109765750506000910152565b8181015183820152602001610966565b604091602082526109a68151809281602086015260208686019101610963565b601f01601f1916010190565b90601f801991011681019081106001600160401b038211176109d357604052565b634e487b7160e01b600052604160045260246000fd5b6001600160401b0381116109d357601f01601f191660200190565b6020600319820112610167576004356001600160401b038111610167578160238201121561016757806004013590610a3b826109e9565b92610a4960405194856109b2565b828452602483830101116101675781600092602460209301838601378301015290565b3d15610a97573d90610a7d826109e9565b91610a8b60405193846109b2565b82523d6000602084013e565b606090565b919082604091031261016757602082519201519056fea4d25ad3af8cd28c310d289065bd4a5427f045fa4e168cdebb590bbbc7d914b6a2646970667358221220b0a19674e5636b25ba7c84f92cb8b0e96a0aa373fcca11da865bf7d0ddb1b75064736f6c634300081d0033",
  "linkReferences": {},
  "deployedLinkReferences": {}
}