{
  "_format": "hh-sol-artifact-1",
  "contractName": "ExchangeRateSystemContract",
  "sourceName": "contracts/system-contracts/exchange-rate/ExchangeRateSystemContract.sol",
  "abi": [
    {
      "inputs": [
        {
          "internalType": "uint256",
          "name": "_toll",
          "type": "uint256"
        }
      ],
      "stateMutability": "nonpayable",
      "type": "constructor"
    },
    {
      "inputs": [],
      "name": "approxUsdValue",
      "outputs": [
        {
          "internalType": "uint256",
          "name": "tinycents",
          "type": "uint256"
        }
      ],
      "stateMutability": "payable",
      "type": "function"
    },
    {
      "inputs": [],
      "name": "gatedAccess",
      "outputs": [],
      "stateMutability": "payable",
      "type": "function"
    },
    {
      "inputs": [],
      "name": "invalidCall",
      "outputs": [],
      "stateMutability": "payable",
      "type": "function"
    }
  ],
  "bytecode": "0x608034604e57601f6102aa38819003918201601f19168301916001600160401b03831184841017605357808492602094604052833981010312604e5751600055604051610240908161006a8239f35b600080fd5b634e487b7160e01b600052604160045260246000fdfe608080604052600436101561001357600080fd5b60003560e01c90816303b636e61461014c5750806389dea1d0146100b15763bff4f54f1461004057600080fd5b60003660031901126100ac5760008060405160208101906343a8822960e01b825234602482015260248152610076604482610192565b5190826101685af16100866101ca565b90156100ac57602081519181808201938492010103126100ac5760209051604051908152f35b600080fd5b60003660031901126100ac576000546305f5e1008102908082046305f5e10014901517156101365760008091604051602081019163171e7fb560e11b8352602482015260248152610103604482610192565b5190826101685af16101136101ca565b90156100ac57602081519181808201938492010103126100ac575134106100ac57005b634e487b7160e01b600052601160045260246000fd5b60003660031901126100ac5760008160208293019063bff4f54f60e01b82526004815261017a602482610192565b5190826101685af161018a6101ca565b50156100ac57005b90601f8019910116810190811067ffffffffffffffff8211176101b457604052565b634e487b7160e01b600052604160045260246000fd5b3d15610205573d9067ffffffffffffffff82116101b457604051916101f9601f8201601f191660200184610192565b82523d6000602084013e565b60609056fea26469706673582212208cf9fa380fb15ff87509b271cb94bf67e692f61e05156344a8e57ab17fd0470764736f6c634300081d0033",
  "linkReferences": {},
  "deployedLinkReferences": {}
}