{
  "_format": "hh-sol-artifact-1",
  "contractName": "IPAssetNFT",
  "sourceName": "contracts/IPAssetNFT.sol",
  "abi": [
    {
      "inputs": [],
      "stateMutability": "nonpayable",
      "type": "constructor"
    },
    {
      "inputs": [
        {
          "internalType": "address",
          "name": "sender",
          "type": "address"
        },
        {
          "internalType": "uint256",
          "name": "tokenId",
          "type": "uint256"
        },
        {
          "internalType": "address",
          "name": "owner",
          "type": "address"
        }
      ],
      "name": "ERC721IncorrectOwner",
      "type": "error"
    },
    {
      "inputs": [
        {
          "internalType": "address",
          "name": "operator",
          "type": "address"
        },
        {
          "internalType": "uint256",
          "name": "tokenId",
          "type": "uint256"
        }
      ],
      "name": "ERC721InsufficientApproval",
      "type": "error"
    },
    {
      "inputs": [
        {
          "internalType": "address",
          "name": "approver",
          "type": "address"
        }
      ],
      "name": "ERC721InvalidApprover",
      "type": "error"
    },
    {
      "inputs": [
        {
          "internalType": "address",
          "name": "operator",
          "type": "address"
        }
      ],
      "name": "ERC721InvalidOperator",
      "type": "error"
    },
    {
      "inputs": [
        {
          "internalType": "address",
          "name": "owner",
          "type": "address"
        }
      ],
      "name": "ERC721InvalidOwner",
      "type": "error"
    },
    {
      "inputs": [
        {
          "internalType": "address",
          "name": "receiver",
          "type": "address"
        }
      ],
      "name": "ERC721InvalidReceiver",
      "type": "error"
    },
    {
      "inputs": [
        {
          "internalType": "address",
          "name": "sender",
          "type": "address"
        }
      ],
      "name": "ERC721InvalidSender",
      "type": "error"
    },
    {
      "inputs": [
        {
          "internalType": "uint256",
          "name": "tokenId",
          "type": "uint256"
        }
      ],
      "name": "ERC721NonexistentToken",
      "type": "error"
    },
    {
      "inputs": [
        {
          "internalType": "address",
          "name": "owner",
          "type": "address"
        }
      ],
      "name": "OwnableInvalidOwner",
      "type": "error"
    },
    {
      "inputs": [
        {
          "internalType": "address",
          "name": "account",
          "type": "address"
        }
      ],
      "name": "OwnableUnauthorizedAccount",
      "type": "error"
    },
    {
      "anonymous": false,
      "inputs": [
        {
          "indexed": true,
          "internalType": "address",
          "name": "owner",
          "type": "address"
        },
        {
          "indexed": true,
          "internalType": "address",
          "name": "approved",
          "type": "address"
        },
        {
          "indexed": true,
          "internalType": "uint256",
          "name": "tokenId",
          "type": "uint256"
        }
      ],
      "name": "Approval",
      "type": "event"
    },
    {
      "anonymous": false,
      "inputs": [
        {
          "indexed": true,
          "internalType": "address",
          "name": "owner",
          "type": "address"
        },
        {
          "indexed": true,
          "internalType": "address",
          "name": "operator",
          "type": "address"
        },
        {
          "indexed": false,
          "internalType": "bool",
          "name": "approved",
          "type": "bool"
        }
      ],
      "name": "ApprovalForAll",
      "type": "event"
    },
    {
      "anonymous": false,
      "inputs": [
        {
          "indexed": true,
          "internalType": "address",
          "name": "oldManager",
          "type": "address"
        },
        {
          "indexed": true,
          "internalType": "address",
          "name": "newManager",
          "type": "address"
        }
      ],
      "name": "IPAssetManagerUpdated",
      "type": "event"
    },
    {
      "anonymous": false,
      "inputs": [
        {
          "indexed": true,
          "internalType": "uint256",
          "name": "tokenId",
          "type": "uint256"
        },
        {
          "indexed": true,
          "internalType": "uint256",
          "name": "ipAssetId",
          "type": "uint256"
        },
        {
          "indexed": true,
          "internalType": "address",
          "name": "owner",
          "type": "address"
        }
      ],
      "name": "IPAssetNFTBurned",
      "type": "event"
    },
    {
      "anonymous": false,
      "inputs": [
        {
          "indexed": true,
          "internalType": "uint256",
          "name": "tokenId",
          "type": "uint256"
        },
        {
          "indexed": true,
          "internalType": "uint256",
          "name": "ipAssetId",
          "type": "uint256"
        },
        {
          "indexed": true,
          "internalType": "address",
          "name": "owner",
          "type": "address"
        },
        {
          "indexed": false,
          "internalType": "string",
          "name": "tokenURI",
          "type": "string"
        }
      ],
      "name": "IPAssetNFTMinted",
      "type": "event"
    },
    {
      "anonymous": false,
      "inputs": [
        {
          "indexed": true,
          "internalType": "address",
          "name": "previousOwner",
          "type": "address"
        },
        {
          "indexed": true,
          "internalType": "address",
          "name": "newOwner",
          "type": "address"
        }
      ],
      "name": "OwnershipTransferred",
      "type": "event"
    },
    {
      "anonymous": false,
      "inputs": [
        {
          "indexed": true,
          "internalType": "address",
          "name": "from",
          "type": "address"
        },
        {
          "indexed": true,
          "internalType": "address",
          "name": "to",
          "type": "address"
        },
        {
          "indexed": true,
          "internalType": "uint256",
          "name": "tokenId",
          "type": "uint256"
        }
      ],
      "name": "Transfer",
      "type": "event"
    },
    {
      "inputs": [
        {
          "internalType": "address",
          "name": "to",
          "type": "address"
        },
        {
          "internalType": "uint256",
          "name": "tokenId",
          "type": "uint256"
        }
      ],
      "name": "approve",
      "outputs": [],
      "stateMutability": "nonpayable",
      "type": "function"
    },
    {
      "inputs": [
        {
          "internalType": "address",
          "name": "owner",
          "type": "address"
        }
      ],
      "name": "balanceOf",
      "outputs": [
        {
          "internalType": "uint256",
          "name": "",
          "type": "uint256"
        }
      ],
      "stateMutability": "view",
      "type": "function"
    },
    {
      "inputs": [
        {
          "internalType": "uint256",
          "name": "tokenId",
          "type": "uint256"
        }
      ],
      "name": "burnIPAssetNFT",
      "outputs": [],
      "stateMutability": "nonpayable",
      "type": "function"
    },
    {
      "inputs": [
        {
          "internalType": "uint256",
          "name": "tokenId",
          "type": "uint256"
        }
      ],
      "name": "getApproved",
      "outputs": [
        {
          "internalType": "address",
          "name": "",
          "type": "address"
        }
      ],
      "stateMutability": "view",
      "type": "function"
    },
    {
      "inputs": [
        {
          "internalType": "uint256",
          "name": "tokenId",
          "type": "uint256"
        }
      ],
      "name": "getIPAssetId",
      "outputs": [
        {
          "internalType": "uint256",
          "name": "",
          "type": "uint256"
        }
      ],
      "stateMutability": "view",
      "type": "function"
    },
    {
      "inputs": [
        {
          "internalType": "uint256",
          "name": "ipAssetId",
          "type": "uint256"
        }
      ],
      "name": "getTokenId",
      "outputs": [
        {
          "internalType": "uint256",
          "name": "",
          "type": "uint256"
        }
      ],
      "stateMutability": "view",
      "type": "function"
    },
    {
      "inputs": [
        {
          "internalType": "uint256",
          "name": "ipAssetId",
          "type": "uint256"
        }
      ],
      "name": "hasNFT",
      "outputs": [
        {
          "internalType": "bool",
          "name": "",
          "type": "bool"
        }
      ],
      "stateMutability": "view",
      "type": "function"
    },
    {
      "inputs": [],
      "name": "ipAssetManager",
      "outputs": [
        {
          "internalType": "contract IPAssetManager",
          "name": "",
          "type": "address"
        }
      ],
      "stateMutability": "view",
      "type": "function"
    },
    {
      "inputs": [
        {
          "internalType": "uint256",
          "name": "",
          "type": "uint256"
        }
      ],
      "name": "ipAssetToToken",
      "outputs": [
        {
          "internalType": "uint256",
          "name": "",
          "type": "uint256"
        }
      ],
      "stateMutability": "view",
      "type": "function"
    },
    {
      "inputs": [
        {
          "internalType": "address",
          "name": "owner",
          "type": "address"
        },
        {
          "internalType": "address",
          "name": "operator",
          "type": "address"
        }
      ],
      "name": "isApprovedForAll",
      "outputs": [
        {
          "internalType": "bool",
          "name": "",
          "type": "bool"
        }
      ],
      "stateMutability": "view",
      "type": "function"
    },
    {
      "inputs": [
        {
          "internalType": "address",
          "name": "to",
          "type": "address"
        },
        {
          "internalType": "uint256",
          "name": "ipAssetId",
          "type": "uint256"
        },
        {
          "internalType": "string",
          "name": "uri",
          "type": "string"
        }
      ],
      "name": "mintIPAssetNFT",
      "outputs": [
        {
          "internalType": "uint256",
          "name": "",
          "type": "uint256"
        }
      ],
      "stateMutability": "nonpayable",
      "type": "function"
    },
    {
      "inputs": [],
      "name": "name",
      "outputs": [
        {
          "internalType": "string",
          "name": "",
          "type": "string"
        }
      ],
      "stateMutability": "view",
      "type": "function"
    },
    {
      "inputs": [],
      "name": "owner",
      "outputs": [
        {
          "internalType": "address",
          "name": "",
          "type": "address"
        }
      ],
      "stateMutability": "view",
      "type": "function"
    },
    {
      "inputs": [
        {
          "internalType": "uint256",
          "name": "tokenId",
          "type": "uint256"
        }
      ],
      "name": "ownerOf",
      "outputs": [
        {
          "internalType": "address",
          "name": "",
          "type": "address"
        }
      ],
      "stateMutability": "view",
      "type": "function"
    },
    {
      "inputs": [],
      "name": "renounceOwnership",
      "outputs": [],
      "stateMutability": "nonpayable",
      "type": "function"
    },
    {
      "inputs": [
        {
          "internalType": "address",
          "name": "from",
          "type": "address"
        },
        {
          "internalType": "address",
          "name": "to",
          "type": "address"
        },
        {
          "internalType": "uint256",
          "name": "tokenId",
          "type": "uint256"
        }
      ],
      "name": "safeTransferFrom",
      "outputs": [],
      "stateMutability": "nonpayable",
      "type": "function"
    },
    {
      "inputs": [
        {
          "internalType": "address",
          "name": "from",
          "type": "address"
        },
        {
          "internalType": "address",
          "name": "to",
          "type": "address"
        },
        {
          "internalType": "uint256",
          "name": "tokenId",
          "type": "uint256"
        },
        {
          "internalType": "bytes",
          "name": "data",
          "type": "bytes"
        }
      ],
      "name": "safeTransferFrom",
      "outputs": [],
      "stateMutability": "nonpayable",
      "type": "function"
    },
    {
      "inputs": [
        {
          "internalType": "address",
          "name": "operator",
          "type": "address"
        },
        {
          "internalType": "bool",
          "name": "approved",
          "type": "bool"
        }
      ],
      "name": "setApprovalForAll",
      "outputs": [],
      "stateMutability": "nonpayable",
      "type": "function"
    },
    {
      "inputs": [
        {
          "internalType": "address",
          "name": "_ipAssetManager",
          "type": "address"
        }
      ],
      "name": "setIPAssetManager",
      "outputs": [],
      "stateMutability": "nonpayable",
      "type": "function"
    },
    {
      "inputs": [
        {
          "internalType": "bytes4",
          "name": "interfaceId",
          "type": "bytes4"
        }
      ],
      "name": "supportsInterface",
      "outputs": [
        {
          "internalType": "bool",
          "name": "",
          "type": "bool"
        }
      ],
      "stateMutability": "view",
      "type": "function"
    },
    {
      "inputs": [],
      "name": "symbol",
      "outputs": [
        {
          "internalType": "string",
          "name": "",
          "type": "string"
        }
      ],
      "stateMutability": "view",
      "type": "function"
    },
    {
      "inputs": [
        {
          "internalType": "uint256",
          "name": "",
          "type": "uint256"
        }
      ],
      "name": "tokenToIPAsset",
      "outputs": [
        {
          "internalType": "uint256",
          "name": "",
          "type": "uint256"
        }
      ],
      "stateMutability": "view",
      "type": "function"
    },
    {
      "inputs": [
        {
          "internalType": "uint256",
          "name": "tokenId",
          "type": "uint256"
        }
      ],
      "name": "tokenURI",
      "outputs": [
        {
          "internalType": "string",
          "name": "",
          "type": "string"
        }
      ],
      "stateMutability": "view",
      "type": "function"
    },
    {
      "inputs": [
        {
          "internalType": "address",
          "name": "from",
          "type": "address"
        },
        {
          "internalType": "address",
          "name": "to",
          "type": "address"
        },
        {
          "internalType": "uint256",
          "name": "tokenId",
          "type": "uint256"
        }
      ],
      "name": "transferFrom",
      "outputs": [],
      "stateMutability": "nonpayable",
      "type": "function"
    },
    {
      "inputs": [
        {
          "internalType": "address",
          "name": "newOwner",
          "type": "address"
        }
      ],
      "name": "transferOwnership",
      "outputs": [],
      "stateMutability": "nonpayable",
      "type": "function"
    }
  ],
  "bytecode": "0x60806040523461039a57604080519081016001600160401b038111828210176102a7576040908152600c82526b125408105cdcd95d0813919560a21b602083015280519081016001600160401b038111828210176102a7576040526005815264125413919560da1b602082015281516001600160401b0381116102a757600054600181811c91168015610390575b602082101461028757601f811161032c575b50602092601f82116001146102c857928192936000926102bd575b50508160011b916000199060031b1c1916176000555b80516001600160401b0381116102a757600154600181811c9116801561029d575b602082101461028757601f8111610222575b50602091601f82116001146101be579181926000926101b3575b50508160011b916000199060031b1c1916176001555b331561019d5760068054336001600160a01b03198216811790925560405191906001600160a01b03167f8be0079c531659141344cd1fd0a4f28419497f9722a3daafe3b4186f6b6457e0600080a3600880546001600160a01b03191690556114dc90816103a08239f35b631e4fbdf760e01b600052600060045260246000fd5b01519050388061011d565b601f198216926001600052806000209160005b85811061020a575083600195106101f1575b505050811b01600155610133565b015160001960f88460031b161c191690553880806101e3565b919260206001819286850151815501940192016101d1565b60016000527fb10e2d527612073b26eecdfd717e6a320cf44b4afac2b0732d9fcbe2b7fa0cf6601f830160051c8101916020841061027d575b601f0160051c01905b8181106102715750610103565b60008155600101610264565b909150819061025b565b634e487b7160e01b600052602260045260246000fd5b90607f16906100f1565b634e487b7160e01b600052604160045260246000fd5b0151905038806100ba565b601f1982169360008052806000209160005b86811061031457508360019596106102fb575b505050811b016000556100d0565b015160001960f88460031b161c191690553880806102ed565b919260206001819286850151815501940192016102da565b600080527f290decd9548b62a8d60345a988386fc84ba6bc95484008f6362f93160ef3e563601f830160051c81019160208410610386575b601f0160051c01905b81811061037a575061009f565b6000815560010161036d565b9091508190610364565b90607f169061008d565b600080fdfe608080604052600436101561001357600080fd5b60003560e01c90816301ffc9a714610eef5750806306fdde0314610e4a578063081812fc14610e0c578063095ea7b314610d1d57806314ff5ea3146103cd57806323b872dd14610d0657806324ad011214610cd85780632e49450214610b1d5780634090ac591461079557806342842e0e1461076b5780635f122d261461073f5780636352211e1461070f57806367cb18b7146106e657806370a0823114610690578063715018a6146106335780638da5cb5b1461060a5780638ef2aa85146105ca57806395d89b41146104fc578063a22cb4651461045b578063b88d4fde146103f9578063c4a47835146103cd578063c87b56dd146102d5578063d349216b1461021c578063e985e9c5146101c15763f2fde38b1461013257600080fd5b346101bc5760203660031901126101bc5761014b610f9b565b61015361147d565b6001600160a01b031680156101a657600680546001600160a01b0319811683179091556001600160a01b03167f8be0079c531659141344cd1fd0a4f28419497f9722a3daafe3b4186f6b6457e0600080a3005b631e4fbdf760e01b600052600060045260246000fd5b600080fd5b346101bc5760403660031901126101bc576101da610f9b565b6101e2610fb1565b9060018060a01b0316600052600560205260406000209060018060a01b0316600052602052602060ff604060002054166040519015158152f35b346101bc5760203660031901126101bc57610235610f9b565b61023d61147d565b6001600160a01b0316801561029057600880546001600160a01b0319811683179091556001600160a01b03167fe6af528b09b257a9850529191a502596ffe418f48384fa884f6ed340d33b9f6c600080a3005b60405162461bcd60e51b815260206004820152601760248201527f496e76616c6964206d616e6167657220616464726573730000000000000000006044820152606490fd5b346101bc5760203660031901126101bc576004356103056001600160a01b036102fd83611446565b16151561129e565b600052600b60205260406000206040519060009080549061032582611076565b80855291600181169081156103a65750600114610365575b6103618461034d81860382611001565b604051918291602083526020830190610f5a565b0390f35b600090815260208120939250905b80821061038c5750909150810160200161034d8261033d565b919260018160209254838588010152019101909291610373565b60ff191660208087019190915292151560051b8501909201925061034d915083905061033d565b346101bc5760203660031901126101bc57600435600052600a6020526020604060002054604051908152f35b346101bc5760803660031901126101bc57610412610f9b565b61041a610fb1565b6064359167ffffffffffffffff83116101bc57366023840112156101bc5761044f61045993369060248160040135910161103f565b91604435916112f8565b005b346101bc5760403660031901126101bc57610474610f9b565b602435908115158092036101bc576001600160a01b03169081156104e757336000526005602052604060002082600052602052604060002060ff1981541660ff83161790556040519081527f17307eab39ab6107e8899845ad3d59bd9653f200f220920489ca2b5937696c3160203392a3005b50630b61174360e31b60005260045260246000fd5b346101bc5760003660031901126101bc57604051600060015461051e81611076565b80845290600181169081156105a65750600114610546575b6103618361034d81850382611001565b91905060016000527fb10e2d527612073b26eecdfd717e6a320cf44b4afac2b0732d9fcbe2b7fa0cf6916000905b80821061058c5750909150810160200161034d610536565b919260018160209254838588010152019101909291610574565b60ff191660208086019190915291151560051b8401909101915061034d9050610536565b346101bc5760203660031901126101bc576004356105f26001600160a01b036102fd83611446565b60005260096020526020604060002054604051908152f35b346101bc5760003660031901126101bc576006546040516001600160a01b039091168152602090f35b346101bc5760003660031901126101bc5761064c61147d565b600680546001600160a01b031981169091556000906001600160a01b03167f8be0079c531659141344cd1fd0a4f28419497f9722a3daafe3b4186f6b6457e08280a3005b346101bc5760203660031901126101bc576001600160a01b036106b1610f9b565b1680156106d05760005260036020526020604060002054604051908152f35b6322718ad960e21b600052600060045260246000fd5b346101bc5760003660031901126101bc576008546040516001600160a01b039091168152602090f35b346101bc5760203660031901126101bc57602061072d600435611446565b6040516001600160a01b039091168152f35b346101bc5760203660031901126101bc5760043560005260096020526020604060002054604051908152f35b346101bc5761045961077c36610fc7565b906040519261078c602085611001565b600084526112f8565b346101bc5760603660031901126101bc576107ae610f9b565b6024359060443567ffffffffffffffff81116101bc57366023820112156101bc576107e390369060248160040135910161103f565b916107f960018060a01b03600854163314611246565b80600052600a602052604060002054610ad8576007546000198114610ac2576001016007819055916001600160a01b0316908115610aac576000838152600260205260018060a01b036040822054168484827fddf252ad1be2c89b69c2b068fc378daa952ba7f163c4a11628f55a4df523b3ef8115159586610a77575b83815260036020526040812060018154019055848152600260205260408120846bffffffffffffffffffffffff60a01b82541617905580a450610a615782600052600b60205260406000209380519067ffffffffffffffff8211610a4b578585926108e360209854611076565b601f8111610a10575b5087601f82116001146109845791817fe3deea45ecdb013a45e13c321d0476e83f64c0fb7f2afbb1803dae77308b1978949261096e94600091610979575b508160011b916000199060031b1c19161790555b83600052600988528460406000205584600052600a88528360406000205560405191829189835289830190610f5a565b0390a4604051908152f35b90508301518b61092a565b601f1982169083600052806000209160005b8181106109f657509261096e9492600192827fe3deea45ecdb013a45e13c321d0476e83f64c0fb7f2afbb1803dae77308b19789896106109dd575b5050811b01905561093e565b85015160001960f88460031b161c191690558b806109d1565b8287015184558a9750600190930192918b01918b01610996565b610a3b908360005289600020601f840160051c8101918b8510610a41575b601f0160051c01906112e1565b886108ec565b9091508190610a2e565b634e487b7160e01b600052604160045260246000fd5b6339e3563760e11b600052600060045260246000fd5b600085815260046020526040902080546001600160a01b03191690558281526003602052604081208054600019019055610876565b633250574960e11b600052600060045260246000fd5b634e487b7160e01b600052601160045260246000fd5b60405162461bcd60e51b815260206004820152601860248201527f495020417373657420616c726561647920686173204e465400000000000000006044820152606490fd5b346101bc5760203660031901126101bc57600435610b4660018060a01b03600854163314611246565b610b5a6001600160a01b036102fd83611446565b806000526009602052604060002054610b7282611446565b8260005260096020526000604081205581600052600a602052600060408120556000838152600260205260018060a01b03604082205416848115928315610ca3575b81815260026020526040812080546001600160a01b0319169055827fddf252ad1be2c89b69c2b068fc378daa952ba7f163c4a11628f55a4df523b3ef8280a450610c8e5782600052600b6020526040600020610c108154611076565b9081610c4a575b50506001600160a01b0316917f03c75ab554833cbbfd93ed890c33af589d293cfbeb66a48e43d3aa716c3a5296600080a4005b81601f60009311600114610c625750555b8380610c17565b81835260208320610c7e91601f0160051c8101906001016112e1565b8082528160208120915555610c5b565b82637e27328960e01b60005260045260246000fd5b600082815260046020526040902080546001600160a01b03191690558281526003602052604081208054600019019055610bb4565b346101bc5760203660031901126101bc57600435600052600a60205260206040600020541515604051908152f35b346101bc57610459610d1736610fc7565b916110b0565b346101bc5760403660031901126101bc57610d36610f9b565b602435610d4281611446565b33151580610df9575b80610dcb575b610db65781906001600160a01b0384811691167f8c5be1e5ebec7d5bd14f71427d1e84f3dd0314c0f7b2291e5b200ac8c7c3b925600080a4600090815260046020526040902080546001600160a01b0319166001600160a01b03909216919091179055005b63a9fbf51f60e01b6000523360045260246000fd5b506001600160a01b038116600090815260056020908152604080832033845290915290205460ff1615610d51565b506001600160a01b038116331415610d4b565b346101bc5760203660031901126101bc57600435610e2981611446565b506000526004602052602060018060a01b0360406000205416604051908152f35b346101bc5760003660031901126101bc5760405160008054610e6b81611076565b80845290600181169081156105a65750600114610e92576103618361034d81850382611001565b60008080527f290decd9548b62a8d60345a988386fc84ba6bc95484008f6362f93160ef3e563939250905b808210610ed55750909150810160200161034d610536565b919260018160209254838588010152019101909291610ebd565b346101bc5760203660031901126101bc576004359063ffffffff60e01b82168092036101bc576020916380ac58cd60e01b8114908115610f49575b8115610f38575b5015158152f35b6301ffc9a760e01b14905083610f31565b635b5e139f60e01b81149150610f2a565b919082519283825260005b848110610f86575050826000602080949584010152601f8019910116010190565b80602080928401015182828601015201610f65565b600435906001600160a01b03821682036101bc57565b602435906001600160a01b03821682036101bc57565b60609060031901126101bc576004356001600160a01b03811681036101bc57906024356001600160a01b03811681036101bc579060443590565b90601f8019910116810190811067ffffffffffffffff821117610a4b57604052565b67ffffffffffffffff8111610a4b57601f01601f191660200190565b92919261104b82611023565b916110596040519384611001565b8294818452818301116101bc578281602093846000960137010152565b90600182811c921680156110a6575b602083101461109057565b634e487b7160e01b600052602260045260246000fd5b91607f1691611085565b6001600160a01b0390911691908215610aac576000828152600260205260408120546001600160a01b03169383918590331515806111ae575b507fddf252ad1be2c89b69c2b068fc378daa952ba7f163c4a11628f55a4df523b3ef9082611179575b83815260036020526040812060018154019055848152600260205260408120846bffffffffffffffffffffffff60a01b82541617905580a46001600160a01b031680830361115f57505050565b6364283d7b60e01b60005260045260245260445260646000fd5b600085815260046020526040902080546001600160a01b03191690558281526003602052604081208054600019019055611112565b9150919250806111f7575b156111c85790848492386110e9565b8390856111e157602491637e27328960e01b8252600452fd5b60449163177e802f60e01b825233600452602452fd5b503385148015611225575b806111b95750838152600460205260408120546001600160a01b031633146111b9565b5084815260056020908152604080832033845290915281205460ff16611202565b1561124d57565b60405162461bcd60e51b815260206004820152602360248201527f4f6e6c79204950204173736574204d616e616765722063616e2063616c6c207460448201526268697360e81b6064820152608490fd5b156112a557565b60405162461bcd60e51b8152602060048201526014602482015273151bdad95b88191bd95cc81b9bdd08195e1a5cdd60621b6044820152606490fd5b8181106112ec575050565b600081556001016112e1565b92916113058183866110b0565b813b611312575b50505050565b604051630a85bd0160e11b81523360048201526001600160a01b039485166024820152604481019190915260806064820152921691906020908290819061135d906084830190610f5a565b03816000865af180916000916113fc575b50906113c757503d156113c0573d61138581611023565b906113936040519283611001565b81523d6000602083013e5b805190816113bb5782633250574960e11b60005260045260246000fd5b602001fd5b606061139e565b6001600160e01b03191663757a42ff60e11b016113e857503880808061130c565b633250574960e11b60005260045260246000fd5b6020813d60201161143e575b8161141560209383611001565b8101031261143a5751906001600160e01b03198216820361143757503861136e565b80fd5b5080fd5b3d9150611408565b6000818152600260205260409020546001600160a01b0316908115611469575090565b637e27328960e01b60005260045260246000fd5b6006546001600160a01b0316330361149157565b63118cdaa760e01b6000523360045260246000fdfea264697066735822122077eb9fa7386206b7f35d9093307a74c631f43a9691ccd71dc467bbd8f952500364736f6c634300081d0033",
  "linkReferences": {},
  "deployedLinkReferences": {}
}