{
  "_format": "hh-sol-artifact-1",
  "contractName": "KES",
  "sourceName": "contracts/KES.sol",
  "abi": [
    {
      "inputs": [],
      "stateMutability": "nonpayable",
      "type": "constructor"
    },
    {
      "anonymous": false,
      "inputs": [
        {
          "indexed": false,
          "internalType": "bool",
          "name": "",
          "type": "bool"
        },
        {
          "indexed": false,
          "internalType": "bytes",
          "name": "",
          "type": "bytes"
        }
      ],
      "name": "CallResponseEvent",
      "type": "event"
    },
    {
      "stateMutability": "payable",
      "type": "fallback"
    },
    {
      "inputs": [
        {
          "internalType": "int64",
          "name": "amount",
          "type": "int64"
        }
      ],
      "name": "burn",
      "outputs": [],
      "stateMutability": "nonpayable",
      "type": "function"
    },
    {
      "inputs": [],
      "name": "getToken",
      "outputs": [
        {
          "internalType": "address",
          "name": "",
          "type": "address"
        }
      ],
      "stateMutability": "view",
      "type": "function"
    },
    {
      "inputs": [
        {
          "internalType": "address",
          "name": "account",
          "type": "address"
        }
      ],
      "name": "grantKYC",
      "outputs": [],
      "stateMutability": "nonpayable",
      "type": "function"
    },
    {
      "inputs": [],
      "name": "initialize",
      "outputs": [],
      "stateMutability": "payable",
      "type": "function"
    },
    {
      "inputs": [
        {
          "internalType": "int64",
          "name": "amount",
          "type": "int64"
        }
      ],
      "name": "mint",
      "outputs": [],
      "stateMutability": "nonpayable",
      "type": "function"
    },
    {
      "inputs": [
        {
          "internalType": "address",
          "name": "token",
          "type": "address"
        },
        {
          "internalType": "bytes",
          "name": "encodedFunctionSelector",
          "type": "bytes"
        }
      ],
      "name": "redirectForToken",
      "outputs": [
        {
          "internalType": "int256",
          "name": "responseCode",
          "type": "int256"
        },
        {
          "internalType": "bytes",
          "name": "response",
          "type": "bytes"
        }
      ],
      "stateMutability": "nonpayable",
      "type": "function"
    },
    {
      "inputs": [
        {
          "internalType": "uint64",
          "name": "amount",
          "type": "uint64"
        }
      ],
      "name": "requestAirdrop",
      "outputs": [],
      "stateMutability": "nonpayable",
      "type": "function"
    },
    {
      "inputs": [],
      "name": "token",
      "outputs": [
        {
          "internalType": "address",
          "name": "",
          "type": "address"
        }
      ],
      "stateMutability": "view",
      "type": "function"
    },
    {
      "inputs": [
        {
          "internalType": "address",
          "name": "token",
          "type": "address"
        },
        {
          "internalType": "address",
          "name": "from",
          "type": "address"
        },
        {
          "internalType": "address",
          "name": "to",
          "type": "address"
        },
        {
          "internalType": "uint256",
          "name": "amount",
          "type": "uint256"
        }
      ],
      "name": "transferFrom",
      "outputs": [
        {
          "internalType": "int64",
          "name": "responseCode",
          "type": "int64"
        }
      ],
      "stateMutability": "nonpayable",
      "type": "function"
    },
    {
      "inputs": [
        {
          "internalType": "address",
          "name": "token",
          "type": "address"
        },
        {
          "internalType": "address",
          "name": "from",
          "type": "address"
        },
        {
          "internalType": "address",
          "name": "to",
          "type": "address"
        },
        {
          "internalType": "uint256",
          "name": "serialNumber",
          "type": "uint256"
        }
      ],
      "name": "transferFromNFT",
      "outputs": [
        {
          "internalType": "int64",
          "name": "responseCode",
          "type": "int64"
        }
      ],
      "stateMutability": "nonpayable",
      "type": "function"
    },
    {
      "stateMutability": "payable",
      "type": "receive"
    }
  ],
  "bytecode": "0x60806040523461013d57600080546001600160a01b03199081168255600160208181527fa6eef7e35abe7026729641147f7915573c7e97b47efa546f5f6e3230263bcb499190915560027fcc69885fda6bcc1a4ace058b4a62bf5e179ea78fd58a1ccd71c22cc9b688792f5560047fd9d16d34ffb15ba3a3d852f0d403e2ce1d691fb54de27ac87cd2f993f3ec330f5560087f7dfe757ecd65cbd7922a9c0161e935dd7fdbcc0e999689c7d31633896b1fc60b5560107fedc95719e9a3b28dd8e80877cb5880a9be7de1a13fc8b05e7999683b6b567643557fe2689cd4a84e23ad2f564004f1c9013e9589d260bde6380aba3ca7e09e4df40c55600690915260407f8f331abe73332f95a25873e8b430885974c0409691f89d643119a11623a7924a819055600380549092163317909155516114b190816101438239f35b600080fdfe608080604052600436101561001057005b60003560e01c90816315dacbea14610f7c5750806321df0da7146101255780635cd3a60814610e24578063618dc65e14610cd357806374f41947146108b75780638129fc1c146102ec5780639b23d3d91461023e578063d9ca93ff1461014e578063fc0c546a146101255763fec156ff1461008757005b34610120576020366003190112610120576004358060070b8103610120576100db6016916100c060018060a01b0360035416331461112c565b6002546001600160a01b0316906100d561119a565b916112ec565b5050036100e457005b60405162461bcd60e51b815260206004820152601460248201527311985a5b1959081d1bc81b5a5b9d08185cdcd95d60621b6044820152606490fd5b600080fd5b34610120576000366003190112610120576002546040516001600160a01b039091168152602090f35b346101205760203660031901126101205760008061016a610fd3565b61017f60018060a01b0360035416331461112c565b600254604051638f8d7f9960e01b602082019081526001600160a01b0392831660248301529290911660448083019190915281526101be60648261106f565b5190826101675af16101ce6110ee565b901561023457602081805181010312610120576101ef60206016920161111e565b60030b036101f957005b60405162461bcd60e51b81526020600482015260136024820152724661696c656420746f206772616e74206b796360681b6044820152606490fd5b50601660156101ef565b34610120576000806102a761029961025536610fe9565b604051639b23d3d960e01b602082019081526001600160a01b03958616602483015293851660448201529390911660648401526084830152929091829060a4820190565b03601f19810183528261106f565b5190826101675af16102b76110ee565b90156102e257602081805181010312610120576102d7602080920161111e565b6040519060030b8152f35b50602060156102d7565b60003660031901126101205761030d60018060a01b0360035416331461112c565b604051610120810181811067ffffffffffffffff8211176108a157604052606081526020810190606082526040810191600083526060820160608152608083016000815260a08401906000825260c085016000815260e0860190606082526101008701936103796111ce565b8552604098895161038a8b8261106f565b600f81526e4b656e79616e205368696c6c696e6760881b6020820152895289516103b48b8261106f565b60038152624b455360e81b602082015288523081526103d16111ce565b306020820152627864508b820152865260e0968a516103f0898261106f565b60068152601f19890160005b81811061088a575050600061040f6112bd565b5080805260016020528c81205490610425611280565b90503060208201528d519161043983611053565b825260208201526104498261120d565b526104538161120d565b50600061045e6112bd565b506002815260016020528c81205490610475611280565b90503060208201528d519161048983611053565b8252602082015261049982611230565b526104a381611230565b5060006104ae6112bd565b506003815260016020528c812054906104c5611280565b90503060208201528d51916104d983611053565b825260208201526104e982611240565b526104f381611240565b5060006104fe6112bd565b506004815260016020528c81205490610515611280565b90503060208201528d519161052983611053565b8252602082015261053982611250565b5261054381611250565b50600061054e6112bd565b506005815260016020528c81205490610565611280565b90503060208201528d519161057983611053565b8252602082015261058982611260565b5261059381611260565b50600061059e6112bd565b506006815260016020528c812054906105b5611280565b90503060208201528d51916105c983611053565b825260208201526105d982611270565b526105e381611270565b50855286518b815160070b158061087c575b61086e575b8098979996959493929150519960208b019b630fb65bf360e01b8d5260248c01606090525160848c0161016090526101e48c01610636916110ad565b90518b82036083190160a48d015261064e91906110ad565b91516001600160a01b031660c48b0152518982036083190160e48b015261067591906110ad565b965115156101048901525160070b610124880152511515610144870152519360831986820301610164870152845190818152602081018260051b820160200196602001936000925b8484106107dd57876000808d8d61071c818f878f51805160070b61018485015260018060a01b036020820151166101a4850152015160070b6101c4830152655af3107a400060448301526006606483015203601f19810183528261106f565b5190346101675af19061072d6110ee565b91156107d0578082805181010312610120578061074c6020840161111e565b9201516001600160a01b03811692908390036101205760169060030b5b60030b036107945750600280546001600160a01b0319166001600160a01b0392909216919091179055005b5162461bcd60e51b81526020600482015260166024820152752330b4b632b2103a379031b932b0ba32903a37b5b2b760511b6044820152606490fd5b6000915060166015610769565b9193959660208091879a60c061084c610836856001989a9c601f198b8703018d52518051865201519480878601528551151581860152888060a01b038787015116606086015285015160a060808601528a8501906110ad565b6060850151848203603f190160a08601526110ad565b926080878060a01b0391015116910152990194019401918a96959394916106bd565b6276a7009101528b8b6105fa565b508082015160070b156105f5565b6020906108956112bd565b828286010152016103fc565b634e487b7160e01b600052604160045260246000fd5b346101205760203660031901126101205760043567ffffffffffffffff81168091036101205760166108fb60018060a01b03600254169260070b92836100d561119a565b5050036100e457600254604051634d8fdd6d60e01b81526001600160a01b0390911690602081600481855afa908115610cc757600091610c85575b5015610c40576109446111ce565b3381528260208201526109556111ce565b30815292677fffffffffffffff198114610c2a5760000360070b602084015261097c6111ed565b91825260609060405193610990838661106f565b60028552601f19830160005b818110610c135750506109c5849560206109d7959601928184526109bf8261120d565b5261120d565b5051906109d182611230565b52611230565b506040918251906109e8848361106f565b60018252601f19840160005b818110610bfc575050610a068261120d565b52610a108161120d565b508251906020820192632f34811960e01b845260448301906020602485015282518092526064840191602060648260051b8701019401926000905b828210610af357886000808a8a610a6b818c03601f19810183528261106f565b5190826101675af1610a7b6110ee565b9015610ae95760208180518101031261012057610a9c60206016920161111e565b60030b03610aa657005b5162461bcd60e51b815260206004820152601760248201527f4661696c656420746f2061697264726f702061737365740000000000000000006044820152606490fd5b5060166015610a9c565b90919293946063198782030182528551898683019160018060a01b03815116845260208101519288602086015283518091526020608086019401906000905b8a818310610bc357505050500151918a8183039101526020808351928381520192019060005b878c838310610b7b57505050505060208060019297019201920190939291610a4b565b845180516001600160a01b039081168852602082810151909116818901528183015160070b928801929092529091015115158986015260809094019390920191600101610b58565b83968660019496976020949651868060a01b0381511684528581015160070b86850152015115159082015201950192018d939291610b32565b602090610c076111ed565b828287010152016109f4565b602090610c1e6111ce565b82828a0101520161099c565b634e487b7160e01b600052601160045260246000fd5b60405162461bcd60e51b815260206004820152601760248201527f546f6b656e206973206e6f74206173736f6369617465640000000000000000006044820152606490fd5b6020813d602011610cbf575b81610c9e6020938361106f565b81010312610cbb5751908115158203610cb8575083610936565b80fd5b5080fd5b3d9150610c91565b6040513d6000823e3d90fd5b3461012057604036600319011261012057610cec610fd3565b6024359067ffffffffffffffff8211610120573660238301121561012057816004013590610d1982611091565b91610d27604051938461106f565b808352366024828601011161012057610d8a60009493856020846102999560248499018386013783010152604080516330c6e32f60e11b602082019081526001600160a01b039096166024820152604481019190915292839160648301906110ad565b5190826101675af1610d9a6110ee565b907f4af4780e06fe8cb9df64b0794fa6f01399af979175bb988e35e0e57e594567bc60405182151581526040602082015280610dd960408201866110ad565b0390a160009015610e0b575060165b610e0760405192839260030b83526040602084015260408301906110ad565b0390f35b6040519150610e1b60208361106f565b81526015610de8565b34610120576020366003190112610120576004358060070b80910361012057610e5860018060a01b0360035416331461112c565b600254604051602092916001600160a01b031690610e76848261106f565b6000815260003681376040519184830193636b48868360e11b85526084840191602485015260448401526060606484015281518091528460a4840192019060005b86828210610f65576000808888610ed7818a03601f19810183528261106f565b5190826101675af1610ee76110ee565b9015610f5b576040818051810103126101205780610f146040610f0d856016950161111e565b92016112de565b505b60030b03610f2057005b6064906040519062461bcd60e51b82526004820152601460248201527311985a5b1959081d1bc8189d5c9b88185cdcd95d60621b6044820152fd5b5060166015610f16565b835160070b85529384019390920191600101610eb7565b34610120576000610299826102a78394610f9536610fe9565b630aed65f560e11b602086019081526001600160a01b03948516602487015292841660448601529216606484015260848301919091529360a4820190565b600435906001600160a01b038216820361012057565b6080906003190112610120576004356001600160a01b038116810361012057906024356001600160a01b038116810361012057906044356001600160a01b0381168103610120579060643590565b6060810190811067ffffffffffffffff8211176108a157604052565b6040810190811067ffffffffffffffff8211176108a157604052565b90601f8019910116810190811067ffffffffffffffff8211176108a157604052565b67ffffffffffffffff81116108a157601f01601f191660200190565b919082519283825260005b8481106110d9575050826000602080949584010152601f8019910116010190565b806020809284010151828286010152016110b8565b3d15611119573d906110ff82611091565b9161110d604051938461106f565b82523d6000602084013e565b606090565b51908160030b820361012057565b1561113357565b60405162461bcd60e51b815260206004820152602160248201527f4f6e6c792061646d696e2063616e2063616c6c20746869732066756e6374696f6044820152603760f91b6064820152608490fd5b67ffffffffffffffff81116108a15760051b60200190565b604051906111a960208361106f565b600080835282815b8281106111bd57505050565b8060606020809385010152016111b1565b604051906111db82611037565b60006040838281528260208201520152565b604051906111fa82611037565b6060604083600081528260208201520152565b80511561121a5760200190565b634e487b7160e01b600052603260045260246000fd5b80516001101561121a5760400190565b80516002101561121a5760600190565b80516003101561121a5760800190565b80516004101561121a5760a00190565b80516005101561121a5760c00190565b6040519060a0820182811067ffffffffffffffff8211176108a1576040526000608083828152826020820152606060408201526060808201520152565b604051906112ca82611053565b816000815260206112d9611280565b910152565b51908160070b820361012057565b929160405193602085019263707a02cd60e11b8452608486019160018060a01b0316602487015260070b604486015260606064860152815180915260a4850190602060a48260051b8801019301916000905b8282106114505750505050908361136260009495859403601f19810183528261106f565b5190826101675af16113726110ee565b906000901561142f575080518101606082602083019203126101205761139a6020830161111e565b6113a6604084016112de565b9260608101519067ffffffffffffffff821161012057019180603f840112156101205760208301516113d781611182565b936113e5604051958661106f565b8185526020808087019360051b8301010192831161012057604001905b8282106114175750505091905b909160030b92565b60208091611424846112de565b815201910190611402565b604051915061143f60208361106f565b80825236813760159060009061140f565b9091929360208061146d60019360a3198c820301865288516110ad565b96019201920190929161133e56fea2646970667358221220900fc1f515a4408bd420ac90b6916f317ea6cb14729edc15a2e692eadd14769064736f6c634300081d0033",
  "linkReferences": {},
  "deployedLinkReferences": {}
}