{
  "_format": "hh-sol-artifact-1",
  "contractName": "TokenizedAssetManager",
  "sourceName": "contracts/TokenizedAssetManager.sol",
  "abi": [
    {
      "inputs": [
        {
          "internalType": "string",
          "name": "_name",
          "type": "string"
        },
        {
          "internalType": "string",
          "name": "_symbol",
          "type": "string"
        }
      ],
      "stateMutability": "payable",
      "type": "constructor"
    },
    {
      "anonymous": false,
      "inputs": [
        {
          "indexed": false,
          "internalType": "bool",
          "name": "",
          "type": "bool"
        },
        {
          "indexed": false,
          "internalType": "bytes",
          "name": "",
          "type": "bytes"
        }
      ],
      "name": "CallResponseEvent",
      "type": "event"
    },
    {
      "stateMutability": "payable",
      "type": "fallback"
    },
    {
      "inputs": [],
      "name": "admin",
      "outputs": [
        {
          "internalType": "address",
          "name": "",
          "type": "address"
        }
      ],
      "stateMutability": "view",
      "type": "function"
    },
    {
      "inputs": [
        {
          "internalType": "address",
          "name": "target",
          "type": "address"
        },
        {
          "internalType": "uint64",
          "name": "amount",
          "type": "uint64"
        }
      ],
      "name": "airdropPurchasedTokens",
      "outputs": [],
      "stateMutability": "nonpayable",
      "type": "function"
    },
    {
      "inputs": [
        {
          "internalType": "uint64",
          "name": "amount",
          "type": "uint64"
        }
      ],
      "name": "burn",
      "outputs": [],
      "stateMutability": "nonpayable",
      "type": "function"
    },
    {
      "inputs": [],
      "name": "controller",
      "outputs": [
        {
          "internalType": "address",
          "name": "",
          "type": "address"
        }
      ],
      "stateMutability": "view",
      "type": "function"
    },
    {
      "inputs": [
        {
          "internalType": "address",
          "name": "account",
          "type": "address"
        }
      ],
      "name": "grantKYC",
      "outputs": [],
      "stateMutability": "nonpayable",
      "type": "function"
    },
    {
      "inputs": [
        {
          "internalType": "uint64",
          "name": "amount",
          "type": "uint64"
        }
      ],
      "name": "mint",
      "outputs": [],
      "stateMutability": "nonpayable",
      "type": "function"
    },
    {
      "inputs": [
        {
          "internalType": "address",
          "name": "token",
          "type": "address"
        },
        {
          "internalType": "bytes",
          "name": "encodedFunctionSelector",
          "type": "bytes"
        }
      ],
      "name": "redirectForToken",
      "outputs": [
        {
          "internalType": "int256",
          "name": "responseCode",
          "type": "int256"
        },
        {
          "internalType": "bytes",
          "name": "response",
          "type": "bytes"
        }
      ],
      "stateMutability": "nonpayable",
      "type": "function"
    },
    {
      "inputs": [],
      "name": "token",
      "outputs": [
        {
          "internalType": "address",
          "name": "",
          "type": "address"
        }
      ],
      "stateMutability": "view",
      "type": "function"
    },
    {
      "inputs": [],
      "name": "totalSupply",
      "outputs": [
        {
          "internalType": "uint64",
          "name": "",
          "type": "uint64"
        }
      ],
      "stateMutability": "view",
      "type": "function"
    },
    {
      "inputs": [
        {
          "internalType": "address",
          "name": "token",
          "type": "address"
        },
        {
          "internalType": "address",
          "name": "from",
          "type": "address"
        },
        {
          "internalType": "address",
          "name": "to",
          "type": "address"
        },
        {
          "internalType": "uint256",
          "name": "amount",
          "type": "uint256"
        }
      ],
      "name": "transferFrom",
      "outputs": [
        {
          "internalType": "int64",
          "name": "responseCode",
          "type": "int64"
        }
      ],
      "stateMutability": "nonpayable",
      "type": "function"
    },
    {
      "inputs": [
        {
          "internalType": "address",
          "name": "token",
          "type": "address"
        },
        {
          "internalType": "address",
          "name": "from",
          "type": "address"
        },
        {
          "internalType": "address",
          "name": "to",
          "type": "address"
        },
        {
          "internalType": "uint256",
          "name": "serialNumber",
          "type": "uint256"
        }
      ],
      "name": "transferFromNFT",
      "outputs": [
        {
          "internalType": "int64",
          "name": "responseCode",
          "type": "int64"
        }
      ],
      "stateMutability": "nonpayable",
      "type": "function"
    },
    {
      "stateMutability": "payable",
      "type": "receive"
    }
  ],
  "bytecode": "0x60808060405261198c80380380916100178285610786565b83398101906040818303126106775780516001600160401b03811161067757826100429183016107e7565b60208201519092906001600160401b0381116106775761006292016107e7565b600080546001600160a01b03199081168255600160208181527fa6eef7e35abe7026729641147f7915573c7e97b47efa546f5f6e3230263bcb499190915560027fcc69885fda6bcc1a4ace058b4a62bf5e179ea78fd58a1ccd71c22cc9b688792f5560047fd9d16d34ffb15ba3a3d852f0d403e2ce1d691fb54de27ac87cd2f993f3ec330f81905560087f7dfe757ecd65cbd7922a9c0161e935dd7fdbcc0e999689c7d31633896b1fc60b5560107fedc95719e9a3b28dd8e80877cb5880a9be7de1a13fc8b05e7999683b6b567643557fe2689cd4a84e23ad2f564004f1c9013e9589d260bde6380aba3ca7e09e4df40c91909155600690925260407f8f331abe73332f95a25873e8b430885974c0409691f89d643119a11623a7924a819055825482163317909255600380549091163017905551919061012083016001600160401b038111848210176107555760405260608352602083019160608352604084019160008352606085016060815260808601936000855260a08701906000825260c08801926000845260e0890194606086526101008a019661020361082c565b88528a52885230825261021461082c565b3060208201526278645060408201528652610100604051906102368183610786565b60078252601f190160005b81811061073e575050610252610897565b5061025d600061093b565b5461026661085b565b306020820152604051916102798361076b565b82526020820152610289826108b8565b52610293816108b8565b5061029c610897565b506102a7600161093b565b546102b061085b565b306020820152604051916102c38361076b565b825260208201526102d3826108db565b526102dd816108db565b506102e6610897565b506102f1600261093b565b546102fa61085b565b3060208201526040519161030d8361076b565b8252602082015261031d826108eb565b52610327816108eb565b50610330610897565b5061033b600361093b565b5461034461085b565b306020820152604051916103578361076b565b82526020820152610367826108fb565b52610371816108fb565b5061037a610897565b50610385600461093b565b5461038e61085b565b306020820152604051916103a18361076b565b825260208201526103b18261090b565b526103bb8161090b565b506103c4610897565b506103cf600561093b565b546103d861085b565b306020820152604051916103eb8361076b565b825260208201526103fb8261091b565b526104058161091b565b5061040e610897565b50610419600661093b565b5461042261085b565b306020820152604051916104358361076b565b825260208201526104458261092b565b5261044f8161092b565b5085528551805160070b158061072f575b610720575b50604051976020890199630fb65bf360e01b8b5260248a01606090525160848a0161016090526101e48a016104999161096a565b90518982036083190160a48b01526104b1919061096a565b91516001600160a01b031660c4890152518782036083190160e48901526104d8919061096a565b945115156101048701525160070b610124860152511515610144850152519160831984820301610164850152825180825260208201918160051b810160200194602001926000915b838310610690576000808a8a610578818c60408d51805160070b61018485015260018060a01b036020820151166101a4850152015160070b6101c483015285604483015285606483015203601f198101835282610786565b5190346101675af13d15610688573d90610591826107a9565b9161059f6040519384610786565b82523d6000602084013e5b1561067c57604081805181010312610677576020810151908160030b80920361067757604001516001600160a01b0381169190829003610677576016905b60030b0361063257600280546001600160a01b0319166001600160a01b039290921691909117905560048054600160a01b600160e01b0319169055604051610ffc90816109908239f35b60405162461bcd60e51b815260206004820152601660248201527f4661696c656420746f2063726561746520746f6b656e000000000000000000006044820152606490fd5b600080fd5b506000601660156105e8565b6060906105aa565b9091929395602080600192601f19858203018652818a5180518352015190604083820152815115156040820152848060a01b038383015116606082015260c06107016106eb604085015160a0608086015260e085019061096a565b6060850151848203603f190160a086015261096a565b926080878060a01b039101511691015298019301930191939290610520565b60406276a70091015238610465565b50604081015160070b15610460565b602090610749610897565b82828601015201610241565b634e487b7160e01b600052604160045260246000fd5b604081019081106001600160401b0382111761075557604052565b601f909101601f19168101906001600160401b0382119082101761075557604052565b6001600160401b03811161075557601f01601f191660200190565b60005b8381106107d75750506000910152565b81810151838201526020016107c7565b81601f820112156106775780516107fd816107a9565b9261080b6040519485610786565b818452602082840101116106775761082991602080850191016107c4565b90565b60405190606082016001600160401b038111838210176107555760405260006040838281528260208201520152565b6040519060a082016001600160401b03811183821017610755576040526000608083828152826020820152606060408201526060808201520152565b604051906108a48261076b565b816000815260206108b361085b565b910152565b8051156108c55760200190565b634e487b7160e01b600052603260045260246000fd5b8051600110156108c55760400190565b8051600210156108c55760600190565b8051600310156108c55760800190565b8051600410156108c55760a00190565b8051600510156108c55760c00190565b8051600610156108c55760e00190565b6007811015610954576000526001602052604060002090565b634e487b7160e01b600052602160045260246000fd5b90602091610983815180928185528580860191016107c4565b601f01601f191601019056fe608080604052600436101561001057005b60003560e01c90816315dacbea14610d225750806318160ddd14610cf7578063618dc65e14610ba65780637dc2a2b6146107785780639b23d3d9146106d85780639dbead4214610538578063d9ca93ff146103a2578063f77c479114610379578063f851a44014610350578063fb9d09c8146100c05763fc0c546a1461009257005b346100bb5760003660031901126100bb576002546040516001600160a01b039091168152602090f35b600080fd5b346100bb5760203660031901126100bb576100d9610e8e565b6004546001600160a01b031633148015610347575b6100f790610ee3565b6001808060a01b0360025416916020906040516101148382610e0f565b60008152600093610342575b6040519467ffffffffffffffff8487019363707a02cd60e11b8552608488019260248901521660070b604487015260606064870152815180915260a48601908460a48260051b89010193019186905b8282106103185787878180898d61018f818c03601f198101835282610e0f565b5190826101675af1906101a0610ea5565b91156102f65781518201916060818385019403126102f2576101c3828201610ed5565b6101cf60408301610fb8565b9160608101519067ffffffffffffffff82116102ee57019380603f860112156102ea57838501519467ffffffffffffffff86116102d6578560051b908582019661021c6040519889610e0f565b8752858080890193830101019283116102d2576040869101915b8383106102ba57509395506016935050505b60030b0361027f57506004805467ffffffffffffffff60a01b191660a09290921b67ffffffffffffffff60a01b1691909117905580f35b6064906040519062461bcd60e51b82526004820152601460248201527311985a5b1959081d1bc81b5a5b9d08185cdcd95d60621b6044820152fd5b81906102c584610fb8565b8152019101908590610236565b8780fd5b634e487b7160e01b87526041600452602487fd5b8580fd5b8680fd5b8380fd5b60405191506103058183610e0f565b8282528236813760166015849350610248565b90919293868061033460019360a3198d82030186528851610e4d565b96019201920190929161016f565b610120565b503330146100ee565b346100bb5760003660031901126100bb576004546040516001600160a01b039091168152602090f35b346100bb5760003660031901126100bb576003546040516001600160a01b039091168152602090f35b346100bb5760203660031901126100bb576103bb610d79565b6004546001600160a01b03163314801561052f575b6103d990610ee3565b600254604051633cb0c7fd60e21b602082019081526001600160a01b0392831660248301529183166044820152600091829161042281606481015b03601f198101835282610e0f565b5190826101675af1610432610ea5565b9015610527576040818051810103126100bb5761045d604061045660208401610ed5565b9201610f39565b90505b1561046757005b600254604051638f8d7f9960e01b602082019081526001600160a01b03928316602483015292909116604482015260009182916104a78160648101610414565b5190826101675af16104b7610ea5565b901561051d576020818051810103126100bb576104d8602060169201610ed5565b60030b036104e257005b60405162461bcd60e51b81526020600482015260136024820152724661696c656420746f206772616e74204b594360681b6044820152606490fd5b50601660156104d8565b506000610460565b503330146103d0565b346100bb5760203660031901126100bb57610551610e8e565b6004546001600160a01b0316331480156106cf575b61056f90610ee3565b600254604051602092916001600160a01b03169061058d8482610e0f565b6000815260003681376040519167ffffffffffffffff85840194636b48868360e11b8652608485019260248601521660070b60448401526060606484015281518091528460a4840192019060005b868282106106b85760008088886105fb818a03601f198101835282610e0f565b5190826101675af19061060c610ea5565b91156106ab576040828051810103126100bb5760166106386040610631848601610ed5565b9401610fb8565b925b60030b0361067057506004805467ffffffffffffffff60a01b191660a09290921b67ffffffffffffffff60a01b16919091179055005b6064906040519062461bcd60e51b82526004820152601460248201527311985a5b1959081d1bc8189d5c9b88185cdcd95d60621b6044820152fd5b600091506016601561063a565b835160070b855293840193909201916001016105db565b50333014610566565b346100bb576000806107336104146106ef36610d8f565b604051639b23d3d960e01b602082019081526001600160a01b03958616602483015293851660448201529390911660648401526084830152929091829060a4820190565b5190826101675af1610743610ea5565b901561076e576020818051810103126100bb576107636020809201610ed5565b6040519060030b8152f35b5060206015610763565b346100bb5760403660031901126100bb57610791610d79565b60243567ffffffffffffffff81168091036100bb576004546001600160a01b031633148015610b9d575b6107c490610ee3565b600254604051634d8fdd6d60e01b81526001600160a01b039091169190602081600481865afa908115610b9157600091610b57575b5015610b1257610807610f46565b6001600160a01b03909316835260070b6020830181905291610827610f46565b30815292677fffffffffffffff198114610afc5760000360070b602084015261084e610f65565b918252606090604051936108628386610e0f565b60028552601f19830160005b818110610ae5575050610897849560206108a99596019281845261089182610f85565b52610f85565b5051906108a382610fa8565b52610fa8565b506040918251906108ba8483610e0f565b60018252601f19840160005b818110610ace5750506108d882610f85565b526108e281610f85565b508251906020820192632f34811960e01b845260448301906020602485015282518092526064840191602060648260051b8701019401926000905b8282106109c557886000808a8a61093d818c03601f198101835282610e0f565b5190826101675af161094d610ea5565b90156109bb576020818051810103126100bb5761096e602060169201610ed5565b60030b0361097857005b5162461bcd60e51b815260206004820152601860248201527f4661696c656420746f2061697264726f7020746f6b656e7300000000000000006044820152606490fd5b506016601561096e565b90919293946063198782030182528551898683019160018060a01b03815116845260208101519288602086015283518091526020608086019401906000905b8a818310610a9557505050500151918a8183039101526020808351928381520192019060005b878c838310610a4d5750505050506020806001929701920192019093929161091d565b845180516001600160a01b039081168852602082810151909116818901528183015160070b928801929092529091015115158986015260809094019390920191600101610a2a565b83968660019496976020949651868060a01b0381511684528581015160070b86850152015115159082015201950192018d939291610a04565b602090610ad9610f65565b828287010152016108c6565b602090610af0610f46565b82828a0101520161086e565b634e487b7160e01b600052601160045260246000fd5b60405162461bcd60e51b815260206004820152601760248201527f546f6b656e206973206e6f74206173736f6369617465640000000000000000006044820152606490fd5b90506020813d602011610b89575b81610b7260209383610e0f565b810103126100bb57610b8390610f39565b846107f9565b3d9150610b65565b6040513d6000823e3d90fd5b503330146107bb565b346100bb5760403660031901126100bb57610bbf610d79565b6024359067ffffffffffffffff82116100bb57366023830112156100bb57816004013590610bec82610e31565b91610bfa6040519384610e0f565b80835236602482860101116100bb57610c5d60009493856020846104149560248499018386013783010152604080516330c6e32f60e11b602082019081526001600160a01b03909616602482015260448101919091529283916064830190610e4d565b5190826101675af1610c6d610ea5565b907f4af4780e06fe8cb9df64b0794fa6f01399af979175bb988e35e0e57e594567bc60405182151581526040602082015280610cac6040820186610e4d565b0390a160009015610cde575060165b610cda60405192839260030b8352604060208401526040830190610e4d565b0390f35b6040519150610cee602083610e0f565b81526015610cbb565b346100bb5760003660031901126100bb57602067ffffffffffffffff60045460a01c16604051908152f35b346100bb576000610414826107338394610d3b36610d8f565b630aed65f560e11b602086019081526001600160a01b03948516602487015292841660448601529216606484015260848301919091529360a4820190565b600435906001600160a01b03821682036100bb57565b60809060031901126100bb576004356001600160a01b03811681036100bb57906024356001600160a01b03811681036100bb57906044356001600160a01b03811681036100bb579060643590565b6060810190811067ffffffffffffffff821117610df957604052565b634e487b7160e01b600052604160045260246000fd5b90601f8019910116810190811067ffffffffffffffff821117610df957604052565b67ffffffffffffffff8111610df957601f01601f191660200190565b919082519283825260005b848110610e79575050826000602080949584010152601f8019910116010190565b80602080928401015182828601015201610e58565b6004359067ffffffffffffffff821682036100bb57565b3d15610ed0573d90610eb682610e31565b91610ec46040519384610e0f565b82523d6000602084013e565b606090565b51908160030b82036100bb57565b15610eea57565b60405162461bcd60e51b815260206004820152602160248201527f4f6e6c792061646d696e2063616e2063616c6c20746869732066756e6374696f6044820152603760f91b6064820152608490fd5b519081151582036100bb57565b60405190610f5382610ddd565b60006040838281528260208201520152565b60405190610f7282610ddd565b6060604083600081528260208201520152565b805115610f925760200190565b634e487b7160e01b600052603260045260246000fd5b805160011015610f925760400190565b51908160070b82036100bb5756fea2646970667358221220cfa1810f579b39b310b87860a330c38957077c1118dc5dd38a2d3fe96ccf39c664736f6c634300081d0033",
  "linkReferences": {},
  "deployedLinkReferences": {}
}