{
  "_format": "hh-sol-artifact-1",
  "contractName": "TokenReject",
  "sourceName": "contracts/system-contracts/hedera-token-service/examples/hrc-904/TokenReject.sol",
  "abi": [
    {
      "anonymous": false,
      "inputs": [
        {
          "indexed": false,
          "internalType": "bool",
          "name": "",
          "type": "bool"
        },
        {
          "indexed": false,
          "internalType": "bytes",
          "name": "",
          "type": "bytes"
        }
      ],
      "name": "CallResponseEvent",
      "type": "event"
    },
    {
      "inputs": [
        {
          "internalType": "address",
          "name": "token",
          "type": "address"
        },
        {
          "internalType": "bytes",
          "name": "encodedFunctionSelector",
          "type": "bytes"
        }
      ],
      "name": "redirectForToken",
      "outputs": [
        {
          "internalType": "int256",
          "name": "responseCode",
          "type": "int256"
        },
        {
          "internalType": "bytes",
          "name": "response",
          "type": "bytes"
        }
      ],
      "stateMutability": "nonpayable",
      "type": "function"
    },
    {
      "inputs": [
        {
          "internalType": "address",
          "name": "rejectingAddress",
          "type": "address"
        },
        {
          "internalType": "address[]",
          "name": "ftAddresses",
          "type": "address[]"
        },
        {
          "internalType": "address[]",
          "name": "nftAddresses",
          "type": "address[]"
        }
      ],
      "name": "rejectTokens",
      "outputs": [
        {
          "internalType": "int64",
          "name": "responseCode",
          "type": "int64"
        }
      ],
      "stateMutability": "nonpayable",
      "type": "function"
    },
    {
      "inputs": [
        {
          "internalType": "address",
          "name": "token",
          "type": "address"
        },
        {
          "internalType": "address",
          "name": "from",
          "type": "address"
        },
        {
          "internalType": "address",
          "name": "to",
          "type": "address"
        },
        {
          "internalType": "uint256",
          "name": "amount",
          "type": "uint256"
        }
      ],
      "name": "transferFrom",
      "outputs": [
        {
          "internalType": "int64",
          "name": "responseCode",
          "type": "int64"
        }
      ],
      "stateMutability": "nonpayable",
      "type": "function"
    },
    {
      "inputs": [
        {
          "internalType": "address",
          "name": "token",
          "type": "address"
        },
        {
          "internalType": "address",
          "name": "from",
          "type": "address"
        },
        {
          "internalType": "address",
          "name": "to",
          "type": "address"
        },
        {
          "internalType": "uint256",
          "name": "serialNumber",
          "type": "uint256"
        }
      ],
      "name": "transferFromNFT",
      "outputs": [
        {
          "internalType": "int64",
          "name": "responseCode",
          "type": "int64"
        }
      ],
      "stateMutability": "nonpayable",
      "type": "function"
    }
  ],
  "bytecode": "0x60808060405234601557610702908161001b8239f35b600080fdfe608080604052600436101561001357600080fd5b60003560e01c90816315dacbea14610459575080632d03d39014610249578063618dc65e146100f857639b23d3d91461004b57600080fd5b346100f3576000806100b46100a6610062366104c6565b604051639b23d3d960e01b602082019081526001600160a01b03958616602483015293851660448201529390911660648401526084830152929091829060a4820190565b03601f198101835282610514565b5190826101675af16100c461062f565b90156100e9576100de81602080809451830101910161065f565b6040519060030b8152f35b50602060156100de565b600080fd5b346100f35760403660031901126100f3576101116104b0565b6024359067ffffffffffffffff82116100f357366023830112156100f35781600401359061013e826105d2565b9161014c6040519384610514565b80835236602482860101116100f3576101af60009493856020846100a69560248499018386013783010152604080516330c6e32f60e11b602082019081526001600160a01b039096166024820152604481019190915292839160648301906105ee565b5190826101675af16101bf61062f565b907f4af4780e06fe8cb9df64b0794fa6f01399af979175bb988e35e0e57e594567bc604051821515815260406020820152806101fe60408201866105ee565b0390a160009015610230575060165b61022c60405192839260030b83526040602084015260408301906105ee565b0390f35b6040519150610240602083610514565b8152601561020d565b346100f35760603660031901126100f3576102626104b0565b60243567ffffffffffffffff81116100f357610282903690600401610564565b9060443567ffffffffffffffff81116100f3576102a3903690600401610564565b918251906102b08261054c565b916102be6040519384610514565b8083526102cd601f199161054c565b0160005b81811061044257505060005b8451811015610327576001906102f1610678565b828060a01b0361030183896106a2565b5116815282602082015261031582866106a2565b5261032081856106a2565b50016102dd565b5060405163075eacaf60e51b60208083019182526001600160a01b039095166024830152606060448301528251608483018190529195509360a4860192019060005b818110610423575050506023198482030160648501526020808351928381520192019060005b8181106103f55760008086886103ae818903601f198101835282610514565b5190826101675af16103be61062f565b90156103ed57806020806103d79351830101910161065f565b60030b601681036100f357602090604051908152f35b5060156103d7565b825180516001600160a01b0316855260209081015160070b818601526040909401939092019160010161038f565b82516001600160a01b0316845260209384019390920191600101610369565b60209061044d610678565b828287010152016102d1565b346100f35760006100a6826100b48394610472366104c6565b630aed65f560e11b602086019081526001600160a01b03948516602487015292841660448601529216606484015260848301919091529360a4820190565b600435906001600160a01b03821682036100f357565b60809060031901126100f3576004356001600160a01b03811681036100f357906024356001600160a01b03811681036100f357906044356001600160a01b03811681036100f3579060643590565b90601f8019910116810190811067ffffffffffffffff82111761053657604052565b634e487b7160e01b600052604160045260246000fd5b67ffffffffffffffff81116105365760051b60200190565b9080601f830112156100f35781359061057c8261054c565b9261058a6040519485610514565b82845260208085019360051b8201019182116100f357602001915b8183106105b25750505090565b82356001600160a01b03811681036100f3578152602092830192016105a5565b67ffffffffffffffff811161053657601f01601f191660200190565b919082519283825260005b84811061061a575050826000602080949584010152601f8019910116010190565b806020809284010151828286010152016105f9565b3d1561065a573d90610640826105d2565b9161064e6040519384610514565b82523d6000602084013e565b606090565b908160209103126100f357518060030b81036100f35790565b604051906040820182811067ffffffffffffffff8211176105365760405260006020838281520152565b80518210156106b65760209160051b010190565b634e487b7160e01b600052603260045260246000fdfea26469706673582212205b09db6c6d978f97198c3e4a2a37020110b9f95bf413132e9c0962d55b07fddf64736f6c634300081d0033",
  "linkReferences": {},
  "deployedLinkReferences": {}
}