{
  "_format": "hh-sol-artifact-1",
  "contractName": "MyContract",
  "sourceName": "contracts/test.sol",
  "abi": [
    {
      "inputs": [],
      "stateMutability": "nonpayable",
      "type": "constructor"
    },
    {
      "inputs": [],
      "name": "greet",
      "outputs": [
        {
          "internalType": "string",
          "name": "",
          "type": "string"
        }
      ],
      "stateMutability": "view",
      "type": "function"
    },
    {
      "inputs": [
        {
          "internalType": "string",
          "name": "name",
          "type": "string"
        }
      ],
      "name": "introduce",
      "outputs": [],
      "stateMutability": "nonpayable",
      "type": "function"
    },
    {
      "inputs": [
        {
          "internalType": "address",
          "name": "",
          "type": "address"
        }
      ],
      "name": "names",
      "outputs": [
        {
          "internalType": "string",
          "name": "",
          "type": "string"
        }
      ],
      "stateMutability": "view",
      "type": "function"
    },
    {
      "inputs": [],
      "name": "scriptId",
      "outputs": [
        {
          "internalType": "string",
          "name": "",
          "type": "string"
        }
      ],
      "stateMutability": "view",
      "type": "function"
    }
  ],
  "bytecode": "0x60808060405234609c5733600052600060205260406000208054600181811c911680156093575b6020821014607d57601f81116053575b50600e6621b932b0ba37b960c91b01905561048090816100a28239f35b81600052601f6020600020910160051c8101905b818110607257506036565b600081556001016067565b634e487b7160e01b600052602260045260246000fd5b90607f16906026565b600080fdfe6080604052600436101561001257600080fd5b60003560e01c80635cf3d346146102bd578063c63193f614610114578063cfae3217146100975763f945be6d1461004857600080fd5b346100925760003660031901126100925761008e604080519061006b8183610335565b600c82526b48465756325f68736373534360a01b6020830152519182918261041e565b0390f35b600080fd5b346100925760003660031901126100925733600052600060205261008e6100c16040600020610357565b610108603060405180936f02432b6363790333aba3ab932909016960851b60208301526100f781518092602086860191016103fb565b81010301601f198101835282610335565b6040519182918261041e565b346100925760203660031901126100925760043567ffffffffffffffff8111610092573660238201121561009257806004013567ffffffffffffffff81116102a7576040519161016e601f8301601f191660200184610335565b8183523660248383010111610092578160009260246020930183860137830101523360005260006020526040600020815167ffffffffffffffff81116102a7576101b882546102fb565b601f811161025f575b50602092601f82116001146101ff57928192936000926101f4575b5050600019600383901b1c191660019190911b179055005b0151905083806101dc565b601f1982169383600052806000209160005b868110610247575083600195961061022e575b505050811b019055005b015160001960f88460031b161c19169055838080610224565b91926020600181928685015181550194019201610211565b826000526020600020601f830160051c8101916020841061029d575b601f0160051c01905b81811061029157506101c1565b60008155600101610284565b909150819061027b565b634e487b7160e01b600052604160045260246000fd5b34610092576020366003190112610092576004356001600160a01b0381169081900361009257600052600060205261008e6101086040600020610357565b90600182811c9216801561032b575b602083101461031557565b634e487b7160e01b600052602260045260246000fd5b91607f169161030a565b90601f8019910116810190811067ffffffffffffffff8211176102a757604052565b906040519182600082549261036b846102fb565b80845293600181169081156103d95750600114610392575b5061039092500383610335565b565b90506000929192526020600020906000915b8183106103bd5750509060206103909282010138610383565b60209193508060019154838589010152019101909184926103a4565b90506020925061039094915060ff191682840152151560051b82010138610383565b60005b83811061040e5750506000910152565b81810151838201526020016103fe565b6040916020825261043e81518092816020860152602086860191016103fb565b601f01601f191601019056fea264697066735822122058604dfaae2712edaba10fe91b279f59d581b6e20e0fcad7aa7040ab4e95f34364736f6c634300081d0033",
  "linkReferences": {},
  "deployedLinkReferences": {}
}