{
  "_format": "hh-sol-artifact-1",
  "contractName": "Lender",
  "sourceName": "contracts/Lender.sol",
  "abi": [
    {
      "inputs": [],
      "stateMutability": "nonpayable",
      "type": "constructor"
    },
    {
      "anonymous": false,
      "inputs": [
        {
          "indexed": true,
          "internalType": "address",
          "name": "asset",
          "type": "address"
        },
        {
          "indexed": true,
          "internalType": "address",
          "name": "token",
          "type": "address"
        },
        {
          "indexed": true,
          "internalType": "bytes32",
          "name": "name",
          "type": "bytes32"
        }
      ],
      "name": "AssetLendingReserveCreated",
      "type": "event"
    },
    {
      "anonymous": false,
      "inputs": [
        {
          "indexed": true,
          "internalType": "address",
          "name": "asset",
          "type": "address"
        },
        {
          "indexed": true,
          "internalType": "uint64",
          "name": "amount",
          "type": "uint64"
        },
        {
          "indexed": true,
          "internalType": "address",
          "name": "user",
          "type": "address"
        }
      ],
      "name": "LiquidityProvided",
      "type": "event"
    },
    {
      "anonymous": false,
      "inputs": [
        {
          "indexed": true,
          "internalType": "address",
          "name": "asset",
          "type": "address"
        },
        {
          "indexed": true,
          "internalType": "uint64",
          "name": "amount",
          "type": "uint64"
        },
        {
          "indexed": true,
          "internalType": "address",
          "name": "user",
          "type": "address"
        }
      ],
      "name": "LiquidityWithdrawn",
      "type": "event"
    },
    {
      "anonymous": false,
      "inputs": [
        {
          "indexed": true,
          "internalType": "address",
          "name": "token",
          "type": "address"
        },
        {
          "indexed": true,
          "internalType": "address",
          "name": "borrower",
          "type": "address"
        }
      ],
      "name": "LoanLiquidated",
      "type": "event"
    },
    {
      "anonymous": false,
      "inputs": [
        {
          "indexed": true,
          "internalType": "address",
          "name": "token",
          "type": "address"
        },
        {
          "indexed": true,
          "internalType": "address",
          "name": "borrower",
          "type": "address"
        },
        {
          "indexed": true,
          "internalType": "uint64",
          "name": "loanAmountKES",
          "type": "uint64"
        },
        {
          "indexed": false,
          "internalType": "uint64",
          "name": "collateralAmountAsset",
          "type": "uint64"
        },
        {
          "indexed": false,
          "internalType": "uint64",
          "name": "liquidationKESPrice",
          "type": "uint64"
        },
        {
          "indexed": false,
          "internalType": "uint64",
          "name": "repayAmount",
          "type": "uint64"
        }
      ],
      "name": "LoanRecorded",
      "type": "event"
    },
    {
      "anonymous": false,
      "inputs": [
        {
          "indexed": true,
          "internalType": "address",
          "name": "token",
          "type": "address"
        },
        {
          "indexed": true,
          "internalType": "address",
          "name": "borrower",
          "type": "address"
        },
        {
          "indexed": true,
          "internalType": "uint64",
          "name": "repayAmount",
          "type": "uint64"
        }
      ],
      "name": "LoanRepaid",
      "type": "event"
    },
    {
      "stateMutability": "payable",
      "type": "fallback"
    },
    {
      "inputs": [
        {
          "internalType": "address",
          "name": "asset",
          "type": "address"
        },
        {
          "internalType": "string",
          "name": "lender_token_name",
          "type": "string"
        },
        {
          "internalType": "string",
          "name": "lender_token_symbol",
          "type": "string"
        }
      ],
      "name": "addLenderPool",
      "outputs": [],
      "stateMutability": "payable",
      "type": "function"
    },
    {
      "inputs": [],
      "name": "admin",
      "outputs": [
        {
          "internalType": "address",
          "name": "",
          "type": "address"
        }
      ],
      "stateMutability": "view",
      "type": "function"
    },
    {
      "inputs": [
        {
          "internalType": "address",
          "name": "asset",
          "type": "address"
        }
      ],
      "name": "getLpTokenAddress",
      "outputs": [
        {
          "internalType": "address",
          "name": "",
          "type": "address"
        }
      ],
      "stateMutability": "view",
      "type": "function"
    },
    {
      "inputs": [
        {
          "internalType": "address",
          "name": "asset",
          "type": "address"
        }
      ],
      "name": "getReserveAddress",
      "outputs": [
        {
          "internalType": "address",
          "name": "",
          "type": "address"
        }
      ],
      "stateMutability": "view",
      "type": "function"
    },
    {
      "inputs": [
        {
          "internalType": "address",
          "name": "",
          "type": "address"
        }
      ],
      "name": "lendingReserves",
      "outputs": [
        {
          "internalType": "contract LendingTokenReserve",
          "name": "",
          "type": "address"
        }
      ],
      "stateMutability": "view",
      "type": "function"
    },
    {
      "inputs": [
        {
          "internalType": "address",
          "name": "asset",
          "type": "address"
        },
        {
          "internalType": "uint64",
          "name": "amount",
          "type": "uint64"
        }
      ],
      "name": "provideLiquidity",
      "outputs": [],
      "stateMutability": "nonpayable",
      "type": "function"
    },
    {
      "inputs": [
        {
          "internalType": "address",
          "name": "asset",
          "type": "address"
        }
      ],
      "name": "repayOutstandingLoan",
      "outputs": [],
      "stateMutability": "nonpayable",
      "type": "function"
    },
    {
      "inputs": [
        {
          "internalType": "address",
          "name": "asset",
          "type": "address"
        },
        {
          "internalType": "uint64",
          "name": "amount",
          "type": "uint64"
        }
      ],
      "name": "takeOutLoan",
      "outputs": [],
      "stateMutability": "nonpayable",
      "type": "function"
    },
    {
      "inputs": [
        {
          "internalType": "address",
          "name": "asset",
          "type": "address"
        },
        {
          "internalType": "uint64",
          "name": "amount",
          "type": "uint64"
        }
      ],
      "name": "withdrawLiquidity",
      "outputs": [],
      "stateMutability": "nonpayable",
      "type": "function"
    },
    {
      "stateMutability": "payable",
      "type": "receive"
    }
  ],
  "bytecode": "0x60808060405234602757600080546001600160a01b031916331790556134f3908161002d8239f35b600080fdfe60806040526004361015610010575b005b60003560e01c80634916df421461009b5780634dc710311461009657806351e8b7fb146100965780638989db3a14610091578063a28418271461008c578063aaff599d14610087578063e71d562714610082578063e7b79c9d1461007d5763f851a4400361000e57610ebc565b610afe565b610a5c565b610896565b6104b8565b610338565b6102f3565b34610203576100a9366102cb565b6001600160a01b0380831660009081526001602052604090209192916100d7905b546001600160a01b031690565b16604051637e062a3560e11b8152602081600481855afa80156101fe5782602091869360009161027c575b50604051630aed65f560e11b81526001600160a01b039182166004820152336024820152911660448201526001600160401b039290921660648301528160848160006101675af180156101fe5760169160009161024d575b5060070b0361020857803b15610203576040516364dd0c6760e11b81526001600160401b0384166004820152336024820152906000908290604490829084905af180156101fe576101e3575b5033916001600160401b0316906001600160a01b03167f641bc2d70635cc551c419eccab5f20b689b6471d2ab50ff500fc10afc526c569600080a4005b806101f260006101f89361081f565b80610eb1565b826101a6565b610efa565b600080fd5b60405162461bcd60e51b815260206004820152601860248201527f4661696c656420746f207472616e7366657220746f6b656e00000000000000006044820152606490fd5b61026f915060203d602011610275575b610267818361081f565b810190610f06565b8561015a565b503d61025d565b61029c9150833d85116102a2575b610294818361081f565b810190610ee5565b87610102565b503d61028a565b6001600160a01b0381160361020357565b6001600160401b0381160361020357565b6040906003190112610203576004356102e3816102a9565b906024356102f0816102ba565b90565b3461020357602036600319011261020357600435610310816102a9565b60018060a01b03166000526001602052602060018060a01b0360406000205416604051908152f35b3461020357610346366102cb565b6001600160a01b038281166000908152600160205260409020610368906100ca565b604051630aed65f560e11b8152625880fb600482015233602482015291166001600160a01b03811660448301526001600160401b03831660648301819052929160208160848160006101675af180156101fe57601691600091610499575b5060070b0361045b57803b15610203576040516306fbe01d60e41b81526001600160401b039290921660048301523360248301526000908290604490829084905af180156101fe57610446575b5033916001600160a01b03167f78546283f1af79c459bfd00b627a46731798fafb1cdbb65d451c66a380e067a9600080a4005b806101f260006104559361081f565b38610413565b60405162461bcd60e51b81526020600482015260166024820152754661696c656420746f207472616e73666572204b455360501b6044820152606490fd5b6104b2915060203d60201161027557610267818361081f565b386103c6565b34610203576020366003190112610203576004356104d5816102a9565b6001600160a01b0381166000908152600160205260409020610506906104fa906100ca565b6001600160a01b031690565b6040516333481fc960e01b815233600482015260e081602481855afa9081156101fe576000916107ba575b5061054661054260c0830151151590565b1590565b61077557608081015161073b5760a08101516106fd5760608101906105c5602061058661057a85516001600160401b031690565b6001600160401b031690565b604051630aed65f560e11b8152625880fb60048201523360248201526001600160a01b0387166044820152606481019190915291829081906084820190565b038160006101675af180156101fe576016916000916106de575b5060070b0361045b57602001516001600160401b031690823b15610203576040516339bc4ead60e01b81523360048201526001600160401b0392909216602483015260008260448183875af19182156101fe57610649926106c9575b50516001600160401b031690565b604051926001600160401b039091169033906001600160a01b03167fbd18fbeea83536cb2846df573878f7e259ce07ba60551ee446c39268ba6dcb82600080a4803b1561020357630c8778f360e11b82523360048301526000908290602490829084905af180156101fe576106ba57005b806101f2600061000e9361081f565b806101f260006106d89361081f565b3861063b565b6106f7915060203d60201161027557610267818361081f565b386105df565b60405162461bcd60e51b8152602060048201526016602482015275131bd85b881a5cc8185b1c9958591e481c995c185a5960521b6044820152606490fd5b60405162461bcd60e51b8152602060048201526012602482015271131bd85b881a5cc81b1a5c5d5a59185d195960721b6044820152606490fd5b60405162461bcd60e51b815260206004820181905260248201527f4e6f206f75747374616e64696e67206c6f616e20666f7220626f72726f7765726044820152606490fd5b6107dc915060e03d60e0116107e2575b6107d4818361081f565b810190610f39565b38610531565b503d6107ca565b634e487b7160e01b600052604160045260246000fd5b60e081019081106001600160401b0382111761081a57604052565b6107e9565b90601f801991011681019081106001600160401b0382111761081a57604052565b81601f82011215610203578035906001600160401b03821161081a5760405192610874601f8401601f19166020018561081f565b8284526020838301011161020357816000926020809301838601378301015290565b6060366003190112610203576004356108ae816102a9565b6024356001600160401b038111610203576108cd903690600401610840565b906044356001600160401b038111610203576108ed903690600401610840565b6000546001600160a01b03163303610a0d576040519061236b8083018381106001600160401b0382111761081a57839286869261092e946111538739611009565b039034f09182156101fe5760208361097d60049561095e8660018060a01b03166000526001602052604060002090565b80546001600160a01b0319166001600160a01b03909216919091179055565b604051637e062a3560e11b815294859182906001600160a01b03165afa9283156101fe576000936109e8575b506109b390611113565b916001600160a01b0390811691167f0a4998a361187c02008f993458c6868670244650f4696c73ffe2112ba6e65acf600080a4005b6109b3919350610a069060203d6020116102a257610294818361081f565b92906109a9565b60405162461bcd60e51b815260206004820152602160248201527f4f6e6c792061646d696e2063616e2063616c6c20746869732066756e6374696f6044820152603760f91b6064820152608490fd5b3461020357602036600319011261020357600435610a79816102a9565b60018060a01b031660005260016020526004602060018060a01b036040600020541660405192838092637e062a3560e11b82525afa80156101fe57610adb91600091610adf575b506040516001600160a01b0390911681529081906020820190565b0390f35b610af8915060203d6020116102a257610294818361081f565b38610ac0565b3461020357610b0c366102cb565b90610b2f6104fa6100ca8360018060a01b03166000526001602052604060002090565b6040516333481fc960e01b815233600482015260e081602481855afa9081156101fe57610b856080610b8a93610b7893600091610e92575b50610b7e610b7860c0830151151590565b15611043565b0151151590565b151590565b6040516341976e0960e01b81526001600160a01b038316600482015290602082602481625881045afa9182156101fe57600092610e61575b506001600160401b038416936001600160401b038316610be29086611127565b6001600160401b0316610bf49061109a565b6001600160401b0316610c139060016064600019830104019015150290565b6001600160401b031692610c26906110d1565b6001600160401b0316610c459060016064600019830104019015150290565b6001600160401b0316610c57826110f2565b6001600160401b0316610c769060016064600019830104019015150290565b604051630aed65f560e11b81526001600160a01b038781166004830152336024830152851660448201526001600160401b038681166064830152919091169390808060845a926000610167602095f180156101fe57601691600091610e42575b5060070b03610dfd57803b1561020357604051635c1a3e7160e11b81523360048201526001600160401b038416602482015260008160448183865af180156101fe57610de8575b50803b156102035760405163763fd53760e11b81523360048201526001600160401b039384166024820152858416604482015282841660648201529284166084840152919291600090849060a490829084905af19283156101fe577f5f6e16ea8240a8008ede61bc134fb5892f4140aeb9db1b7de766e464d4a3c2e893610dd3575b50604080516001600160401b0395861681529185166020830152919093169083015233926001600160a01b031691606090a4005b806101f26000610de29361081f565b38610d9f565b806101f26000610df79361081f565b38610d1d565b60405162461bcd60e51b815260206004820152601860248201527f4661696c656420746f207472616e7366657220617373657400000000000000006044820152606490fd5b610e5b915060203d60201161027557610267818361081f565b38610cd6565b610e8491925060203d602011610e8b575b610e7c818361081f565b810190611085565b9038610bc2565b503d610e72565b610eab915060e03d60e0116107e2576107d4818361081f565b38610b67565b600091031261020357565b34610203576000366003190112610203576000546040516001600160a01b039091168152602090f35b9081602091031261020357516102f0816102a9565b6040513d6000823e3d90fd5b9081602091031261020357518060070b81036102035790565b5190610f2a826102ba565b565b5190811515820361020357565b908160e091031261020357610fc060c060405192610f56846107ff565b8051610f61816102ba565b84526020810151610f71816102ba565b6020850152610f8260408201610f1f565b6040850152610f9360608201610f1f565b6060850152610fa460808201610f2c565b6080850152610fb560a08201610f2c565b60a085015201610f2c565b60c082015290565b919082519283825260005b848110610ff4575050826000602080949584010152601f8019910116010190565b80602080928401015182828601015201610fd3565b9161103390611025604093969596606086526060860190610fc8565b908482036020860152610fc8565b6001600160a01b03909416910152565b1561104a57565b60405162461bcd60e51b81526020600482015260136024820152724c6f616e20616c72656164792065786973747360681b6044820152606490fd5b9081602091031261020357516102f0816102ba565b6001600160401b03607d911602906001600160401b0382169182036110bb57565b634e487b7160e01b600052601160045260246000fd5b6001600160401b03605a911602906001600160401b0382169182036110bb57565b6001600160401b03606e911602906001600160401b0382169182036110bb57565b805115611121576020015190565b50600090565b90801561113f57600190600019830104019015150290565b634e487b7160005260126020526024601cfdfe60808060405261236b803803809161001782856108d2565b83398101906060818303126106f25780516001600160401b0381116106f25782610042918301610933565b60208201519092906001600160401b0381116106f257604091610066918401610933565b9101516001600160a01b03811692908390036106f257600080546001600160a01b03199081168255600160208181527fa6eef7e35abe7026729641147f7915573c7e97b47efa546f5f6e3230263bcb499190915560027fcc69885fda6bcc1a4ace058b4a62bf5e179ea78fd58a1ccd71c22cc9b688792f81905560047fd9d16d34ffb15ba3a3d852f0d403e2ce1d691fb54de27ac87cd2f993f3ec330f81905560087f7dfe757ecd65cbd7922a9c0161e935dd7fdbcc0e999689c7d31633896b1fc60b5560107fedc95719e9a3b28dd8e80877cb5880a9be7de1a13fc8b05e7999683b6b567643557fe2689cd4a84e23ad2f564004f1c9013e9589d260bde6380aba3ca7e09e4df40c92909255600690935260407f8f331abe73332f95a25873e8b430885974c0409691f89d643119a11623a7924a81905581548316331790915582549091168517909155519161012083016001600160401b038111848210176108a15760405260608352602083019160608352604084016000815260608501926060845260808601916000835260a087016000815260c08801916000835260e0890193606085526101008a019661021c610978565b88528a52885230815261022d610978565b306020820152627864506040820152865260e09660405161024e89826108d2565b60068152601f19890160005b81811061088a57505061026b6109e3565b506102766000610a77565b5461027f6109a7565b30602082015260405191610292836108b7565b825260208201526102a282610a04565b526102ac81610a04565b506102b56109e3565b506102c06002610a77565b546102c96109a7565b306020820152604051916102dc836108b7565b825260208201526102ec82610a27565b526102f681610a27565b506102ff6109e3565b5061030a6003610a77565b546103136109a7565b30602082015260405191610326836108b7565b8252602082015261033682610a37565b5261034081610a37565b506103496109e3565b506103546004610a77565b5461035d6109a7565b30602082015260405191610370836108b7565b8252602082015261038082610a47565b5261038a81610a47565b506103936109e3565b5061039e6005610a77565b546103a76109a7565b306020820152604051916103ba836108b7565b825260208201526103ca82610a57565b526103d481610a57565b506103dd6109e3565b506103e86006610a77565b546103f16109a7565b30602082015260405191610404836108b7565b8252602082015261041482610a67565b5261041e81610a67565b5085528651805160070b158061087b575b61086c575b506040979597519860208a019a630fb65bf360e01b8c5260248b01606090525160848b0161016090526101e48b0161046b91610aa6565b90518a82036083190160a48c01526104839190610aa6565b91516001600160a01b031660c48a0152518882036083190160e48a01526104aa9190610aa6565b955115156101048801525160070b610124870152511515610144860152519260831985820301610164860152835190818152602081018260051b820160200195602001936000925b8484106107db578a6000808c8c61054c818e60408f51805160070b61018485015260018060a01b036020820151166101a4850152015160070b6101c48301528560448301526006606483015203601f1981018352826108d2565b5190346101675af13d156107d3573d90610565826108f5565b9161057360405193846108d2565b82523d6000602084013e5b156107c7576040818051810103126106f2576020810151908160030b8092036106f257604001516001600160a01b03811691908290036106f2576016905b60030b0361078257600380546001600160a01b0319166001600160a01b0390921691909117905560048054600160a01b600160e01b031916815560405163053aa6f360e11b815291602091839182906000905af180156106ff5760009061074f575b6001600160401b031660070b60151901905061070b5760405163053aa6f360e11b81526020816004816000625880fb5af180156106ff576000906106c7575b6001600160401b031660070b6015190190506106825760405161189f9081610acc8239f35b60405162461bcd60e51b815260206004820152601d60248201527f4661696c656420746f206173736f6369617465204b455320746f6b656e0000006044820152606490fd5b506020813d6020116106f7575b816106e1602093836108d2565b810103126106f2576016905161065d565b600080fd5b3d91506106d4565b6040513d6000823e3d90fd5b606460405162461bcd60e51b815260206004820152602060248201527f4661696c656420746f206173736f636961746520746f6b656e20746f204b45536044820152fd5b506020813d60201161077a575b81610769602093836108d2565b810103126106f2576016905161061e565b3d915061075c565b60405162461bcd60e51b815260206004820152601660248201527f4661696c656420746f2063726561746520746f6b656e000000000000000000006044820152606490fd5b506000601660156105bc565b60609061057e565b909192939496602080600192601f19858203018752818b5180518352015190604083820152815115156040820152848060a01b038383015116606082015260c061084c610836604085015160a060808601528a850190610aa6565b6060850151848203603f190160a0860152610aa6565b926080878060a01b039101511691015299019401940192949391906104f2565b60406276a70091015238610434565b50604081015160070b1561042f565b6020906108956109e3565b8282860101520161025a565b634e487b7160e01b600052604160045260246000fd5b604081019081106001600160401b038211176108a157604052565b601f909101601f19168101906001600160401b038211908210176108a157604052565b6001600160401b0381116108a157601f01601f191660200190565b60005b8381106109235750506000910152565b8181015183820152602001610913565b81601f820112156106f2578051610949816108f5565b9261095760405194856108d2565b818452602082840101116106f2576109759160208085019101610910565b90565b60405190606082016001600160401b038111838210176108a15760405260006040838281528260208201520152565b6040519060a082016001600160401b038111838210176108a1576040526000608083828152826020820152606060408201526060808201520152565b604051906109f0826108b7565b816000815260206109ff6109a7565b910152565b805115610a115760200190565b634e487b7160e01b600052603260045260246000fd5b805160011015610a115760400190565b805160021015610a115760600190565b805160031015610a115760800190565b805160041015610a115760a00190565b805160051015610a115760c00190565b6007811015610a90576000526001602052604060002090565b634e487b7160e01b600052602160045260246000fd5b90602091610abf81518092818552858086019101610910565b601f01601f191601019056fe608080604052600436101561001057005b60003560e01c90816315dacbea1461159b5750806318160ddd14611571578063190ef1e61461150557806333481fc9146113f257806338d52e0f146113c957806339bc4ead146111de578063618dc65e1461108e5780636fbe01d0146109e05780639b23d3d914610952578063b8347ce21461078e578063bbdfa00e14610725578063c9ba18ce14610303578063ec7faa6e14610115578063f851a440146100ec5763fc0c546a146100be57005b346100e75760003660031901126100e7576003546040516001600160a01b039091168152602090f35b600080fd5b346100e75760003660031901126100e7576004546040516001600160a01b039091168152602090f35b346100e75760a03660031901126100e75761012e6115d1565b6024356001600160401b0381168091036100e7576044356001600160401b0381168091036100e757606435926001600160401b0384168094036100e757608435906001600160401b0382168092036100e7576004546001600160a01b0316331480156102fa575b61019e90611793565b6001600160a01b031660008181526005602052604090206001015490939060101c60ff166102b657600191604051916101d68361164b565b825260208083019485526040808401978852606084019283526000608080860182815260a0870183815260c08089018a81529b85526005909652928490209651875499519b519651861b6001600160c01b031990811667ffffffffffffffff60801b9890941b979097166fffffffffffffffff00000000000000009c90951b9b909b166001600160401b03909b16959098169490941798909817179084901b849003161781559151910180549351925162ff000090151560101b1661ff0093151560081b9390931691151560ff1662ffffff199094169390931717179055005b606460405162461bcd60e51b815260206004820152602060248201527f4c6f616e20616c72656164792065786973747320666f7220626f72726f7765726044820152fd5b50333014610195565b346100e75760403660031901126100e75761031c611714565b60246103266115e7565b9160018060a01b03600454163314801561071c575b61034490611793565b6003546040516370a0823160e01b81526001600160a01b039485166004820181905294909360209285928391165afa9182156105b2576000926106e1575b506001600160401b03168091106106a55760405163e1f21c6760e01b8152625880fb60048201523060248201526044810182905260208160648160006101675af180156105b25760009061066b575b6016915060070b03610626576004546001600160a01b03163314801561061d575b6103fb90611793565b600354604051602092916001600160a01b0316906104198482611697565b6000815260003681376040519084820192636b48868360e11b8452608483019060248401528460070b60448401526060606484015281518091528560a4840192019060005b87828210610606578990886000808a8a610481818c03601f198101835282611697565b5190826101675af1610491611755565b90156105fa576040818051810103126100e75760166104bd60406104b6868501611785565b93016117e9565b915b60030b036105be57600454906001600160401b0360a01b9060a01b16906001600160401b0360a01b19161760045560405192630aed65f560e11b8452625880fb600485015230602485015260448401526064830152808260848160006101675af19081156105b25760009161057c575b506016915060070b0361053e57005b60405162461bcd60e51b81526020600482015260166024820152754661696c656420746f207472616e73666572204b455360501b6044820152606490fd5b905081813d83116105ab575b6105928183611697565b810103126100e7576105a56016916117e9565b8261052f565b503d610588565b6040513d6000823e3d90fd5b60405162461bcd60e51b815260048101849052601460248201527311985a5b1959081d1bc8189d5c9b88185cdcd95d60621b6044820152606490fd5b506000601660156104bf565b835160070b8552938401939092019160010161045e565b503330146103f2565b60405162461bcd60e51b815260206004820152601e60248201527f4661696c656420746f206772616e742073656c6620616c6c6f77616e636500006044820152606490fd5b506020813d60201161069d575b8161068560209383611697565b810103126100e7576106986016916117e9565b6103d1565b3d9150610678565b60405162461bcd60e51b8152602060048201526014602482015273496e73756666696369656e742062616c616e636560601b6044820152606490fd5b9091506020813d602011610714575b816106fd60209383611697565b810103126100e75751906001600160401b03610382565b3d91506106f0565b5033301461033b565b346100e75760203660031901126100e75761073e6115d1565b6004546001600160a01b031633148015610785575b61075c90611793565b6001600160a01b031660009081526005602052604090206001908101805460ff19169091179055005b50333014610753565b346100e75760403660031901126100e7576107a76115d1565b60243560018060a01b036004541633148081159182610949575b6107ca90611793565b90610940575b6107d990611793565b60405163e1f21c6760e01b8152625880fb60048201523060248201526044810182905260208160648160006101675af180156105b257600090610906575b6016915060070b036108b757604051630aed65f560e11b8152625880fb60048201523060248201526001600160a01b039092166044830152606482015260208160848160006101675af180156105b25760009061087d575b6016915060070b0361053e57005b506020813d6020116108af575b8161089760209383611697565b810103126100e7576108aa6016916117e9565b61086f565b3d915061088a565b60405162461bcd60e51b815260206004820152602160248201527f4661696c656420746f206772616e7420616c6c6f77616e636520746f2073656c6044820152603360f91b6064820152608490fd5b506020813d602011610938575b8161092060209383611697565b810103126100e7576109336016916117e9565b610817565b3d9150610913565b503330146107d0565b503330146107c1565b346100e75760008061099b61098d610969366115fd565b6040959395949194519485936020850197639b23d3d960e01b89526024860161172a565b03601f198101835282611697565b5190826101675af16109ab611755565b90156109d6576020818051810103126100e7576109cb6020809201611785565b6040519060030b8152f35b50602060156109cb565b346100e75760403660031901126100e75760016109fb611714565b610a036115e7565b828060a01b036004541633148081159182611085575b610a2290611793565b9061107c575b610a3190611793565b6001600160401b03838060a01b0360035416921660070b602092604051610a588582611697565b60008152600095611077575b9085906040518681019163707a02cd60e11b83526084820190602483015285604483015260606064830152845180915260a48201908860a48260051b85010196019185905b8a838310611045575050505050610aca81849503601f198101835282611697565b5190826101675af1610ada611755565b9015611025578051810190606081868401930312610f9257610afd858201611785565b610b09604083016117e9565b916060810151906001600160401b03821161102157019280603f8501121561101d5786840151936001600160401b038511611009578460051b9088820195610b546040519788611697565b865288808088019383010101928311611005576040899101915b838310610fed57509394506016935050505b60030b03610fb1576004805467ffffffffffffffff60a01b60a09390931b9290921667ffffffffffffffff60a01b1983161790556001600160a01b031633148015610fa8575b610bcf90611793565b600354604051634d8fdd6d60e01b81526001600160a01b0390911692908481600481875afa908115610f9d578691610f63575b5015610f1e57610c106117f7565b6001600160a01b039091168152838101829052610c2b6117f7565b30815291677fffffffffffffff198114610f0a57850360070b84830152610c50611816565b928352606091604051610c638482611697565b60028152601f19840186885b828110610ef45750610c98915091610caa949392870192818452610c9282611836565b52611836565b505190610ca482611859565b52611859565b5083604092835190610cbc8583611697565b60018252601f19850186845b828110610ed457505050610cdb82611836565b52610ce581611836565b5083519085820193632f34811960e01b855260448301876024850152825180915260648401918860648360051b87010194019286915b838310610dc957505050505090610d3d8184959303601f198101835282611697565b5190826101675af1610d4d611755565b9015610dbf578281805181010312610dbb57610d6c8360169201611785565b60030b03610d78578280f35b60649250519062461bcd60e51b82526004820152601860248201527f4661696c656420746f2061697264726f7020746f6b656e7300000000000000006044820152fd5b8380fd5b5060166015610d6c565b91939596509193606319878203018352898b8a88518585019260018060a01b0382511686528482015193878688015284518091528560808801950191905b88818310610e9957505050500151928b8183039101528180845192838152019301908d905b858d828410610e515750505050508060019297019301930190928a9695949293610d1b565b845180516001600160a01b0390811689528188015116878901528082015160070b9188019190915201511515868601526080909401938d939092019160019190910190610e2c565b909395858498939660019551868060a01b0381511684528581015160070b8685015201511515908201520195019201918d928f959492610e07565b909192939450610ee2611816565b82828701015201908688949392610cc8565b610efc6117f7565b828286010152018790610c6f565b634e487b7160e01b86526011600452602486fd5b60405162461bcd60e51b815260048101859052601760248201527f546f6b656e206973206e6f74206173736f6369617465640000000000000000006044820152606490fd5b90508481813d8311610f96575b610f7a8183611697565b81010312610f9257518015158103610f925786610c02565b8580fd5b503d610f70565b6040513d88823e3d90fd5b50333014610bc6565b60405162461bcd60e51b815260048101859052601460248201527311985a5b1959081d1bc81b5a5b9d08185cdcd95d60621b6044820152606490fd5b8190610ff8846117e9565b8152019101908890610b6e565b8980fd5b634e487b7160e01b89526041600452602489fd5b8780fd5b8880fd5b506040516110338482611697565b84815284368137508360166015610b80565b80919395975061106460019395979960a3198a820301865288516116d3565b9601920192018a95939192969496610aa9565b610a64565b50333014610a28565b50333014610a19565b346100e75760403660031901126100e7576110a76115d1565b602435906001600160401b0382116100e757366023830112156100e7578160040135906110d3826116b8565b916110e16040519384611697565b80835236602482860101116100e757611144600094938560208461098d9560248499018386013783010152604080516330c6e32f60e11b602082019081526001600160a01b039096166024820152604481019190915292839160648301906116d3565b5190826101675af1611154611755565b907f4af4780e06fe8cb9df64b0794fa6f01399af979175bb988e35e0e57e594567bc6040518215158152604060208201528061119360408201866116d3565b0390a1600090156111c5575060165b6111c160405192839260030b83526040602084015260408301906116d3565b0390f35b60405191506111d5602083611697565b815260156111a2565b346100e75760403660031901126100e7576111f76115d1565b6024359060018060a01b0360045416331480156113c0575b61121890611793565b60025460405163e1f21c6760e01b81526001600160a01b0390911660048201523060248201526044810183905260208160648160006101675af180156105b257600090611386575b6016915060070b0361134257600254604051630aed65f560e11b8152926020928492839261129e92909130906001600160a01b03166004860161172a565b038160006101675af180156105b257600090611308575b6016915060070b036112c357005b60405162461bcd60e51b815260206004820152601860248201527f4661696c656420746f207472616e7366657220617373657400000000000000006044820152606490fd5b506020813d60201161133a575b8161132260209383611697565b810103126100e7576113356016916117e9565b6112b5565b3d9150611315565b606460405162461bcd60e51b815260206004820152602060248201527f4661696c656420746f20617070726f7665206173736574207472616e736665726044820152fd5b506020813d6020116113b8575b816113a060209383611697565b810103126100e7576113b36016916117e9565b611260565b3d9150611393565b5033301461120f565b346100e75760003660031901126100e7576002546040516001600160a01b039091168152602090f35b346100e75760203660031901126100e75761140b6115d1565b600060c060405161141b8161164b565b8281528260208201528260408201528260608201528260808201528260a0820152015260018060a01b0316600052600560205260e06040600020604051906114628261164b565b8054916001600160401b038316928382526001600160401b036020830191818160401c1683528160016040860196828460801c168852606087019360c01c845201549581608087019560ff89161515875260ff60c060a08a0199828c60081c1615158b52019960101c1615158952604051998a52511660208901525116604087015251166060850152511515608084015251151560a083015251151560c0820152f35b346100e75760203660031901126100e75761151e6115d1565b6004546001600160a01b031633148015611568575b61153c90611793565b6001600160a01b0316600090815260056020526040812060018101805462ffffff191661010017905555005b50333014611533565b346100e75760003660031901126100e75760206001600160401b0360045460a01c16604051908152f35b346100e757600061098d8261099b83946115b4366115fd565b630aed65f560e11b6020860190815297939092906024860161172a565b600435906001600160a01b03821682036100e757565b602435906001600160a01b03821682036100e757565b60809060031901126100e7576004356001600160a01b03811681036100e757906024356001600160a01b03811681036100e757906044356001600160a01b03811681036100e7579060643590565b60e081019081106001600160401b0382111761166657604052565b634e487b7160e01b600052604160045260246000fd5b606081019081106001600160401b0382111761166657604052565b90601f801991011681019081106001600160401b0382111761166657604052565b6001600160401b03811161166657601f01601f191660200190565b919082519283825260005b8481106116ff575050826000602080949584010152601f8019910116010190565b806020809284010151828286010152016116de565b600435906001600160401b03821682036100e757565b6001600160a01b03918216815291811660208301529091166040820152606081019190915260800190565b3d15611780573d90611766826116b8565b916117746040519384611697565b82523d6000602084013e565b606090565b51908160030b82036100e757565b1561179a57565b60405162461bcd60e51b815260206004820152602160248201527f4f6e6c792061646d696e2063616e2063616c6c20746869732066756e6374696f6044820152603760f91b6064820152608490fd5b51908160070b82036100e757565b604051906118048261167c565b60006040838281528260208201520152565b604051906118238261167c565b6060604083600081528260208201520152565b8051156118435760200190565b634e487b7160e01b600052603260045260246000fd5b805160011015611843576040019056fea2646970667358221220e25dec2b932c6434eb1a82d077bf67aceb3fb88e13f5b9cf13a4ab0cbc1a4cbd64736f6c634300081d0033a2646970667358221220f0fb547917f6e1f6c1db9c39acfcbc39fb78a0e02a5942de15ebfe5d3c8ad58c64736f6c634300081d0033",
  "linkReferences": {},
  "deployedLinkReferences": {}
}